{"contracts/NFTicket.sol":{"NFTicket":{"abi":[{"inputs":[],"stateMutability":"nonpayable","type":"constructor"},{"anonymous":false,"inputs":[{"indexed":true,"internalType":"address","name":"account","type":"address"},{"indexed":true,"internalType":"address","name":"operator","type":"address"},{"indexed":false,"internalType":"bool","name":"approved","type":"bool"}],"name":"ApprovalForAll","type":"event"},{"anonymous":false,"inputs":[{"indexed":true,"internalType":"address","name":"operator","type":"address"},{"indexed":true,"internalType":"address","name":"from","type":"address"},{"indexed":true,"internalType":"address","name":"to","type":"address"},{"indexed":false,"internalType":"uint256[]","name":"ids","type":"uint256[]"},{"indexed":false,"internalType":"uint256[]","name":"values","type":"uint256[]"}],"name":"TransferBatch","type":"event"},{"anonymous":false,"inputs":[{"indexed":true,"internalType":"address","name":"operator","type":"address"},{"indexed":true,"internalType":"address","name":"from","type":"address"},{"indexed":true,"internalType":"address","name":"to","type":"address"},{"indexed":false,"internalType":"uint256","name":"id","type":"uint256"},{"indexed":false,"internalType":"uint256","name":"value","type":"uint256"}],"name":"TransferSingle","type":"event"},{"anonymous":false,"inputs":[{"indexed":false,"internalType":"string","name":"value","type":"string"},{"indexed":true,"internalType":"uint256","name":"id","type":"uint256"}],"name":"URI","type":"event"},{"inputs":[{"internalType":"address","name":"account","type":"address"},{"internalType":"uint256","name":"id","type":"uint256"}],"name":"balanceOf","outputs":[{"internalType":"uint256","name":"","type":"uint256"}],"stateMutability":"view","type":"function"},{"inputs":[{"internalType":"address[]","name":"accounts","type":"address[]"},{"internalType":"uint256[]","name":"ids","type":"uint256[]"}],"name":"balanceOfBatch","outputs":[{"internalType":"uint256[]","name":"","type":"uint256[]"}],"stateMutability":"view","type":"function"},{"inputs":[{"internalType":"uint256","name":"ga_ticket_amount","type":"uint256"},{"internalType":"uint256","name":"ga_ticket_price","type":"uint256"}],"name":"createEvent","outputs":[{"internalType":"uint256","name":"","type":"uint256"}],"stateMutability":"nonpayable","type":"function"},{"inputs":[],"name":"getLastEventId","outputs":[{"internalType":"uint256","name":"","type":"uint256"}],"stateMutability":"view","type":"function"},{"inputs":[{"internalType":"address","name":"account","type":"address"},{"internalType":"address","name":"operator","type":"address"}],"name":"isApprovedForAll","outputs":[{"internalType":"bool","name":"","type":"bool"}],"stateMutability":"view","type":"function"},{"inputs":[{"internalType":"uint256","name":"eventId","type":"uint256"},{"internalType":"uint256","name":"amount","type":"uint256"}],"name":"mintGATickets","outputs":[],"stateMutability":"payable","type":"function"},{"inputs":[{"internalType":"address","name":"from","type":"address"},{"internalType":"address","name":"to","type":"address"},{"internalType":"uint256[]","name":"ids","type":"uint256[]"},{"internalType":"uint256[]","name":"amounts","type":"uint256[]"},{"internalType":"bytes","name":"data","type":"bytes"}],"name":"safeBatchTransferFrom","outputs":[],"stateMutability":"nonpayable","type":"function"},{"inputs":[{"internalType":"address","name":"from","type":"address"},{"internalType":"address","name":"to","type":"address"},{"internalType":"uint256","name":"id","type":"uint256"},{"internalType":"uint256","name":"amount","type":"uint256"},{"internalType":"bytes","name":"data","type":"bytes"}],"name":"safeTransferFrom","outputs":[],"stateMutability":"nonpayable","type":"function"},{"inputs":[{"internalType":"address","name":"operator","type":"address"},{"internalType":"bool","name":"approved","type":"bool"}],"name":"setApprovalForAll","outputs":[],"stateMutability":"nonpayable","type":"function"},{"inputs":[{"internalType":"string","name":"eventURI","type":"string"}],"name":"setEventUri","outputs":[],"stateMutability":"nonpayable","type":"function"},{"inputs":[{"internalType":"bytes4","name":"interfaceId","type":"bytes4"}],"name":"supportsInterface","outputs":[{"internalType":"bool","name":"","type":"bool"}],"stateMutability":"view","type":"function"},{"inputs":[{"internalType":"uint256","name":"","type":"uint256"}],"name":"uri","outputs":[{"internalType":"string","name":"","type":"string"}],"stateMutability":"view","type":"function"}],"evm":{"bytecode":{"linkReferences":{},"object":"6000600355600a60808181526101e06040529060a0610140803683375050815162000032926004925060200190620000b4565b5060408051600a80825261016082019092529060208201610140803683375050815162000067926005925060200190620000b4565b503480156200007557600080fd5b5060405180608001604052806056815260200162001b98605691396200009b81620000a2565b506200028c565b6002620000b08282620001c0565b5050565b828054828255906000526020600020908101928215620000f2579160200282015b82811115620000f2578251825591602001919060010190620000d5565b506200010092915062000104565b5090565b5b8082111562000100576000815560010162000105565b634e487b7160e01b600052604160045260246000fd5b600181811c908216806200014657607f821691505b6020821081036200016757634e487b7160e01b600052602260045260246000fd5b50919050565b601f821115620001bb57600081815260208120601f850160051c81016020861015620001965750805b601f850160051c820191505b81811015620001b757828155600101620001a2565b5050505b505050565b81516001600160401b03811115620001dc57620001dc6200011b565b620001f481620001ed845462000131565b846200016d565b602080601f8311600181146200022c5760008415620002135750858301515b600019600386901b1c1916600185901b178555620001b7565b600085815260208120601f198616915b828110156200025d578886015182559484019460019091019084016200023c565b50858210156200027c5787850151600019600388901b60f8161c191681555b5050505050600190811b01905550565b6118fc806200029c6000396000f3fe6080604052600436106100a65760003560e01c80634e1273f4116100645780634e1273f414610185578063790c0125146101b2578063920a57dc146101d2578063a22cb465146101f2578063e985e9c514610212578063f242432a1461025b57600080fd5b8062fdd58e146100ab57806301ffc9a7146100de5780630e89341c1461010e578063201d995a1461013b5780632eb2c2d614610150578063478b9a1f14610170575b600080fd5b3480156100b757600080fd5b506100cb6100c6366004610f10565b61027b565b6040519081526020015b60405180910390f35b3480156100ea57600080fd5b506100fe6100f9366004610f50565b610314565b60405190151581526020016100d5565b34801561011a57600080fd5b5061012e610129366004610f74565b610364565b6040516100d59190610fd3565b61014e610149366004610fe6565b6103f8565b005b34801561015c57600080fd5b5061014e61016b36600461115e565b610543565b34801561017c57600080fd5b506003546100cb565b34801561019157600080fd5b506101a56101a0366004611208565b61058f565b6040516100d5919061130e565b3480156101be57600080fd5b506100cb6101cd366004610fe6565b6106b9565b3480156101de57600080fd5b5061014e6101ed366004611321565b61070f565b3480156101fe57600080fd5b5061014e61020d366004611372565b61071b565b34801561021e57600080fd5b506100fe61022d3660046113ae565b6001600160a01b03918216600090815260016020908152604080832093909416825291909152205460ff1690565b34801561026757600080fd5b5061014e6102763660046113e1565b61072a565b60006001600160a01b0383166102eb5760405162461bcd60e51b815260206004820152602a60248201527f455243313135353a2061646472657373207a65726f206973206e6f742061207660448201526930b634b21037bbb732b960b11b60648201526084015b60405180910390fd5b506000818152602081815260408083206001600160a01b03861684529091529020545b92915050565b60006001600160e01b03198216636cdb3d1360e11b148061034557506001600160e01b031982166303a24d0760e21b145b8061030e57506301ffc9a760e01b6001600160e01b031983161461030e565b60606002805461037390611446565b80601f016020809104026020016040519081016040528092919081815260200182805461039f90611446565b80156103ec5780601f106103c1576101008083540402835291602001916103ec565b820191906000526020600020905b8154815290600101906020018083116103cf57829003601f168201915b50505050509050919050565b806005838154811061040c5761040c611480565b906000526020600020015461042191906114ac565b341461046f5760405162461bcd60e51b815260206004820152601760248201527f496e636f727265637420416d6f756e74206f662045544800000000000000000060448201526064016102e2565b806004838154811061048357610483611480565b906000526020600020015410156104dc5760405162461bcd60e51b815260206004820152601e60248201527f496e73756666696369656e74207469636b6574732072656d61696e696e67000060448201526064016102e2565b6104f73383836040518060200160405280600081525061076f565b806004838154811061050b5761050b611480565b906000526020600020015461052091906114c3565b6004838154811061053357610533611480565b6000918252602090912001555050565b6001600160a01b03851633148061055f575061055f853361022d565b61057b5760405162461bcd60e51b81526004016102e2906114d6565b6105888585858585610883565b5050505050565b606081518351146105f45760405162461bcd60e51b815260206004820152602960248201527f455243313135353a206163636f756e747320616e6420696473206c656e677468604482015268040dad2e6dac2e8c6d60bb1b60648201526084016102e2565b6000835167ffffffffffffffff81111561061057610610611008565b604051908082528060200260200182016040528015610639578160200160208202803683370190505b50905060005b84518110156106b15761068485828151811061065d5761065d611480565b602002602001015185838151811061067757610677611480565b602002602001015161027b565b82828151811061069657610696611480565b60209081029190910101526106aa81611524565b905061063f565b509392505050565b6000806106c4610a60565b905083600482815481106106da576106da611480565b906000526020600020018190555082600582815481106106fc576106fc611480565b6000918252602090912001559392505050565b61071881610a7d565b50565b610726338383610a89565b5050565b6001600160a01b0385163314806107465750610746853361022d565b6107625760405162461bcd60e51b81526004016102e2906114d6565b6105888585858585610b69565b6001600160a01b0384166107cf5760405162461bcd60e51b815260206004820152602160248201527f455243313135353a206d696e7420746f20746865207a65726f206164647265736044820152607360f81b60648201526084016102e2565b3360006107db85610c93565b905060006107e885610c93565b90506000868152602081815260408083206001600160a01b038b1684529091528120805487929061081a90849061153d565b909155505060408051878152602081018790526001600160a01b03808a1692600092918716917fc3d58168c5ae7397731d063d5bbf3d657854427343f4c083240f7aacaa2d0f62910160405180910390a461087a83600089898989610cde565b50505050505050565b81518351146108e55760405162461bcd60e51b815260206004820152602860248201527f455243313135353a2069647320616e6420616d6f756e7473206c656e677468206044820152670dad2e6dac2e8c6d60c31b60648201526084016102e2565b6001600160a01b03841661090b5760405162461bcd60e51b81526004016102e290611550565b3360005b84518110156109f257600085828151811061092c5761092c611480565b60200260200101519050600085838151811061094a5761094a611480565b602090810291909101810151600084815280835260408082206001600160a01b038e16835290935291909120549091508181101561099a5760405162461bcd60e51b81526004016102e290611595565b6000838152602081815260408083206001600160a01b038e8116855292528083208585039055908b168252812080548492906109d790849061153d565b92505081905550505050806109eb90611524565b905061090f565b50846001600160a01b0316866001600160a01b0316826001600160a01b03167f4a39dc06d4c0dbc64b70af90fd698a233a518aa5d07e595d983b8c0526c8f7fb8787604051610a429291906115df565b60405180910390a4610a58818787878787610e39565b505050505050565b6000806003546001610a72919061153d565b600381905592915050565b60026107268282611658565b816001600160a01b0316836001600160a01b031603610afc5760405162461bcd60e51b815260206004820152602960248201527f455243313135353a2073657474696e6720617070726f76616c20737461747573604482015268103337b91039b2b63360b91b60648201526084016102e2565b6001600160a01b03838116600081815260016020908152604080832094871680845294825291829020805460ff191686151590811790915591519182527f17307eab39ab6107e8899845ad3d59bd9653f200f220920489ca2b5937696c31910160405180910390a3505050565b6001600160a01b038416610b8f5760405162461bcd60e51b81526004016102e290611550565b336000610b9b85610c93565b90506000610ba885610c93565b90506000868152602081815260408083206001600160a01b038c16845290915290205485811015610beb5760405162461bcd60e51b81526004016102e290611595565b6000878152602081815260408083206001600160a01b038d8116855292528083208985039055908a16825281208054889290610c2890849061153d565b909155505060408051888152602081018890526001600160a01b03808b16928c821692918816917fc3d58168c5ae7397731d063d5bbf3d657854427343f4c083240f7aacaa2d0f62910160405180910390a4610c88848a8a8a8a8a610cde565b505050505050505050565b60408051600180825281830190925260609160009190602080830190803683370190505090508281600081518110610ccd57610ccd611480565b602090810291909101015292915050565b6001600160a01b0384163b15610a585760405163f23a6e6160e01b81526001600160a01b0385169063f23a6e6190610d229089908990889088908890600401611718565b6020604051808303816000875af1925050508015610d5d575060408051601f3d908101601f19168201909252610d5a9181019061175d565b60015b610e0957610d6961177a565b806308c379a003610da25750610d7d611796565b80610d885750610da4565b8060405162461bcd60e51b81526004016102e29190610fd3565b505b60405162461bcd60e51b815260206004820152603460248201527f455243313135353a207472616e7366657220746f206e6f6e2d455243313135356044820152732932b1b2b4bb32b91034b6b83632b6b2b73a32b960611b60648201526084016102e2565b6001600160e01b0319811663f23a6e6160e01b1461087a5760405162461bcd60e51b81526004016102e290611820565b6001600160a01b0384163b15610a585760405163bc197c8160e01b81526001600160a01b0385169063bc197c8190610e7d9089908990889088908890600401611868565b6020604051808303816000875af1925050508015610eb8575060408051601f3d908101601f19168201909252610eb59181019061175d565b60015b610ec457610d6961177a565b6001600160e01b0319811663bc197c8160e01b1461087a5760405162461bcd60e51b81526004016102e290611820565b80356001600160a01b0381168114610f0b57600080fd5b919050565b60008060408385031215610f2357600080fd5b610f2c83610ef4565b946020939093013593505050565b6001600160e01b03198116811461071857600080fd5b600060208284031215610f6257600080fd5b8135610f6d81610f3a565b9392505050565b600060208284031215610f8657600080fd5b5035919050565b6000815180845260005b81811015610fb357602081850181015186830182015201610f97565b506000602082860101526020601f19601f83011685010191505092915050565b602081526000610f6d6020830184610f8d565b60008060408385031215610ff957600080fd5b50508035926020909101359150565b634e487b7160e01b600052604160045260246000fd5b601f8201601f1916810167ffffffffffffffff8111828210171561104457611044611008565b6040525050565b600067ffffffffffffffff82111561106557611065611008565b5060051b60200190565b600082601f83011261108057600080fd5b8135602061108d8261104b565b60405161109a828261101e565b83815260059390931b85018201928281019150868411156110ba57600080fd5b8286015b848110156110d557803583529183019183016110be565b509695505050505050565b600067ffffffffffffffff8311156110fa576110fa611008565b604051611111601f8501601f19166020018261101e565b80915083815284848401111561112657600080fd5b83836020830137600060208583010152509392505050565b600082601f83011261114f57600080fd5b610f6d838335602085016110e0565b600080600080600060a0868803121561117657600080fd5b61117f86610ef4565b945061118d60208701610ef4565b9350604086013567ffffffffffffffff808211156111aa57600080fd5b6111b689838a0161106f565b945060608801359150808211156111cc57600080fd5b6111d889838a0161106f565b935060808801359150808211156111ee57600080fd5b506111fb8882890161113e565b9150509295509295909350565b6000806040838503121561121b57600080fd5b823567ffffffffffffffff8082111561123357600080fd5b818501915085601f83011261124757600080fd5b813560206112548261104b565b604051611261828261101e565b83815260059390931b850182019282810191508984111561128157600080fd5b948201945b838610156112a65761129786610ef4565b82529482019490820190611286565b965050860135925050808211156112bc57600080fd5b506112c98582860161106f565b9150509250929050565b600081518084526020808501945080840160005b83811015611303578151875295820195908201906001016112e7565b509495945050505050565b602081526000610f6d60208301846112d3565b60006020828403121561133357600080fd5b813567ffffffffffffffff81111561134a57600080fd5b8201601f8101841361135b57600080fd5b61136a848235602084016110e0565b949350505050565b6000806040838503121561138557600080fd5b61138e83610ef4565b9150602083013580151581146113a357600080fd5b809150509250929050565b600080604083850312156113c157600080fd5b6113ca83610ef4565b91506113d860208401610ef4565b90509250929050565b600080600080600060a086880312156113f957600080fd5b61140286610ef4565b945061141060208701610ef4565b93506040860135925060608601359150608086013567ffffffffffffffff81111561143a57600080fd5b6111fb8882890161113e565b600181811c9082168061145a57607f821691505b60208210810361147a57634e487b7160e01b600052602260045260246000fd5b50919050565b634e487b7160e01b600052603260045260246000fd5b634e487b7160e01b600052601160045260246000fd5b808202811582820484141761030e5761030e611496565b8181038181111561030e5761030e611496565b6020808252602e908201527f455243313135353a2063616c6c6572206973206e6f7420746f6b656e206f776e60408201526d195c881bdc88185c1c1c9bdd995960921b606082015260800190565b60006001820161153657611536611496565b5060010190565b8082018082111561030e5761030e611496565b60208082526025908201527f455243313135353a207472616e7366657220746f20746865207a65726f206164604082015264647265737360d81b606082015260800190565b6020808252602a908201527f455243313135353a20696e73756666696369656e742062616c616e636520666f60408201526939103a3930b739b332b960b11b606082015260800190565b6040815260006115f260408301856112d3565b828103602084015261160481856112d3565b95945050505050565b601f82111561165357600081815260208120601f850160051c810160208610156116345750805b601f850160051c820191505b81811015610a5857828155600101611640565b505050565b815167ffffffffffffffff81111561167257611672611008565b611686816116808454611446565b8461160d565b602080601f8311600181146116bb57600084156116a35750858301515b600019600386901b1c1916600185901b178555610a58565b600085815260208120601f198616915b828110156116ea578886015182559484019460019091019084016116cb565b50858210156117085787850151600019600388901b60f8161c191681555b5050505050600190811b01905550565b6001600160a01b03868116825285166020820152604081018490526060810183905260a06080820181905260009061175290830184610f8d565b979650505050505050565b60006020828403121561176f57600080fd5b8151610f6d81610f3a565b600060033d11156117935760046000803e5060005160e01c5b90565b600060443d10156117a45790565b6040516003193d81016004833e81513d67ffffffffffffffff81602484011181841117156117d457505050505090565b82850191508151818111156117ec5750505050505090565b843d87010160208285010111156118065750505050505090565b6118156020828601018761101e565b509095945050505050565b60208082526028908201527f455243313135353a204552433131353552656365697665722072656a656374656040820152676420746f6b656e7360c01b606082015260800190565b6001600160a01b0386811682528516602082015260a060408201819052600090611894908301866112d3565b82810360608401526118a681866112d3565b905082810360808401526118ba8185610f8d565b9897505050505050505056fea264697066735822122064eec648e6fbfad58e587ed1bbced4b79ff4321f98a59b6bf2f0ad0aed20eea464736f6c6343000811003368747470733a2f2f697066732e696f2f697066732f516d5a48455254594c5342334561547a6d77434d58596b64534e7677665a6d365a4c63746f50374a727344486d613f66696c656e616d653d7b69647d2e6a736f6e","opcodes":"PUSH1 0x0 PUSH1 0x3 SSTORE PUSH1 0xA PUSH1 0x80 DUP2 DUP2 MSTORE PUSH2 0x1E0 PUSH1 0x40 MSTORE SWAP1 PUSH1 0xA0 PUSH2 0x140 DUP1 CALLDATASIZE DUP4 CALLDATACOPY POP POP DUP2 MLOAD PUSH3 0x32 SWAP3 PUSH1 0x4 SWAP3 POP PUSH1 0x20 ADD SWAP1 PUSH3 0xB4 JUMP JUMPDEST POP PUSH1 0x40 DUP1 MLOAD PUSH1 0xA DUP1 DUP3 MSTORE PUSH2 0x160 DUP3 ADD SWAP1 SWAP3 MSTORE SWAP1 PUSH1 0x20 DUP3 ADD PUSH2 0x140 DUP1 CALLDATASIZE DUP4 CALLDATACOPY POP POP DUP2 MLOAD PUSH3 0x67 SWAP3 PUSH1 0x5 SWAP3 POP PUSH1 0x20 ADD SWAP1 PUSH3 0xB4 JUMP JUMPDEST POP CALLVALUE DUP1 ISZERO PUSH3 0x75 JUMPI PUSH1 0x0 DUP1 REVERT JUMPDEST POP PUSH1 0x40 MLOAD DUP1 PUSH1 0x80 ADD PUSH1 0x40 MSTORE DUP1 PUSH1 0x56 DUP2 MSTORE PUSH1 0x20 ADD PUSH3 0x1B98 PUSH1 0x56 SWAP2 CODECOPY PUSH3 0x9B DUP2 PUSH3 0xA2 JUMP JUMPDEST POP PUSH3 0x28C JUMP JUMPDEST PUSH1 0x2 PUSH3 0xB0 DUP3 DUP3 PUSH3 0x1C0 JUMP JUMPDEST POP POP JUMP JUMPDEST DUP3 DUP1 SLOAD DUP3 DUP3 SSTORE SWAP1 PUSH1 0x0 MSTORE PUSH1 0x20 PUSH1 0x0 KECCAK256 SWAP1 DUP2 ADD SWAP3 DUP3 ISZERO PUSH3 0xF2 JUMPI SWAP2 PUSH1 0x20 MUL DUP3 ADD JUMPDEST DUP3 DUP2 GT ISZERO PUSH3 0xF2 JUMPI DUP3 MLOAD DUP3 SSTORE SWAP2 PUSH1 0x20 ADD SWAP2 SWAP1 PUSH1 0x1 ADD SWAP1 PUSH3 0xD5 JUMP JUMPDEST POP PUSH3 0x100 SWAP3 SWAP2 POP PUSH3 0x104 JUMP JUMPDEST POP SWAP1 JUMP JUMPDEST JUMPDEST DUP1 DUP3 GT ISZERO PUSH3 0x100 JUMPI PUSH1 0x0 DUP2 SSTORE PUSH1 0x1 ADD PUSH3 0x105 JUMP JUMPDEST PUSH4 0x4E487B71 PUSH1 0xE0 SHL PUSH1 0x0 MSTORE PUSH1 0x41 PUSH1 0x4 MSTORE PUSH1 0x24 PUSH1 0x0 REVERT JUMPDEST PUSH1 0x1 DUP2 DUP2 SHR SWAP1 DUP3 AND DUP1 PUSH3 0x146 JUMPI PUSH1 0x7F DUP3 AND SWAP2 POP JUMPDEST PUSH1 0x20 DUP3 LT DUP2 SUB PUSH3 0x167 JUMPI PUSH4 0x4E487B71 PUSH1 0xE0 SHL PUSH1 0x0 MSTORE PUSH1 0x22 PUSH1 0x4 MSTORE PUSH1 0x24 PUSH1 0x0 REVERT JUMPDEST POP SWAP2 SWAP1 POP JUMP JUMPDEST PUSH1 0x1F DUP3 GT ISZERO PUSH3 0x1BB JUMPI PUSH1 0x0 DUP2 DUP2 MSTORE PUSH1 0x20 DUP2 KECCAK256 PUSH1 0x1F DUP6 ADD PUSH1 0x5 SHR DUP2 ADD PUSH1 0x20 DUP7 LT ISZERO PUSH3 0x196 JUMPI POP DUP1 JUMPDEST PUSH1 0x1F DUP6 ADD PUSH1 0x5 SHR DUP3 ADD SWAP2 POP JUMPDEST DUP2 DUP2 LT ISZERO PUSH3 0x1B7 JUMPI DUP3 DUP2 SSTORE PUSH1 0x1 ADD PUSH3 0x1A2 JUMP JUMPDEST POP POP POP JUMPDEST POP POP POP JUMP JUMPDEST DUP2 MLOAD PUSH1 0x1 PUSH1 0x1 PUSH1 0x40 SHL SUB DUP2 GT ISZERO PUSH3 0x1DC JUMPI PUSH3 0x1DC PUSH3 0x11B JUMP JUMPDEST PUSH3 0x1F4 DUP2 PUSH3 0x1ED DUP5 SLOAD PUSH3 0x131 JUMP JUMPDEST DUP5 PUSH3 0x16D JUMP JUMPDEST PUSH1 0x20 DUP1 PUSH1 0x1F DUP4 GT PUSH1 0x1 DUP2 EQ PUSH3 0x22C JUMPI PUSH1 0x0 DUP5 ISZERO PUSH3 0x213 JUMPI POP DUP6 DUP4 ADD MLOAD JUMPDEST PUSH1 0x0 NOT PUSH1 0x3 DUP7 SWAP1 SHL SHR NOT AND PUSH1 0x1 DUP6 SWAP1 SHL OR DUP6 SSTORE PUSH3 0x1B7 JUMP JUMPDEST PUSH1 0x0 DUP6 DUP2 MSTORE PUSH1 0x20 DUP2 KECCAK256 PUSH1 0x1F NOT DUP7 AND SWAP2 JUMPDEST DUP3 DUP2 LT ISZERO PUSH3 0x25D JUMPI DUP9 DUP7 ADD MLOAD DUP3 SSTORE SWAP5 DUP5 ADD SWAP5 PUSH1 0x1 SWAP1 SWAP2 ADD SWAP1 DUP5 ADD PUSH3 0x23C JUMP JUMPDEST POP DUP6 DUP3 LT ISZERO PUSH3 0x27C JUMPI DUP8 DUP6 ADD MLOAD PUSH1 0x0 NOT PUSH1 0x3 DUP9 SWAP1 SHL PUSH1 0xF8 AND SHR NOT AND DUP2 SSTORE JUMPDEST POP POP POP POP POP PUSH1 0x1 SWAP1 DUP2 SHL ADD SWAP1 SSTORE POP JUMP JUMPDEST PUSH2 0x18FC DUP1 PUSH3 0x29C PUSH1 0x0 CODECOPY PUSH1 0x0 RETURN INVALID PUSH1 0x80 PUSH1 0x40 MSTORE PUSH1 0x4 CALLDATASIZE LT PUSH2 0xA6 JUMPI PUSH1 0x0 CALLDATALOAD PUSH1 0xE0 SHR DUP1 PUSH4 0x4E1273F4 GT PUSH2 0x64 JUMPI DUP1 PUSH4 0x4E1273F4 EQ PUSH2 0x185 JUMPI DUP1 PUSH4 0x790C0125 EQ PUSH2 0x1B2 JUMPI DUP1 PUSH4 0x920A57DC EQ PUSH2 0x1D2 JUMPI DUP1 PUSH4 0xA22CB465 EQ PUSH2 0x1F2 JUMPI DUP1 PUSH4 0xE985E9C5 EQ PUSH2 0x212 JUMPI DUP1 PUSH4 0xF242432A EQ PUSH2 0x25B JUMPI PUSH1 0x0 DUP1 REVERT JUMPDEST DUP1 PUSH3 0xFDD58E EQ PUSH2 0xAB JUMPI DUP1 PUSH4 0x1FFC9A7 EQ PUSH2 0xDE JUMPI DUP1 PUSH4 0xE89341C EQ PUSH2 0x10E JUMPI DUP1 PUSH4 0x201D995A EQ PUSH2 0x13B JUMPI DUP1 PUSH4 0x2EB2C2D6 EQ PUSH2 0x150 JUMPI DUP1 PUSH4 0x478B9A1F EQ PUSH2 0x170 JUMPI JUMPDEST PUSH1 0x0 DUP1 REVERT JUMPDEST CALLVALUE DUP1 ISZERO PUSH2 0xB7 JUMPI PUSH1 0x0 DUP1 REVERT JUMPDEST POP PUSH2 0xCB PUSH2 0xC6 CALLDATASIZE PUSH1 0x4 PUSH2 0xF10 JUMP JUMPDEST PUSH2 0x27B JUMP JUMPDEST PUSH1 0x40 MLOAD SWAP1 DUP2 MSTORE PUSH1 0x20 ADD JUMPDEST PUSH1 0x40 MLOAD DUP1 SWAP2 SUB SWAP1 RETURN JUMPDEST CALLVALUE DUP1 ISZERO PUSH2 0xEA JUMPI PUSH1 0x0 DUP1 REVERT JUMPDEST POP PUSH2 0xFE PUSH2 0xF9 CALLDATASIZE PUSH1 0x4 PUSH2 0xF50 JUMP JUMPDEST PUSH2 0x314 JUMP JUMPDEST PUSH1 0x40 MLOAD SWAP1 ISZERO ISZERO DUP2 MSTORE PUSH1 0x20 ADD PUSH2 0xD5 JUMP JUMPDEST CALLVALUE DUP1 ISZERO PUSH2 0x11A JUMPI PUSH1 0x0 DUP1 REVERT JUMPDEST POP PUSH2 0x12E PUSH2 0x129 CALLDATASIZE PUSH1 0x4 PUSH2 0xF74 JUMP JUMPDEST PUSH2 0x364 JUMP JUMPDEST PUSH1 0x40 MLOAD PUSH2 0xD5 SWAP2 SWAP1 PUSH2 0xFD3 JUMP JUMPDEST PUSH2 0x14E PUSH2 0x149 CALLDATASIZE PUSH1 0x4 PUSH2 0xFE6 JUMP JUMPDEST PUSH2 0x3F8 JUMP JUMPDEST STOP JUMPDEST CALLVALUE DUP1 ISZERO PUSH2 0x15C JUMPI PUSH1 0x0 DUP1 REVERT JUMPDEST POP PUSH2 0x14E PUSH2 0x16B CALLDATASIZE PUSH1 0x4 PUSH2 0x115E JUMP JUMPDEST PUSH2 0x543 JUMP JUMPDEST CALLVALUE DUP1 ISZERO PUSH2 0x17C JUMPI PUSH1 0x0 DUP1 REVERT JUMPDEST POP PUSH1 0x3 SLOAD PUSH2 0xCB JUMP JUMPDEST CALLVALUE DUP1 ISZERO PUSH2 0x191 JUMPI PUSH1 0x0 DUP1 REVERT JUMPDEST POP PUSH2 0x1A5 PUSH2 0x1A0 CALLDATASIZE PUSH1 0x4 PUSH2 0x1208 JUMP JUMPDEST PUSH2 0x58F JUMP JUMPDEST PUSH1 0x40 MLOAD PUSH2 0xD5 SWAP2 SWAP1 PUSH2 0x130E JUMP JUMPDEST CALLVALUE DUP1 ISZERO PUSH2 0x1BE JUMPI PUSH1 0x0 DUP1 REVERT JUMPDEST POP PUSH2 0xCB PUSH2 0x1CD CALLDATASIZE PUSH1 0x4 PUSH2 0xFE6 JUMP JUMPDEST PUSH2 0x6B9 JUMP JUMPDEST CALLVALUE DUP1 ISZERO PUSH2 0x1DE JUMPI PUSH1 0x0 DUP1 REVERT JUMPDEST POP PUSH2 0x14E PUSH2 0x1ED CALLDATASIZE PUSH1 0x4 PUSH2 0x1321 JUMP JUMPDEST PUSH2 0x70F JUMP JUMPDEST CALLVALUE DUP1 ISZERO PUSH2 0x1FE JUMPI PUSH1 0x0 DUP1 REVERT JUMPDEST POP PUSH2 0x14E PUSH2 0x20D CALLDATASIZE PUSH1 0x4 PUSH2 0x1372 JUMP JUMPDEST PUSH2 0x71B JUMP JUMPDEST CALLVALUE DUP1 ISZERO PUSH2 0x21E JUMPI PUSH1 0x0 DUP1 REVERT JUMPDEST POP PUSH2 0xFE PUSH2 0x22D CALLDATASIZE PUSH1 0x4 PUSH2 0x13AE JUMP JUMPDEST PUSH1 0x1 PUSH1 0x1 PUSH1 0xA0 SHL SUB SWAP2 DUP3 AND PUSH1 0x0 SWAP1 DUP2 MSTORE PUSH1 0x1 PUSH1 0x20 SWAP1 DUP2 MSTORE PUSH1 0x40 DUP1 DUP4 KECCAK256 SWAP4 SWAP1 SWAP5 AND DUP3 MSTORE SWAP2 SWAP1 SWAP2 MSTORE KECCAK256 SLOAD PUSH1 0xFF AND SWAP1 JUMP JUMPDEST CALLVALUE DUP1 ISZERO PUSH2 0x267 JUMPI PUSH1 0x0 DUP1 REVERT JUMPDEST POP PUSH2 0x14E PUSH2 0x276 CALLDATASIZE PUSH1 0x4 PUSH2 0x13E1 JUMP JUMPDEST PUSH2 0x72A JUMP JUMPDEST PUSH1 0x0 PUSH1 0x1 PUSH1 0x1 PUSH1 0xA0 SHL SUB DUP4 AND PUSH2 0x2EB JUMPI PUSH1 0x40 MLOAD PUSH3 0x461BCD PUSH1 0xE5 SHL DUP2 MSTORE PUSH1 0x20 PUSH1 0x4 DUP3 ADD MSTORE PUSH1 0x2A PUSH1 0x24 DUP3 ADD MSTORE PUSH32 0x455243313135353A2061646472657373207A65726F206973206E6F7420612076 PUSH1 0x44 DUP3 ADD MSTORE PUSH10 0x30B634B21037BBB732B9 PUSH1 0xB1 SHL PUSH1 0x64 DUP3 ADD MSTORE PUSH1 0x84 ADD JUMPDEST PUSH1 0x40 MLOAD DUP1 SWAP2 SUB SWAP1 REVERT JUMPDEST POP PUSH1 0x0 DUP2 DUP2 MSTORE PUSH1 0x20 DUP2 DUP2 MSTORE PUSH1 0x40 DUP1 DUP4 KECCAK256 PUSH1 0x1 PUSH1 0x1 PUSH1 0xA0 SHL SUB DUP7 AND DUP5 MSTORE SWAP1 SWAP2 MSTORE SWAP1 KECCAK256 SLOAD JUMPDEST SWAP3 SWAP2 POP POP JUMP JUMPDEST PUSH1 0x0 PUSH1 0x1 PUSH1 0x1 PUSH1 0xE0 SHL SUB NOT DUP3 AND PUSH4 0x6CDB3D13 PUSH1 0xE1 SHL EQ DUP1 PUSH2 0x345 JUMPI POP PUSH1 0x1 PUSH1 0x1 PUSH1 0xE0 SHL SUB NOT DUP3 AND PUSH4 0x3A24D07 PUSH1 0xE2 SHL EQ JUMPDEST DUP1 PUSH2 0x30E JUMPI POP PUSH4 0x1FFC9A7 PUSH1 0xE0 SHL PUSH1 0x1 PUSH1 0x1 PUSH1 0xE0 SHL SUB NOT DUP4 AND EQ PUSH2 0x30E JUMP JUMPDEST PUSH1 0x60 PUSH1 0x2 DUP1 SLOAD PUSH2 0x373 SWAP1 PUSH2 0x1446 JUMP JUMPDEST DUP1 PUSH1 0x1F ADD PUSH1 0x20 DUP1 SWAP2 DIV MUL PUSH1 0x20 ADD PUSH1 0x40 MLOAD SWAP1 DUP2 ADD PUSH1 0x40 MSTORE DUP1 SWAP3 SWAP2 SWAP1 DUP2 DUP2 MSTORE PUSH1 0x20 ADD DUP3 DUP1 SLOAD PUSH2 0x39F SWAP1 PUSH2 0x1446 JUMP JUMPDEST DUP1 ISZERO PUSH2 0x3EC JUMPI DUP1 PUSH1 0x1F LT PUSH2 0x3C1 JUMPI PUSH2 0x100 DUP1 DUP4 SLOAD DIV MUL DUP4 MSTORE SWAP2 PUSH1 0x20 ADD SWAP2 PUSH2 0x3EC JUMP JUMPDEST DUP3 ADD SWAP2 SWAP1 PUSH1 0x0 MSTORE PUSH1 0x20 PUSH1 0x0 KECCAK256 SWAP1 JUMPDEST DUP2 SLOAD DUP2 MSTORE SWAP1 PUSH1 0x1 ADD SWAP1 PUSH1 0x20 ADD DUP1 DUP4 GT PUSH2 0x3CF JUMPI DUP3 SWAP1 SUB PUSH1 0x1F AND DUP3 ADD SWAP2 JUMPDEST POP POP POP POP POP SWAP1 POP SWAP2 SWAP1 POP JUMP JUMPDEST DUP1 PUSH1 0x5 DUP4 DUP2 SLOAD DUP2 LT PUSH2 0x40C JUMPI PUSH2 0x40C PUSH2 0x1480 JUMP JUMPDEST SWAP1 PUSH1 0x0 MSTORE PUSH1 0x20 PUSH1 0x0 KECCAK256 ADD SLOAD PUSH2 0x421 SWAP2 SWAP1 PUSH2 0x14AC JUMP JUMPDEST CALLVALUE EQ PUSH2 0x46F JUMPI PUSH1 0x40 MLOAD PUSH3 0x461BCD PUSH1 0xE5 SHL DUP2 MSTORE PUSH1 0x20 PUSH1 0x4 DUP3 ADD MSTORE PUSH1 0x17 PUSH1 0x24 DUP3 ADD MSTORE PUSH32 0x496E636F727265637420416D6F756E74206F6620455448000000000000000000 PUSH1 0x44 DUP3 ADD MSTORE PUSH1 0x64 ADD PUSH2 0x2E2 JUMP JUMPDEST DUP1 PUSH1 0x4 DUP4 DUP2 SLOAD DUP2 LT PUSH2 0x483 JUMPI PUSH2 0x483 PUSH2 0x1480 JUMP JUMPDEST SWAP1 PUSH1 0x0 MSTORE PUSH1 0x20 PUSH1 0x0 KECCAK256 ADD SLOAD LT ISZERO PUSH2 0x4DC JUMPI PUSH1 0x40 MLOAD PUSH3 0x461BCD PUSH1 0xE5 SHL DUP2 MSTORE PUSH1 0x20 PUSH1 0x4 DUP3 ADD MSTORE PUSH1 0x1E PUSH1 0x24 DUP3 ADD MSTORE PUSH32 0x496E73756666696369656E74207469636B6574732072656D61696E696E670000 PUSH1 0x44 DUP3 ADD MSTORE PUSH1 0x64 ADD PUSH2 0x2E2 JUMP JUMPDEST PUSH2 0x4F7 CALLER DUP4 DUP4 PUSH1 0x40 MLOAD DUP1 PUSH1 0x20 ADD PUSH1 0x40 MSTORE DUP1 PUSH1 0x0 DUP2 MSTORE POP PUSH2 0x76F JUMP JUMPDEST DUP1 PUSH1 0x4 DUP4 DUP2 SLOAD DUP2 LT PUSH2 0x50B JUMPI PUSH2 0x50B PUSH2 0x1480 JUMP JUMPDEST SWAP1 PUSH1 0x0 MSTORE PUSH1 0x20 PUSH1 0x0 KECCAK256 ADD SLOAD PUSH2 0x520 SWAP2 SWAP1 PUSH2 0x14C3 JUMP JUMPDEST PUSH1 0x4 DUP4 DUP2 SLOAD DUP2 LT PUSH2 0x533 JUMPI PUSH2 0x533 PUSH2 0x1480 JUMP JUMPDEST PUSH1 0x0 SWAP2 DUP3 MSTORE PUSH1 0x20 SWAP1 SWAP2 KECCAK256 ADD SSTORE POP POP JUMP JUMPDEST PUSH1 0x1 PUSH1 0x1 PUSH1 0xA0 SHL SUB DUP6 AND CALLER EQ DUP1 PUSH2 0x55F JUMPI POP PUSH2 0x55F DUP6 CALLER PUSH2 0x22D JUMP JUMPDEST PUSH2 0x57B JUMPI PUSH1 0x40 MLOAD PUSH3 0x461BCD PUSH1 0xE5 SHL DUP2 MSTORE PUSH1 0x4 ADD PUSH2 0x2E2 SWAP1 PUSH2 0x14D6 JUMP JUMPDEST PUSH2 0x588 DUP6 DUP6 DUP6 DUP6 DUP6 PUSH2 0x883 JUMP JUMPDEST POP POP POP POP POP JUMP JUMPDEST PUSH1 0x60 DUP2 MLOAD DUP4 MLOAD EQ PUSH2 0x5F4 JUMPI PUSH1 0x40 MLOAD PUSH3 0x461BCD PUSH1 0xE5 SHL DUP2 MSTORE PUSH1 0x20 PUSH1 0x4 DUP3 ADD MSTORE PUSH1 0x29 PUSH1 0x24 DUP3 ADD MSTORE PUSH32 0x455243313135353A206163636F756E747320616E6420696473206C656E677468 PUSH1 0x44 DUP3 ADD MSTORE PUSH9 0x40DAD2E6DAC2E8C6D PUSH1 0xBB SHL PUSH1 0x64 DUP3 ADD MSTORE PUSH1 0x84 ADD PUSH2 0x2E2 JUMP JUMPDEST PUSH1 0x0 DUP4 MLOAD PUSH8 0xFFFFFFFFFFFFFFFF DUP2 GT ISZERO PUSH2 0x610 JUMPI PUSH2 0x610 PUSH2 0x1008 JUMP JUMPDEST PUSH1 0x40 MLOAD SWAP1 DUP1 DUP3 MSTORE DUP1 PUSH1 0x20 MUL PUSH1 0x20 ADD DUP3 ADD PUSH1 0x40 MSTORE DUP1 ISZERO PUSH2 0x639 JUMPI DUP2 PUSH1 0x20 ADD PUSH1 0x20 DUP3 MUL DUP1 CALLDATASIZE DUP4 CALLDATACOPY ADD SWAP1 POP JUMPDEST POP SWAP1 POP PUSH1 0x0 JUMPDEST DUP5 MLOAD DUP2 LT ISZERO PUSH2 0x6B1 JUMPI PUSH2 0x684 DUP6 DUP3 DUP2 MLOAD DUP2 LT PUSH2 0x65D JUMPI PUSH2 0x65D PUSH2 0x1480 JUMP JUMPDEST PUSH1 0x20 MUL PUSH1 0x20 ADD ADD MLOAD DUP6 DUP4 DUP2 MLOAD DUP2 LT PUSH2 0x677 JUMPI PUSH2 0x677 PUSH2 0x1480 JUMP JUMPDEST PUSH1 0x20 MUL PUSH1 0x20 ADD ADD MLOAD PUSH2 0x27B JUMP JUMPDEST DUP3 DUP3 DUP2 MLOAD DUP2 LT PUSH2 0x696 JUMPI PUSH2 0x696 PUSH2 0x1480 JUMP JUMPDEST PUSH1 0x20 SWAP1 DUP2 MUL SWAP2 SWAP1 SWAP2 ADD ADD MSTORE PUSH2 0x6AA DUP2 PUSH2 0x1524 JUMP JUMPDEST SWAP1 POP PUSH2 0x63F JUMP JUMPDEST POP SWAP4 SWAP3 POP POP POP JUMP JUMPDEST PUSH1 0x0 DUP1 PUSH2 0x6C4 PUSH2 0xA60 JUMP JUMPDEST SWAP1 POP DUP4 PUSH1 0x4 DUP3 DUP2 SLOAD DUP2 LT PUSH2 0x6DA JUMPI PUSH2 0x6DA PUSH2 0x1480 JUMP JUMPDEST SWAP1 PUSH1 0x0 MSTORE PUSH1 0x20 PUSH1 0x0 KECCAK256 ADD DUP2 SWAP1 SSTORE POP DUP3 PUSH1 0x5 DUP3 DUP2 SLOAD DUP2 LT PUSH2 0x6FC JUMPI PUSH2 0x6FC PUSH2 0x1480 JUMP JUMPDEST PUSH1 0x0 SWAP2 DUP3 MSTORE PUSH1 0x20 SWAP1 SWAP2 KECCAK256 ADD SSTORE SWAP4 SWAP3 POP POP POP JUMP JUMPDEST PUSH2 0x718 DUP2 PUSH2 0xA7D JUMP JUMPDEST POP JUMP JUMPDEST PUSH2 0x726 CALLER DUP4 DUP4 PUSH2 0xA89 JUMP JUMPDEST POP POP JUMP JUMPDEST PUSH1 0x1 PUSH1 0x1 PUSH1 0xA0 SHL SUB DUP6 AND CALLER EQ DUP1 PUSH2 0x746 JUMPI POP PUSH2 0x746 DUP6 CALLER PUSH2 0x22D JUMP JUMPDEST PUSH2 0x762 JUMPI PUSH1 0x40 MLOAD PUSH3 0x461BCD PUSH1 0xE5 SHL DUP2 MSTORE PUSH1 0x4 ADD PUSH2 0x2E2 SWAP1 PUSH2 0x14D6 JUMP JUMPDEST PUSH2 0x588 DUP6 DUP6 DUP6 DUP6 DUP6 PUSH2 0xB69 JUMP JUMPDEST PUSH1 0x1 PUSH1 0x1 PUSH1 0xA0 SHL SUB DUP5 AND PUSH2 0x7CF JUMPI PUSH1 0x40 MLOAD PUSH3 0x461BCD PUSH1 0xE5 SHL DUP2 MSTORE PUSH1 0x20 PUSH1 0x4 DUP3 ADD MSTORE PUSH1 0x21 PUSH1 0x24 DUP3 ADD MSTORE PUSH32 0x455243313135353A206D696E7420746F20746865207A65726F20616464726573 PUSH1 0x44 DUP3 ADD MSTORE PUSH1 0x73 PUSH1 0xF8 SHL PUSH1 0x64 DUP3 ADD MSTORE PUSH1 0x84 ADD PUSH2 0x2E2 JUMP JUMPDEST CALLER PUSH1 0x0 PUSH2 0x7DB DUP6 PUSH2 0xC93 JUMP JUMPDEST SWAP1 POP PUSH1 0x0 PUSH2 0x7E8 DUP6 PUSH2 0xC93 JUMP JUMPDEST SWAP1 POP PUSH1 0x0 DUP7 DUP2 MSTORE PUSH1 0x20 DUP2 DUP2 MSTORE PUSH1 0x40 DUP1 DUP4 KECCAK256 PUSH1 0x1 PUSH1 0x1 PUSH1 0xA0 SHL SUB DUP12 AND DUP5 MSTORE SWAP1 SWAP2 MSTORE DUP2 KECCAK256 DUP1 SLOAD DUP8 SWAP3 SWAP1 PUSH2 0x81A SWAP1 DUP5 SWAP1 PUSH2 0x153D JUMP JUMPDEST SWAP1 SWAP2 SSTORE POP POP PUSH1 0x40 DUP1 MLOAD DUP8 DUP2 MSTORE PUSH1 0x20 DUP2 ADD DUP8 SWAP1 MSTORE PUSH1 0x1 PUSH1 0x1 PUSH1 0xA0 SHL SUB DUP1 DUP11 AND SWAP3 PUSH1 0x0 SWAP3 SWAP2 DUP8 AND SWAP2 PUSH32 0xC3D58168C5AE7397731D063D5BBF3D657854427343F4C083240F7AACAA2D0F62 SWAP2 ADD PUSH1 0x40 MLOAD DUP1 SWAP2 SUB SWAP1 LOG4 PUSH2 0x87A DUP4 PUSH1 0x0 DUP10 DUP10 DUP10 DUP10 PUSH2 0xCDE JUMP JUMPDEST POP POP POP POP POP POP POP JUMP JUMPDEST DUP2 MLOAD DUP4 MLOAD EQ PUSH2 0x8E5 JUMPI PUSH1 0x40 MLOAD PUSH3 0x461BCD PUSH1 0xE5 SHL DUP2 MSTORE PUSH1 0x20 PUSH1 0x4 DUP3 ADD MSTORE PUSH1 0x28 PUSH1 0x24 DUP3 ADD MSTORE PUSH32 0x455243313135353A2069647320616E6420616D6F756E7473206C656E67746820 PUSH1 0x44 DUP3 ADD MSTORE PUSH8 0xDAD2E6DAC2E8C6D PUSH1 0xC3 SHL PUSH1 0x64 DUP3 ADD MSTORE PUSH1 0x84 ADD PUSH2 0x2E2 JUMP JUMPDEST PUSH1 0x1 PUSH1 0x1 PUSH1 0xA0 SHL SUB DUP5 AND PUSH2 0x90B JUMPI PUSH1 0x40 MLOAD PUSH3 0x461BCD PUSH1 0xE5 SHL DUP2 MSTORE PUSH1 0x4 ADD PUSH2 0x2E2 SWAP1 PUSH2 0x1550 JUMP JUMPDEST CALLER PUSH1 0x0 JUMPDEST DUP5 MLOAD DUP2 LT ISZERO PUSH2 0x9F2 JUMPI PUSH1 0x0 DUP6 DUP3 DUP2 MLOAD DUP2 LT PUSH2 0x92C JUMPI PUSH2 0x92C PUSH2 0x1480 JUMP JUMPDEST PUSH1 0x20 MUL PUSH1 0x20 ADD ADD MLOAD SWAP1 POP PUSH1 0x0 DUP6 DUP4 DUP2 MLOAD DUP2 LT PUSH2 0x94A JUMPI PUSH2 0x94A PUSH2 0x1480 JUMP JUMPDEST PUSH1 0x20 SWAP1 DUP2 MUL SWAP2 SWAP1 SWAP2 ADD DUP2 ADD MLOAD PUSH1 0x0 DUP5 DUP2 MSTORE DUP1 DUP4 MSTORE PUSH1 0x40 DUP1 DUP3 KECCAK256 PUSH1 0x1 PUSH1 0x1 PUSH1 0xA0 SHL SUB DUP15 AND DUP4 MSTORE SWAP1 SWAP4 MSTORE SWAP2 SWAP1 SWAP2 KECCAK256 SLOAD SWAP1 SWAP2 POP DUP2 DUP2 LT ISZERO PUSH2 0x99A JUMPI PUSH1 0x40 MLOAD PUSH3 0x461BCD PUSH1 0xE5 SHL DUP2 MSTORE PUSH1 0x4 ADD PUSH2 0x2E2 SWAP1 PUSH2 0x1595 JUMP JUMPDEST PUSH1 0x0 DUP4 DUP2 MSTORE PUSH1 0x20 DUP2 DUP2 MSTORE PUSH1 0x40 DUP1 DUP4 KECCAK256 PUSH1 0x1 PUSH1 0x1 PUSH1 0xA0 SHL SUB DUP15 DUP2 AND DUP6 MSTORE SWAP3 MSTORE DUP1 DUP4 KECCAK256 DUP6 DUP6 SUB SWAP1 SSTORE SWAP1 DUP12 AND DUP3 MSTORE DUP2 KECCAK256 DUP1 SLOAD DUP5 SWAP3 SWAP1 PUSH2 0x9D7 SWAP1 DUP5 SWAP1 PUSH2 0x153D JUMP JUMPDEST SWAP3 POP POP DUP2 SWAP1 SSTORE POP POP POP POP DUP1 PUSH2 0x9EB SWAP1 PUSH2 0x1524 JUMP JUMPDEST SWAP1 POP PUSH2 0x90F JUMP JUMPDEST POP DUP5 PUSH1 0x1 PUSH1 0x1 PUSH1 0xA0 SHL SUB AND DUP7 PUSH1 0x1 PUSH1 0x1 PUSH1 0xA0 SHL SUB AND DUP3 PUSH1 0x1 PUSH1 0x1 PUSH1 0xA0 SHL SUB AND PUSH32 0x4A39DC06D4C0DBC64B70AF90FD698A233A518AA5D07E595D983B8C0526C8F7FB DUP8 DUP8 PUSH1 0x40 MLOAD PUSH2 0xA42 SWAP3 SWAP2 SWAP1 PUSH2 0x15DF JUMP JUMPDEST PUSH1 0x40 MLOAD DUP1 SWAP2 SUB SWAP1 LOG4 PUSH2 0xA58 DUP2 DUP8 DUP8 DUP8 DUP8 DUP8 PUSH2 0xE39 JUMP JUMPDEST POP POP POP POP POP POP JUMP JUMPDEST PUSH1 0x0 DUP1 PUSH1 0x3 SLOAD PUSH1 0x1 PUSH2 0xA72 SWAP2 SWAP1 PUSH2 0x153D JUMP JUMPDEST PUSH1 0x3 DUP2 SWAP1 SSTORE SWAP3 SWAP2 POP POP JUMP JUMPDEST PUSH1 0x2 PUSH2 0x726 DUP3 DUP3 PUSH2 0x1658 JUMP JUMPDEST DUP2 PUSH1 0x1 PUSH1 0x1 PUSH1 0xA0 SHL SUB AND DUP4 PUSH1 0x1 PUSH1 0x1 PUSH1 0xA0 SHL SUB AND SUB PUSH2 0xAFC JUMPI PUSH1 0x40 MLOAD PUSH3 0x461BCD PUSH1 0xE5 SHL DUP2 MSTORE PUSH1 0x20 PUSH1 0x4 DUP3 ADD MSTORE PUSH1 0x29 PUSH1 0x24 DUP3 ADD MSTORE PUSH32 0x455243313135353A2073657474696E6720617070726F76616C20737461747573 PUSH1 0x44 DUP3 ADD MSTORE PUSH9 0x103337B91039B2B633 PUSH1 0xB9 SHL PUSH1 0x64 DUP3 ADD MSTORE PUSH1 0x84 ADD PUSH2 0x2E2 JUMP JUMPDEST PUSH1 0x1 PUSH1 0x1 PUSH1 0xA0 SHL SUB DUP4 DUP2 AND PUSH1 0x0 DUP2 DUP2 MSTORE PUSH1 0x1 PUSH1 0x20 SWAP1 DUP2 MSTORE PUSH1 0x40 DUP1 DUP4 KECCAK256 SWAP5 DUP8 AND DUP1 DUP5 MSTORE SWAP5 DUP3 MSTORE SWAP2 DUP3 SWAP1 KECCAK256 DUP1 SLOAD PUSH1 0xFF NOT AND DUP7 ISZERO ISZERO SWAP1 DUP2 OR SWAP1 SWAP2 SSTORE SWAP2 MLOAD SWAP2 DUP3 MSTORE PUSH32 0x17307EAB39AB6107E8899845AD3D59BD9653F200F220920489CA2B5937696C31 SWAP2 ADD PUSH1 0x40 MLOAD DUP1 SWAP2 SUB SWAP1 LOG3 POP POP POP JUMP JUMPDEST PUSH1 0x1 PUSH1 0x1 PUSH1 0xA0 SHL SUB DUP5 AND PUSH2 0xB8F JUMPI PUSH1 0x40 MLOAD PUSH3 0x461BCD PUSH1 0xE5 SHL DUP2 MSTORE PUSH1 0x4 ADD PUSH2 0x2E2 SWAP1 PUSH2 0x1550 JUMP JUMPDEST CALLER PUSH1 0x0 PUSH2 0xB9B DUP6 PUSH2 0xC93 JUMP JUMPDEST SWAP1 POP PUSH1 0x0 PUSH2 0xBA8 DUP6 PUSH2 0xC93 JUMP JUMPDEST SWAP1 POP PUSH1 0x0 DUP7 DUP2 MSTORE PUSH1 0x20 DUP2 DUP2 MSTORE PUSH1 0x40 DUP1 DUP4 KECCAK256 PUSH1 0x1 PUSH1 0x1 PUSH1 0xA0 SHL SUB DUP13 AND DUP5 MSTORE SWAP1 SWAP2 MSTORE SWAP1 KECCAK256 SLOAD DUP6 DUP2 LT ISZERO PUSH2 0xBEB JUMPI PUSH1 0x40 MLOAD PUSH3 0x461BCD PUSH1 0xE5 SHL DUP2 MSTORE PUSH1 0x4 ADD PUSH2 0x2E2 SWAP1 PUSH2 0x1595 JUMP JUMPDEST PUSH1 0x0 DUP8 DUP2 MSTORE PUSH1 0x20 DUP2 DUP2 MSTORE PUSH1 0x40 DUP1 DUP4 KECCAK256 PUSH1 0x1 PUSH1 0x1 PUSH1 0xA0 SHL SUB DUP14 DUP2 AND DUP6 MSTORE SWAP3 MSTORE DUP1 DUP4 KECCAK256 DUP10 DUP6 SUB SWAP1 SSTORE SWAP1 DUP11 AND DUP3 MSTORE DUP2 KECCAK256 DUP1 SLOAD DUP9 SWAP3 SWAP1 PUSH2 0xC28 SWAP1 DUP5 SWAP1 PUSH2 0x153D JUMP JUMPDEST SWAP1 SWAP2 SSTORE POP POP PUSH1 0x40 DUP1 MLOAD DUP9 DUP2 MSTORE PUSH1 0x20 DUP2 ADD DUP9 SWAP1 MSTORE PUSH1 0x1 PUSH1 0x1 PUSH1 0xA0 SHL SUB DUP1 DUP12 AND SWAP3 DUP13 DUP3 AND SWAP3 SWAP2 DUP9 AND SWAP2 PUSH32 0xC3D58168C5AE7397731D063D5BBF3D657854427343F4C083240F7AACAA2D0F62 SWAP2 ADD PUSH1 0x40 MLOAD DUP1 SWAP2 SUB SWAP1 LOG4 PUSH2 0xC88 DUP5 DUP11 DUP11 DUP11 DUP11 DUP11 PUSH2 0xCDE JUMP JUMPDEST POP POP POP POP POP POP POP POP POP JUMP JUMPDEST PUSH1 0x40 DUP1 MLOAD PUSH1 0x1 DUP1 DUP3 MSTORE DUP2 DUP4 ADD SWAP1 SWAP3 MSTORE PUSH1 0x60 SWAP2 PUSH1 0x0 SWAP2 SWAP1 PUSH1 0x20 DUP1 DUP4 ADD SWAP1 DUP1 CALLDATASIZE DUP4 CALLDATACOPY ADD SWAP1 POP POP SWAP1 POP DUP3 DUP2 PUSH1 0x0 DUP2 MLOAD DUP2 LT PUSH2 0xCCD JUMPI PUSH2 0xCCD PUSH2 0x1480 JUMP JUMPDEST PUSH1 0x20 SWAP1 DUP2 MUL SWAP2 SWAP1 SWAP2 ADD ADD MSTORE SWAP3 SWAP2 POP POP JUMP JUMPDEST PUSH1 0x1 PUSH1 0x1 PUSH1 0xA0 SHL SUB DUP5 AND EXTCODESIZE ISZERO PUSH2 0xA58 JUMPI PUSH1 0x40 MLOAD PUSH4 0xF23A6E61 PUSH1 0xE0 SHL DUP2 MSTORE PUSH1 0x1 PUSH1 0x1 PUSH1 0xA0 SHL SUB DUP6 AND SWAP1 PUSH4 0xF23A6E61 SWAP1 PUSH2 0xD22 SWAP1 DUP10 SWAP1 DUP10 SWAP1 DUP9 SWAP1 DUP9 SWAP1 DUP9 SWAP1 PUSH1 0x4 ADD PUSH2 0x1718 JUMP JUMPDEST PUSH1 0x20 PUSH1 0x40 MLOAD DUP1 DUP4 SUB DUP2 PUSH1 0x0 DUP8 GAS CALL SWAP3 POP POP POP DUP1 ISZERO PUSH2 0xD5D JUMPI POP PUSH1 0x40 DUP1 MLOAD PUSH1 0x1F RETURNDATASIZE SWAP1 DUP2 ADD PUSH1 0x1F NOT AND DUP3 ADD SWAP1 SWAP3 MSTORE PUSH2 0xD5A SWAP2 DUP2 ADD SWAP1 PUSH2 0x175D JUMP JUMPDEST PUSH1 0x1 JUMPDEST PUSH2 0xE09 JUMPI PUSH2 0xD69 PUSH2 0x177A JUMP JUMPDEST DUP1 PUSH4 0x8C379A0 SUB PUSH2 0xDA2 JUMPI POP PUSH2 0xD7D PUSH2 0x1796 JUMP JUMPDEST DUP1 PUSH2 0xD88 JUMPI POP PUSH2 0xDA4 JUMP JUMPDEST DUP1 PUSH1 0x40 MLOAD PUSH3 0x461BCD PUSH1 0xE5 SHL DUP2 MSTORE PUSH1 0x4 ADD PUSH2 0x2E2 SWAP2 SWAP1 PUSH2 0xFD3 JUMP JUMPDEST POP JUMPDEST PUSH1 0x40 MLOAD PUSH3 0x461BCD PUSH1 0xE5 SHL DUP2 MSTORE PUSH1 0x20 PUSH1 0x4 DUP3 ADD MSTORE PUSH1 0x34 PUSH1 0x24 DUP3 ADD MSTORE PUSH32 0x455243313135353A207472616E7366657220746F206E6F6E2D45524331313535 PUSH1 0x44 DUP3 ADD MSTORE PUSH20 0x2932B1B2B4BB32B91034B6B83632B6B2B73A32B9 PUSH1 0x61 SHL PUSH1 0x64 DUP3 ADD MSTORE PUSH1 0x84 ADD PUSH2 0x2E2 JUMP JUMPDEST PUSH1 0x1 PUSH1 0x1 PUSH1 0xE0 SHL SUB NOT DUP2 AND PUSH4 0xF23A6E61 PUSH1 0xE0 SHL EQ PUSH2 0x87A JUMPI PUSH1 0x40 MLOAD PUSH3 0x461BCD PUSH1 0xE5 SHL DUP2 MSTORE PUSH1 0x4 ADD PUSH2 0x2E2 SWAP1 PUSH2 0x1820 JUMP JUMPDEST PUSH1 0x1 PUSH1 0x1 PUSH1 0xA0 SHL SUB DUP5 AND EXTCODESIZE ISZERO PUSH2 0xA58 JUMPI PUSH1 0x40 MLOAD PUSH4 0xBC197C81 PUSH1 0xE0 SHL DUP2 MSTORE PUSH1 0x1 PUSH1 0x1 PUSH1 0xA0 SHL SUB DUP6 AND SWAP1 PUSH4 0xBC197C81 SWAP1 PUSH2 0xE7D SWAP1 DUP10 SWAP1 DUP10 SWAP1 DUP9 SWAP1 DUP9 SWAP1 DUP9 SWAP1 PUSH1 0x4 ADD PUSH2 0x1868 JUMP JUMPDEST PUSH1 0x20 PUSH1 0x40 MLOAD DUP1 DUP4 SUB DUP2 PUSH1 0x0 DUP8 GAS CALL SWAP3 POP POP POP DUP1 ISZERO PUSH2 0xEB8 JUMPI POP PUSH1 0x40 DUP1 MLOAD PUSH1 0x1F RETURNDATASIZE SWAP1 DUP2 ADD PUSH1 0x1F NOT AND DUP3 ADD SWAP1 SWAP3 MSTORE PUSH2 0xEB5 SWAP2 DUP2 ADD SWAP1 PUSH2 0x175D JUMP JUMPDEST PUSH1 0x1 JUMPDEST PUSH2 0xEC4 JUMPI PUSH2 0xD69 PUSH2 0x177A JUMP JUMPDEST PUSH1 0x1 PUSH1 0x1 PUSH1 0xE0 SHL SUB NOT DUP2 AND PUSH4 0xBC197C81 PUSH1 0xE0 SHL EQ PUSH2 0x87A JUMPI PUSH1 0x40 MLOAD PUSH3 0x461BCD PUSH1 0xE5 SHL DUP2 MSTORE PUSH1 0x4 ADD PUSH2 0x2E2 SWAP1 PUSH2 0x1820 JUMP JUMPDEST DUP1 CALLDATALOAD PUSH1 0x1 PUSH1 0x1 PUSH1 0xA0 SHL SUB DUP2 AND DUP2 EQ PUSH2 0xF0B JUMPI PUSH1 0x0 DUP1 REVERT JUMPDEST SWAP2 SWAP1 POP JUMP JUMPDEST PUSH1 0x0 DUP1 PUSH1 0x40 DUP4 DUP6 SUB SLT ISZERO PUSH2 0xF23 JUMPI PUSH1 0x0 DUP1 REVERT JUMPDEST PUSH2 0xF2C DUP4 PUSH2 0xEF4 JUMP JUMPDEST SWAP5 PUSH1 0x20 SWAP4 SWAP1 SWAP4 ADD CALLDATALOAD SWAP4 POP POP POP JUMP JUMPDEST PUSH1 0x1 PUSH1 0x1 PUSH1 0xE0 SHL SUB NOT DUP2 AND DUP2 EQ PUSH2 0x718 JUMPI PUSH1 0x0 DUP1 REVERT JUMPDEST PUSH1 0x0 PUSH1 0x20 DUP3 DUP5 SUB SLT ISZERO PUSH2 0xF62 JUMPI PUSH1 0x0 DUP1 REVERT JUMPDEST DUP2 CALLDATALOAD PUSH2 0xF6D DUP2 PUSH2 0xF3A JUMP JUMPDEST SWAP4 SWAP3 POP POP POP JUMP JUMPDEST PUSH1 0x0 PUSH1 0x20 DUP3 DUP5 SUB SLT ISZERO PUSH2 0xF86 JUMPI PUSH1 0x0 DUP1 REVERT JUMPDEST POP CALLDATALOAD SWAP2 SWAP1 POP JUMP JUMPDEST PUSH1 0x0 DUP2 MLOAD DUP1 DUP5 MSTORE PUSH1 0x0 JUMPDEST DUP2 DUP2 LT ISZERO PUSH2 0xFB3 JUMPI PUSH1 0x20 DUP2 DUP6 ADD DUP2 ADD MLOAD DUP7 DUP4 ADD DUP3 ADD MSTORE ADD PUSH2 0xF97 JUMP JUMPDEST POP PUSH1 0x0 PUSH1 0x20 DUP3 DUP7 ADD ADD MSTORE PUSH1 0x20 PUSH1 0x1F NOT PUSH1 0x1F DUP4 ADD AND DUP6 ADD ADD SWAP2 POP POP SWAP3 SWAP2 POP POP JUMP JUMPDEST PUSH1 0x20 DUP2 MSTORE PUSH1 0x0 PUSH2 0xF6D PUSH1 0x20 DUP4 ADD DUP5 PUSH2 0xF8D JUMP JUMPDEST PUSH1 0x0 DUP1 PUSH1 0x40 DUP4 DUP6 SUB SLT ISZERO PUSH2 0xFF9 JUMPI PUSH1 0x0 DUP1 REVERT JUMPDEST POP POP DUP1 CALLDATALOAD SWAP3 PUSH1 0x20 SWAP1 SWAP2 ADD CALLDATALOAD SWAP2 POP JUMP JUMPDEST PUSH4 0x4E487B71 PUSH1 0xE0 SHL PUSH1 0x0 MSTORE PUSH1 0x41 PUSH1 0x4 MSTORE PUSH1 0x24 PUSH1 0x0 REVERT JUMPDEST PUSH1 0x1F DUP3 ADD PUSH1 0x1F NOT AND DUP2 ADD PUSH8 0xFFFFFFFFFFFFFFFF DUP2 GT DUP3 DUP3 LT OR ISZERO PUSH2 0x1044 JUMPI PUSH2 0x1044 PUSH2 0x1008 JUMP JUMPDEST PUSH1 0x40 MSTORE POP POP JUMP JUMPDEST PUSH1 0x0 PUSH8 0xFFFFFFFFFFFFFFFF DUP3 GT ISZERO PUSH2 0x1065 JUMPI PUSH2 0x1065 PUSH2 0x1008 JUMP JUMPDEST POP PUSH1 0x5 SHL PUSH1 0x20 ADD SWAP1 JUMP JUMPDEST PUSH1 0x0 DUP3 PUSH1 0x1F DUP4 ADD SLT PUSH2 0x1080 JUMPI PUSH1 0x0 DUP1 REVERT JUMPDEST DUP2 CALLDATALOAD PUSH1 0x20 PUSH2 0x108D DUP3 PUSH2 0x104B JUMP JUMPDEST PUSH1 0x40 MLOAD PUSH2 0x109A DUP3 DUP3 PUSH2 0x101E JUMP JUMPDEST DUP4 DUP2 MSTORE PUSH1 0x5 SWAP4 SWAP1 SWAP4 SHL DUP6 ADD DUP3 ADD SWAP3 DUP3 DUP2 ADD SWAP2 POP DUP7 DUP5 GT ISZERO PUSH2 0x10BA JUMPI PUSH1 0x0 DUP1 REVERT JUMPDEST DUP3 DUP7 ADD JUMPDEST DUP5 DUP2 LT ISZERO PUSH2 0x10D5 JUMPI DUP1 CALLDATALOAD DUP4 MSTORE SWAP2 DUP4 ADD SWAP2 DUP4 ADD PUSH2 0x10BE JUMP JUMPDEST POP SWAP7 SWAP6 POP POP POP POP POP POP JUMP JUMPDEST PUSH1 0x0 PUSH8 0xFFFFFFFFFFFFFFFF DUP4 GT ISZERO PUSH2 0x10FA JUMPI PUSH2 0x10FA PUSH2 0x1008 JUMP JUMPDEST PUSH1 0x40 MLOAD PUSH2 0x1111 PUSH1 0x1F DUP6 ADD PUSH1 0x1F NOT AND PUSH1 0x20 ADD DUP3 PUSH2 0x101E JUMP JUMPDEST DUP1 SWAP2 POP DUP4 DUP2 MSTORE DUP5 DUP5 DUP5 ADD GT ISZERO PUSH2 0x1126 JUMPI PUSH1 0x0 DUP1 REVERT JUMPDEST DUP4 DUP4 PUSH1 0x20 DUP4 ADD CALLDATACOPY PUSH1 0x0 PUSH1 0x20 DUP6 DUP4 ADD ADD MSTORE POP SWAP4 SWAP3 POP POP POP JUMP JUMPDEST PUSH1 0x0 DUP3 PUSH1 0x1F DUP4 ADD SLT PUSH2 0x114F JUMPI PUSH1 0x0 DUP1 REVERT JUMPDEST PUSH2 0xF6D DUP4 DUP4 CALLDATALOAD PUSH1 0x20 DUP6 ADD PUSH2 0x10E0 JUMP JUMPDEST PUSH1 0x0 DUP1 PUSH1 0x0 DUP1 PUSH1 0x0 PUSH1 0xA0 DUP7 DUP9 SUB SLT ISZERO PUSH2 0x1176 JUMPI PUSH1 0x0 DUP1 REVERT JUMPDEST PUSH2 0x117F DUP7 PUSH2 0xEF4 JUMP JUMPDEST SWAP5 POP PUSH2 0x118D PUSH1 0x20 DUP8 ADD PUSH2 0xEF4 JUMP JUMPDEST SWAP4 POP PUSH1 0x40 DUP7 ADD CALLDATALOAD PUSH8 0xFFFFFFFFFFFFFFFF DUP1 DUP3 GT ISZERO PUSH2 0x11AA JUMPI PUSH1 0x0 DUP1 REVERT JUMPDEST PUSH2 0x11B6 DUP10 DUP4 DUP11 ADD PUSH2 0x106F JUMP JUMPDEST SWAP5 POP PUSH1 0x60 DUP9 ADD CALLDATALOAD SWAP2 POP DUP1 DUP3 GT ISZERO PUSH2 0x11CC JUMPI PUSH1 0x0 DUP1 REVERT JUMPDEST PUSH2 0x11D8 DUP10 DUP4 DUP11 ADD PUSH2 0x106F JUMP JUMPDEST SWAP4 POP PUSH1 0x80 DUP9 ADD CALLDATALOAD SWAP2 POP DUP1 DUP3 GT ISZERO PUSH2 0x11EE JUMPI PUSH1 0x0 DUP1 REVERT JUMPDEST POP PUSH2 0x11FB DUP9 DUP3 DUP10 ADD PUSH2 0x113E JUMP JUMPDEST SWAP2 POP POP SWAP3 SWAP6 POP SWAP3 SWAP6 SWAP1 SWAP4 POP JUMP JUMPDEST PUSH1 0x0 DUP1 PUSH1 0x40 DUP4 DUP6 SUB SLT ISZERO PUSH2 0x121B JUMPI PUSH1 0x0 DUP1 REVERT JUMPDEST DUP3 CALLDATALOAD PUSH8 0xFFFFFFFFFFFFFFFF DUP1 DUP3 GT ISZERO PUSH2 0x1233 JUMPI PUSH1 0x0 DUP1 REVERT JUMPDEST DUP2 DUP6 ADD SWAP2 POP DUP6 PUSH1 0x1F DUP4 ADD SLT PUSH2 0x1247 JUMPI PUSH1 0x0 DUP1 REVERT JUMPDEST DUP2 CALLDATALOAD PUSH1 0x20 PUSH2 0x1254 DUP3 PUSH2 0x104B JUMP JUMPDEST PUSH1 0x40 MLOAD PUSH2 0x1261 DUP3 DUP3 PUSH2 0x101E JUMP JUMPDEST DUP4 DUP2 MSTORE PUSH1 0x5 SWAP4 SWAP1 SWAP4 SHL DUP6 ADD DUP3 ADD SWAP3 DUP3 DUP2 ADD SWAP2 POP DUP10 DUP5 GT ISZERO PUSH2 0x1281 JUMPI PUSH1 0x0 DUP1 REVERT JUMPDEST SWAP5 DUP3 ADD SWAP5 JUMPDEST DUP4 DUP7 LT ISZERO PUSH2 0x12A6 JUMPI PUSH2 0x1297 DUP7 PUSH2 0xEF4 JUMP JUMPDEST DUP3 MSTORE SWAP5 DUP3 ADD SWAP5 SWAP1 DUP3 ADD SWAP1 PUSH2 0x1286 JUMP JUMPDEST SWAP7 POP POP DUP7 ADD CALLDATALOAD SWAP3 POP POP DUP1 DUP3 GT ISZERO PUSH2 0x12BC JUMPI PUSH1 0x0 DUP1 REVERT JUMPDEST POP PUSH2 0x12C9 DUP6 DUP3 DUP7 ADD PUSH2 0x106F JUMP JUMPDEST SWAP2 POP POP SWAP3 POP SWAP3 SWAP1 POP JUMP JUMPDEST PUSH1 0x0 DUP2 MLOAD DUP1 DUP5 MSTORE PUSH1 0x20 DUP1 DUP6 ADD SWAP5 POP DUP1 DUP5 ADD PUSH1 0x0 JUMPDEST DUP4 DUP2 LT ISZERO PUSH2 0x1303 JUMPI DUP2 MLOAD DUP8 MSTORE SWAP6 DUP3 ADD SWAP6 SWAP1 DUP3 ADD SWAP1 PUSH1 0x1 ADD PUSH2 0x12E7 JUMP JUMPDEST POP SWAP5 SWAP6 SWAP5 POP POP POP POP POP JUMP JUMPDEST PUSH1 0x20 DUP2 MSTORE PUSH1 0x0 PUSH2 0xF6D PUSH1 0x20 DUP4 ADD DUP5 PUSH2 0x12D3 JUMP JUMPDEST PUSH1 0x0 PUSH1 0x20 DUP3 DUP5 SUB SLT ISZERO PUSH2 0x1333 JUMPI PUSH1 0x0 DUP1 REVERT JUMPDEST DUP2 CALLDATALOAD PUSH8 0xFFFFFFFFFFFFFFFF DUP2 GT ISZERO PUSH2 0x134A JUMPI PUSH1 0x0 DUP1 REVERT JUMPDEST DUP3 ADD PUSH1 0x1F DUP2 ADD DUP5 SGT PUSH2 0x135B JUMPI PUSH1 0x0 DUP1 REVERT JUMPDEST PUSH2 0x136A DUP5 DUP3 CALLDATALOAD PUSH1 0x20 DUP5 ADD PUSH2 0x10E0 JUMP JUMPDEST SWAP5 SWAP4 POP POP POP POP JUMP JUMPDEST PUSH1 0x0 DUP1 PUSH1 0x40 DUP4 DUP6 SUB SLT ISZERO PUSH2 0x1385 JUMPI PUSH1 0x0 DUP1 REVERT JUMPDEST PUSH2 0x138E DUP4 PUSH2 0xEF4 JUMP JUMPDEST SWAP2 POP PUSH1 0x20 DUP4 ADD CALLDATALOAD DUP1 ISZERO ISZERO DUP2 EQ PUSH2 0x13A3 JUMPI PUSH1 0x0 DUP1 REVERT JUMPDEST DUP1 SWAP2 POP POP SWAP3 POP SWAP3 SWAP1 POP JUMP JUMPDEST PUSH1 0x0 DUP1 PUSH1 0x40 DUP4 DUP6 SUB SLT ISZERO PUSH2 0x13C1 JUMPI PUSH1 0x0 DUP1 REVERT JUMPDEST PUSH2 0x13CA DUP4 PUSH2 0xEF4 JUMP JUMPDEST SWAP2 POP PUSH2 0x13D8 PUSH1 0x20 DUP5 ADD PUSH2 0xEF4 JUMP JUMPDEST SWAP1 POP SWAP3 POP SWAP3 SWAP1 POP JUMP JUMPDEST PUSH1 0x0 DUP1 PUSH1 0x0 DUP1 PUSH1 0x0 PUSH1 0xA0 DUP7 DUP9 SUB SLT ISZERO PUSH2 0x13F9 JUMPI PUSH1 0x0 DUP1 REVERT JUMPDEST PUSH2 0x1402 DUP7 PUSH2 0xEF4 JUMP JUMPDEST SWAP5 POP PUSH2 0x1410 PUSH1 0x20 DUP8 ADD PUSH2 0xEF4 JUMP JUMPDEST SWAP4 POP PUSH1 0x40 DUP7 ADD CALLDATALOAD SWAP3 POP PUSH1 0x60 DUP7 ADD CALLDATALOAD SWAP2 POP PUSH1 0x80 DUP7 ADD CALLDATALOAD PUSH8 0xFFFFFFFFFFFFFFFF DUP2 GT ISZERO PUSH2 0x143A JUMPI PUSH1 0x0 DUP1 REVERT JUMPDEST PUSH2 0x11FB DUP9 DUP3 DUP10 ADD PUSH2 0x113E JUMP JUMPDEST PUSH1 0x1 DUP2 DUP2 SHR SWAP1 DUP3 AND DUP1 PUSH2 0x145A JUMPI PUSH1 0x7F DUP3 AND SWAP2 POP JUMPDEST PUSH1 0x20 DUP3 LT DUP2 SUB PUSH2 0x147A JUMPI PUSH4 0x4E487B71 PUSH1 0xE0 SHL PUSH1 0x0 MSTORE PUSH1 0x22 PUSH1 0x4 MSTORE PUSH1 0x24 PUSH1 0x0 REVERT JUMPDEST POP SWAP2 SWAP1 POP JUMP JUMPDEST PUSH4 0x4E487B71 PUSH1 0xE0 SHL PUSH1 0x0 MSTORE PUSH1 0x32 PUSH1 0x4 MSTORE PUSH1 0x24 PUSH1 0x0 REVERT JUMPDEST PUSH4 0x4E487B71 PUSH1 0xE0 SHL PUSH1 0x0 MSTORE PUSH1 0x11 PUSH1 0x4 MSTORE PUSH1 0x24 PUSH1 0x0 REVERT JUMPDEST DUP1 DUP3 MUL DUP2 ISZERO DUP3 DUP3 DIV DUP5 EQ OR PUSH2 0x30E JUMPI PUSH2 0x30E PUSH2 0x1496 JUMP JUMPDEST DUP2 DUP2 SUB DUP2 DUP2 GT ISZERO PUSH2 0x30E JUMPI PUSH2 0x30E PUSH2 0x1496 JUMP JUMPDEST PUSH1 0x20 DUP1 DUP3 MSTORE PUSH1 0x2E SWAP1 DUP3 ADD MSTORE PUSH32 0x455243313135353A2063616C6C6572206973206E6F7420746F6B656E206F776E PUSH1 0x40 DUP3 ADD MSTORE PUSH14 0x195C881BDC88185C1C1C9BDD9959 PUSH1 0x92 SHL PUSH1 0x60 DUP3 ADD MSTORE PUSH1 0x80 ADD SWAP1 JUMP JUMPDEST PUSH1 0x0 PUSH1 0x1 DUP3 ADD PUSH2 0x1536 JUMPI PUSH2 0x1536 PUSH2 0x1496 JUMP JUMPDEST POP PUSH1 0x1 ADD SWAP1 JUMP JUMPDEST DUP1 DUP3 ADD DUP1 DUP3 GT ISZERO PUSH2 0x30E JUMPI PUSH2 0x30E PUSH2 0x1496 JUMP JUMPDEST PUSH1 0x20 DUP1 DUP3 MSTORE PUSH1 0x25 SWAP1 DUP3 ADD MSTORE PUSH32 0x455243313135353A207472616E7366657220746F20746865207A65726F206164 PUSH1 0x40 DUP3 ADD MSTORE PUSH5 0x6472657373 PUSH1 0xD8 SHL PUSH1 0x60 DUP3 ADD MSTORE PUSH1 0x80 ADD SWAP1 JUMP JUMPDEST PUSH1 0x20 DUP1 DUP3 MSTORE PUSH1 0x2A SWAP1 DUP3 ADD MSTORE PUSH32 0x455243313135353A20696E73756666696369656E742062616C616E636520666F PUSH1 0x40 DUP3 ADD MSTORE PUSH10 0x39103A3930B739B332B9 PUSH1 0xB1 SHL PUSH1 0x60 DUP3 ADD MSTORE PUSH1 0x80 ADD SWAP1 JUMP JUMPDEST PUSH1 0x40 DUP2 MSTORE PUSH1 0x0 PUSH2 0x15F2 PUSH1 0x40 DUP4 ADD DUP6 PUSH2 0x12D3 JUMP JUMPDEST DUP3 DUP2 SUB PUSH1 0x20 DUP5 ADD MSTORE PUSH2 0x1604 DUP2 DUP6 PUSH2 0x12D3 JUMP JUMPDEST SWAP6 SWAP5 POP POP POP POP POP JUMP JUMPDEST PUSH1 0x1F DUP3 GT ISZERO PUSH2 0x1653 JUMPI PUSH1 0x0 DUP2 DUP2 MSTORE PUSH1 0x20 DUP2 KECCAK256 PUSH1 0x1F DUP6 ADD PUSH1 0x5 SHR DUP2 ADD PUSH1 0x20 DUP7 LT ISZERO PUSH2 0x1634 JUMPI POP DUP1 JUMPDEST PUSH1 0x1F DUP6 ADD PUSH1 0x5 SHR DUP3 ADD SWAP2 POP JUMPDEST DUP2 DUP2 LT ISZERO PUSH2 0xA58 JUMPI DUP3 DUP2 SSTORE PUSH1 0x1 ADD PUSH2 0x1640 JUMP JUMPDEST POP POP POP JUMP JUMPDEST DUP2 MLOAD PUSH8 0xFFFFFFFFFFFFFFFF DUP2 GT ISZERO PUSH2 0x1672 JUMPI PUSH2 0x1672 PUSH2 0x1008 JUMP JUMPDEST PUSH2 0x1686 DUP2 PUSH2 0x1680 DUP5 SLOAD PUSH2 0x1446 JUMP JUMPDEST DUP5 PUSH2 0x160D JUMP JUMPDEST PUSH1 0x20 DUP1 PUSH1 0x1F DUP4 GT PUSH1 0x1 DUP2 EQ PUSH2 0x16BB JUMPI PUSH1 0x0 DUP5 ISZERO PUSH2 0x16A3 JUMPI POP DUP6 DUP4 ADD MLOAD JUMPDEST PUSH1 0x0 NOT PUSH1 0x3 DUP7 SWAP1 SHL SHR NOT AND PUSH1 0x1 DUP6 SWAP1 SHL OR DUP6 SSTORE PUSH2 0xA58 JUMP JUMPDEST PUSH1 0x0 DUP6 DUP2 MSTORE PUSH1 0x20 DUP2 KECCAK256 PUSH1 0x1F NOT DUP7 AND SWAP2 JUMPDEST DUP3 DUP2 LT ISZERO PUSH2 0x16EA JUMPI DUP9 DUP7 ADD MLOAD DUP3 SSTORE SWAP5 DUP5 ADD SWAP5 PUSH1 0x1 SWAP1 SWAP2 ADD SWAP1 DUP5 ADD PUSH2 0x16CB JUMP JUMPDEST POP DUP6 DUP3 LT ISZERO PUSH2 0x1708 JUMPI DUP8 DUP6 ADD MLOAD PUSH1 0x0 NOT PUSH1 0x3 DUP9 SWAP1 SHL PUSH1 0xF8 AND SHR NOT AND DUP2 SSTORE JUMPDEST POP POP POP POP POP PUSH1 0x1 SWAP1 DUP2 SHL ADD SWAP1 SSTORE POP JUMP JUMPDEST PUSH1 0x1 PUSH1 0x1 PUSH1 0xA0 SHL SUB DUP7 DUP2 AND DUP3 MSTORE DUP6 AND PUSH1 0x20 DUP3 ADD MSTORE PUSH1 0x40 DUP2 ADD DUP5 SWAP1 MSTORE PUSH1 0x60 DUP2 ADD DUP4 SWAP1 MSTORE PUSH1 0xA0 PUSH1 0x80 DUP3 ADD DUP2 SWAP1 MSTORE PUSH1 0x0 SWAP1 PUSH2 0x1752 SWAP1 DUP4 ADD DUP5 PUSH2 0xF8D JUMP JUMPDEST SWAP8 SWAP7 POP POP POP POP POP POP POP JUMP JUMPDEST PUSH1 0x0 PUSH1 0x20 DUP3 DUP5 SUB SLT ISZERO PUSH2 0x176F JUMPI PUSH1 0x0 DUP1 REVERT JUMPDEST DUP2 MLOAD PUSH2 0xF6D DUP2 PUSH2 0xF3A JUMP JUMPDEST PUSH1 0x0 PUSH1 0x3 RETURNDATASIZE GT ISZERO PUSH2 0x1793 JUMPI PUSH1 0x4 PUSH1 0x0 DUP1 RETURNDATACOPY POP PUSH1 0x0 MLOAD PUSH1 0xE0 SHR JUMPDEST SWAP1 JUMP JUMPDEST PUSH1 0x0 PUSH1 0x44 RETURNDATASIZE LT ISZERO PUSH2 0x17A4 JUMPI SWAP1 JUMP JUMPDEST PUSH1 0x40 MLOAD PUSH1 0x3 NOT RETURNDATASIZE DUP2 ADD PUSH1 0x4 DUP4 RETURNDATACOPY DUP2 MLOAD RETURNDATASIZE PUSH8 0xFFFFFFFFFFFFFFFF DUP2 PUSH1 0x24 DUP5 ADD GT DUP2 DUP5 GT OR ISZERO PUSH2 0x17D4 JUMPI POP POP POP POP POP SWAP1 JUMP JUMPDEST DUP3 DUP6 ADD SWAP2 POP DUP2 MLOAD DUP2 DUP2 GT ISZERO PUSH2 0x17EC JUMPI POP POP POP POP POP POP SWAP1 JUMP JUMPDEST DUP5 RETURNDATASIZE DUP8 ADD ADD PUSH1 0x20 DUP3 DUP6 ADD ADD GT ISZERO PUSH2 0x1806 JUMPI POP POP POP POP POP POP SWAP1 JUMP JUMPDEST PUSH2 0x1815 PUSH1 0x20 DUP3 DUP7 ADD ADD DUP8 PUSH2 0x101E JUMP JUMPDEST POP SWAP1 SWAP6 SWAP5 POP POP POP POP POP JUMP JUMPDEST PUSH1 0x20 DUP1 DUP3 MSTORE PUSH1 0x28 SWAP1 DUP3 ADD MSTORE PUSH32 0x455243313135353A204552433131353552656365697665722072656A65637465 PUSH1 0x40 DUP3 ADD MSTORE PUSH8 0x6420746F6B656E73 PUSH1 0xC0 SHL PUSH1 0x60 DUP3 ADD MSTORE PUSH1 0x80 ADD SWAP1 JUMP JUMPDEST PUSH1 0x1 PUSH1 0x1 PUSH1 0xA0 SHL SUB DUP7 DUP2 AND DUP3 MSTORE DUP6 AND PUSH1 0x20 DUP3 ADD MSTORE PUSH1 0xA0 PUSH1 0x40 DUP3 ADD DUP2 SWAP1 MSTORE PUSH1 0x0 SWAP1 PUSH2 0x1894 SWAP1 DUP4 ADD DUP7 PUSH2 0x12D3 JUMP JUMPDEST DUP3 DUP2 SUB PUSH1 0x60 DUP5 ADD MSTORE PUSH2 0x18A6 DUP2 DUP7 PUSH2 0x12D3 JUMP JUMPDEST SWAP1 POP DUP3 DUP2 SUB PUSH1 0x80 DUP5 ADD MSTORE PUSH2 0x18BA DUP2 DUP6 PUSH2 0xF8D JUMP JUMPDEST SWAP9 SWAP8 POP POP POP POP POP POP POP POP JUMP INVALID LOG2 PUSH5 0x6970667358 0x22 SLT KECCAK256 PUSH5 0xEEC648E6FB STATICCALL 0xD5 DUP15 PC PUSH31 0xD1BBCED4B79FF4321F98A59B6BF2F0AD0AED20EEA464736F6C634300081100 CALLER PUSH9 0x747470733A2F2F6970 PUSH7 0x732E696F2F6970 PUSH7 0x732F516D5A4845 MSTORE SLOAD MSIZE 0x4C MSTORE8 TIMESTAMP CALLER GASLIMIT PUSH2 0x547A PUSH14 0x77434D58596B64534E7677665A6D CALLDATASIZE GAS 0x4C PUSH4 0x746F5037 0x4A PUSH19 0x7344486D613F66696C656E616D653D7B69647D 0x2E PUSH11 0x736F6E0000000000000000 "},"methodIdentifiers":{"balanceOf(address,uint256)":"00fdd58e","balanceOfBatch(address[],uint256[])":"4e1273f4","createEvent(uint256,uint256)":"790c0125","getLastEventId()":"478b9a1f","isApprovedForAll(address,address)":"e985e9c5","mintGATickets(uint256,uint256)":"201d995a","safeBatchTransferFrom(address,address,uint256[],uint256[],bytes)":"2eb2c2d6","safeTransferFrom(address,address,uint256,uint256,bytes)":"f242432a","setApprovalForAll(address,bool)":"a22cb465","setEventUri(string)":"920a57dc","supportsInterface(bytes4)":"01ffc9a7","uri(uint256)":"0e89341c"}}}}}