{
  "_format": "hh-sol-artifact-1",
  "contractName": "NFTicket",
  "sourceName": "contracts/NFTicket.sol",
  "abi": [
    {
      "inputs": [],
      "stateMutability": "nonpayable",
      "type": "constructor"
    },
    {
      "anonymous": false,
      "inputs": [
        {
          "indexed": true,
          "internalType": "address",
          "name": "account",
          "type": "address"
        },
        {
          "indexed": true,
          "internalType": "address",
          "name": "operator",
          "type": "address"
        },
        {
          "indexed": false,
          "internalType": "bool",
          "name": "approved",
          "type": "bool"
        }
      ],
      "name": "ApprovalForAll",
      "type": "event"
    },
    {
      "anonymous": false,
      "inputs": [
        {
          "indexed": true,
          "internalType": "address",
          "name": "operator",
          "type": "address"
        },
        {
          "indexed": true,
          "internalType": "address",
          "name": "from",
          "type": "address"
        },
        {
          "indexed": true,
          "internalType": "address",
          "name": "to",
          "type": "address"
        },
        {
          "indexed": false,
          "internalType": "uint256[]",
          "name": "ids",
          "type": "uint256[]"
        },
        {
          "indexed": false,
          "internalType": "uint256[]",
          "name": "values",
          "type": "uint256[]"
        }
      ],
      "name": "TransferBatch",
      "type": "event"
    },
    {
      "anonymous": false,
      "inputs": [
        {
          "indexed": true,
          "internalType": "address",
          "name": "operator",
          "type": "address"
        },
        {
          "indexed": true,
          "internalType": "address",
          "name": "from",
          "type": "address"
        },
        {
          "indexed": true,
          "internalType": "address",
          "name": "to",
          "type": "address"
        },
        {
          "indexed": false,
          "internalType": "uint256",
          "name": "id",
          "type": "uint256"
        },
        {
          "indexed": false,
          "internalType": "uint256",
          "name": "value",
          "type": "uint256"
        }
      ],
      "name": "TransferSingle",
      "type": "event"
    },
    {
      "anonymous": false,
      "inputs": [
        {
          "indexed": false,
          "internalType": "string",
          "name": "value",
          "type": "string"
        },
        {
          "indexed": true,
          "internalType": "uint256",
          "name": "id",
          "type": "uint256"
        }
      ],
      "name": "URI",
      "type": "event"
    },
    {
      "inputs": [
        {
          "internalType": "address",
          "name": "account",
          "type": "address"
        },
        {
          "internalType": "uint256",
          "name": "id",
          "type": "uint256"
        }
      ],
      "name": "balanceOf",
      "outputs": [
        {
          "internalType": "uint256",
          "name": "",
          "type": "uint256"
        }
      ],
      "stateMutability": "view",
      "type": "function"
    },
    {
      "inputs": [
        {
          "internalType": "address[]",
          "name": "accounts",
          "type": "address[]"
        },
        {
          "internalType": "uint256[]",
          "name": "ids",
          "type": "uint256[]"
        }
      ],
      "name": "balanceOfBatch",
      "outputs": [
        {
          "internalType": "uint256[]",
          "name": "",
          "type": "uint256[]"
        }
      ],
      "stateMutability": "view",
      "type": "function"
    },
    {
      "inputs": [
        {
          "internalType": "uint256",
          "name": "ga_ticket_amount",
          "type": "uint256"
        },
        {
          "internalType": "uint256",
          "name": "ga_ticket_price",
          "type": "uint256"
        }
      ],
      "name": "createEvent",
      "outputs": [
        {
          "internalType": "uint256",
          "name": "",
          "type": "uint256"
        }
      ],
      "stateMutability": "nonpayable",
      "type": "function"
    },
    {
      "inputs": [
        {
          "internalType": "uint256",
          "name": "eventId",
          "type": "uint256"
        }
      ],
      "name": "getGATicketsAvailable",
      "outputs": [
        {
          "internalType": "uint256",
          "name": "",
          "type": "uint256"
        }
      ],
      "stateMutability": "view",
      "type": "function"
    },
    {
      "inputs": [
        {
          "internalType": "uint256",
          "name": "eventId",
          "type": "uint256"
        }
      ],
      "name": "getGATicketsPrice",
      "outputs": [
        {
          "internalType": "uint256",
          "name": "",
          "type": "uint256"
        }
      ],
      "stateMutability": "view",
      "type": "function"
    },
    {
      "inputs": [],
      "name": "getLastEventId",
      "outputs": [
        {
          "internalType": "uint256",
          "name": "",
          "type": "uint256"
        }
      ],
      "stateMutability": "view",
      "type": "function"
    },
    {
      "inputs": [
        {
          "internalType": "address",
          "name": "account",
          "type": "address"
        },
        {
          "internalType": "address",
          "name": "operator",
          "type": "address"
        }
      ],
      "name": "isApprovedForAll",
      "outputs": [
        {
          "internalType": "bool",
          "name": "",
          "type": "bool"
        }
      ],
      "stateMutability": "view",
      "type": "function"
    },
    {
      "inputs": [
        {
          "internalType": "uint256",
          "name": "eventId",
          "type": "uint256"
        },
        {
          "internalType": "uint256",
          "name": "amount",
          "type": "uint256"
        }
      ],
      "name": "mintGATickets",
      "outputs": [],
      "stateMutability": "payable",
      "type": "function"
    },
    {
      "inputs": [
        {
          "internalType": "address",
          "name": "from",
          "type": "address"
        },
        {
          "internalType": "address",
          "name": "to",
          "type": "address"
        },
        {
          "internalType": "uint256[]",
          "name": "ids",
          "type": "uint256[]"
        },
        {
          "internalType": "uint256[]",
          "name": "amounts",
          "type": "uint256[]"
        },
        {
          "internalType": "bytes",
          "name": "data",
          "type": "bytes"
        }
      ],
      "name": "safeBatchTransferFrom",
      "outputs": [],
      "stateMutability": "nonpayable",
      "type": "function"
    },
    {
      "inputs": [
        {
          "internalType": "address",
          "name": "from",
          "type": "address"
        },
        {
          "internalType": "address",
          "name": "to",
          "type": "address"
        },
        {
          "internalType": "uint256",
          "name": "id",
          "type": "uint256"
        },
        {
          "internalType": "uint256",
          "name": "amount",
          "type": "uint256"
        },
        {
          "internalType": "bytes",
          "name": "data",
          "type": "bytes"
        }
      ],
      "name": "safeTransferFrom",
      "outputs": [],
      "stateMutability": "nonpayable",
      "type": "function"
    },
    {
      "inputs": [
        {
          "internalType": "address",
          "name": "operator",
          "type": "address"
        },
        {
          "internalType": "bool",
          "name": "approved",
          "type": "bool"
        }
      ],
      "name": "setApprovalForAll",
      "outputs": [],
      "stateMutability": "nonpayable",
      "type": "function"
    },
    {
      "inputs": [
        {
          "internalType": "string",
          "name": "eventURI",
          "type": "string"
        }
      ],
      "name": "setEventUri",
      "outputs": [],
      "stateMutability": "nonpayable",
      "type": "function"
    },
    {
      "inputs": [
        {
          "internalType": "bytes4",
          "name": "interfaceId",
          "type": "bytes4"
        }
      ],
      "name": "supportsInterface",
      "outputs": [
        {
          "internalType": "bool",
          "name": "",
          "type": "bool"
        }
      ],
      "stateMutability": "view",
      "type": "function"
    },
    {
      "inputs": [
        {
          "internalType": "uint256",
          "name": "",
          "type": "uint256"
        }
      ],
      "name": "uri",
      "outputs": [
        {
          "internalType": "string",
          "name": "",
          "type": "string"
        }
      ],
      "stateMutability": "view",
      "type": "function"
    }
  ],
  "bytecode": "0x60006003556103e76080818152617d806040529060a0617ce0803683375050815162000033926004925060200190620000b6565b50604080516103e7808252617d0082019092529060208201617ce0803683375050815162000069926005925060200190620000b6565b503480156200007757600080fd5b5060405180608001604052806056815260200162001c0e605691396200009d81620000a4565b506200028e565b6002620000b28282620001c2565b5050565b828054828255906000526020600020908101928215620000f4579160200282015b82811115620000f4578251825591602001919060010190620000d7565b506200010292915062000106565b5090565b5b8082111562000102576000815560010162000107565b634e487b7160e01b600052604160045260246000fd5b600181811c908216806200014857607f821691505b6020821081036200016957634e487b7160e01b600052602260045260246000fd5b50919050565b601f821115620001bd57600081815260208120601f850160051c81016020861015620001985750805b601f850160051c820191505b81811015620001b957828155600101620001a4565b5050505b505050565b81516001600160401b03811115620001de57620001de6200011d565b620001f681620001ef845462000133565b846200016f565b602080601f8311600181146200022e5760008415620002155750858301515b600019600386901b1c1916600185901b178555620001b9565b600085815260208120601f198616915b828110156200025f578886015182559484019460019091019084016200023e565b50858210156200027e5787850151600019600388901b60f8161c191681555b5050505050600190811b01905550565b611970806200029e6000396000f3fe6080604052600436106100dc5760003560e01c80634e1273f41161007f578063920a57dc11610059578063920a57dc14610248578063a22cb46514610268578063e985e9c514610288578063f242432a146102d157600080fd5b80634e1273f4146101db578063790c012514610208578063917a7bee1461022857600080fd5b8063201d995a116100bb578063201d995a146101715780632eb2c2d614610186578063478b9a1f146101a65780634a1afef6146101bb57600080fd5b8062fdd58e146100e157806301ffc9a7146101145780630e89341c14610144575b600080fd5b3480156100ed57600080fd5b506101016100fc366004610f9b565b6102f1565b6040519081526020015b60405180910390f35b34801561012057600080fd5b5061013461012f366004610fdb565b61038a565b604051901515815260200161010b565b34801561015057600080fd5b5061016461015f366004610fff565b6103da565b60405161010b919061105e565b61018461017f366004611071565b61046e565b005b34801561019257600080fd5b506101846101a13660046111e9565b610592565b3480156101b257600080fd5b50600354610101565b3480156101c757600080fd5b506101016101d6366004610fff565b6105de565b3480156101e757600080fd5b506101fb6101f6366004611293565b610605565b60405161010b9190611399565b34801561021457600080fd5b50610101610223366004611071565b61072f565b34801561023457600080fd5b50610101610243366004610fff565b610785565b34801561025457600080fd5b506101846102633660046113ac565b61079a565b34801561027457600080fd5b506101846102833660046113fd565b6107a6565b34801561029457600080fd5b506101346102a3366004611439565b6001600160a01b03918216600090815260016020908152604080832093909416825291909152205460ff1690565b3480156102dd57600080fd5b506101846102ec36600461146c565b6107b5565b60006001600160a01b0383166103615760405162461bcd60e51b815260206004820152602a60248201527f455243313135353a2061646472657373207a65726f206973206e6f742061207660448201526930b634b21037bbb732b960b11b60648201526084015b60405180910390fd5b506000818152602081815260408083206001600160a01b03861684529091529020545b92915050565b60006001600160e01b03198216636cdb3d1360e11b14806103bb57506001600160e01b031982166303a24d0760e21b145b8061038457506301ffc9a760e01b6001600160e01b0319831614610384565b6060600280546103e9906114d1565b80601f0160208091040260200160405190810160405280929190818152602001828054610415906114d1565b80156104625780601f1061043757610100808354040283529160200191610462565b820191906000526020600020905b81548152906001019060200180831161044557829003601f168201915b50505050509050919050565b80600483815481106104825761048261150b565b906000526020600020015410156104db5760405162461bcd60e51b815260206004820152601e60248201527f496e73756666696369656e74207469636b6574732072656d61696e696e6700006044820152606401610358565b6000811161052b5760405162461bcd60e51b815260206004820152601b60248201527f4d757374206d696e74206174206c656173742031207469636b657400000000006044820152606401610358565b610546338383604051806020016040528060008152506107fa565b806004838154811061055a5761055a61150b565b906000526020600020015461056f9190611537565b600483815481106105825761058261150b565b6000918252602090912001555050565b6001600160a01b0385163314806105ae57506105ae85336102a3565b6105ca5760405162461bcd60e51b81526004016103589061154a565b6105d7858585858561090e565b5050505050565b6000600482815481106105f3576105f361150b565b90600052602060002001549050919050565b6060815183511461066a5760405162461bcd60e51b815260206004820152602960248201527f455243313135353a206163636f756e747320616e6420696473206c656e677468604482015268040dad2e6dac2e8c6d60bb1b6064820152608401610358565b6000835167ffffffffffffffff81111561068657610686611093565b6040519080825280602002602001820160405280156106af578160200160208202803683370190505b50905060005b8451811015610727576106fa8582815181106106d3576106d361150b565b60200260200101518583815181106106ed576106ed61150b565b60200260200101516102f1565b82828151811061070c5761070c61150b565b602090810291909101015261072081611598565b90506106b5565b509392505050565b60008061073a610aeb565b905083600482815481106107505761075061150b565b906000526020600020018190555082600582815481106107725761077261150b565b6000918252602090912001559392505050565b6000600582815481106105f3576105f361150b565b6107a381610b08565b50565b6107b1338383610b14565b5050565b6001600160a01b0385163314806107d157506107d185336102a3565b6107ed5760405162461bcd60e51b81526004016103589061154a565b6105d78585858585610bf4565b6001600160a01b03841661085a5760405162461bcd60e51b815260206004820152602160248201527f455243313135353a206d696e7420746f20746865207a65726f206164647265736044820152607360f81b6064820152608401610358565b33600061086685610d1e565b9050600061087385610d1e565b90506000868152602081815260408083206001600160a01b038b168452909152812080548792906108a59084906115b1565b909155505060408051878152602081018790526001600160a01b03808a1692600092918716917fc3d58168c5ae7397731d063d5bbf3d657854427343f4c083240f7aacaa2d0f62910160405180910390a461090583600089898989610d69565b50505050505050565b81518351146109705760405162461bcd60e51b815260206004820152602860248201527f455243313135353a2069647320616e6420616d6f756e7473206c656e677468206044820152670dad2e6dac2e8c6d60c31b6064820152608401610358565b6001600160a01b0384166109965760405162461bcd60e51b8152600401610358906115c4565b3360005b8451811015610a7d5760008582815181106109b7576109b761150b565b6020026020010151905060008583815181106109d5576109d561150b565b602090810291909101810151600084815280835260408082206001600160a01b038e168352909352919091205490915081811015610a255760405162461bcd60e51b815260040161035890611609565b6000838152602081815260408083206001600160a01b038e8116855292528083208585039055908b16825281208054849290610a629084906115b1565b9250508190555050505080610a7690611598565b905061099a565b50846001600160a01b0316866001600160a01b0316826001600160a01b03167f4a39dc06d4c0dbc64b70af90fd698a233a518aa5d07e595d983b8c0526c8f7fb8787604051610acd929190611653565b60405180910390a4610ae3818787878787610ec4565b505050505050565b6000806003546001610afd91906115b1565b600381905592915050565b60026107b182826116cc565b816001600160a01b0316836001600160a01b031603610b875760405162461bcd60e51b815260206004820152602960248201527f455243313135353a2073657474696e6720617070726f76616c20737461747573604482015268103337b91039b2b63360b91b6064820152608401610358565b6001600160a01b03838116600081815260016020908152604080832094871680845294825291829020805460ff191686151590811790915591519182527f17307eab39ab6107e8899845ad3d59bd9653f200f220920489ca2b5937696c31910160405180910390a3505050565b6001600160a01b038416610c1a5760405162461bcd60e51b8152600401610358906115c4565b336000610c2685610d1e565b90506000610c3385610d1e565b90506000868152602081815260408083206001600160a01b038c16845290915290205485811015610c765760405162461bcd60e51b815260040161035890611609565b6000878152602081815260408083206001600160a01b038d8116855292528083208985039055908a16825281208054889290610cb39084906115b1565b909155505060408051888152602081018890526001600160a01b03808b16928c821692918816917fc3d58168c5ae7397731d063d5bbf3d657854427343f4c083240f7aacaa2d0f62910160405180910390a4610d13848a8a8a8a8a610d69565b505050505050505050565b60408051600180825281830190925260609160009190602080830190803683370190505090508281600081518110610d5857610d5861150b565b602090810291909101015292915050565b6001600160a01b0384163b15610ae35760405163f23a6e6160e01b81526001600160a01b0385169063f23a6e6190610dad908990899088908890889060040161178c565b6020604051808303816000875af1925050508015610de8575060408051601f3d908101601f19168201909252610de5918101906117d1565b60015b610e9457610df46117ee565b806308c379a003610e2d5750610e0861180a565b80610e135750610e2f565b8060405162461bcd60e51b8152600401610358919061105e565b505b60405162461bcd60e51b815260206004820152603460248201527f455243313135353a207472616e7366657220746f206e6f6e2d455243313135356044820152732932b1b2b4bb32b91034b6b83632b6b2b73a32b960611b6064820152608401610358565b6001600160e01b0319811663f23a6e6160e01b146109055760405162461bcd60e51b815260040161035890611894565b6001600160a01b0384163b15610ae35760405163bc197c8160e01b81526001600160a01b0385169063bc197c8190610f0890899089908890889088906004016118dc565b6020604051808303816000875af1925050508015610f43575060408051601f3d908101601f19168201909252610f40918101906117d1565b60015b610f4f57610df46117ee565b6001600160e01b0319811663bc197c8160e01b146109055760405162461bcd60e51b815260040161035890611894565b80356001600160a01b0381168114610f9657600080fd5b919050565b60008060408385031215610fae57600080fd5b610fb783610f7f565b946020939093013593505050565b6001600160e01b0319811681146107a357600080fd5b600060208284031215610fed57600080fd5b8135610ff881610fc5565b9392505050565b60006020828403121561101157600080fd5b5035919050565b6000815180845260005b8181101561103e57602081850181015186830182015201611022565b506000602082860101526020601f19601f83011685010191505092915050565b602081526000610ff86020830184611018565b6000806040838503121561108457600080fd5b50508035926020909101359150565b634e487b7160e01b600052604160045260246000fd5b601f8201601f1916810167ffffffffffffffff811182821017156110cf576110cf611093565b6040525050565b600067ffffffffffffffff8211156110f0576110f0611093565b5060051b60200190565b600082601f83011261110b57600080fd5b81356020611118826110d6565b60405161112582826110a9565b83815260059390931b850182019282810191508684111561114557600080fd5b8286015b848110156111605780358352918301918301611149565b509695505050505050565b600067ffffffffffffffff83111561118557611185611093565b60405161119c601f8501601f1916602001826110a9565b8091508381528484840111156111b157600080fd5b83836020830137600060208583010152509392505050565b600082601f8301126111da57600080fd5b610ff88383356020850161116b565b600080600080600060a0868803121561120157600080fd5b61120a86610f7f565b945061121860208701610f7f565b9350604086013567ffffffffffffffff8082111561123557600080fd5b61124189838a016110fa565b9450606088013591508082111561125757600080fd5b61126389838a016110fa565b9350608088013591508082111561127957600080fd5b50611286888289016111c9565b9150509295509295909350565b600080604083850312156112a657600080fd5b823567ffffffffffffffff808211156112be57600080fd5b818501915085601f8301126112d257600080fd5b813560206112df826110d6565b6040516112ec82826110a9565b83815260059390931b850182019282810191508984111561130c57600080fd5b948201945b838610156113315761132286610f7f565b82529482019490820190611311565b9650508601359250508082111561134757600080fd5b50611354858286016110fa565b9150509250929050565b600081518084526020808501945080840160005b8381101561138e57815187529582019590820190600101611372565b509495945050505050565b602081526000610ff8602083018461135e565b6000602082840312156113be57600080fd5b813567ffffffffffffffff8111156113d557600080fd5b8201601f810184136113e657600080fd5b6113f58482356020840161116b565b949350505050565b6000806040838503121561141057600080fd5b61141983610f7f565b91506020830135801515811461142e57600080fd5b809150509250929050565b6000806040838503121561144c57600080fd5b61145583610f7f565b915061146360208401610f7f565b90509250929050565b600080600080600060a0868803121561148457600080fd5b61148d86610f7f565b945061149b60208701610f7f565b93506040860135925060608601359150608086013567ffffffffffffffff8111156114c557600080fd5b611286888289016111c9565b600181811c908216806114e557607f821691505b60208210810361150557634e487b7160e01b600052602260045260246000fd5b50919050565b634e487b7160e01b600052603260045260246000fd5b634e487b7160e01b600052601160045260246000fd5b8181038181111561038457610384611521565b6020808252602e908201527f455243313135353a2063616c6c6572206973206e6f7420746f6b656e206f776e60408201526d195c881bdc88185c1c1c9bdd995960921b606082015260800190565b6000600182016115aa576115aa611521565b5060010190565b8082018082111561038457610384611521565b60208082526025908201527f455243313135353a207472616e7366657220746f20746865207a65726f206164604082015264647265737360d81b606082015260800190565b6020808252602a908201527f455243313135353a20696e73756666696369656e742062616c616e636520666f60408201526939103a3930b739b332b960b11b606082015260800190565b604081526000611666604083018561135e565b8281036020840152611678818561135e565b95945050505050565b601f8211156116c757600081815260208120601f850160051c810160208610156116a85750805b601f850160051c820191505b81811015610ae3578281556001016116b4565b505050565b815167ffffffffffffffff8111156116e6576116e6611093565b6116fa816116f484546114d1565b84611681565b602080601f83116001811461172f57600084156117175750858301515b600019600386901b1c1916600185901b178555610ae3565b600085815260208120601f198616915b8281101561175e5788860151825594840194600190910190840161173f565b508582101561177c5787850151600019600388901b60f8161c191681555b5050505050600190811b01905550565b6001600160a01b03868116825285166020820152604081018490526060810183905260a0608082018190526000906117c690830184611018565b979650505050505050565b6000602082840312156117e357600080fd5b8151610ff881610fc5565b600060033d11156118075760046000803e5060005160e01c5b90565b600060443d10156118185790565b6040516003193d81016004833e81513d67ffffffffffffffff816024840111818411171561184857505050505090565b82850191508151818111156118605750505050505090565b843d870101602082850101111561187a5750505050505090565b611889602082860101876110a9565b509095945050505050565b60208082526028908201527f455243313135353a204552433131353552656365697665722072656a656374656040820152676420746f6b656e7360c01b606082015260800190565b6001600160a01b0386811682528516602082015260a0604082018190526000906119089083018661135e565b828103606084015261191a818661135e565b9050828103608084015261192e8185611018565b9897505050505050505056fea2646970667358221220aea159a8ad2c8b56f0cec3491be789951db81b893fa98c814a5e8756d4e499a764736f6c6343000811003368747470733a2f2f697066732e696f2f697066732f516d5a48455254594c5342334561547a6d77434d58596b64534e7677665a6d365a4c63746f50374a727344486d613f66696c656e616d653d7b69647d2e6a736f6e",
  "linkReferences": {},
  "deployedLinkReferences": {}
}