{
  "_format": "hh-sol-artifact-1",
  "contractName": "NFTicket",
  "sourceName": "contracts/NFTicket.sol",
  "abi": [
    {
      "inputs": [],
      "stateMutability": "nonpayable",
      "type": "constructor"
    },
    {
      "anonymous": false,
      "inputs": [
        {
          "indexed": true,
          "internalType": "address",
          "name": "account",
          "type": "address"
        },
        {
          "indexed": true,
          "internalType": "address",
          "name": "operator",
          "type": "address"
        },
        {
          "indexed": false,
          "internalType": "bool",
          "name": "approved",
          "type": "bool"
        }
      ],
      "name": "ApprovalForAll",
      "type": "event"
    },
    {
      "anonymous": false,
      "inputs": [
        {
          "indexed": true,
          "internalType": "address",
          "name": "operator",
          "type": "address"
        },
        {
          "indexed": true,
          "internalType": "address",
          "name": "from",
          "type": "address"
        },
        {
          "indexed": true,
          "internalType": "address",
          "name": "to",
          "type": "address"
        },
        {
          "indexed": false,
          "internalType": "uint256[]",
          "name": "ids",
          "type": "uint256[]"
        },
        {
          "indexed": false,
          "internalType": "uint256[]",
          "name": "values",
          "type": "uint256[]"
        }
      ],
      "name": "TransferBatch",
      "type": "event"
    },
    {
      "anonymous": false,
      "inputs": [
        {
          "indexed": true,
          "internalType": "address",
          "name": "operator",
          "type": "address"
        },
        {
          "indexed": true,
          "internalType": "address",
          "name": "from",
          "type": "address"
        },
        {
          "indexed": true,
          "internalType": "address",
          "name": "to",
          "type": "address"
        },
        {
          "indexed": false,
          "internalType": "uint256",
          "name": "id",
          "type": "uint256"
        },
        {
          "indexed": false,
          "internalType": "uint256",
          "name": "value",
          "type": "uint256"
        }
      ],
      "name": "TransferSingle",
      "type": "event"
    },
    {
      "anonymous": false,
      "inputs": [
        {
          "indexed": false,
          "internalType": "string",
          "name": "value",
          "type": "string"
        },
        {
          "indexed": true,
          "internalType": "uint256",
          "name": "id",
          "type": "uint256"
        }
      ],
      "name": "URI",
      "type": "event"
    },
    {
      "inputs": [
        {
          "internalType": "address",
          "name": "account",
          "type": "address"
        },
        {
          "internalType": "uint256",
          "name": "id",
          "type": "uint256"
        }
      ],
      "name": "balanceOf",
      "outputs": [
        {
          "internalType": "uint256",
          "name": "",
          "type": "uint256"
        }
      ],
      "stateMutability": "view",
      "type": "function"
    },
    {
      "inputs": [
        {
          "internalType": "address[]",
          "name": "accounts",
          "type": "address[]"
        },
        {
          "internalType": "uint256[]",
          "name": "ids",
          "type": "uint256[]"
        }
      ],
      "name": "balanceOfBatch",
      "outputs": [
        {
          "internalType": "uint256[]",
          "name": "",
          "type": "uint256[]"
        }
      ],
      "stateMutability": "view",
      "type": "function"
    },
    {
      "inputs": [
        {
          "internalType": "uint256",
          "name": "ticketAmount",
          "type": "uint256"
        },
        {
          "internalType": "uint256",
          "name": "ticketPrice",
          "type": "uint256"
        }
      ],
      "name": "createEvent",
      "outputs": [
        {
          "internalType": "uint256",
          "name": "",
          "type": "uint256"
        }
      ],
      "stateMutability": "nonpayable",
      "type": "function"
    },
    {
      "inputs": [],
      "name": "getAllOwnedTickets",
      "outputs": [
        {
          "internalType": "uint256[]",
          "name": "ticketIds",
          "type": "uint256[]"
        }
      ],
      "stateMutability": "view",
      "type": "function"
    },
    {
      "inputs": [
        {
          "internalType": "uint256",
          "name": "eventId",
          "type": "uint256"
        }
      ],
      "name": "getEventInfo",
      "outputs": [
        {
          "components": [
            {
              "internalType": "uint256",
              "name": "eventId",
              "type": "uint256"
            },
            {
              "internalType": "uint256",
              "name": "ticketAmount",
              "type": "uint256"
            },
            {
              "internalType": "uint256",
              "name": "ticketPrice",
              "type": "uint256"
            },
            {
              "internalType": "uint256",
              "name": "ticketsAvailable",
              "type": "uint256"
            },
            {
              "internalType": "address",
              "name": "eventOwner",
              "type": "address"
            }
          ],
          "internalType": "struct NFTicket.Event",
          "name": "",
          "type": "tuple"
        }
      ],
      "stateMutability": "view",
      "type": "function"
    },
    {
      "inputs": [],
      "name": "getLastEventId",
      "outputs": [
        {
          "internalType": "uint256",
          "name": "",
          "type": "uint256"
        }
      ],
      "stateMutability": "view",
      "type": "function"
    },
    {
      "inputs": [
        {
          "internalType": "uint256",
          "name": "eventId",
          "type": "uint256"
        }
      ],
      "name": "getRemainingAvailTickets",
      "outputs": [
        {
          "internalType": "uint256",
          "name": "ticketRemain",
          "type": "uint256"
        }
      ],
      "stateMutability": "view",
      "type": "function"
    },
    {
      "inputs": [
        {
          "internalType": "uint256",
          "name": "ticketId",
          "type": "uint256"
        }
      ],
      "name": "getTicketInfo",
      "outputs": [
        {
          "components": [
            {
              "internalType": "uint256",
              "name": "eventId",
              "type": "uint256"
            },
            {
              "internalType": "uint256",
              "name": "ticketId",
              "type": "uint256"
            },
            {
              "internalType": "bool",
              "name": "redeemed",
              "type": "bool"
            },
            {
              "internalType": "address",
              "name": "owner",
              "type": "address"
            }
          ],
          "internalType": "struct NFTicket.Ticket",
          "name": "",
          "type": "tuple"
        }
      ],
      "stateMutability": "view",
      "type": "function"
    },
    {
      "inputs": [
        {
          "internalType": "address",
          "name": "account",
          "type": "address"
        },
        {
          "internalType": "address",
          "name": "operator",
          "type": "address"
        }
      ],
      "name": "isApprovedForAll",
      "outputs": [
        {
          "internalType": "bool",
          "name": "",
          "type": "bool"
        }
      ],
      "stateMutability": "view",
      "type": "function"
    },
    {
      "inputs": [
        {
          "internalType": "uint256",
          "name": "eventId",
          "type": "uint256"
        },
        {
          "internalType": "uint256",
          "name": "amount",
          "type": "uint256"
        }
      ],
      "name": "mintTickets",
      "outputs": [],
      "stateMutability": "payable",
      "type": "function"
    },
    {
      "inputs": [
        {
          "internalType": "uint256",
          "name": "ticketId",
          "type": "uint256"
        }
      ],
      "name": "redeemTicket",
      "outputs": [],
      "stateMutability": "nonpayable",
      "type": "function"
    },
    {
      "inputs": [
        {
          "internalType": "address",
          "name": "from",
          "type": "address"
        },
        {
          "internalType": "address",
          "name": "to",
          "type": "address"
        },
        {
          "internalType": "uint256[]",
          "name": "ids",
          "type": "uint256[]"
        },
        {
          "internalType": "uint256[]",
          "name": "amounts",
          "type": "uint256[]"
        },
        {
          "internalType": "bytes",
          "name": "data",
          "type": "bytes"
        }
      ],
      "name": "safeBatchTransferFrom",
      "outputs": [],
      "stateMutability": "nonpayable",
      "type": "function"
    },
    {
      "inputs": [
        {
          "internalType": "address",
          "name": "from",
          "type": "address"
        },
        {
          "internalType": "address",
          "name": "to",
          "type": "address"
        },
        {
          "internalType": "uint256",
          "name": "id",
          "type": "uint256"
        },
        {
          "internalType": "uint256",
          "name": "amount",
          "type": "uint256"
        },
        {
          "internalType": "bytes",
          "name": "data",
          "type": "bytes"
        }
      ],
      "name": "safeTransferFrom",
      "outputs": [],
      "stateMutability": "nonpayable",
      "type": "function"
    },
    {
      "inputs": [
        {
          "internalType": "address",
          "name": "operator",
          "type": "address"
        },
        {
          "internalType": "bool",
          "name": "approved",
          "type": "bool"
        }
      ],
      "name": "setApprovalForAll",
      "outputs": [],
      "stateMutability": "nonpayable",
      "type": "function"
    },
    {
      "inputs": [
        {
          "internalType": "string",
          "name": "eventURI",
          "type": "string"
        }
      ],
      "name": "setEventUri",
      "outputs": [],
      "stateMutability": "nonpayable",
      "type": "function"
    },
    {
      "inputs": [
        {
          "internalType": "bytes4",
          "name": "interfaceId",
          "type": "bytes4"
        }
      ],
      "name": "supportsInterface",
      "outputs": [
        {
          "internalType": "bool",
          "name": "",
          "type": "bool"
        }
      ],
      "stateMutability": "view",
      "type": "function"
    },
    {
      "inputs": [
        {
          "internalType": "uint256",
          "name": "ticketId",
          "type": "uint256"
        },
        {
          "internalType": "address",
          "name": "recipient",
          "type": "address"
        }
      ],
      "name": "transferTicket",
      "outputs": [],
      "stateMutability": "nonpayable",
      "type": "function"
    },
    {
      "inputs": [
        {
          "internalType": "uint256",
          "name": "",
          "type": "uint256"
        }
      ],
      "name": "uri",
      "outputs": [
        {
          "internalType": "string",
          "name": "",
          "type": "string"
        }
      ],
      "stateMutability": "view",
      "type": "function"
    }
  ],
  "bytecode": "0x60806040523480156200001157600080fd5b506040518060a00160405280606781526020016200250d60679139620000378162000055565b506200004f60036200006760201b62000ee81760201c565b620001e1565b600262000063828262000115565b5050565b80546001019055565b634e487b7160e01b600052604160045260246000fd5b600181811c908216806200009b57607f821691505b602082108103620000bc57634e487b7160e01b600052602260045260246000fd5b50919050565b601f8211156200011057600081815260208120601f850160051c81016020861015620000eb5750805b601f850160051c820191505b818110156200010c57828155600101620000f7565b5050505b505050565b81516001600160401b0381111562000131576200013162000070565b620001498162000142845462000086565b84620000c2565b602080601f831160018114620001815760008415620001685750858301515b600019600386901b1c1916600185901b1785556200010c565b600085815260208120601f198616915b82811015620001b25788860151825594840194600190910190840162000191565b5085821015620001d15787850151600019600388901b60f8161c191681555b5050505050600190811b01905550565b61231c80620001f16000396000f3fe6080604052600436106101085760003560e01c8063790c012511610095578063b5460deb11610064578063b5460deb1461031a578063cd8083c91461032f578063e985e9c51461035f578063f242432a146103a8578063ff99a063146103c857600080fd5b8063790c0125146102a7578063920a57dc146102c75780639aa964b6146102e7578063a22cb465146102fa57600080fd5b80631d645b12116100dc5780631d645b12146101bf5780632eb2c2d614610225578063478b9a1f146102455780634e1273f41461025a578063679ebf1a1461028757600080fd5b8062fdd58e1461010d57806301ffc9a7146101405780630e89341c1461017057806315f59d7f1461019d575b600080fd5b34801561011957600080fd5b5061012d6101283660046118be565b610498565b6040519081526020015b60405180910390f35b34801561014c57600080fd5b5061016061015b3660046118fe565b610531565b6040519015158152602001610137565b34801561017c57600080fd5b5061019061018b36600461191b565b610581565b604051610137919061197a565b3480156101a957600080fd5b506101bd6101b836600461191b565b610615565b005b3480156101cb57600080fd5b506101df6101da36600461191b565b6106b3565b6040516101379190815181526020808301519082015260408083015190820152606080830151908201526080918201516001600160a01b03169181019190915260a00190565b34801561023157600080fd5b506101bd610240366004611ae0565b610746565b34801561025157600080fd5b5061012d610792565b34801561026657600080fd5b5061027a610275366004611b89565b6107ae565b6040516101379190611c8e565b34801561029357600080fd5b506101bd6102a2366004611ca1565b6108d7565b3480156102b357600080fd5b5061012d6102c2366004611ccd565b610a52565b3480156102d357600080fd5b506101bd6102e2366004611cef565b610ae7565b6101bd6102f5366004611ccd565b610af3565b34801561030657600080fd5b506101bd610315366004611d3f565b610e33565b34801561032657600080fd5b5061027a610e42565b34801561033b57600080fd5b5061012d61034a36600461191b565b60009081526005602052604090206003015490565b34801561036b57600080fd5b5061016061037a366004611d7b565b6001600160a01b03918216600090815260016020908152604080832093909416825291909152205460ff1690565b3480156103b457600080fd5b506101bd6103c3366004611da5565b610ea3565b3480156103d457600080fd5b5061045a6103e336600461191b565b604080516080810182526000808252602082018190529181018290526060810191909152506000908152600660209081526040918290208251608081018452815481526001820154928101929092526002015460ff81161515928201929092526101009091046001600160a01b0316606082015290565b604051610137919081518152602080830151908201526040808301511515908201526060918201516001600160a01b03169181019190915260800190565b60006001600160a01b0383166105085760405162461bcd60e51b815260206004820152602a60248201527f455243313135353a2061646472657373207a65726f206973206e6f742061207660448201526930b634b21037bbb732b960b11b60648201526084015b60405180910390fd5b506000818152602081815260408083206001600160a01b03861684529091529020545b92915050565b60006001600160e01b03198216636cdb3d1360e11b148061056257506001600160e01b031982166303a24d0760e21b145b8061052b57506301ffc9a760e01b6001600160e01b031983161461052b565b60606002805461059090611e09565b80601f01602080910402602001604051908101604052809291908181526020018280546105bc90611e09565b80156106095780601f106105de57610100808354040283529160200191610609565b820191906000526020600020905b8154815290600101906020018083116105ec57829003601f168201915b50505050509050919050565b60008181526006602052604090206002015461010090046001600160a01b031633146106955760405162461bcd60e51b815260206004820152602960248201527f4f6e6c7920746865207469636b6574206f776e65722063616e2072656465656d6044820152680818481d1a58dad95d60ba1b60648201526084016104ff565b6000908152600660205260409020600201805460ff19166001179055565b6106ee6040518060a001604052806000815260200160008152602001600081526020016000815260200160006001600160a01b031681525090565b50600090815260056020908152604091829020825160a08101845281548152600182015492810192909252600281015492820192909252600382015460608201526004909101546001600160a01b0316608082015290565b6001600160a01b0385163314806107625750610762853361037a565b61077e5760405162461bcd60e51b81526004016104ff90611e43565b61078b8585858585610ef1565b5050505050565b6000600161079f60035490565b6107a99190611ea7565b905090565b606081518351146108135760405162461bcd60e51b815260206004820152602960248201527f455243313135353a206163636f756e747320616e6420696473206c656e677468604482015268040dad2e6dac2e8c6d60bb1b60648201526084016104ff565b600083516001600160401b0381111561082e5761082e61198d565b604051908082528060200260200182016040528015610857578160200160208202803683370190505b50905060005b84518110156108cf576108a285828151811061087b5761087b611eba565b602002602001015185838151811061089557610895611eba565b6020026020010151610498565b8282815181106108b4576108b4611eba565b60209081029190910101526108c881611ed0565b905061085d565b509392505050565b60008281526006602052604090206002015461010090046001600160a01b031633146109595760405162461bcd60e51b815260206004820152602b60248201527f4f6e6c7920746865207469636b6574206f776e65722063616e207472616e736660448201526a195c8818481d1a58dad95d60aa1b60648201526084016104ff565b610976338284600160405180602001604052806000815250610ea3565b60008281526006602090815260408083206002018054610100600160a81b0319166101006001600160a01b0387160217905533835260078252918290208054835181840281018401909452808452610a0393928301828280156109f857602002820191906000526020600020905b8154815260200190600101908083116109e4575b505050505083611085565b3360009081526007602090815260409091208251610a279391929190910190611842565b506001600160a01b031660009081526007602090815260408220805460018101825590835291200155565b600080610a5e60035490565b9050610a6e600380546001019055565b6040805160a081018252828152602080820187815282840196875260608301978852336080840190815260008681526005909352939091209151825551600182015593516002850155935160038401559251600490920180546001600160a01b0319166001600160a01b03909316929092179091555090565b610af081611168565b50565b600082815260056020526040902060030154811115610b545760405162461bcd60e51b815260206004820152601e60248201527f496e73756666696369656e74207469636b6574732072656d61696e696e67000060448201526064016104ff565b60008111610ba45760405162461bcd60e51b815260206004820152601b60248201527f4d757374206d696e74206174206c656173742031207469636b6574000000000060448201526064016104ff565b6000816001600160401b03811115610bbe57610bbe61198d565b604051908082528060200260200182016040528015610be7578160200160208202803683370190505b5090506000826001600160401b03811115610c0457610c0461198d565b604051908082528060200260200182016040528015610c2d578160200160208202803683370190505b506000858152600460205260408120549192505b84811015610cb6576000610c558784611174565b905080858381518110610c6a57610c6a611eba565b6020026020010181815250506001848381518110610c8a57610c8a611eba565b602090810291909101015282610c9f81611ed0565b935050508080610cae90611ed0565b915050610c41565b50610cd233848460405180602001604052806000815250611249565b60005b84811015610e2b576000868152600460205260409020805460010190556040518060800160405280878152602001858381518110610d1557610d15611eba565b60200260200101518152602001600015158152602001336001600160a01b031681525060066000868481518110610d4e57610d4e611eba565b602090810291909101810151825281810192909252604090810160009081208451815584840151600182015584830151600290910180546060909601516001600160a01b031661010002610100600160a81b0319921515929092166001600160a81b03199096169590951717909355338352600790915290208451859083908110610ddb57610ddb611eba565b6020908102919091018101518254600181018455600093845282842001558782526005905260408120600301805491610e1383611ee9565b91905055508080610e2390611ed0565b915050610cd5565b505050505050565b610e3e3383836113ce565b5050565b33600090815260076020908152604091829020805483518184028101840190945280845260609392830182828015610e9957602002820191906000526020600020905b815481526020019060010190808311610e85575b5050505050905090565b6001600160a01b038516331480610ebf5750610ebf853361037a565b610edb5760405162461bcd60e51b81526004016104ff90611e43565b61078b85858585856114ae565b80546001019055565b8151835114610f125760405162461bcd60e51b81526004016104ff90611f00565b6001600160a01b038416610f385760405162461bcd60e51b81526004016104ff90611f48565b3360005b845181101561101f576000858281518110610f5957610f59611eba565b602002602001015190506000858381518110610f7757610f77611eba565b602090810291909101810151600084815280835260408082206001600160a01b038e168352909352919091205490915081811015610fc75760405162461bcd60e51b81526004016104ff90611f8d565b6000838152602081815260408083206001600160a01b038e8116855292528083208585039055908b16825281208054849290611004908490611fd7565b925050819055505050508061101890611ed0565b9050610f3c565b50846001600160a01b0316866001600160a01b0316826001600160a01b03167f4a39dc06d4c0dbc64b70af90fd698a233a518aa5d07e595d983b8c0526c8f7fb878760405161106f929190611fea565b60405180910390a4610e2b8187878787876115d8565b60606000600184516110979190611ea7565b6001600160401b038111156110ae576110ae61198d565b6040519080825280602002602001820160405280156110d7578160200160208202803683370190505b5090506000805b855181101561115e57848682815181106110fa576110fa611eba565b60200260200101511461114c5785818151811061111957611119611eba565b602002602001015183838151811061113357611133611eba565b60209081029190910101528161114881611ed0565b9250505b8061115681611ed0565b9150506110de565b5090949350505050565b6002610e3e8282612063565b60006103e78311156111c85760405162461bcd60e51b815260206004820152601f60248201527f4576656e74204944206d757374206265206c657373207468616e20313030300060448201526064016104ff565b620f423f82111561122a5760405162461bcd60e51b815260206004820152602660248201527f5469636b6574206e756d626572206d757374206265206c657373207468616e2060448201526539393939393960d01b60648201526084016104ff565b8161123884620f4240612122565b6112429190611fd7565b9392505050565b6001600160a01b0384166112a95760405162461bcd60e51b815260206004820152602160248201527f455243313135353a206d696e7420746f20746865207a65726f206164647265736044820152607360f81b60648201526084016104ff565b81518351146112ca5760405162461bcd60e51b81526004016104ff90611f00565b3360005b8451811015611366578381815181106112e9576112e9611eba565b602002602001015160008087848151811061130657611306611eba565b602002602001015181526020019081526020016000206000886001600160a01b03166001600160a01b03168152602001908152602001600020600082825461134e9190611fd7565b9091555081905061135e81611ed0565b9150506112ce565b50846001600160a01b031660006001600160a01b0316826001600160a01b03167f4a39dc06d4c0dbc64b70af90fd698a233a518aa5d07e595d983b8c0526c8f7fb87876040516113b7929190611fea565b60405180910390a461078b816000878787876115d8565b816001600160a01b0316836001600160a01b0316036114415760405162461bcd60e51b815260206004820152602960248201527f455243313135353a2073657474696e6720617070726f76616c20737461747573604482015268103337b91039b2b63360b91b60648201526084016104ff565b6001600160a01b03838116600081815260016020908152604080832094871680845294825291829020805460ff191686151590811790915591519182527f17307eab39ab6107e8899845ad3d59bd9653f200f220920489ca2b5937696c31910160405180910390a3505050565b6001600160a01b0384166114d45760405162461bcd60e51b81526004016104ff90611f48565b3360006114e08561173c565b905060006114ed8561173c565b90506000868152602081815260408083206001600160a01b038c168452909152902054858110156115305760405162461bcd60e51b81526004016104ff90611f8d565b6000878152602081815260408083206001600160a01b038d8116855292528083208985039055908a1682528120805488929061156d908490611fd7565b909155505060408051888152602081018890526001600160a01b03808b16928c821692918816917fc3d58168c5ae7397731d063d5bbf3d657854427343f4c083240f7aacaa2d0f62910160405180910390a46115cd848a8a8a8a8a611787565b505050505050505050565b6001600160a01b0384163b15610e2b5760405163bc197c8160e01b81526001600160a01b0385169063bc197c819061161c9089908990889088908890600401612139565b6020604051808303816000875af1925050508015611657575060408051601f3d908101601f1916820190925261165491810190612197565b60015b611703576116636121b4565b806308c379a00361169c57506116776121d0565b80611682575061169e565b8060405162461bcd60e51b81526004016104ff919061197a565b505b60405162461bcd60e51b815260206004820152603460248201527f455243313135353a207472616e7366657220746f206e6f6e2d455243313135356044820152732932b1b2b4bb32b91034b6b83632b6b2b73a32b960611b60648201526084016104ff565b6001600160e01b0319811663bc197c8160e01b146117335760405162461bcd60e51b81526004016104ff90612259565b50505050505050565b6040805160018082528183019092526060916000919060208083019080368337019050509050828160008151811061177657611776611eba565b602090810291909101015292915050565b6001600160a01b0384163b15610e2b5760405163f23a6e6160e01b81526001600160a01b0385169063f23a6e61906117cb90899089908890889088906004016122a1565b6020604051808303816000875af1925050508015611806575060408051601f3d908101601f1916820190925261180391810190612197565b60015b611812576116636121b4565b6001600160e01b0319811663f23a6e6160e01b146117335760405162461bcd60e51b81526004016104ff90612259565b82805482825590600052602060002090810192821561187d579160200282015b8281111561187d578251825591602001919060010190611862565b5061188992915061188d565b5090565b5b80821115611889576000815560010161188e565b80356001600160a01b03811681146118b957600080fd5b919050565b600080604083850312156118d157600080fd5b6118da836118a2565b946020939093013593505050565b6001600160e01b031981168114610af057600080fd5b60006020828403121561191057600080fd5b8135611242816118e8565b60006020828403121561192d57600080fd5b5035919050565b6000815180845260005b8181101561195a5760208185018101518683018201520161193e565b506000602082860101526020601f19601f83011685010191505092915050565b6020815260006112426020830184611934565b634e487b7160e01b600052604160045260246000fd5b601f8201601f191681016001600160401b03811182821017156119c8576119c861198d565b6040525050565b60006001600160401b038211156119e8576119e861198d565b5060051b60200190565b600082601f830112611a0357600080fd5b81356020611a10826119cf565b604051611a1d82826119a3565b83815260059390931b8501820192828101915086841115611a3d57600080fd5b8286015b84811015611a585780358352918301918301611a41565b509695505050505050565b60006001600160401b03831115611a7c57611a7c61198d565b604051611a93601f8501601f1916602001826119a3565b809150838152848484011115611aa857600080fd5b83836020830137600060208583010152509392505050565b600082601f830112611ad157600080fd5b61124283833560208501611a63565b600080600080600060a08688031215611af857600080fd5b611b01866118a2565b9450611b0f602087016118a2565b935060408601356001600160401b0380821115611b2b57600080fd5b611b3789838a016119f2565b94506060880135915080821115611b4d57600080fd5b611b5989838a016119f2565b93506080880135915080821115611b6f57600080fd5b50611b7c88828901611ac0565b9150509295509295909350565b60008060408385031215611b9c57600080fd5b82356001600160401b0380821115611bb357600080fd5b818501915085601f830112611bc757600080fd5b81356020611bd4826119cf565b604051611be182826119a3565b83815260059390931b8501820192828101915089841115611c0157600080fd5b948201945b83861015611c2657611c17866118a2565b82529482019490820190611c06565b96505086013592505080821115611c3c57600080fd5b50611c49858286016119f2565b9150509250929050565b600081518084526020808501945080840160005b83811015611c8357815187529582019590820190600101611c67565b509495945050505050565b6020815260006112426020830184611c53565b60008060408385031215611cb457600080fd5b82359150611cc4602084016118a2565b90509250929050565b60008060408385031215611ce057600080fd5b50508035926020909101359150565b600060208284031215611d0157600080fd5b81356001600160401b03811115611d1757600080fd5b8201601f81018413611d2857600080fd5b611d3784823560208401611a63565b949350505050565b60008060408385031215611d5257600080fd5b611d5b836118a2565b915060208301358015158114611d7057600080fd5b809150509250929050565b60008060408385031215611d8e57600080fd5b611d97836118a2565b9150611cc4602084016118a2565b600080600080600060a08688031215611dbd57600080fd5b611dc6866118a2565b9450611dd4602087016118a2565b9350604086013592506060860135915060808601356001600160401b03811115611dfd57600080fd5b611b7c88828901611ac0565b600181811c90821680611e1d57607f821691505b602082108103611e3d57634e487b7160e01b600052602260045260246000fd5b50919050565b6020808252602e908201527f455243313135353a2063616c6c6572206973206e6f7420746f6b656e206f776e60408201526d195c881bdc88185c1c1c9bdd995960921b606082015260800190565b634e487b7160e01b600052601160045260246000fd5b8181038181111561052b5761052b611e91565b634e487b7160e01b600052603260045260246000fd5b600060018201611ee257611ee2611e91565b5060010190565b600081611ef857611ef8611e91565b506000190190565b60208082526028908201527f455243313135353a2069647320616e6420616d6f756e7473206c656e677468206040820152670dad2e6dac2e8c6d60c31b606082015260800190565b60208082526025908201527f455243313135353a207472616e7366657220746f20746865207a65726f206164604082015264647265737360d81b606082015260800190565b6020808252602a908201527f455243313135353a20696e73756666696369656e742062616c616e636520666f60408201526939103a3930b739b332b960b11b606082015260800190565b8082018082111561052b5761052b611e91565b604081526000611ffd6040830185611c53565b828103602084015261200f8185611c53565b95945050505050565b601f82111561205e57600081815260208120601f850160051c8101602086101561203f5750805b601f850160051c820191505b81811015610e2b5782815560010161204b565b505050565b81516001600160401b0381111561207c5761207c61198d565b6120908161208a8454611e09565b84612018565b602080601f8311600181146120c557600084156120ad5750858301515b600019600386901b1c1916600185901b178555610e2b565b600085815260208120601f198616915b828110156120f4578886015182559484019460019091019084016120d5565b50858210156121125787850151600019600388901b60f8161c191681555b5050505050600190811b01905550565b808202811582820484141761052b5761052b611e91565b6001600160a01b0386811682528516602082015260a06040820181905260009061216590830186611c53565b82810360608401526121778186611c53565b9050828103608084015261218b8185611934565b98975050505050505050565b6000602082840312156121a957600080fd5b8151611242816118e8565b600060033d11156121cd5760046000803e5060005160e01c5b90565b600060443d10156121de5790565b6040516003193d81016004833e81513d6001600160401b03816024840111818411171561220d57505050505090565b82850191508151818111156122255750505050505090565b843d870101602082850101111561223f5750505050505090565b61224e602082860101876119a3565b509095945050505050565b60208082526028908201527f455243313135353a204552433131353552656365697665722072656a656374656040820152676420746f6b656e7360c01b606082015260800190565b6001600160a01b03868116825285166020820152604081018490526060810183905260a0608082018190526000906122db90830184611934565b97965050505050505056fea2646970667358221220296c6209e0326bfef187dc95ca8fa94c9abf49f55b8b80001e6c4627d917dad364736f6c6343000811003368747470733a2f2f666972656261736573746f726167652e676f6f676c65617069732e636f6d2f76302f622f6e667469636b65742d66303335362e61707073706f742e636f6d2f6f2f6d657461646174612532467b69647d2e6a736f6e3f616c743d6d65646961",
  "linkReferences": {},
  "deployedLinkReferences": {}
}