{
  "_format": "hh-sol-artifact-1",
  "contractName": "NFTicket",
  "sourceName": "contracts/NFTicket.sol",
  "abi": [
    {
      "inputs": [],
      "stateMutability": "nonpayable",
      "type": "constructor"
    },
    {
      "anonymous": false,
      "inputs": [
        {
          "indexed": true,
          "internalType": "address",
          "name": "account",
          "type": "address"
        },
        {
          "indexed": true,
          "internalType": "address",
          "name": "operator",
          "type": "address"
        },
        {
          "indexed": false,
          "internalType": "bool",
          "name": "approved",
          "type": "bool"
        }
      ],
      "name": "ApprovalForAll",
      "type": "event"
    },
    {
      "anonymous": false,
      "inputs": [
        {
          "indexed": true,
          "internalType": "address",
          "name": "operator",
          "type": "address"
        },
        {
          "indexed": true,
          "internalType": "address",
          "name": "from",
          "type": "address"
        },
        {
          "indexed": true,
          "internalType": "address",
          "name": "to",
          "type": "address"
        },
        {
          "indexed": false,
          "internalType": "uint256[]",
          "name": "ids",
          "type": "uint256[]"
        },
        {
          "indexed": false,
          "internalType": "uint256[]",
          "name": "values",
          "type": "uint256[]"
        }
      ],
      "name": "TransferBatch",
      "type": "event"
    },
    {
      "anonymous": false,
      "inputs": [
        {
          "indexed": true,
          "internalType": "address",
          "name": "operator",
          "type": "address"
        },
        {
          "indexed": true,
          "internalType": "address",
          "name": "from",
          "type": "address"
        },
        {
          "indexed": true,
          "internalType": "address",
          "name": "to",
          "type": "address"
        },
        {
          "indexed": false,
          "internalType": "uint256",
          "name": "id",
          "type": "uint256"
        },
        {
          "indexed": false,
          "internalType": "uint256",
          "name": "value",
          "type": "uint256"
        }
      ],
      "name": "TransferSingle",
      "type": "event"
    },
    {
      "anonymous": false,
      "inputs": [
        {
          "indexed": false,
          "internalType": "string",
          "name": "value",
          "type": "string"
        },
        {
          "indexed": true,
          "internalType": "uint256",
          "name": "id",
          "type": "uint256"
        }
      ],
      "name": "URI",
      "type": "event"
    },
    {
      "inputs": [
        {
          "internalType": "address",
          "name": "account",
          "type": "address"
        },
        {
          "internalType": "uint256",
          "name": "id",
          "type": "uint256"
        }
      ],
      "name": "balanceOf",
      "outputs": [
        {
          "internalType": "uint256",
          "name": "",
          "type": "uint256"
        }
      ],
      "stateMutability": "view",
      "type": "function"
    },
    {
      "inputs": [
        {
          "internalType": "address[]",
          "name": "accounts",
          "type": "address[]"
        },
        {
          "internalType": "uint256[]",
          "name": "ids",
          "type": "uint256[]"
        }
      ],
      "name": "balanceOfBatch",
      "outputs": [
        {
          "internalType": "uint256[]",
          "name": "",
          "type": "uint256[]"
        }
      ],
      "stateMutability": "view",
      "type": "function"
    },
    {
      "inputs": [
        {
          "internalType": "uint256",
          "name": "ticketAmount",
          "type": "uint256"
        },
        {
          "internalType": "uint256",
          "name": "ticketPrice",
          "type": "uint256"
        }
      ],
      "name": "createEvent",
      "outputs": [
        {
          "internalType": "uint256",
          "name": "",
          "type": "uint256"
        }
      ],
      "stateMutability": "nonpayable",
      "type": "function"
    },
    {
      "inputs": [],
      "name": "getAllOwnedTickets",
      "outputs": [
        {
          "internalType": "uint256[]",
          "name": "ticketIds",
          "type": "uint256[]"
        }
      ],
      "stateMutability": "view",
      "type": "function"
    },
    {
      "inputs": [
        {
          "internalType": "uint256",
          "name": "eventId",
          "type": "uint256"
        }
      ],
      "name": "getEventInfo",
      "outputs": [
        {
          "components": [
            {
              "internalType": "uint256",
              "name": "eventId",
              "type": "uint256"
            },
            {
              "internalType": "uint256",
              "name": "ticketAmount",
              "type": "uint256"
            },
            {
              "internalType": "uint256",
              "name": "ticketPrice",
              "type": "uint256"
            },
            {
              "internalType": "uint256",
              "name": "ticketsAvailable",
              "type": "uint256"
            },
            {
              "internalType": "address",
              "name": "eventOwner",
              "type": "address"
            }
          ],
          "internalType": "struct NFTicket.Event",
          "name": "",
          "type": "tuple"
        }
      ],
      "stateMutability": "view",
      "type": "function"
    },
    {
      "inputs": [],
      "name": "getLastEventId",
      "outputs": [
        {
          "internalType": "uint256",
          "name": "",
          "type": "uint256"
        }
      ],
      "stateMutability": "view",
      "type": "function"
    },
    {
      "inputs": [
        {
          "internalType": "uint256",
          "name": "ticketId",
          "type": "uint256"
        }
      ],
      "name": "getTicketInfo",
      "outputs": [
        {
          "components": [
            {
              "internalType": "uint256",
              "name": "eventId",
              "type": "uint256"
            },
            {
              "internalType": "uint256",
              "name": "ticketId",
              "type": "uint256"
            },
            {
              "internalType": "bool",
              "name": "redeemed",
              "type": "bool"
            },
            {
              "internalType": "address",
              "name": "owner",
              "type": "address"
            }
          ],
          "internalType": "struct NFTicket.Ticket",
          "name": "",
          "type": "tuple"
        }
      ],
      "stateMutability": "view",
      "type": "function"
    },
    {
      "inputs": [
        {
          "internalType": "address",
          "name": "account",
          "type": "address"
        },
        {
          "internalType": "address",
          "name": "operator",
          "type": "address"
        }
      ],
      "name": "isApprovedForAll",
      "outputs": [
        {
          "internalType": "bool",
          "name": "",
          "type": "bool"
        }
      ],
      "stateMutability": "view",
      "type": "function"
    },
    {
      "inputs": [
        {
          "internalType": "uint256",
          "name": "eventId",
          "type": "uint256"
        },
        {
          "internalType": "uint256",
          "name": "amount",
          "type": "uint256"
        }
      ],
      "name": "mintTickets",
      "outputs": [],
      "stateMutability": "payable",
      "type": "function"
    },
    {
      "inputs": [
        {
          "internalType": "uint256",
          "name": "ticketId",
          "type": "uint256"
        }
      ],
      "name": "redeemTicket",
      "outputs": [],
      "stateMutability": "nonpayable",
      "type": "function"
    },
    {
      "inputs": [
        {
          "internalType": "address",
          "name": "from",
          "type": "address"
        },
        {
          "internalType": "address",
          "name": "to",
          "type": "address"
        },
        {
          "internalType": "uint256[]",
          "name": "ids",
          "type": "uint256[]"
        },
        {
          "internalType": "uint256[]",
          "name": "amounts",
          "type": "uint256[]"
        },
        {
          "internalType": "bytes",
          "name": "data",
          "type": "bytes"
        }
      ],
      "name": "safeBatchTransferFrom",
      "outputs": [],
      "stateMutability": "nonpayable",
      "type": "function"
    },
    {
      "inputs": [
        {
          "internalType": "address",
          "name": "from",
          "type": "address"
        },
        {
          "internalType": "address",
          "name": "to",
          "type": "address"
        },
        {
          "internalType": "uint256",
          "name": "id",
          "type": "uint256"
        },
        {
          "internalType": "uint256",
          "name": "amount",
          "type": "uint256"
        },
        {
          "internalType": "bytes",
          "name": "data",
          "type": "bytes"
        }
      ],
      "name": "safeTransferFrom",
      "outputs": [],
      "stateMutability": "nonpayable",
      "type": "function"
    },
    {
      "inputs": [
        {
          "internalType": "address",
          "name": "operator",
          "type": "address"
        },
        {
          "internalType": "bool",
          "name": "approved",
          "type": "bool"
        }
      ],
      "name": "setApprovalForAll",
      "outputs": [],
      "stateMutability": "nonpayable",
      "type": "function"
    },
    {
      "inputs": [
        {
          "internalType": "string",
          "name": "eventURI",
          "type": "string"
        }
      ],
      "name": "setEventUri",
      "outputs": [],
      "stateMutability": "nonpayable",
      "type": "function"
    },
    {
      "inputs": [
        {
          "internalType": "bytes4",
          "name": "interfaceId",
          "type": "bytes4"
        }
      ],
      "name": "supportsInterface",
      "outputs": [
        {
          "internalType": "bool",
          "name": "",
          "type": "bool"
        }
      ],
      "stateMutability": "view",
      "type": "function"
    },
    {
      "inputs": [
        {
          "internalType": "uint256",
          "name": "ticketId",
          "type": "uint256"
        },
        {
          "internalType": "address",
          "name": "recipient",
          "type": "address"
        }
      ],
      "name": "transferTicket",
      "outputs": [],
      "stateMutability": "nonpayable",
      "type": "function"
    },
    {
      "inputs": [
        {
          "internalType": "uint256",
          "name": "",
          "type": "uint256"
        }
      ],
      "name": "uri",
      "outputs": [
        {
          "internalType": "string",
          "name": "",
          "type": "string"
        }
      ],
      "stateMutability": "view",
      "type": "function"
    }
  ],
  "bytecode": "0x60806040523480156200001157600080fd5b506040518060a0016040528060678152602001620024d260679139620000378162000055565b506200004f60036200006760201b62000ead1760201c565b620001e1565b600262000063828262000115565b5050565b80546001019055565b634e487b7160e01b600052604160045260246000fd5b600181811c908216806200009b57607f821691505b602082108103620000bc57634e487b7160e01b600052602260045260246000fd5b50919050565b601f8211156200011057600081815260208120601f850160051c81016020861015620000eb5750805b601f850160051c820191505b818110156200010c57828155600101620000f7565b5050505b505050565b81516001600160401b0381111562000131576200013162000070565b620001498162000142845462000086565b84620000c2565b602080601f831160018114620001815760008415620001685750858301515b600019600386901b1c1916600185901b1785556200010c565b600085815260208120601f198616915b82811015620001b25788860151825594840194600190910190840162000191565b5085821015620001d15787850151600019600388901b60f8161c191681555b5050505050600190811b01905550565b6122e180620001f16000396000f3fe6080604052600436106100fd5760003560e01c8063679ebf1a11610095578063a22cb46511610064578063a22cb465146102ef578063b5460deb1461030f578063e985e9c514610324578063f242432a1461036d578063ff99a0631461038d57600080fd5b8063679ebf1a1461027c578063790c01251461029c578063920a57dc146102bc5780639aa964b6146102dc57600080fd5b80631d645b12116100d15780631d645b12146101b45780632eb2c2d61461021a578063478b9a1f1461023a5780634e1273f41461024f57600080fd5b8062fdd58e1461010257806301ffc9a7146101355780630e89341c1461016557806315f59d7f14610192575b600080fd5b34801561010e57600080fd5b5061012261011d366004611883565b61045d565b6040519081526020015b60405180910390f35b34801561014157600080fd5b506101556101503660046118c3565b6104f6565b604051901515815260200161012c565b34801561017157600080fd5b506101856101803660046118e0565b610546565b60405161012c919061193f565b34801561019e57600080fd5b506101b26101ad3660046118e0565b6105da565b005b3480156101c057600080fd5b506101d46101cf3660046118e0565b610678565b60405161012c9190815181526020808301519082015260408083015190820152606080830151908201526080918201516001600160a01b03169181019190915260a00190565b34801561022657600080fd5b506101b2610235366004611aa5565b61070b565b34801561024657600080fd5b50610122610757565b34801561025b57600080fd5b5061026f61026a366004611b4e565b610773565b60405161012c9190611c53565b34801561028857600080fd5b506101b2610297366004611c66565b61089c565b3480156102a857600080fd5b506101226102b7366004611c92565b610a17565b3480156102c857600080fd5b506101b26102d7366004611cb4565b610aac565b6101b26102ea366004611c92565b610ab8565b3480156102fb57600080fd5b506101b261030a366004611d04565b610df8565b34801561031b57600080fd5b5061026f610e07565b34801561033057600080fd5b5061015561033f366004611d40565b6001600160a01b03918216600090815260016020908152604080832093909416825291909152205460ff1690565b34801561037957600080fd5b506101b2610388366004611d6a565b610e68565b34801561039957600080fd5b5061041f6103a83660046118e0565b604080516080810182526000808252602082018190529181018290526060810191909152506000908152600660209081526040918290208251608081018452815481526001820154928101929092526002015460ff81161515928201929092526101009091046001600160a01b0316606082015290565b60405161012c919081518152602080830151908201526040808301511515908201526060918201516001600160a01b03169181019190915260800190565b60006001600160a01b0383166104cd5760405162461bcd60e51b815260206004820152602a60248201527f455243313135353a2061646472657373207a65726f206973206e6f742061207660448201526930b634b21037bbb732b960b11b60648201526084015b60405180910390fd5b506000818152602081815260408083206001600160a01b03861684529091529020545b92915050565b60006001600160e01b03198216636cdb3d1360e11b148061052757506001600160e01b031982166303a24d0760e21b145b806104f057506301ffc9a760e01b6001600160e01b03198316146104f0565b60606002805461055590611dce565b80601f016020809104026020016040519081016040528092919081815260200182805461058190611dce565b80156105ce5780601f106105a3576101008083540402835291602001916105ce565b820191906000526020600020905b8154815290600101906020018083116105b157829003601f168201915b50505050509050919050565b60008181526006602052604090206002015461010090046001600160a01b0316331461065a5760405162461bcd60e51b815260206004820152602960248201527f4f6e6c7920746865207469636b6574206f776e65722063616e2072656465656d6044820152680818481d1a58dad95d60ba1b60648201526084016104c4565b6000908152600660205260409020600201805460ff19166001179055565b6106b36040518060a001604052806000815260200160008152602001600081526020016000815260200160006001600160a01b031681525090565b50600090815260056020908152604091829020825160a08101845281548152600182015492810192909252600281015492820192909252600382015460608201526004909101546001600160a01b0316608082015290565b6001600160a01b0385163314806107275750610727853361033f565b6107435760405162461bcd60e51b81526004016104c490611e08565b6107508585858585610eb6565b5050505050565b6000600161076460035490565b61076e9190611e6c565b905090565b606081518351146107d85760405162461bcd60e51b815260206004820152602960248201527f455243313135353a206163636f756e747320616e6420696473206c656e677468604482015268040dad2e6dac2e8c6d60bb1b60648201526084016104c4565b600083516001600160401b038111156107f3576107f3611952565b60405190808252806020026020018201604052801561081c578160200160208202803683370190505b50905060005b84518110156108945761086785828151811061084057610840611e7f565b602002602001015185838151811061085a5761085a611e7f565b602002602001015161045d565b82828151811061087957610879611e7f565b602090810291909101015261088d81611e95565b9050610822565b509392505050565b60008281526006602052604090206002015461010090046001600160a01b0316331461091e5760405162461bcd60e51b815260206004820152602b60248201527f4f6e6c7920746865207469636b6574206f776e65722063616e207472616e736660448201526a195c8818481d1a58dad95d60aa1b60648201526084016104c4565b61093b338284600160405180602001604052806000815250610e68565b60008281526006602090815260408083206002018054610100600160a81b0319166101006001600160a01b03871602179055338352600782529182902080548351818402810184019094528084526109c893928301828280156109bd57602002820191906000526020600020905b8154815260200190600101908083116109a9575b50505050508361104a565b33600090815260076020908152604090912082516109ec9391929190910190611807565b506001600160a01b031660009081526007602090815260408220805460018101825590835291200155565b600080610a2360035490565b9050610a33600380546001019055565b6040805160a081018252828152602080820187815282840196875260608301978852336080840190815260008681526005909352939091209151825551600182015593516002850155935160038401559251600490920180546001600160a01b0319166001600160a01b03909316929092179091555090565b610ab58161112d565b50565b600082815260056020526040902060030154811115610b195760405162461bcd60e51b815260206004820152601e60248201527f496e73756666696369656e74207469636b6574732072656d61696e696e67000060448201526064016104c4565b60008111610b695760405162461bcd60e51b815260206004820152601b60248201527f4d757374206d696e74206174206c656173742031207469636b6574000000000060448201526064016104c4565b6000816001600160401b03811115610b8357610b83611952565b604051908082528060200260200182016040528015610bac578160200160208202803683370190505b5090506000826001600160401b03811115610bc957610bc9611952565b604051908082528060200260200182016040528015610bf2578160200160208202803683370190505b506000858152600460205260408120549192505b84811015610c7b576000610c1a8784611139565b905080858381518110610c2f57610c2f611e7f565b6020026020010181815250506001848381518110610c4f57610c4f611e7f565b602090810291909101015282610c6481611e95565b935050508080610c7390611e95565b915050610c06565b50610c973384846040518060200160405280600081525061120e565b60005b84811015610df0576000868152600460205260409020805460010190556040518060800160405280878152602001858381518110610cda57610cda611e7f565b60200260200101518152602001600015158152602001336001600160a01b031681525060066000868481518110610d1357610d13611e7f565b602090810291909101810151825281810192909252604090810160009081208451815584840151600182015584830151600290910180546060909601516001600160a01b031661010002610100600160a81b0319921515929092166001600160a81b03199096169590951717909355338352600790915290208451859083908110610da057610da0611e7f565b6020908102919091018101518254600181018455600093845282842001558782526005905260408120600301805491610dd883611eae565b91905055508080610de890611e95565b915050610c9a565b505050505050565b610e03338383611393565b5050565b33600090815260076020908152604091829020805483518184028101840190945280845260609392830182828015610e5e57602002820191906000526020600020905b815481526020019060010190808311610e4a575b5050505050905090565b6001600160a01b038516331480610e845750610e84853361033f565b610ea05760405162461bcd60e51b81526004016104c490611e08565b6107508585858585611473565b80546001019055565b8151835114610ed75760405162461bcd60e51b81526004016104c490611ec5565b6001600160a01b038416610efd5760405162461bcd60e51b81526004016104c490611f0d565b3360005b8451811015610fe4576000858281518110610f1e57610f1e611e7f565b602002602001015190506000858381518110610f3c57610f3c611e7f565b602090810291909101810151600084815280835260408082206001600160a01b038e168352909352919091205490915081811015610f8c5760405162461bcd60e51b81526004016104c490611f52565b6000838152602081815260408083206001600160a01b038e8116855292528083208585039055908b16825281208054849290610fc9908490611f9c565b9250508190555050505080610fdd90611e95565b9050610f01565b50846001600160a01b0316866001600160a01b0316826001600160a01b03167f4a39dc06d4c0dbc64b70af90fd698a233a518aa5d07e595d983b8c0526c8f7fb8787604051611034929190611faf565b60405180910390a4610df081878787878761159d565b606060006001845161105c9190611e6c565b6001600160401b0381111561107357611073611952565b60405190808252806020026020018201604052801561109c578160200160208202803683370190505b5090506000805b855181101561112357848682815181106110bf576110bf611e7f565b602002602001015114611111578581815181106110de576110de611e7f565b60200260200101518383815181106110f8576110f8611e7f565b60209081029190910101528161110d81611e95565b9250505b8061111b81611e95565b9150506110a3565b5090949350505050565b6002610e038282612028565b60006103e783111561118d5760405162461bcd60e51b815260206004820152601f60248201527f4576656e74204944206d757374206265206c657373207468616e20313030300060448201526064016104c4565b620f423f8211156111ef5760405162461bcd60e51b815260206004820152602660248201527f5469636b6574206e756d626572206d757374206265206c657373207468616e2060448201526539393939393960d01b60648201526084016104c4565b816111fd84620f42406120e7565b6112079190611f9c565b9392505050565b6001600160a01b03841661126e5760405162461bcd60e51b815260206004820152602160248201527f455243313135353a206d696e7420746f20746865207a65726f206164647265736044820152607360f81b60648201526084016104c4565b815183511461128f5760405162461bcd60e51b81526004016104c490611ec5565b3360005b845181101561132b578381815181106112ae576112ae611e7f565b60200260200101516000808784815181106112cb576112cb611e7f565b602002602001015181526020019081526020016000206000886001600160a01b03166001600160a01b0316815260200190815260200160002060008282546113139190611f9c565b9091555081905061132381611e95565b915050611293565b50846001600160a01b031660006001600160a01b0316826001600160a01b03167f4a39dc06d4c0dbc64b70af90fd698a233a518aa5d07e595d983b8c0526c8f7fb878760405161137c929190611faf565b60405180910390a46107508160008787878761159d565b816001600160a01b0316836001600160a01b0316036114065760405162461bcd60e51b815260206004820152602960248201527f455243313135353a2073657474696e6720617070726f76616c20737461747573604482015268103337b91039b2b63360b91b60648201526084016104c4565b6001600160a01b03838116600081815260016020908152604080832094871680845294825291829020805460ff191686151590811790915591519182527f17307eab39ab6107e8899845ad3d59bd9653f200f220920489ca2b5937696c31910160405180910390a3505050565b6001600160a01b0384166114995760405162461bcd60e51b81526004016104c490611f0d565b3360006114a585611701565b905060006114b285611701565b90506000868152602081815260408083206001600160a01b038c168452909152902054858110156114f55760405162461bcd60e51b81526004016104c490611f52565b6000878152602081815260408083206001600160a01b038d8116855292528083208985039055908a16825281208054889290611532908490611f9c565b909155505060408051888152602081018890526001600160a01b03808b16928c821692918816917fc3d58168c5ae7397731d063d5bbf3d657854427343f4c083240f7aacaa2d0f62910160405180910390a4611592848a8a8a8a8a61174c565b505050505050505050565b6001600160a01b0384163b15610df05760405163bc197c8160e01b81526001600160a01b0385169063bc197c81906115e190899089908890889088906004016120fe565b6020604051808303816000875af192505050801561161c575060408051601f3d908101601f191682019092526116199181019061215c565b60015b6116c857611628612179565b806308c379a003611661575061163c612195565b806116475750611663565b8060405162461bcd60e51b81526004016104c4919061193f565b505b60405162461bcd60e51b815260206004820152603460248201527f455243313135353a207472616e7366657220746f206e6f6e2d455243313135356044820152732932b1b2b4bb32b91034b6b83632b6b2b73a32b960611b60648201526084016104c4565b6001600160e01b0319811663bc197c8160e01b146116f85760405162461bcd60e51b81526004016104c49061221e565b50505050505050565b6040805160018082528183019092526060916000919060208083019080368337019050509050828160008151811061173b5761173b611e7f565b602090810291909101015292915050565b6001600160a01b0384163b15610df05760405163f23a6e6160e01b81526001600160a01b0385169063f23a6e61906117909089908990889088908890600401612266565b6020604051808303816000875af19250505080156117cb575060408051601f3d908101601f191682019092526117c89181019061215c565b60015b6117d757611628612179565b6001600160e01b0319811663f23a6e6160e01b146116f85760405162461bcd60e51b81526004016104c49061221e565b828054828255906000526020600020908101928215611842579160200282015b82811115611842578251825591602001919060010190611827565b5061184e929150611852565b5090565b5b8082111561184e5760008155600101611853565b80356001600160a01b038116811461187e57600080fd5b919050565b6000806040838503121561189657600080fd5b61189f83611867565b946020939093013593505050565b6001600160e01b031981168114610ab557600080fd5b6000602082840312156118d557600080fd5b8135611207816118ad565b6000602082840312156118f257600080fd5b5035919050565b6000815180845260005b8181101561191f57602081850181015186830182015201611903565b506000602082860101526020601f19601f83011685010191505092915050565b60208152600061120760208301846118f9565b634e487b7160e01b600052604160045260246000fd5b601f8201601f191681016001600160401b038111828210171561198d5761198d611952565b6040525050565b60006001600160401b038211156119ad576119ad611952565b5060051b60200190565b600082601f8301126119c857600080fd5b813560206119d582611994565b6040516119e28282611968565b83815260059390931b8501820192828101915086841115611a0257600080fd5b8286015b84811015611a1d5780358352918301918301611a06565b509695505050505050565b60006001600160401b03831115611a4157611a41611952565b604051611a58601f8501601f191660200182611968565b809150838152848484011115611a6d57600080fd5b83836020830137600060208583010152509392505050565b600082601f830112611a9657600080fd5b61120783833560208501611a28565b600080600080600060a08688031215611abd57600080fd5b611ac686611867565b9450611ad460208701611867565b935060408601356001600160401b0380821115611af057600080fd5b611afc89838a016119b7565b94506060880135915080821115611b1257600080fd5b611b1e89838a016119b7565b93506080880135915080821115611b3457600080fd5b50611b4188828901611a85565b9150509295509295909350565b60008060408385031215611b6157600080fd5b82356001600160401b0380821115611b7857600080fd5b818501915085601f830112611b8c57600080fd5b81356020611b9982611994565b604051611ba68282611968565b83815260059390931b8501820192828101915089841115611bc657600080fd5b948201945b83861015611beb57611bdc86611867565b82529482019490820190611bcb565b96505086013592505080821115611c0157600080fd5b50611c0e858286016119b7565b9150509250929050565b600081518084526020808501945080840160005b83811015611c4857815187529582019590820190600101611c2c565b509495945050505050565b6020815260006112076020830184611c18565b60008060408385031215611c7957600080fd5b82359150611c8960208401611867565b90509250929050565b60008060408385031215611ca557600080fd5b50508035926020909101359150565b600060208284031215611cc657600080fd5b81356001600160401b03811115611cdc57600080fd5b8201601f81018413611ced57600080fd5b611cfc84823560208401611a28565b949350505050565b60008060408385031215611d1757600080fd5b611d2083611867565b915060208301358015158114611d3557600080fd5b809150509250929050565b60008060408385031215611d5357600080fd5b611d5c83611867565b9150611c8960208401611867565b600080600080600060a08688031215611d8257600080fd5b611d8b86611867565b9450611d9960208701611867565b9350604086013592506060860135915060808601356001600160401b03811115611dc257600080fd5b611b4188828901611a85565b600181811c90821680611de257607f821691505b602082108103611e0257634e487b7160e01b600052602260045260246000fd5b50919050565b6020808252602e908201527f455243313135353a2063616c6c6572206973206e6f7420746f6b656e206f776e60408201526d195c881bdc88185c1c1c9bdd995960921b606082015260800190565b634e487b7160e01b600052601160045260246000fd5b818103818111156104f0576104f0611e56565b634e487b7160e01b600052603260045260246000fd5b600060018201611ea757611ea7611e56565b5060010190565b600081611ebd57611ebd611e56565b506000190190565b60208082526028908201527f455243313135353a2069647320616e6420616d6f756e7473206c656e677468206040820152670dad2e6dac2e8c6d60c31b606082015260800190565b60208082526025908201527f455243313135353a207472616e7366657220746f20746865207a65726f206164604082015264647265737360d81b606082015260800190565b6020808252602a908201527f455243313135353a20696e73756666696369656e742062616c616e636520666f60408201526939103a3930b739b332b960b11b606082015260800190565b808201808211156104f0576104f0611e56565b604081526000611fc26040830185611c18565b8281036020840152611fd48185611c18565b95945050505050565b601f82111561202357600081815260208120601f850160051c810160208610156120045750805b601f850160051c820191505b81811015610df057828155600101612010565b505050565b81516001600160401b0381111561204157612041611952565b6120558161204f8454611dce565b84611fdd565b602080601f83116001811461208a57600084156120725750858301515b600019600386901b1c1916600185901b178555610df0565b600085815260208120601f198616915b828110156120b95788860151825594840194600190910190840161209a565b50858210156120d75787850151600019600388901b60f8161c191681555b5050505050600190811b01905550565b80820281158282048414176104f0576104f0611e56565b6001600160a01b0386811682528516602082015260a06040820181905260009061212a90830186611c18565b828103606084015261213c8186611c18565b9050828103608084015261215081856118f9565b98975050505050505050565b60006020828403121561216e57600080fd5b8151611207816118ad565b600060033d11156121925760046000803e5060005160e01c5b90565b600060443d10156121a35790565b6040516003193d81016004833e81513d6001600160401b0381602484011181841117156121d257505050505090565b82850191508151818111156121ea5750505050505090565b843d87010160208285010111156122045750505050505090565b61221360208286010187611968565b509095945050505050565b60208082526028908201527f455243313135353a204552433131353552656365697665722072656a656374656040820152676420746f6b656e7360c01b606082015260800190565b6001600160a01b03868116825285166020820152604081018490526060810183905260a0608082018190526000906122a0908301846118f9565b97965050505050505056fea264697066735822122016bca7d0a6d316987c47096519d4beda026920b6729b9b89ca93aed13162fd9964736f6c6343000811003368747470733a2f2f666972656261736573746f726167652e676f6f676c65617069732e636f6d2f76302f622f6e667469636b65742d66303335362e61707073706f742e636f6d2f6f2f6d657461646174612532467b69647d2e6a736f6e3f616c743d6d65646961",
  "linkReferences": {},
  "deployedLinkReferences": {}
}