{
  "_format": "hh-sol-artifact-1",
  "contractName": "NFTicket",
  "sourceName": "contracts/NFTicket.sol",
  "abi": [
    {
      "inputs": [],
      "stateMutability": "nonpayable",
      "type": "constructor"
    },
    {
      "anonymous": false,
      "inputs": [
        {
          "indexed": true,
          "internalType": "address",
          "name": "account",
          "type": "address"
        },
        {
          "indexed": true,
          "internalType": "address",
          "name": "operator",
          "type": "address"
        },
        {
          "indexed": false,
          "internalType": "bool",
          "name": "approved",
          "type": "bool"
        }
      ],
      "name": "ApprovalForAll",
      "type": "event"
    },
    {
      "anonymous": false,
      "inputs": [
        {
          "indexed": true,
          "internalType": "address",
          "name": "operator",
          "type": "address"
        },
        {
          "indexed": true,
          "internalType": "address",
          "name": "from",
          "type": "address"
        },
        {
          "indexed": true,
          "internalType": "address",
          "name": "to",
          "type": "address"
        },
        {
          "indexed": false,
          "internalType": "uint256[]",
          "name": "ids",
          "type": "uint256[]"
        },
        {
          "indexed": false,
          "internalType": "uint256[]",
          "name": "values",
          "type": "uint256[]"
        }
      ],
      "name": "TransferBatch",
      "type": "event"
    },
    {
      "anonymous": false,
      "inputs": [
        {
          "indexed": true,
          "internalType": "address",
          "name": "operator",
          "type": "address"
        },
        {
          "indexed": true,
          "internalType": "address",
          "name": "from",
          "type": "address"
        },
        {
          "indexed": true,
          "internalType": "address",
          "name": "to",
          "type": "address"
        },
        {
          "indexed": false,
          "internalType": "uint256",
          "name": "id",
          "type": "uint256"
        },
        {
          "indexed": false,
          "internalType": "uint256",
          "name": "value",
          "type": "uint256"
        }
      ],
      "name": "TransferSingle",
      "type": "event"
    },
    {
      "anonymous": false,
      "inputs": [
        {
          "indexed": false,
          "internalType": "string",
          "name": "value",
          "type": "string"
        },
        {
          "indexed": true,
          "internalType": "uint256",
          "name": "id",
          "type": "uint256"
        }
      ],
      "name": "URI",
      "type": "event"
    },
    {
      "inputs": [
        {
          "internalType": "address",
          "name": "account",
          "type": "address"
        },
        {
          "internalType": "uint256",
          "name": "id",
          "type": "uint256"
        }
      ],
      "name": "balanceOf",
      "outputs": [
        {
          "internalType": "uint256",
          "name": "",
          "type": "uint256"
        }
      ],
      "stateMutability": "view",
      "type": "function"
    },
    {
      "inputs": [
        {
          "internalType": "address[]",
          "name": "accounts",
          "type": "address[]"
        },
        {
          "internalType": "uint256[]",
          "name": "ids",
          "type": "uint256[]"
        }
      ],
      "name": "balanceOfBatch",
      "outputs": [
        {
          "internalType": "uint256[]",
          "name": "",
          "type": "uint256[]"
        }
      ],
      "stateMutability": "view",
      "type": "function"
    },
    {
      "inputs": [
        {
          "internalType": "uint256",
          "name": "ticketAmount",
          "type": "uint256"
        },
        {
          "internalType": "uint256",
          "name": "ticketPrice",
          "type": "uint256"
        }
      ],
      "name": "createEvent",
      "outputs": [
        {
          "internalType": "uint256",
          "name": "",
          "type": "uint256"
        }
      ],
      "stateMutability": "nonpayable",
      "type": "function"
    },
    {
      "inputs": [],
      "name": "getAllOwnedTickets",
      "outputs": [
        {
          "internalType": "uint256[]",
          "name": "ticketIds",
          "type": "uint256[]"
        }
      ],
      "stateMutability": "view",
      "type": "function"
    },
    {
      "inputs": [
        {
          "internalType": "uint256",
          "name": "eventId",
          "type": "uint256"
        }
      ],
      "name": "getEventInfo",
      "outputs": [
        {
          "components": [
            {
              "internalType": "uint256",
              "name": "eventId",
              "type": "uint256"
            },
            {
              "internalType": "uint256",
              "name": "ticketAmount",
              "type": "uint256"
            },
            {
              "internalType": "uint256",
              "name": "ticketPrice",
              "type": "uint256"
            },
            {
              "internalType": "uint256",
              "name": "ticketsAvailable",
              "type": "uint256"
            },
            {
              "internalType": "address",
              "name": "eventOwner",
              "type": "address"
            }
          ],
          "internalType": "struct NFTicket.Event",
          "name": "",
          "type": "tuple"
        }
      ],
      "stateMutability": "view",
      "type": "function"
    },
    {
      "inputs": [],
      "name": "getLastEventId",
      "outputs": [
        {
          "internalType": "uint256",
          "name": "",
          "type": "uint256"
        }
      ],
      "stateMutability": "view",
      "type": "function"
    },
    {
      "inputs": [
        {
          "internalType": "uint256",
          "name": "ticketId",
          "type": "uint256"
        }
      ],
      "name": "getTicketInfo",
      "outputs": [
        {
          "components": [
            {
              "internalType": "uint256",
              "name": "ticketId",
              "type": "uint256"
            },
            {
              "internalType": "bool",
              "name": "redeemed",
              "type": "bool"
            },
            {
              "internalType": "address",
              "name": "owner",
              "type": "address"
            }
          ],
          "internalType": "struct NFTicket.Ticket",
          "name": "",
          "type": "tuple"
        }
      ],
      "stateMutability": "view",
      "type": "function"
    },
    {
      "inputs": [
        {
          "internalType": "address",
          "name": "account",
          "type": "address"
        },
        {
          "internalType": "address",
          "name": "operator",
          "type": "address"
        }
      ],
      "name": "isApprovedForAll",
      "outputs": [
        {
          "internalType": "bool",
          "name": "",
          "type": "bool"
        }
      ],
      "stateMutability": "view",
      "type": "function"
    },
    {
      "inputs": [
        {
          "internalType": "uint256",
          "name": "eventId",
          "type": "uint256"
        },
        {
          "internalType": "uint256",
          "name": "amount",
          "type": "uint256"
        }
      ],
      "name": "mintTickets",
      "outputs": [],
      "stateMutability": "payable",
      "type": "function"
    },
    {
      "inputs": [
        {
          "internalType": "uint256",
          "name": "ticketId",
          "type": "uint256"
        }
      ],
      "name": "redeemTicket",
      "outputs": [],
      "stateMutability": "nonpayable",
      "type": "function"
    },
    {
      "inputs": [
        {
          "internalType": "address",
          "name": "from",
          "type": "address"
        },
        {
          "internalType": "address",
          "name": "to",
          "type": "address"
        },
        {
          "internalType": "uint256[]",
          "name": "ids",
          "type": "uint256[]"
        },
        {
          "internalType": "uint256[]",
          "name": "amounts",
          "type": "uint256[]"
        },
        {
          "internalType": "bytes",
          "name": "data",
          "type": "bytes"
        }
      ],
      "name": "safeBatchTransferFrom",
      "outputs": [],
      "stateMutability": "nonpayable",
      "type": "function"
    },
    {
      "inputs": [
        {
          "internalType": "address",
          "name": "from",
          "type": "address"
        },
        {
          "internalType": "address",
          "name": "to",
          "type": "address"
        },
        {
          "internalType": "uint256",
          "name": "id",
          "type": "uint256"
        },
        {
          "internalType": "uint256",
          "name": "amount",
          "type": "uint256"
        },
        {
          "internalType": "bytes",
          "name": "data",
          "type": "bytes"
        }
      ],
      "name": "safeTransferFrom",
      "outputs": [],
      "stateMutability": "nonpayable",
      "type": "function"
    },
    {
      "inputs": [
        {
          "internalType": "address",
          "name": "operator",
          "type": "address"
        },
        {
          "internalType": "bool",
          "name": "approved",
          "type": "bool"
        }
      ],
      "name": "setApprovalForAll",
      "outputs": [],
      "stateMutability": "nonpayable",
      "type": "function"
    },
    {
      "inputs": [
        {
          "internalType": "string",
          "name": "eventURI",
          "type": "string"
        }
      ],
      "name": "setEventUri",
      "outputs": [],
      "stateMutability": "nonpayable",
      "type": "function"
    },
    {
      "inputs": [
        {
          "internalType": "bytes4",
          "name": "interfaceId",
          "type": "bytes4"
        }
      ],
      "name": "supportsInterface",
      "outputs": [
        {
          "internalType": "bool",
          "name": "",
          "type": "bool"
        }
      ],
      "stateMutability": "view",
      "type": "function"
    },
    {
      "inputs": [
        {
          "internalType": "uint256",
          "name": "",
          "type": "uint256"
        }
      ],
      "name": "uri",
      "outputs": [
        {
          "internalType": "string",
          "name": "",
          "type": "string"
        }
      ],
      "stateMutability": "view",
      "type": "function"
    }
  ],
  "bytecode": "0x60806040523480156200001157600080fd5b506040518060800160405280605681526020016200219560569139620000378162000055565b506200004f60036200006760201b62000ccd1760201c565b620001e1565b600262000063828262000115565b5050565b80546001019055565b634e487b7160e01b600052604160045260246000fd5b600181811c908216806200009b57607f821691505b602082108103620000bc57634e487b7160e01b600052602260045260246000fd5b50919050565b601f8211156200011057600081815260208120601f850160051c81016020861015620000eb5750805b601f850160051c820191505b818110156200010c57828155600101620000f7565b5050505b505050565b81516001600160401b0381111562000131576200013162000070565b620001498162000142845462000086565b84620000c2565b602080601f831160018114620001815760008415620001685750858301515b600019600386901b1c1916600185901b1785556200010c565b600085815260208120601f198616915b82811015620001b25788860151825594840194600190910190840162000191565b5085821015620001d15787850151600019600388901b60f8161c191681555b5050505050600190811b01905550565b611fa480620001f16000396000f3fe6080604052600436106100f25760003560e01c8063790c01251161008a578063b5460deb11610059578063b5460deb146102e4578063e985e9c5146102f9578063f242432a14610342578063ff99a0631461036257600080fd5b8063790c012514610271578063920a57dc146102915780639aa964b6146102b1578063a22cb465146102c457600080fd5b80631d645b12116100c65780631d645b12146101a95780632eb2c2d61461020f578063478b9a1f1461022f5780634e1273f41461024457600080fd5b8062fdd58e146100f757806301ffc9a71461012a5780630e89341c1461015a57806315f59d7f14610187575b600080fd5b34801561010357600080fd5b50610117610112366004611560565b610404565b6040519081526020015b60405180910390f35b34801561013657600080fd5b5061014a6101453660046115a0565b61049d565b6040519015158152602001610121565b34801561016657600080fd5b5061017a6101753660046115bd565b6104ed565b604051610121919061161c565b34801561019357600080fd5b506101a76101a23660046115bd565b610581565b005b3480156101b557600080fd5b506101c96101c43660046115bd565b610621565b6040516101219190815181526020808301519082015260408083015190820152606080830151908201526080918201516001600160a01b03169181019190915260a00190565b34801561021b57600080fd5b506101a761022a366004611785565b6106b4565b34801561023b57600080fd5b50610117610700565b34801561025057600080fd5b5061026461025f36600461182f565b61071c565b6040516101219190611935565b34801561027d57600080fd5b5061011761028c366004611948565b610846565b34801561029d57600080fd5b506101a76102ac36600461196a565b6108db565b6101a76102bf366004611948565b6108e7565b3480156102d057600080fd5b506101a76102df3660046119bb565b610c18565b3480156102f057600080fd5b50610264610c27565b34801561030557600080fd5b5061014a6103143660046119f7565b6001600160a01b03918216600090815260016020908152604080832093909416825291909152205460ff1690565b34801561034e57600080fd5b506101a761035d366004611a2a565b610c88565b34801561036e57600080fd5b506103d761037d3660046115bd565b604080516060808201835260008083526020808401829052928401819052938452600682529282902082519384018352805484526001015460ff811615159184019190915261010090046001600160a01b03169082015290565b6040805182518152602080840151151590820152918101516001600160a01b031690820152606001610121565b60006001600160a01b0383166104745760405162461bcd60e51b815260206004820152602a60248201527f455243313135353a2061646472657373207a65726f206973206e6f742061207660448201526930b634b21037bbb732b960b11b60648201526084015b60405180910390fd5b506000818152602081815260408083206001600160a01b03861684529091529020545b92915050565b60006001600160e01b03198216636cdb3d1360e11b14806104ce57506001600160e01b031982166303a24d0760e21b145b8061049757506301ffc9a760e01b6001600160e01b0319831614610497565b6060600280546104fc90611a8f565b80601f016020809104026020016040519081016040528092919081815260200182805461052890611a8f565b80156105755780601f1061054a57610100808354040283529160200191610575565b820191906000526020600020905b81548152906001019060200180831161055857829003601f168201915b50505050509050919050565b60008181526006602052604090206001015461010090046001600160a01b031633146106015760405162461bcd60e51b815260206004820152602960248201527f4f6e6c7920746865207469636b6574206f776e65722063616e2072656465656d6044820152680818481d1a58dad95d60ba1b606482015260840161046b565b60009081526006602052604090206001908101805460ff19169091179055565b61065c6040518060a001604052806000815260200160008152602001600081526020016000815260200160006001600160a01b031681525090565b50600090815260056020908152604091829020825160a08101845281548152600182015492810192909252600281015492820192909252600382015460608201526004909101546001600160a01b0316608082015290565b6001600160a01b0385163314806106d057506106d08533610314565b6106ec5760405162461bcd60e51b815260040161046b90611ac9565b6106f98585858585610cd6565b5050505050565b6000600161070d60035490565b6107179190611b2d565b905090565b606081518351146107815760405162461bcd60e51b815260206004820152602960248201527f455243313135353a206163636f756e747320616e6420696473206c656e677468604482015268040dad2e6dac2e8c6d60bb1b606482015260840161046b565b6000835167ffffffffffffffff81111561079d5761079d61162f565b6040519080825280602002602001820160405280156107c6578160200160208202803683370190505b50905060005b845181101561083e576108118582815181106107ea576107ea611b40565b602002602001015185838151811061080457610804611b40565b6020026020010151610404565b82828151811061082357610823611b40565b602090810291909101015261083781611b56565b90506107cc565b509392505050565b60008061085260035490565b9050610862600380546001019055565b6040805160a081018252828152602080820187815282840196875260608301978852336080840190815260008681526005909352939091209151825551600182015593516002850155935160038401559251600490920180546001600160a01b0319166001600160a01b03909316929092179091555090565b6108e481610e6a565b50565b6000828152600560205260409020600301548111156109485760405162461bcd60e51b815260206004820152601e60248201527f496e73756666696369656e74207469636b6574732072656d61696e696e670000604482015260640161046b565b600081116109985760405162461bcd60e51b815260206004820152601b60248201527f4d757374206d696e74206174206c656173742031207469636b65740000000000604482015260640161046b565b60008167ffffffffffffffff8111156109b3576109b361162f565b6040519080825280602002602001820160405280156109dc578160200160208202803683370190505b50905060008267ffffffffffffffff8111156109fa576109fa61162f565b604051908082528060200260200182016040528015610a23578160200160208202803683370190505b506000858152600460205260408120549192505b84811015610aac576000610a4b8784610e76565b905080858381518110610a6057610a60611b40565b6020026020010181815250506001848381518110610a8057610a80611b40565b602090810291909101015282610a9581611b56565b935050508080610aa490611b56565b915050610a37565b50610ac833848460405180602001604052806000815250610f4b565b60005b84811015610c10576000868152600460205260409020805460010190556040518060600160405280858381518110610b0557610b05611b40565b60200260200101518152602001600015158152602001336001600160a01b031681525060066000868481518110610b3e57610b3e611b40565b60209081029190910181015182528181019290925260409081016000908120845181558484015160019091018054958401516001600160a01b031661010002610100600160a81b0319921515929092166001600160a81b03199096169590951717909355338352600790915290208451859083908110610bc057610bc0611b40565b6020908102919091018101518254600181018455600093845282842001558782526005905260408120600301805491610bf883611b6f565b91905055508080610c0890611b56565b915050610acb565b505050505050565b610c233383836110d0565b5050565b33600090815260076020908152604091829020805483518184028101840190945280845260609392830182828015610c7e57602002820191906000526020600020905b815481526020019060010190808311610c6a575b5050505050905090565b6001600160a01b038516331480610ca45750610ca48533610314565b610cc05760405162461bcd60e51b815260040161046b90611ac9565b6106f985858585856111b0565b80546001019055565b8151835114610cf75760405162461bcd60e51b815260040161046b90611b86565b6001600160a01b038416610d1d5760405162461bcd60e51b815260040161046b90611bce565b3360005b8451811015610e04576000858281518110610d3e57610d3e611b40565b602002602001015190506000858381518110610d5c57610d5c611b40565b602090810291909101810151600084815280835260408082206001600160a01b038e168352909352919091205490915081811015610dac5760405162461bcd60e51b815260040161046b90611c13565b6000838152602081815260408083206001600160a01b038e8116855292528083208585039055908b16825281208054849290610de9908490611c5d565b9250508190555050505080610dfd90611b56565b9050610d21565b50846001600160a01b0316866001600160a01b0316826001600160a01b03167f4a39dc06d4c0dbc64b70af90fd698a233a518aa5d07e595d983b8c0526c8f7fb8787604051610e54929190611c70565b60405180910390a4610c108187878787876112da565b6002610c238282611ce9565b60006103e7831115610eca5760405162461bcd60e51b815260206004820152601f60248201527f4576656e74204944206d757374206265206c657373207468616e203130303000604482015260640161046b565b620f423f821115610f2c5760405162461bcd60e51b815260206004820152602660248201527f5469636b6574206e756d626572206d757374206265206c657373207468616e2060448201526539393939393960d01b606482015260840161046b565b81610f3a84620f4240611da9565b610f449190611c5d565b9392505050565b6001600160a01b038416610fab5760405162461bcd60e51b815260206004820152602160248201527f455243313135353a206d696e7420746f20746865207a65726f206164647265736044820152607360f81b606482015260840161046b565b8151835114610fcc5760405162461bcd60e51b815260040161046b90611b86565b3360005b845181101561106857838181518110610feb57610feb611b40565b602002602001015160008087848151811061100857611008611b40565b602002602001015181526020019081526020016000206000886001600160a01b03166001600160a01b0316815260200190815260200160002060008282546110509190611c5d565b9091555081905061106081611b56565b915050610fd0565b50846001600160a01b031660006001600160a01b0316826001600160a01b03167f4a39dc06d4c0dbc64b70af90fd698a233a518aa5d07e595d983b8c0526c8f7fb87876040516110b9929190611c70565b60405180910390a46106f9816000878787876112da565b816001600160a01b0316836001600160a01b0316036111435760405162461bcd60e51b815260206004820152602960248201527f455243313135353a2073657474696e6720617070726f76616c20737461747573604482015268103337b91039b2b63360b91b606482015260840161046b565b6001600160a01b03838116600081815260016020908152604080832094871680845294825291829020805460ff191686151590811790915591519182527f17307eab39ab6107e8899845ad3d59bd9653f200f220920489ca2b5937696c31910160405180910390a3505050565b6001600160a01b0384166111d65760405162461bcd60e51b815260040161046b90611bce565b3360006111e28561143e565b905060006111ef8561143e565b90506000868152602081815260408083206001600160a01b038c168452909152902054858110156112325760405162461bcd60e51b815260040161046b90611c13565b6000878152602081815260408083206001600160a01b038d8116855292528083208985039055908a1682528120805488929061126f908490611c5d565b909155505060408051888152602081018890526001600160a01b03808b16928c821692918816917fc3d58168c5ae7397731d063d5bbf3d657854427343f4c083240f7aacaa2d0f62910160405180910390a46112cf848a8a8a8a8a611489565b505050505050505050565b6001600160a01b0384163b15610c105760405163bc197c8160e01b81526001600160a01b0385169063bc197c819061131e9089908990889088908890600401611dc0565b6020604051808303816000875af1925050508015611359575060408051601f3d908101601f1916820190925261135691810190611e1e565b60015b61140557611365611e3b565b806308c379a00361139e5750611379611e57565b8061138457506113a0565b8060405162461bcd60e51b815260040161046b919061161c565b505b60405162461bcd60e51b815260206004820152603460248201527f455243313135353a207472616e7366657220746f206e6f6e2d455243313135356044820152732932b1b2b4bb32b91034b6b83632b6b2b73a32b960611b606482015260840161046b565b6001600160e01b0319811663bc197c8160e01b146114355760405162461bcd60e51b815260040161046b90611ee1565b50505050505050565b6040805160018082528183019092526060916000919060208083019080368337019050509050828160008151811061147857611478611b40565b602090810291909101015292915050565b6001600160a01b0384163b15610c105760405163f23a6e6160e01b81526001600160a01b0385169063f23a6e61906114cd9089908990889088908890600401611f29565b6020604051808303816000875af1925050508015611508575060408051601f3d908101601f1916820190925261150591810190611e1e565b60015b61151457611365611e3b565b6001600160e01b0319811663f23a6e6160e01b146114355760405162461bcd60e51b815260040161046b90611ee1565b80356001600160a01b038116811461155b57600080fd5b919050565b6000806040838503121561157357600080fd5b61157c83611544565b946020939093013593505050565b6001600160e01b0319811681146108e457600080fd5b6000602082840312156115b257600080fd5b8135610f448161158a565b6000602082840312156115cf57600080fd5b5035919050565b6000815180845260005b818110156115fc576020818501810151868301820152016115e0565b506000602082860101526020601f19601f83011685010191505092915050565b602081526000610f4460208301846115d6565b634e487b7160e01b600052604160045260246000fd5b601f8201601f1916810167ffffffffffffffff8111828210171561166b5761166b61162f565b6040525050565b600067ffffffffffffffff82111561168c5761168c61162f565b5060051b60200190565b600082601f8301126116a757600080fd5b813560206116b482611672565b6040516116c18282611645565b83815260059390931b85018201928281019150868411156116e157600080fd5b8286015b848110156116fc57803583529183019183016116e5565b509695505050505050565b600067ffffffffffffffff8311156117215761172161162f565b604051611738601f8501601f191660200182611645565b80915083815284848401111561174d57600080fd5b83836020830137600060208583010152509392505050565b600082601f83011261177657600080fd5b610f4483833560208501611707565b600080600080600060a0868803121561179d57600080fd5b6117a686611544565b94506117b460208701611544565b9350604086013567ffffffffffffffff808211156117d157600080fd5b6117dd89838a01611696565b945060608801359150808211156117f357600080fd5b6117ff89838a01611696565b9350608088013591508082111561181557600080fd5b5061182288828901611765565b9150509295509295909350565b6000806040838503121561184257600080fd5b823567ffffffffffffffff8082111561185a57600080fd5b818501915085601f83011261186e57600080fd5b8135602061187b82611672565b6040516118888282611645565b83815260059390931b85018201928281019150898411156118a857600080fd5b948201945b838610156118cd576118be86611544565b825294820194908201906118ad565b965050860135925050808211156118e357600080fd5b506118f085828601611696565b9150509250929050565b600081518084526020808501945080840160005b8381101561192a5781518752958201959082019060010161190e565b509495945050505050565b602081526000610f4460208301846118fa565b6000806040838503121561195b57600080fd5b50508035926020909101359150565b60006020828403121561197c57600080fd5b813567ffffffffffffffff81111561199357600080fd5b8201601f810184136119a457600080fd5b6119b384823560208401611707565b949350505050565b600080604083850312156119ce57600080fd5b6119d783611544565b9150602083013580151581146119ec57600080fd5b809150509250929050565b60008060408385031215611a0a57600080fd5b611a1383611544565b9150611a2160208401611544565b90509250929050565b600080600080600060a08688031215611a4257600080fd5b611a4b86611544565b9450611a5960208701611544565b93506040860135925060608601359150608086013567ffffffffffffffff811115611a8357600080fd5b61182288828901611765565b600181811c90821680611aa357607f821691505b602082108103611ac357634e487b7160e01b600052602260045260246000fd5b50919050565b6020808252602e908201527f455243313135353a2063616c6c6572206973206e6f7420746f6b656e206f776e60408201526d195c881bdc88185c1c1c9bdd995960921b606082015260800190565b634e487b7160e01b600052601160045260246000fd5b8181038181111561049757610497611b17565b634e487b7160e01b600052603260045260246000fd5b600060018201611b6857611b68611b17565b5060010190565b600081611b7e57611b7e611b17565b506000190190565b60208082526028908201527f455243313135353a2069647320616e6420616d6f756e7473206c656e677468206040820152670dad2e6dac2e8c6d60c31b606082015260800190565b60208082526025908201527f455243313135353a207472616e7366657220746f20746865207a65726f206164604082015264647265737360d81b606082015260800190565b6020808252602a908201527f455243313135353a20696e73756666696369656e742062616c616e636520666f60408201526939103a3930b739b332b960b11b606082015260800190565b8082018082111561049757610497611b17565b604081526000611c8360408301856118fa565b8281036020840152611c9581856118fa565b95945050505050565b601f821115611ce457600081815260208120601f850160051c81016020861015611cc55750805b601f850160051c820191505b81811015610c1057828155600101611cd1565b505050565b815167ffffffffffffffff811115611d0357611d0361162f565b611d1781611d118454611a8f565b84611c9e565b602080601f831160018114611d4c5760008415611d345750858301515b600019600386901b1c1916600185901b178555610c10565b600085815260208120601f198616915b82811015611d7b57888601518255948401946001909101908401611d5c565b5085821015611d995787850151600019600388901b60f8161c191681555b5050505050600190811b01905550565b808202811582820484141761049757610497611b17565b6001600160a01b0386811682528516602082015260a060408201819052600090611dec908301866118fa565b8281036060840152611dfe81866118fa565b90508281036080840152611e1281856115d6565b98975050505050505050565b600060208284031215611e3057600080fd5b8151610f448161158a565b600060033d1115611e545760046000803e5060005160e01c5b90565b600060443d1015611e655790565b6040516003193d81016004833e81513d67ffffffffffffffff8160248401118184111715611e9557505050505090565b8285019150815181811115611ead5750505050505090565b843d8701016020828501011115611ec75750505050505090565b611ed660208286010187611645565b509095945050505050565b60208082526028908201527f455243313135353a204552433131353552656365697665722072656a656374656040820152676420746f6b656e7360c01b606082015260800190565b6001600160a01b03868116825285166020820152604081018490526060810183905260a060808201819052600090611f63908301846115d6565b97965050505050505056fea2646970667358221220f2d46d59a4fcaaddf0f2c1012938bf68dd1d74d553017a25f88c5ae99bb1704a64736f6c6343000811003368747470733a2f2f697066732e696f2f697066732f516d5a48455254594c5342334561547a6d77434d58596b64534e7677665a6d365a4c63746f50374a727344486d613f66696c656e616d653d7b69647d2e6a736f6e",
  "linkReferences": {},
  "deployedLinkReferences": {}
}