{
  "_format": "hh-sol-artifact-1",
  "contractName": "NFTicket",
  "sourceName": "contracts/NFTicket.sol",
  "abi": [
    {
      "inputs": [],
      "stateMutability": "nonpayable",
      "type": "constructor"
    },
    {
      "anonymous": false,
      "inputs": [
        {
          "indexed": true,
          "internalType": "address",
          "name": "account",
          "type": "address"
        },
        {
          "indexed": true,
          "internalType": "address",
          "name": "operator",
          "type": "address"
        },
        {
          "indexed": false,
          "internalType": "bool",
          "name": "approved",
          "type": "bool"
        }
      ],
      "name": "ApprovalForAll",
      "type": "event"
    },
    {
      "anonymous": false,
      "inputs": [
        {
          "indexed": true,
          "internalType": "address",
          "name": "operator",
          "type": "address"
        },
        {
          "indexed": true,
          "internalType": "address",
          "name": "from",
          "type": "address"
        },
        {
          "indexed": true,
          "internalType": "address",
          "name": "to",
          "type": "address"
        },
        {
          "indexed": false,
          "internalType": "uint256[]",
          "name": "ids",
          "type": "uint256[]"
        },
        {
          "indexed": false,
          "internalType": "uint256[]",
          "name": "values",
          "type": "uint256[]"
        }
      ],
      "name": "TransferBatch",
      "type": "event"
    },
    {
      "anonymous": false,
      "inputs": [
        {
          "indexed": true,
          "internalType": "address",
          "name": "operator",
          "type": "address"
        },
        {
          "indexed": true,
          "internalType": "address",
          "name": "from",
          "type": "address"
        },
        {
          "indexed": true,
          "internalType": "address",
          "name": "to",
          "type": "address"
        },
        {
          "indexed": false,
          "internalType": "uint256",
          "name": "id",
          "type": "uint256"
        },
        {
          "indexed": false,
          "internalType": "uint256",
          "name": "value",
          "type": "uint256"
        }
      ],
      "name": "TransferSingle",
      "type": "event"
    },
    {
      "anonymous": false,
      "inputs": [
        {
          "indexed": false,
          "internalType": "string",
          "name": "value",
          "type": "string"
        },
        {
          "indexed": true,
          "internalType": "uint256",
          "name": "id",
          "type": "uint256"
        }
      ],
      "name": "URI",
      "type": "event"
    },
    {
      "inputs": [
        {
          "internalType": "address",
          "name": "account",
          "type": "address"
        },
        {
          "internalType": "uint256",
          "name": "id",
          "type": "uint256"
        }
      ],
      "name": "balanceOf",
      "outputs": [
        {
          "internalType": "uint256",
          "name": "",
          "type": "uint256"
        }
      ],
      "stateMutability": "view",
      "type": "function"
    },
    {
      "inputs": [
        {
          "internalType": "address[]",
          "name": "accounts",
          "type": "address[]"
        },
        {
          "internalType": "uint256[]",
          "name": "ids",
          "type": "uint256[]"
        }
      ],
      "name": "balanceOfBatch",
      "outputs": [
        {
          "internalType": "uint256[]",
          "name": "",
          "type": "uint256[]"
        }
      ],
      "stateMutability": "view",
      "type": "function"
    },
    {
      "inputs": [
        {
          "internalType": "uint256",
          "name": "ga_ticket_amount",
          "type": "uint256"
        },
        {
          "internalType": "uint256",
          "name": "ga_ticket_price",
          "type": "uint256"
        }
      ],
      "name": "createEvent",
      "outputs": [
        {
          "internalType": "uint256",
          "name": "",
          "type": "uint256"
        }
      ],
      "stateMutability": "nonpayable",
      "type": "function"
    },
    {
      "inputs": [],
      "name": "getLastEventId",
      "outputs": [
        {
          "internalType": "uint256",
          "name": "",
          "type": "uint256"
        }
      ],
      "stateMutability": "view",
      "type": "function"
    },
    {
      "inputs": [
        {
          "internalType": "address",
          "name": "account",
          "type": "address"
        },
        {
          "internalType": "address",
          "name": "operator",
          "type": "address"
        }
      ],
      "name": "isApprovedForAll",
      "outputs": [
        {
          "internalType": "bool",
          "name": "",
          "type": "bool"
        }
      ],
      "stateMutability": "view",
      "type": "function"
    },
    {
      "inputs": [
        {
          "internalType": "uint256",
          "name": "eventId",
          "type": "uint256"
        },
        {
          "internalType": "uint256",
          "name": "amount",
          "type": "uint256"
        }
      ],
      "name": "mintGATickets",
      "outputs": [],
      "stateMutability": "payable",
      "type": "function"
    },
    {
      "inputs": [
        {
          "internalType": "address",
          "name": "from",
          "type": "address"
        },
        {
          "internalType": "address",
          "name": "to",
          "type": "address"
        },
        {
          "internalType": "uint256[]",
          "name": "ids",
          "type": "uint256[]"
        },
        {
          "internalType": "uint256[]",
          "name": "amounts",
          "type": "uint256[]"
        },
        {
          "internalType": "bytes",
          "name": "data",
          "type": "bytes"
        }
      ],
      "name": "safeBatchTransferFrom",
      "outputs": [],
      "stateMutability": "nonpayable",
      "type": "function"
    },
    {
      "inputs": [
        {
          "internalType": "address",
          "name": "from",
          "type": "address"
        },
        {
          "internalType": "address",
          "name": "to",
          "type": "address"
        },
        {
          "internalType": "uint256",
          "name": "id",
          "type": "uint256"
        },
        {
          "internalType": "uint256",
          "name": "amount",
          "type": "uint256"
        },
        {
          "internalType": "bytes",
          "name": "data",
          "type": "bytes"
        }
      ],
      "name": "safeTransferFrom",
      "outputs": [],
      "stateMutability": "nonpayable",
      "type": "function"
    },
    {
      "inputs": [
        {
          "internalType": "address",
          "name": "operator",
          "type": "address"
        },
        {
          "internalType": "bool",
          "name": "approved",
          "type": "bool"
        }
      ],
      "name": "setApprovalForAll",
      "outputs": [],
      "stateMutability": "nonpayable",
      "type": "function"
    },
    {
      "inputs": [
        {
          "internalType": "string",
          "name": "eventURI",
          "type": "string"
        }
      ],
      "name": "setEventUri",
      "outputs": [],
      "stateMutability": "nonpayable",
      "type": "function"
    },
    {
      "inputs": [
        {
          "internalType": "bytes4",
          "name": "interfaceId",
          "type": "bytes4"
        }
      ],
      "name": "supportsInterface",
      "outputs": [
        {
          "internalType": "bool",
          "name": "",
          "type": "bool"
        }
      ],
      "stateMutability": "view",
      "type": "function"
    },
    {
      "inputs": [
        {
          "internalType": "uint256",
          "name": "",
          "type": "uint256"
        }
      ],
      "name": "uri",
      "outputs": [
        {
          "internalType": "string",
          "name": "",
          "type": "string"
        }
      ],
      "stateMutability": "view",
      "type": "function"
    }
  ],
  "bytecode": "0x60006003556103e76080818152617d806040529060a0617ce0803683375050815162000033926004925060200190620000b6565b50604080516103e7808252617d0082019092529060208201617ce0803683375050815162000069926005925060200190620000b6565b503480156200007757600080fd5b5060405180608001604052806056815260200162001b9a605691396200009d81620000a4565b506200028e565b6002620000b28282620001c2565b5050565b828054828255906000526020600020908101928215620000f4579160200282015b82811115620000f4578251825591602001919060010190620000d7565b506200010292915062000106565b5090565b5b8082111562000102576000815560010162000107565b634e487b7160e01b600052604160045260246000fd5b600181811c908216806200014857607f821691505b6020821081036200016957634e487b7160e01b600052602260045260246000fd5b50919050565b601f821115620001bd57600081815260208120601f850160051c81016020861015620001985750805b601f850160051c820191505b81811015620001b957828155600101620001a4565b5050505b505050565b81516001600160401b03811115620001de57620001de6200011d565b620001f681620001ef845462000133565b846200016f565b602080601f8311600181146200022e5760008415620002155750858301515b600019600386901b1c1916600185901b178555620001b9565b600085815260208120601f198616915b828110156200025f578886015182559484019460019091019084016200023e565b50858210156200027e5787850151600019600388901b60f8161c191681555b5050505050600190811b01905550565b6118fc806200029e6000396000f3fe6080604052600436106100a65760003560e01c80634e1273f4116100645780634e1273f414610185578063790c0125146101b2578063920a57dc146101d2578063a22cb465146101f2578063e985e9c514610212578063f242432a1461025b57600080fd5b8062fdd58e146100ab57806301ffc9a7146100de5780630e89341c1461010e578063201d995a1461013b5780632eb2c2d614610150578063478b9a1f14610170575b600080fd5b3480156100b757600080fd5b506100cb6100c6366004610f10565b61027b565b6040519081526020015b60405180910390f35b3480156100ea57600080fd5b506100fe6100f9366004610f50565b610314565b60405190151581526020016100d5565b34801561011a57600080fd5b5061012e610129366004610f74565b610364565b6040516100d59190610fd3565b61014e610149366004610fe6565b6103f8565b005b34801561015c57600080fd5b5061014e61016b36600461115e565b610543565b34801561017c57600080fd5b506003546100cb565b34801561019157600080fd5b506101a56101a0366004611208565b61058f565b6040516100d5919061130e565b3480156101be57600080fd5b506100cb6101cd366004610fe6565b6106b9565b3480156101de57600080fd5b5061014e6101ed366004611321565b61070f565b3480156101fe57600080fd5b5061014e61020d366004611372565b61071b565b34801561021e57600080fd5b506100fe61022d3660046113ae565b6001600160a01b03918216600090815260016020908152604080832093909416825291909152205460ff1690565b34801561026757600080fd5b5061014e6102763660046113e1565b61072a565b60006001600160a01b0383166102eb5760405162461bcd60e51b815260206004820152602a60248201527f455243313135353a2061646472657373207a65726f206973206e6f742061207660448201526930b634b21037bbb732b960b11b60648201526084015b60405180910390fd5b506000818152602081815260408083206001600160a01b03861684529091529020545b92915050565b60006001600160e01b03198216636cdb3d1360e11b148061034557506001600160e01b031982166303a24d0760e21b145b8061030e57506301ffc9a760e01b6001600160e01b031983161461030e565b60606002805461037390611446565b80601f016020809104026020016040519081016040528092919081815260200182805461039f90611446565b80156103ec5780601f106103c1576101008083540402835291602001916103ec565b820191906000526020600020905b8154815290600101906020018083116103cf57829003601f168201915b50505050509050919050565b806005838154811061040c5761040c611480565b906000526020600020015461042191906114ac565b341461046f5760405162461bcd60e51b815260206004820152601760248201527f496e636f727265637420416d6f756e74206f662045544800000000000000000060448201526064016102e2565b806004838154811061048357610483611480565b906000526020600020015410156104dc5760405162461bcd60e51b815260206004820152601e60248201527f496e73756666696369656e74207469636b6574732072656d61696e696e67000060448201526064016102e2565b6104f73383836040518060200160405280600081525061076f565b806004838154811061050b5761050b611480565b906000526020600020015461052091906114c3565b6004838154811061053357610533611480565b6000918252602090912001555050565b6001600160a01b03851633148061055f575061055f853361022d565b61057b5760405162461bcd60e51b81526004016102e2906114d6565b6105888585858585610883565b5050505050565b606081518351146105f45760405162461bcd60e51b815260206004820152602960248201527f455243313135353a206163636f756e747320616e6420696473206c656e677468604482015268040dad2e6dac2e8c6d60bb1b60648201526084016102e2565b6000835167ffffffffffffffff81111561061057610610611008565b604051908082528060200260200182016040528015610639578160200160208202803683370190505b50905060005b84518110156106b15761068485828151811061065d5761065d611480565b602002602001015185838151811061067757610677611480565b602002602001015161027b565b82828151811061069657610696611480565b60209081029190910101526106aa81611524565b905061063f565b509392505050565b6000806106c4610a60565b905083600482815481106106da576106da611480565b906000526020600020018190555082600582815481106106fc576106fc611480565b6000918252602090912001559392505050565b61071881610a7d565b50565b610726338383610a89565b5050565b6001600160a01b0385163314806107465750610746853361022d565b6107625760405162461bcd60e51b81526004016102e2906114d6565b6105888585858585610b69565b6001600160a01b0384166107cf5760405162461bcd60e51b815260206004820152602160248201527f455243313135353a206d696e7420746f20746865207a65726f206164647265736044820152607360f81b60648201526084016102e2565b3360006107db85610c93565b905060006107e885610c93565b90506000868152602081815260408083206001600160a01b038b1684529091528120805487929061081a90849061153d565b909155505060408051878152602081018790526001600160a01b03808a1692600092918716917fc3d58168c5ae7397731d063d5bbf3d657854427343f4c083240f7aacaa2d0f62910160405180910390a461087a83600089898989610cde565b50505050505050565b81518351146108e55760405162461bcd60e51b815260206004820152602860248201527f455243313135353a2069647320616e6420616d6f756e7473206c656e677468206044820152670dad2e6dac2e8c6d60c31b60648201526084016102e2565b6001600160a01b03841661090b5760405162461bcd60e51b81526004016102e290611550565b3360005b84518110156109f257600085828151811061092c5761092c611480565b60200260200101519050600085838151811061094a5761094a611480565b602090810291909101810151600084815280835260408082206001600160a01b038e16835290935291909120549091508181101561099a5760405162461bcd60e51b81526004016102e290611595565b6000838152602081815260408083206001600160a01b038e8116855292528083208585039055908b168252812080548492906109d790849061153d565b92505081905550505050806109eb90611524565b905061090f565b50846001600160a01b0316866001600160a01b0316826001600160a01b03167f4a39dc06d4c0dbc64b70af90fd698a233a518aa5d07e595d983b8c0526c8f7fb8787604051610a429291906115df565b60405180910390a4610a58818787878787610e39565b505050505050565b6000806003546001610a72919061153d565b600381905592915050565b60026107268282611658565b816001600160a01b0316836001600160a01b031603610afc5760405162461bcd60e51b815260206004820152602960248201527f455243313135353a2073657474696e6720617070726f76616c20737461747573604482015268103337b91039b2b63360b91b60648201526084016102e2565b6001600160a01b03838116600081815260016020908152604080832094871680845294825291829020805460ff191686151590811790915591519182527f17307eab39ab6107e8899845ad3d59bd9653f200f220920489ca2b5937696c31910160405180910390a3505050565b6001600160a01b038416610b8f5760405162461bcd60e51b81526004016102e290611550565b336000610b9b85610c93565b90506000610ba885610c93565b90506000868152602081815260408083206001600160a01b038c16845290915290205485811015610beb5760405162461bcd60e51b81526004016102e290611595565b6000878152602081815260408083206001600160a01b038d8116855292528083208985039055908a16825281208054889290610c2890849061153d565b909155505060408051888152602081018890526001600160a01b03808b16928c821692918816917fc3d58168c5ae7397731d063d5bbf3d657854427343f4c083240f7aacaa2d0f62910160405180910390a4610c88848a8a8a8a8a610cde565b505050505050505050565b60408051600180825281830190925260609160009190602080830190803683370190505090508281600081518110610ccd57610ccd611480565b602090810291909101015292915050565b6001600160a01b0384163b15610a585760405163f23a6e6160e01b81526001600160a01b0385169063f23a6e6190610d229089908990889088908890600401611718565b6020604051808303816000875af1925050508015610d5d575060408051601f3d908101601f19168201909252610d5a9181019061175d565b60015b610e0957610d6961177a565b806308c379a003610da25750610d7d611796565b80610d885750610da4565b8060405162461bcd60e51b81526004016102e29190610fd3565b505b60405162461bcd60e51b815260206004820152603460248201527f455243313135353a207472616e7366657220746f206e6f6e2d455243313135356044820152732932b1b2b4bb32b91034b6b83632b6b2b73a32b960611b60648201526084016102e2565b6001600160e01b0319811663f23a6e6160e01b1461087a5760405162461bcd60e51b81526004016102e290611820565b6001600160a01b0384163b15610a585760405163bc197c8160e01b81526001600160a01b0385169063bc197c8190610e7d9089908990889088908890600401611868565b6020604051808303816000875af1925050508015610eb8575060408051601f3d908101601f19168201909252610eb59181019061175d565b60015b610ec457610d6961177a565b6001600160e01b0319811663bc197c8160e01b1461087a5760405162461bcd60e51b81526004016102e290611820565b80356001600160a01b0381168114610f0b57600080fd5b919050565b60008060408385031215610f2357600080fd5b610f2c83610ef4565b946020939093013593505050565b6001600160e01b03198116811461071857600080fd5b600060208284031215610f6257600080fd5b8135610f6d81610f3a565b9392505050565b600060208284031215610f8657600080fd5b5035919050565b6000815180845260005b81811015610fb357602081850181015186830182015201610f97565b506000602082860101526020601f19601f83011685010191505092915050565b602081526000610f6d6020830184610f8d565b60008060408385031215610ff957600080fd5b50508035926020909101359150565b634e487b7160e01b600052604160045260246000fd5b601f8201601f1916810167ffffffffffffffff8111828210171561104457611044611008565b6040525050565b600067ffffffffffffffff82111561106557611065611008565b5060051b60200190565b600082601f83011261108057600080fd5b8135602061108d8261104b565b60405161109a828261101e565b83815260059390931b85018201928281019150868411156110ba57600080fd5b8286015b848110156110d557803583529183019183016110be565b509695505050505050565b600067ffffffffffffffff8311156110fa576110fa611008565b604051611111601f8501601f19166020018261101e565b80915083815284848401111561112657600080fd5b83836020830137600060208583010152509392505050565b600082601f83011261114f57600080fd5b610f6d838335602085016110e0565b600080600080600060a0868803121561117657600080fd5b61117f86610ef4565b945061118d60208701610ef4565b9350604086013567ffffffffffffffff808211156111aa57600080fd5b6111b689838a0161106f565b945060608801359150808211156111cc57600080fd5b6111d889838a0161106f565b935060808801359150808211156111ee57600080fd5b506111fb8882890161113e565b9150509295509295909350565b6000806040838503121561121b57600080fd5b823567ffffffffffffffff8082111561123357600080fd5b818501915085601f83011261124757600080fd5b813560206112548261104b565b604051611261828261101e565b83815260059390931b850182019282810191508984111561128157600080fd5b948201945b838610156112a65761129786610ef4565b82529482019490820190611286565b965050860135925050808211156112bc57600080fd5b506112c98582860161106f565b9150509250929050565b600081518084526020808501945080840160005b83811015611303578151875295820195908201906001016112e7565b509495945050505050565b602081526000610f6d60208301846112d3565b60006020828403121561133357600080fd5b813567ffffffffffffffff81111561134a57600080fd5b8201601f8101841361135b57600080fd5b61136a848235602084016110e0565b949350505050565b6000806040838503121561138557600080fd5b61138e83610ef4565b9150602083013580151581146113a357600080fd5b809150509250929050565b600080604083850312156113c157600080fd5b6113ca83610ef4565b91506113d860208401610ef4565b90509250929050565b600080600080600060a086880312156113f957600080fd5b61140286610ef4565b945061141060208701610ef4565b93506040860135925060608601359150608086013567ffffffffffffffff81111561143a57600080fd5b6111fb8882890161113e565b600181811c9082168061145a57607f821691505b60208210810361147a57634e487b7160e01b600052602260045260246000fd5b50919050565b634e487b7160e01b600052603260045260246000fd5b634e487b7160e01b600052601160045260246000fd5b808202811582820484141761030e5761030e611496565b8181038181111561030e5761030e611496565b6020808252602e908201527f455243313135353a2063616c6c6572206973206e6f7420746f6b656e206f776e60408201526d195c881bdc88185c1c1c9bdd995960921b606082015260800190565b60006001820161153657611536611496565b5060010190565b8082018082111561030e5761030e611496565b60208082526025908201527f455243313135353a207472616e7366657220746f20746865207a65726f206164604082015264647265737360d81b606082015260800190565b6020808252602a908201527f455243313135353a20696e73756666696369656e742062616c616e636520666f60408201526939103a3930b739b332b960b11b606082015260800190565b6040815260006115f260408301856112d3565b828103602084015261160481856112d3565b95945050505050565b601f82111561165357600081815260208120601f850160051c810160208610156116345750805b601f850160051c820191505b81811015610a5857828155600101611640565b505050565b815167ffffffffffffffff81111561167257611672611008565b611686816116808454611446565b8461160d565b602080601f8311600181146116bb57600084156116a35750858301515b600019600386901b1c1916600185901b178555610a58565b600085815260208120601f198616915b828110156116ea578886015182559484019460019091019084016116cb565b50858210156117085787850151600019600388901b60f8161c191681555b5050505050600190811b01905550565b6001600160a01b03868116825285166020820152604081018490526060810183905260a06080820181905260009061175290830184610f8d565b979650505050505050565b60006020828403121561176f57600080fd5b8151610f6d81610f3a565b600060033d11156117935760046000803e5060005160e01c5b90565b600060443d10156117a45790565b6040516003193d81016004833e81513d67ffffffffffffffff81602484011181841117156117d457505050505090565b82850191508151818111156117ec5750505050505090565b843d87010160208285010111156118065750505050505090565b6118156020828601018761101e565b509095945050505050565b60208082526028908201527f455243313135353a204552433131353552656365697665722072656a656374656040820152676420746f6b656e7360c01b606082015260800190565b6001600160a01b0386811682528516602082015260a060408201819052600090611894908301866112d3565b82810360608401526118a681866112d3565b905082810360808401526118ba8185610f8d565b9897505050505050505056fea2646970667358221220d30d8d1802e41b9fee3ecf271b02917dc2e825c8a0cde85c4819f45b546cef7164736f6c6343000811003368747470733a2f2f697066732e696f2f697066732f516d5a48455254594c5342334561547a6d77434d58596b64534e7677665a6d365a4c63746f50374a727344486d613f66696c656e616d653d7b69647d2e6a736f6e",
  "linkReferences": {},
  "deployedLinkReferences": {}
}