{
  "_format": "hh-sol-artifact-1",
  "contractName": "NFTicket",
  "sourceName": "contracts/NFTicket.sol",
  "abi": [
    {
      "inputs": [],
      "stateMutability": "nonpayable",
      "type": "constructor"
    },
    {
      "anonymous": false,
      "inputs": [
        {
          "indexed": true,
          "internalType": "address",
          "name": "account",
          "type": "address"
        },
        {
          "indexed": true,
          "internalType": "address",
          "name": "operator",
          "type": "address"
        },
        {
          "indexed": false,
          "internalType": "bool",
          "name": "approved",
          "type": "bool"
        }
      ],
      "name": "ApprovalForAll",
      "type": "event"
    },
    {
      "anonymous": false,
      "inputs": [
        {
          "indexed": true,
          "internalType": "address",
          "name": "operator",
          "type": "address"
        },
        {
          "indexed": true,
          "internalType": "address",
          "name": "from",
          "type": "address"
        },
        {
          "indexed": true,
          "internalType": "address",
          "name": "to",
          "type": "address"
        },
        {
          "indexed": false,
          "internalType": "uint256[]",
          "name": "ids",
          "type": "uint256[]"
        },
        {
          "indexed": false,
          "internalType": "uint256[]",
          "name": "values",
          "type": "uint256[]"
        }
      ],
      "name": "TransferBatch",
      "type": "event"
    },
    {
      "anonymous": false,
      "inputs": [
        {
          "indexed": true,
          "internalType": "address",
          "name": "operator",
          "type": "address"
        },
        {
          "indexed": true,
          "internalType": "address",
          "name": "from",
          "type": "address"
        },
        {
          "indexed": true,
          "internalType": "address",
          "name": "to",
          "type": "address"
        },
        {
          "indexed": false,
          "internalType": "uint256",
          "name": "id",
          "type": "uint256"
        },
        {
          "indexed": false,
          "internalType": "uint256",
          "name": "value",
          "type": "uint256"
        }
      ],
      "name": "TransferSingle",
      "type": "event"
    },
    {
      "anonymous": false,
      "inputs": [
        {
          "indexed": false,
          "internalType": "string",
          "name": "value",
          "type": "string"
        },
        {
          "indexed": true,
          "internalType": "uint256",
          "name": "id",
          "type": "uint256"
        }
      ],
      "name": "URI",
      "type": "event"
    },
    {
      "inputs": [
        {
          "internalType": "address",
          "name": "account",
          "type": "address"
        },
        {
          "internalType": "uint256",
          "name": "id",
          "type": "uint256"
        }
      ],
      "name": "balanceOf",
      "outputs": [
        {
          "internalType": "uint256",
          "name": "",
          "type": "uint256"
        }
      ],
      "stateMutability": "view",
      "type": "function"
    },
    {
      "inputs": [
        {
          "internalType": "address[]",
          "name": "accounts",
          "type": "address[]"
        },
        {
          "internalType": "uint256[]",
          "name": "ids",
          "type": "uint256[]"
        }
      ],
      "name": "balanceOfBatch",
      "outputs": [
        {
          "internalType": "uint256[]",
          "name": "",
          "type": "uint256[]"
        }
      ],
      "stateMutability": "view",
      "type": "function"
    },
    {
      "inputs": [
        {
          "internalType": "uint256",
          "name": "ticketAmount",
          "type": "uint256"
        },
        {
          "internalType": "uint256",
          "name": "ticketPrice",
          "type": "uint256"
        }
      ],
      "name": "createEvent",
      "outputs": [
        {
          "internalType": "uint256",
          "name": "",
          "type": "uint256"
        }
      ],
      "stateMutability": "nonpayable",
      "type": "function"
    },
    {
      "inputs": [],
      "name": "getAllOwnedTickets",
      "outputs": [
        {
          "internalType": "uint256[]",
          "name": "ticketIds",
          "type": "uint256[]"
        }
      ],
      "stateMutability": "view",
      "type": "function"
    },
    {
      "inputs": [
        {
          "internalType": "uint256",
          "name": "eventId",
          "type": "uint256"
        }
      ],
      "name": "getEventInfo",
      "outputs": [
        {
          "components": [
            {
              "internalType": "uint256",
              "name": "eventId",
              "type": "uint256"
            },
            {
              "internalType": "uint256",
              "name": "ticketAmount",
              "type": "uint256"
            },
            {
              "internalType": "uint256",
              "name": "ticketPrice",
              "type": "uint256"
            },
            {
              "internalType": "uint256",
              "name": "ticketsAvailable",
              "type": "uint256"
            },
            {
              "internalType": "address",
              "name": "eventOwner",
              "type": "address"
            }
          ],
          "internalType": "struct NFTicket.Event",
          "name": "",
          "type": "tuple"
        }
      ],
      "stateMutability": "view",
      "type": "function"
    },
    {
      "inputs": [],
      "name": "getLastEventId",
      "outputs": [
        {
          "internalType": "uint256",
          "name": "",
          "type": "uint256"
        }
      ],
      "stateMutability": "view",
      "type": "function"
    },
    {
      "inputs": [
        {
          "internalType": "uint256",
          "name": "eventId",
          "type": "uint256"
        }
      ],
      "name": "getTicketPrice",
      "outputs": [
        {
          "internalType": "uint256",
          "name": "",
          "type": "uint256"
        }
      ],
      "stateMutability": "view",
      "type": "function"
    },
    {
      "inputs": [
        {
          "internalType": "uint256",
          "name": "eventId",
          "type": "uint256"
        }
      ],
      "name": "getTicketsAvailable",
      "outputs": [
        {
          "internalType": "uint256",
          "name": "",
          "type": "uint256"
        }
      ],
      "stateMutability": "view",
      "type": "function"
    },
    {
      "inputs": [
        {
          "internalType": "address",
          "name": "account",
          "type": "address"
        },
        {
          "internalType": "address",
          "name": "operator",
          "type": "address"
        }
      ],
      "name": "isApprovedForAll",
      "outputs": [
        {
          "internalType": "bool",
          "name": "",
          "type": "bool"
        }
      ],
      "stateMutability": "view",
      "type": "function"
    },
    {
      "inputs": [
        {
          "internalType": "uint256",
          "name": "eventId",
          "type": "uint256"
        },
        {
          "internalType": "uint256",
          "name": "amount",
          "type": "uint256"
        }
      ],
      "name": "mintTickets",
      "outputs": [],
      "stateMutability": "payable",
      "type": "function"
    },
    {
      "inputs": [
        {
          "internalType": "address",
          "name": "from",
          "type": "address"
        },
        {
          "internalType": "address",
          "name": "to",
          "type": "address"
        },
        {
          "internalType": "uint256[]",
          "name": "ids",
          "type": "uint256[]"
        },
        {
          "internalType": "uint256[]",
          "name": "amounts",
          "type": "uint256[]"
        },
        {
          "internalType": "bytes",
          "name": "data",
          "type": "bytes"
        }
      ],
      "name": "safeBatchTransferFrom",
      "outputs": [],
      "stateMutability": "nonpayable",
      "type": "function"
    },
    {
      "inputs": [
        {
          "internalType": "address",
          "name": "from",
          "type": "address"
        },
        {
          "internalType": "address",
          "name": "to",
          "type": "address"
        },
        {
          "internalType": "uint256",
          "name": "id",
          "type": "uint256"
        },
        {
          "internalType": "uint256",
          "name": "amount",
          "type": "uint256"
        },
        {
          "internalType": "bytes",
          "name": "data",
          "type": "bytes"
        }
      ],
      "name": "safeTransferFrom",
      "outputs": [],
      "stateMutability": "nonpayable",
      "type": "function"
    },
    {
      "inputs": [
        {
          "internalType": "address",
          "name": "operator",
          "type": "address"
        },
        {
          "internalType": "bool",
          "name": "approved",
          "type": "bool"
        }
      ],
      "name": "setApprovalForAll",
      "outputs": [],
      "stateMutability": "nonpayable",
      "type": "function"
    },
    {
      "inputs": [
        {
          "internalType": "string",
          "name": "eventURI",
          "type": "string"
        }
      ],
      "name": "setEventUri",
      "outputs": [],
      "stateMutability": "nonpayable",
      "type": "function"
    },
    {
      "inputs": [
        {
          "internalType": "bytes4",
          "name": "interfaceId",
          "type": "bytes4"
        }
      ],
      "name": "supportsInterface",
      "outputs": [
        {
          "internalType": "bool",
          "name": "",
          "type": "bool"
        }
      ],
      "stateMutability": "view",
      "type": "function"
    },
    {
      "inputs": [
        {
          "internalType": "uint256",
          "name": "",
          "type": "uint256"
        }
      ],
      "name": "uri",
      "outputs": [
        {
          "internalType": "string",
          "name": "",
          "type": "string"
        }
      ],
      "stateMutability": "view",
      "type": "function"
    }
  ],
  "bytecode": "0x60806040523480156200001157600080fd5b506040518060800160405280605681526020016200202860569139620000378162000055565b506200004f60036200006760201b62000b751760201c565b620001e1565b600262000063828262000115565b5050565b80546001019055565b634e487b7160e01b600052604160045260246000fd5b600181811c908216806200009b57607f821691505b602082108103620000bc57634e487b7160e01b600052602260045260246000fd5b50919050565b601f8211156200011057600081815260208120601f850160051c81016020861015620000eb5750805b601f850160051c820191505b818110156200010c57828155600101620000f7565b5050505b505050565b81516001600160401b0381111562000131576200013162000070565b620001498162000142845462000086565b84620000c2565b602080601f831160018114620001815760008415620001685750858301515b600019600386901b1c1916600185901b1785556200010c565b600085815260208120601f198616915b82811015620001b25788860151825594840194600190910190840162000191565b5085821015620001d15787850151600019600388901b60f8161c191681555b5050505050600190811b01905550565b611e3780620001f16000396000f3fe6080604052600436106100f25760003560e01c8063790c01251161008a578063b5460deb11610059578063b5460deb146102f4578063e985e9c514610309578063f06fc96114610352578063f242432a1461038257600080fd5b8063790c012514610281578063920a57dc146102a15780639aa964b6146102c1578063a22cb465146102d457600080fd5b80632eb2c2d6116100c65780632eb2c2d6146101ed578063478b9a1f1461020f5780634e1273f4146102245780636df0baaf1461025157600080fd5b8062fdd58e146100f757806301ffc9a71461012a5780630e89341c1461015a5780631d645b1214610187575b600080fd5b34801561010357600080fd5b5061011761011236600461140a565b6103a2565b6040519081526020015b60405180910390f35b34801561013657600080fd5b5061014a61014536600461144a565b61043b565b6040519015158152602001610121565b34801561016657600080fd5b5061017a610175366004611467565b61048b565b60405161012191906114c6565b34801561019357600080fd5b506101a76101a2366004611467565b61051f565b6040516101219190815181526020808301519082015260408083015190820152606080830151908201526080918201516001600160a01b03169181019190915260a00190565b3480156101f957600080fd5b5061020d61020836600461162f565b6105b2565b005b34801561021b57600080fd5b506101176105fe565b34801561023057600080fd5b5061024461023f3660046116d9565b61061a565b60405161012191906117df565b34801561025d57600080fd5b5061011761026c366004611467565b60009081526005602052604090206003015490565b34801561028d57600080fd5b5061011761029c3660046117f2565b610744565b3480156102ad57600080fd5b5061020d6102bc366004611814565b6107d9565b61020d6102cf3660046117f2565b6107e5565b3480156102e057600080fd5b5061020d6102ef366004611865565b610ac0565b34801561030057600080fd5b50610244610acf565b34801561031557600080fd5b5061014a6103243660046118a1565b6001600160a01b03918216600090815260016020908152604080832093909416825291909152205460ff1690565b34801561035e57600080fd5b5061011761036d366004611467565b60009081526005602052604090206002015490565b34801561038e57600080fd5b5061020d61039d3660046118d4565b610b30565b60006001600160a01b0383166104125760405162461bcd60e51b815260206004820152602a60248201527f455243313135353a2061646472657373207a65726f206973206e6f742061207660448201526930b634b21037bbb732b960b11b60648201526084015b60405180910390fd5b506000818152602081815260408083206001600160a01b03861684529091529020545b92915050565b60006001600160e01b03198216636cdb3d1360e11b148061046c57506001600160e01b031982166303a24d0760e21b145b8061043557506301ffc9a760e01b6001600160e01b0319831614610435565b60606002805461049a90611939565b80601f01602080910402602001604051908101604052809291908181526020018280546104c690611939565b80156105135780601f106104e857610100808354040283529160200191610513565b820191906000526020600020905b8154815290600101906020018083116104f657829003601f168201915b50505050509050919050565b61055a6040518060a001604052806000815260200160008152602001600081526020016000815260200160006001600160a01b031681525090565b50600090815260056020908152604091829020825160a08101845281548152600182015492810192909252600281015492820192909252600382015460608201526004909101546001600160a01b0316608082015290565b6001600160a01b0385163314806105ce57506105ce8533610324565b6105ea5760405162461bcd60e51b815260040161040990611973565b6105f78585858585610b7e565b5050505050565b6000600161060b60035490565b61061591906119d7565b905090565b6060815183511461067f5760405162461bcd60e51b815260206004820152602960248201527f455243313135353a206163636f756e747320616e6420696473206c656e677468604482015268040dad2e6dac2e8c6d60bb1b6064820152608401610409565b6000835167ffffffffffffffff81111561069b5761069b6114d9565b6040519080825280602002602001820160405280156106c4578160200160208202803683370190505b50905060005b845181101561073c5761070f8582815181106106e8576106e86119ea565b6020026020010151858381518110610702576107026119ea565b60200260200101516103a2565b828281518110610721576107216119ea565b602090810291909101015261073581611a00565b90506106ca565b509392505050565b60008061075060035490565b9050610760600380546001019055565b6040805160a081018252828152602080820187815282840196875260608301978852336080840190815260008681526005909352939091209151825551600182015593516002850155935160038401559251600490920180546001600160a01b0319166001600160a01b03909316929092179091555090565b6107e281610d12565b50565b6000828152600560205260409020600301548111156108465760405162461bcd60e51b815260206004820152601e60248201527f496e73756666696369656e74207469636b6574732072656d61696e696e6700006044820152606401610409565b600081116108965760405162461bcd60e51b815260206004820152601b60248201527f4d757374206d696e74206174206c656173742031207469636b657400000000006044820152606401610409565b60008167ffffffffffffffff8111156108b1576108b16114d9565b6040519080825280602002602001820160405280156108da578160200160208202803683370190505b50905060008267ffffffffffffffff8111156108f8576108f86114d9565b604051908082528060200260200182016040528015610921578160200160208202803683370190505b506000858152600460205260408120549192505b848110156109aa5760006109498784610d1e565b90508085838151811061095e5761095e6119ea565b602002602001018181525050600184838151811061097e5761097e6119ea565b60209081029190910101528261099381611a00565b9350505080806109a290611a00565b915050610935565b506109c633848460405180602001604052806000815250610df5565b60005b84811015610ab8576000868152600460205260409020805460010190556040518060400160405280858381518110610a0357610a036119ea565b602002602001015181526020016000151581525060066000868481518110610a2d57610a2d6119ea565b6020908102919091018101518252818101929092526040908101600090812084518155938301516001909401805460ff191694151594909417909355338352600790915290208451859083908110610a8757610a876119ea565b6020908102919091018101518254600181018455600093845291909220015580610ab081611a00565b9150506109c9565b505050505050565b610acb338383610f7a565b5050565b33600090815260076020908152604091829020805483518184028101840190945280845260609392830182828015610b2657602002820191906000526020600020905b815481526020019060010190808311610b12575b5050505050905090565b6001600160a01b038516331480610b4c5750610b4c8533610324565b610b685760405162461bcd60e51b815260040161040990611973565b6105f7858585858561105a565b80546001019055565b8151835114610b9f5760405162461bcd60e51b815260040161040990611a19565b6001600160a01b038416610bc55760405162461bcd60e51b815260040161040990611a61565b3360005b8451811015610cac576000858281518110610be657610be66119ea565b602002602001015190506000858381518110610c0457610c046119ea565b602090810291909101810151600084815280835260408082206001600160a01b038e168352909352919091205490915081811015610c545760405162461bcd60e51b815260040161040990611aa6565b6000838152602081815260408083206001600160a01b038e8116855292528083208585039055908b16825281208054849290610c91908490611af0565b9250508190555050505080610ca590611a00565b9050610bc9565b50846001600160a01b0316866001600160a01b0316826001600160a01b03167f4a39dc06d4c0dbc64b70af90fd698a233a518aa5d07e595d983b8c0526c8f7fb8787604051610cfc929190611b03565b60405180910390a4610ab8818787878787611184565b6002610acb8282611b7c565b60006103e7831115610d725760405162461bcd60e51b815260206004820152601f60248201527f4576656e74204944206d757374206265206c657373207468616e2031303030006044820152606401610409565b620f423f821115610dd65760405162461bcd60e51b815260206004820152602860248201527f5469636b6574206e756d626572206d757374206265206c657373207468616e20604482015267393939393939393960c01b6064820152608401610409565b81610de484620f4240611c3c565b610dee9190611af0565b9392505050565b6001600160a01b038416610e555760405162461bcd60e51b815260206004820152602160248201527f455243313135353a206d696e7420746f20746865207a65726f206164647265736044820152607360f81b6064820152608401610409565b8151835114610e765760405162461bcd60e51b815260040161040990611a19565b3360005b8451811015610f1257838181518110610e9557610e956119ea565b6020026020010151600080878481518110610eb257610eb26119ea565b602002602001015181526020019081526020016000206000886001600160a01b03166001600160a01b031681526020019081526020016000206000828254610efa9190611af0565b90915550819050610f0a81611a00565b915050610e7a565b50846001600160a01b031660006001600160a01b0316826001600160a01b03167f4a39dc06d4c0dbc64b70af90fd698a233a518aa5d07e595d983b8c0526c8f7fb8787604051610f63929190611b03565b60405180910390a46105f781600087878787611184565b816001600160a01b0316836001600160a01b031603610fed5760405162461bcd60e51b815260206004820152602960248201527f455243313135353a2073657474696e6720617070726f76616c20737461747573604482015268103337b91039b2b63360b91b6064820152608401610409565b6001600160a01b03838116600081815260016020908152604080832094871680845294825291829020805460ff191686151590811790915591519182527f17307eab39ab6107e8899845ad3d59bd9653f200f220920489ca2b5937696c31910160405180910390a3505050565b6001600160a01b0384166110805760405162461bcd60e51b815260040161040990611a61565b33600061108c856112e8565b90506000611099856112e8565b90506000868152602081815260408083206001600160a01b038c168452909152902054858110156110dc5760405162461bcd60e51b815260040161040990611aa6565b6000878152602081815260408083206001600160a01b038d8116855292528083208985039055908a16825281208054889290611119908490611af0565b909155505060408051888152602081018890526001600160a01b03808b16928c821692918816917fc3d58168c5ae7397731d063d5bbf3d657854427343f4c083240f7aacaa2d0f62910160405180910390a4611179848a8a8a8a8a611333565b505050505050505050565b6001600160a01b0384163b15610ab85760405163bc197c8160e01b81526001600160a01b0385169063bc197c81906111c89089908990889088908890600401611c53565b6020604051808303816000875af1925050508015611203575060408051601f3d908101601f1916820190925261120091810190611cb1565b60015b6112af5761120f611cce565b806308c379a0036112485750611223611cea565b8061122e575061124a565b8060405162461bcd60e51b815260040161040991906114c6565b505b60405162461bcd60e51b815260206004820152603460248201527f455243313135353a207472616e7366657220746f206e6f6e2d455243313135356044820152732932b1b2b4bb32b91034b6b83632b6b2b73a32b960611b6064820152608401610409565b6001600160e01b0319811663bc197c8160e01b146112df5760405162461bcd60e51b815260040161040990611d74565b50505050505050565b60408051600180825281830190925260609160009190602080830190803683370190505090508281600081518110611322576113226119ea565b602090810291909101015292915050565b6001600160a01b0384163b15610ab85760405163f23a6e6160e01b81526001600160a01b0385169063f23a6e61906113779089908990889088908890600401611dbc565b6020604051808303816000875af19250505080156113b2575060408051601f3d908101601f191682019092526113af91810190611cb1565b60015b6113be5761120f611cce565b6001600160e01b0319811663f23a6e6160e01b146112df5760405162461bcd60e51b815260040161040990611d74565b80356001600160a01b038116811461140557600080fd5b919050565b6000806040838503121561141d57600080fd5b611426836113ee565b946020939093013593505050565b6001600160e01b0319811681146107e257600080fd5b60006020828403121561145c57600080fd5b8135610dee81611434565b60006020828403121561147957600080fd5b5035919050565b6000815180845260005b818110156114a65760208185018101518683018201520161148a565b506000602082860101526020601f19601f83011685010191505092915050565b602081526000610dee6020830184611480565b634e487b7160e01b600052604160045260246000fd5b601f8201601f1916810167ffffffffffffffff81118282101715611515576115156114d9565b6040525050565b600067ffffffffffffffff821115611536576115366114d9565b5060051b60200190565b600082601f83011261155157600080fd5b8135602061155e8261151c565b60405161156b82826114ef565b83815260059390931b850182019282810191508684111561158b57600080fd5b8286015b848110156115a6578035835291830191830161158f565b509695505050505050565b600067ffffffffffffffff8311156115cb576115cb6114d9565b6040516115e2601f8501601f1916602001826114ef565b8091508381528484840111156115f757600080fd5b83836020830137600060208583010152509392505050565b600082601f83011261162057600080fd5b610dee838335602085016115b1565b600080600080600060a0868803121561164757600080fd5b611650866113ee565b945061165e602087016113ee565b9350604086013567ffffffffffffffff8082111561167b57600080fd5b61168789838a01611540565b9450606088013591508082111561169d57600080fd5b6116a989838a01611540565b935060808801359150808211156116bf57600080fd5b506116cc8882890161160f565b9150509295509295909350565b600080604083850312156116ec57600080fd5b823567ffffffffffffffff8082111561170457600080fd5b818501915085601f83011261171857600080fd5b813560206117258261151c565b60405161173282826114ef565b83815260059390931b850182019282810191508984111561175257600080fd5b948201945b8386101561177757611768866113ee565b82529482019490820190611757565b9650508601359250508082111561178d57600080fd5b5061179a85828601611540565b9150509250929050565b600081518084526020808501945080840160005b838110156117d4578151875295820195908201906001016117b8565b509495945050505050565b602081526000610dee60208301846117a4565b6000806040838503121561180557600080fd5b50508035926020909101359150565b60006020828403121561182657600080fd5b813567ffffffffffffffff81111561183d57600080fd5b8201601f8101841361184e57600080fd5b61185d848235602084016115b1565b949350505050565b6000806040838503121561187857600080fd5b611881836113ee565b91506020830135801515811461189657600080fd5b809150509250929050565b600080604083850312156118b457600080fd5b6118bd836113ee565b91506118cb602084016113ee565b90509250929050565b600080600080600060a086880312156118ec57600080fd5b6118f5866113ee565b9450611903602087016113ee565b93506040860135925060608601359150608086013567ffffffffffffffff81111561192d57600080fd5b6116cc8882890161160f565b600181811c9082168061194d57607f821691505b60208210810361196d57634e487b7160e01b600052602260045260246000fd5b50919050565b6020808252602e908201527f455243313135353a2063616c6c6572206973206e6f7420746f6b656e206f776e60408201526d195c881bdc88185c1c1c9bdd995960921b606082015260800190565b634e487b7160e01b600052601160045260246000fd5b81810381811115610435576104356119c1565b634e487b7160e01b600052603260045260246000fd5b600060018201611a1257611a126119c1565b5060010190565b60208082526028908201527f455243313135353a2069647320616e6420616d6f756e7473206c656e677468206040820152670dad2e6dac2e8c6d60c31b606082015260800190565b60208082526025908201527f455243313135353a207472616e7366657220746f20746865207a65726f206164604082015264647265737360d81b606082015260800190565b6020808252602a908201527f455243313135353a20696e73756666696369656e742062616c616e636520666f60408201526939103a3930b739b332b960b11b606082015260800190565b80820180821115610435576104356119c1565b604081526000611b1660408301856117a4565b8281036020840152611b2881856117a4565b95945050505050565b601f821115611b7757600081815260208120601f850160051c81016020861015611b585750805b601f850160051c820191505b81811015610ab857828155600101611b64565b505050565b815167ffffffffffffffff811115611b9657611b966114d9565b611baa81611ba48454611939565b84611b31565b602080601f831160018114611bdf5760008415611bc75750858301515b600019600386901b1c1916600185901b178555610ab8565b600085815260208120601f198616915b82811015611c0e57888601518255948401946001909101908401611bef565b5085821015611c2c5787850151600019600388901b60f8161c191681555b5050505050600190811b01905550565b8082028115828204841417610435576104356119c1565b6001600160a01b0386811682528516602082015260a060408201819052600090611c7f908301866117a4565b8281036060840152611c9181866117a4565b90508281036080840152611ca58185611480565b98975050505050505050565b600060208284031215611cc357600080fd5b8151610dee81611434565b600060033d1115611ce75760046000803e5060005160e01c5b90565b600060443d1015611cf85790565b6040516003193d81016004833e81513d67ffffffffffffffff8160248401118184111715611d2857505050505090565b8285019150815181811115611d405750505050505090565b843d8701016020828501011115611d5a5750505050505090565b611d69602082860101876114ef565b509095945050505050565b60208082526028908201527f455243313135353a204552433131353552656365697665722072656a656374656040820152676420746f6b656e7360c01b606082015260800190565b6001600160a01b03868116825285166020820152604081018490526060810183905260a060808201819052600090611df690830184611480565b97965050505050505056fea264697066735822122022b02bea709e014bb835a88bcde4e4a02a36fc53ac50035cf6ff7b6e82d23a1c64736f6c6343000811003368747470733a2f2f697066732e696f2f697066732f516d5a48455254594c5342334561547a6d77434d58596b64534e7677665a6d365a4c63746f50374a727344486d613f66696c656e616d653d7b69647d2e6a736f6e",
  "linkReferences": {},
  "deployedLinkReferences": {}
}