{
  "_format": "hh-sol-artifact-1",
  "contractName": "NFTicket",
  "sourceName": "contracts/NFTicket.sol",
  "abi": [
    {
      "inputs": [],
      "stateMutability": "nonpayable",
      "type": "constructor"
    },
    {
      "anonymous": false,
      "inputs": [
        {
          "indexed": true,
          "internalType": "address",
          "name": "account",
          "type": "address"
        },
        {
          "indexed": true,
          "internalType": "address",
          "name": "operator",
          "type": "address"
        },
        {
          "indexed": false,
          "internalType": "bool",
          "name": "approved",
          "type": "bool"
        }
      ],
      "name": "ApprovalForAll",
      "type": "event"
    },
    {
      "anonymous": false,
      "inputs": [
        {
          "indexed": true,
          "internalType": "address",
          "name": "operator",
          "type": "address"
        },
        {
          "indexed": true,
          "internalType": "address",
          "name": "from",
          "type": "address"
        },
        {
          "indexed": true,
          "internalType": "address",
          "name": "to",
          "type": "address"
        },
        {
          "indexed": false,
          "internalType": "uint256[]",
          "name": "ids",
          "type": "uint256[]"
        },
        {
          "indexed": false,
          "internalType": "uint256[]",
          "name": "values",
          "type": "uint256[]"
        }
      ],
      "name": "TransferBatch",
      "type": "event"
    },
    {
      "anonymous": false,
      "inputs": [
        {
          "indexed": true,
          "internalType": "address",
          "name": "operator",
          "type": "address"
        },
        {
          "indexed": true,
          "internalType": "address",
          "name": "from",
          "type": "address"
        },
        {
          "indexed": true,
          "internalType": "address",
          "name": "to",
          "type": "address"
        },
        {
          "indexed": false,
          "internalType": "uint256",
          "name": "id",
          "type": "uint256"
        },
        {
          "indexed": false,
          "internalType": "uint256",
          "name": "value",
          "type": "uint256"
        }
      ],
      "name": "TransferSingle",
      "type": "event"
    },
    {
      "anonymous": false,
      "inputs": [
        {
          "indexed": false,
          "internalType": "string",
          "name": "value",
          "type": "string"
        },
        {
          "indexed": true,
          "internalType": "uint256",
          "name": "id",
          "type": "uint256"
        }
      ],
      "name": "URI",
      "type": "event"
    },
    {
      "inputs": [
        {
          "internalType": "address",
          "name": "account",
          "type": "address"
        },
        {
          "internalType": "uint256",
          "name": "id",
          "type": "uint256"
        }
      ],
      "name": "balanceOf",
      "outputs": [
        {
          "internalType": "uint256",
          "name": "",
          "type": "uint256"
        }
      ],
      "stateMutability": "view",
      "type": "function"
    },
    {
      "inputs": [
        {
          "internalType": "address[]",
          "name": "accounts",
          "type": "address[]"
        },
        {
          "internalType": "uint256[]",
          "name": "ids",
          "type": "uint256[]"
        }
      ],
      "name": "balanceOfBatch",
      "outputs": [
        {
          "internalType": "uint256[]",
          "name": "",
          "type": "uint256[]"
        }
      ],
      "stateMutability": "view",
      "type": "function"
    },
    {
      "inputs": [
        {
          "internalType": "uint256",
          "name": "ticketAmount",
          "type": "uint256"
        },
        {
          "internalType": "uint256",
          "name": "ticketPrice",
          "type": "uint256"
        }
      ],
      "name": "createEvent",
      "outputs": [
        {
          "internalType": "uint256",
          "name": "",
          "type": "uint256"
        }
      ],
      "stateMutability": "nonpayable",
      "type": "function"
    },
    {
      "inputs": [],
      "name": "getAllOwnedTickets",
      "outputs": [
        {
          "internalType": "uint256[]",
          "name": "ticketIds",
          "type": "uint256[]"
        }
      ],
      "stateMutability": "view",
      "type": "function"
    },
    {
      "inputs": [
        {
          "internalType": "uint256",
          "name": "eventId",
          "type": "uint256"
        }
      ],
      "name": "getEventInfo",
      "outputs": [
        {
          "components": [
            {
              "internalType": "uint256",
              "name": "eventId",
              "type": "uint256"
            },
            {
              "internalType": "uint256",
              "name": "ticketAmount",
              "type": "uint256"
            },
            {
              "internalType": "uint256",
              "name": "ticketPrice",
              "type": "uint256"
            },
            {
              "internalType": "uint256",
              "name": "ticketsAvailable",
              "type": "uint256"
            },
            {
              "internalType": "address",
              "name": "eventOwner",
              "type": "address"
            }
          ],
          "internalType": "struct NFTicket.Event",
          "name": "",
          "type": "tuple"
        }
      ],
      "stateMutability": "view",
      "type": "function"
    },
    {
      "inputs": [],
      "name": "getLastEventId",
      "outputs": [
        {
          "internalType": "uint256",
          "name": "",
          "type": "uint256"
        }
      ],
      "stateMutability": "view",
      "type": "function"
    },
    {
      "inputs": [
        {
          "internalType": "uint256",
          "name": "ticketId",
          "type": "uint256"
        }
      ],
      "name": "getTicketInfo",
      "outputs": [
        {
          "components": [
            {
              "internalType": "uint256",
              "name": "eventId",
              "type": "uint256"
            },
            {
              "internalType": "uint256",
              "name": "ticketId",
              "type": "uint256"
            },
            {
              "internalType": "bool",
              "name": "redeemed",
              "type": "bool"
            },
            {
              "internalType": "address",
              "name": "owner",
              "type": "address"
            }
          ],
          "internalType": "struct NFTicket.Ticket",
          "name": "",
          "type": "tuple"
        }
      ],
      "stateMutability": "view",
      "type": "function"
    },
    {
      "inputs": [
        {
          "internalType": "address",
          "name": "account",
          "type": "address"
        },
        {
          "internalType": "address",
          "name": "operator",
          "type": "address"
        }
      ],
      "name": "isApprovedForAll",
      "outputs": [
        {
          "internalType": "bool",
          "name": "",
          "type": "bool"
        }
      ],
      "stateMutability": "view",
      "type": "function"
    },
    {
      "inputs": [
        {
          "internalType": "uint256",
          "name": "eventId",
          "type": "uint256"
        },
        {
          "internalType": "uint256",
          "name": "amount",
          "type": "uint256"
        }
      ],
      "name": "mintTickets",
      "outputs": [],
      "stateMutability": "payable",
      "type": "function"
    },
    {
      "inputs": [
        {
          "internalType": "uint256",
          "name": "ticketId",
          "type": "uint256"
        }
      ],
      "name": "redeemTicket",
      "outputs": [],
      "stateMutability": "nonpayable",
      "type": "function"
    },
    {
      "inputs": [
        {
          "internalType": "address",
          "name": "from",
          "type": "address"
        },
        {
          "internalType": "address",
          "name": "to",
          "type": "address"
        },
        {
          "internalType": "uint256[]",
          "name": "ids",
          "type": "uint256[]"
        },
        {
          "internalType": "uint256[]",
          "name": "amounts",
          "type": "uint256[]"
        },
        {
          "internalType": "bytes",
          "name": "data",
          "type": "bytes"
        }
      ],
      "name": "safeBatchTransferFrom",
      "outputs": [],
      "stateMutability": "nonpayable",
      "type": "function"
    },
    {
      "inputs": [
        {
          "internalType": "address",
          "name": "from",
          "type": "address"
        },
        {
          "internalType": "address",
          "name": "to",
          "type": "address"
        },
        {
          "internalType": "uint256",
          "name": "id",
          "type": "uint256"
        },
        {
          "internalType": "uint256",
          "name": "amount",
          "type": "uint256"
        },
        {
          "internalType": "bytes",
          "name": "data",
          "type": "bytes"
        }
      ],
      "name": "safeTransferFrom",
      "outputs": [],
      "stateMutability": "nonpayable",
      "type": "function"
    },
    {
      "inputs": [
        {
          "internalType": "address",
          "name": "operator",
          "type": "address"
        },
        {
          "internalType": "bool",
          "name": "approved",
          "type": "bool"
        }
      ],
      "name": "setApprovalForAll",
      "outputs": [],
      "stateMutability": "nonpayable",
      "type": "function"
    },
    {
      "inputs": [
        {
          "internalType": "string",
          "name": "eventURI",
          "type": "string"
        }
      ],
      "name": "setEventUri",
      "outputs": [],
      "stateMutability": "nonpayable",
      "type": "function"
    },
    {
      "inputs": [
        {
          "internalType": "bytes4",
          "name": "interfaceId",
          "type": "bytes4"
        }
      ],
      "name": "supportsInterface",
      "outputs": [
        {
          "internalType": "bool",
          "name": "",
          "type": "bool"
        }
      ],
      "stateMutability": "view",
      "type": "function"
    },
    {
      "inputs": [
        {
          "internalType": "uint256",
          "name": "",
          "type": "uint256"
        }
      ],
      "name": "uri",
      "outputs": [
        {
          "internalType": "string",
          "name": "",
          "type": "string"
        }
      ],
      "stateMutability": "view",
      "type": "function"
    }
  ],
  "bytecode": "0x60806040523480156200001157600080fd5b50604051806060016040528060328152602001620021d260329139620000378162000055565b506200004f60036200006760201b62000d0a1760201c565b620001e1565b600262000063828262000115565b5050565b80546001019055565b634e487b7160e01b600052604160045260246000fd5b600181811c908216806200009b57607f821691505b602082108103620000bc57634e487b7160e01b600052602260045260246000fd5b50919050565b601f8211156200011057600081815260208120601f850160051c81016020861015620000eb5750805b601f850160051c820191505b818110156200010c57828155600101620000f7565b5050505b505050565b81516001600160401b0381111562000131576200013162000070565b620001498162000142845462000086565b84620000c2565b602080601f831160018114620001815760008415620001685750858301515b600019600386901b1c1916600185901b1785556200010c565b600085815260208120601f198616915b82811015620001b25788860151825594840194600190910190840162000191565b5085821015620001d15787850151600019600388901b60f8161c191681555b5050505050600190811b01905550565b611fe180620001f16000396000f3fe6080604052600436106100f25760003560e01c8063790c01251161008a578063b5460deb11610059578063b5460deb146102e4578063e985e9c5146102f9578063f242432a14610342578063ff99a0631461036257600080fd5b8063790c012514610271578063920a57dc146102915780639aa964b6146102b1578063a22cb465146102c457600080fd5b80631d645b12116100c65780631d645b12146101a95780632eb2c2d61461020f578063478b9a1f1461022f5780634e1273f41461024457600080fd5b8062fdd58e146100f757806301ffc9a71461012a5780630e89341c1461015a57806315f59d7f14610187575b600080fd5b34801561010357600080fd5b5061011761011236600461159d565b610432565b6040519081526020015b60405180910390f35b34801561013657600080fd5b5061014a6101453660046115dd565b6104cb565b6040519015158152602001610121565b34801561016657600080fd5b5061017a6101753660046115fa565b61051b565b6040516101219190611659565b34801561019357600080fd5b506101a76101a23660046115fa565b6105af565b005b3480156101b557600080fd5b506101c96101c43660046115fa565b61064d565b6040516101219190815181526020808301519082015260408083015190820152606080830151908201526080918201516001600160a01b03169181019190915260a00190565b34801561021b57600080fd5b506101a761022a3660046117c2565b6106e0565b34801561023b57600080fd5b5061011761072c565b34801561025057600080fd5b5061026461025f36600461186c565b610748565b6040516101219190611972565b34801561027d57600080fd5b5061011761028c366004611985565b610872565b34801561029d57600080fd5b506101a76102ac3660046119a7565b610907565b6101a76102bf366004611985565b610913565b3480156102d057600080fd5b506101a76102df3660046119f8565b610c55565b3480156102f057600080fd5b50610264610c64565b34801561030557600080fd5b5061014a610314366004611a34565b6001600160a01b03918216600090815260016020908152604080832093909416825291909152205460ff1690565b34801561034e57600080fd5b506101a761035d366004611a67565b610cc5565b34801561036e57600080fd5b506103f461037d3660046115fa565b604080516080810182526000808252602082018190529181018290526060810191909152506000908152600660209081526040918290208251608081018452815481526001820154928101929092526002015460ff81161515928201929092526101009091046001600160a01b0316606082015290565b604051610121919081518152602080830151908201526040808301511515908201526060918201516001600160a01b03169181019190915260800190565b60006001600160a01b0383166104a25760405162461bcd60e51b815260206004820152602a60248201527f455243313135353a2061646472657373207a65726f206973206e6f742061207660448201526930b634b21037bbb732b960b11b60648201526084015b60405180910390fd5b506000818152602081815260408083206001600160a01b03861684529091529020545b92915050565b60006001600160e01b03198216636cdb3d1360e11b14806104fc57506001600160e01b031982166303a24d0760e21b145b806104c557506301ffc9a760e01b6001600160e01b03198316146104c5565b60606002805461052a90611acc565b80601f016020809104026020016040519081016040528092919081815260200182805461055690611acc565b80156105a35780601f10610578576101008083540402835291602001916105a3565b820191906000526020600020905b81548152906001019060200180831161058657829003601f168201915b50505050509050919050565b60008181526006602052604090206002015461010090046001600160a01b0316331461062f5760405162461bcd60e51b815260206004820152602960248201527f4f6e6c7920746865207469636b6574206f776e65722063616e2072656465656d6044820152680818481d1a58dad95d60ba1b6064820152608401610499565b6000908152600660205260409020600201805460ff19166001179055565b6106886040518060a001604052806000815260200160008152602001600081526020016000815260200160006001600160a01b031681525090565b50600090815260056020908152604091829020825160a08101845281548152600182015492810192909252600281015492820192909252600382015460608201526004909101546001600160a01b0316608082015290565b6001600160a01b0385163314806106fc57506106fc8533610314565b6107185760405162461bcd60e51b815260040161049990611b06565b6107258585858585610d13565b5050505050565b6000600161073960035490565b6107439190611b6a565b905090565b606081518351146107ad5760405162461bcd60e51b815260206004820152602960248201527f455243313135353a206163636f756e747320616e6420696473206c656e677468604482015268040dad2e6dac2e8c6d60bb1b6064820152608401610499565b6000835167ffffffffffffffff8111156107c9576107c961166c565b6040519080825280602002602001820160405280156107f2578160200160208202803683370190505b50905060005b845181101561086a5761083d85828151811061081657610816611b7d565b602002602001015185838151811061083057610830611b7d565b6020026020010151610432565b82828151811061084f5761084f611b7d565b602090810291909101015261086381611b93565b90506107f8565b509392505050565b60008061087e60035490565b905061088e600380546001019055565b6040805160a081018252828152602080820187815282840196875260608301978852336080840190815260008681526005909352939091209151825551600182015593516002850155935160038401559251600490920180546001600160a01b0319166001600160a01b03909316929092179091555090565b61091081610ea7565b50565b6000828152600560205260409020600301548111156109745760405162461bcd60e51b815260206004820152601e60248201527f496e73756666696369656e74207469636b6574732072656d61696e696e6700006044820152606401610499565b600081116109c45760405162461bcd60e51b815260206004820152601b60248201527f4d757374206d696e74206174206c656173742031207469636b657400000000006044820152606401610499565b60008167ffffffffffffffff8111156109df576109df61166c565b604051908082528060200260200182016040528015610a08578160200160208202803683370190505b50905060008267ffffffffffffffff811115610a2657610a2661166c565b604051908082528060200260200182016040528015610a4f578160200160208202803683370190505b506000858152600460205260408120549192505b84811015610ad8576000610a778784610eb3565b905080858381518110610a8c57610a8c611b7d565b6020026020010181815250506001848381518110610aac57610aac611b7d565b602090810291909101015282610ac181611b93565b935050508080610ad090611b93565b915050610a63565b50610af433848460405180602001604052806000815250610f88565b60005b84811015610c4d576000868152600460205260409020805460010190556040518060800160405280878152602001858381518110610b3757610b37611b7d565b60200260200101518152602001600015158152602001336001600160a01b031681525060066000868481518110610b7057610b70611b7d565b602090810291909101810151825281810192909252604090810160009081208451815584840151600182015584830151600290910180546060909601516001600160a01b031661010002610100600160a81b0319921515929092166001600160a81b03199096169590951717909355338352600790915290208451859083908110610bfd57610bfd611b7d565b6020908102919091018101518254600181018455600093845282842001558782526005905260408120600301805491610c3583611bac565b91905055508080610c4590611b93565b915050610af7565b505050505050565b610c6033838361110d565b5050565b33600090815260076020908152604091829020805483518184028101840190945280845260609392830182828015610cbb57602002820191906000526020600020905b815481526020019060010190808311610ca7575b5050505050905090565b6001600160a01b038516331480610ce15750610ce18533610314565b610cfd5760405162461bcd60e51b815260040161049990611b06565b61072585858585856111ed565b80546001019055565b8151835114610d345760405162461bcd60e51b815260040161049990611bc3565b6001600160a01b038416610d5a5760405162461bcd60e51b815260040161049990611c0b565b3360005b8451811015610e41576000858281518110610d7b57610d7b611b7d565b602002602001015190506000858381518110610d9957610d99611b7d565b602090810291909101810151600084815280835260408082206001600160a01b038e168352909352919091205490915081811015610de95760405162461bcd60e51b815260040161049990611c50565b6000838152602081815260408083206001600160a01b038e8116855292528083208585039055908b16825281208054849290610e26908490611c9a565b9250508190555050505080610e3a90611b93565b9050610d5e565b50846001600160a01b0316866001600160a01b0316826001600160a01b03167f4a39dc06d4c0dbc64b70af90fd698a233a518aa5d07e595d983b8c0526c8f7fb8787604051610e91929190611cad565b60405180910390a4610c4d818787878787611317565b6002610c608282611d26565b60006103e7831115610f075760405162461bcd60e51b815260206004820152601f60248201527f4576656e74204944206d757374206265206c657373207468616e2031303030006044820152606401610499565b620f423f821115610f695760405162461bcd60e51b815260206004820152602660248201527f5469636b6574206e756d626572206d757374206265206c657373207468616e2060448201526539393939393960d01b6064820152608401610499565b81610f7784620f4240611de6565b610f819190611c9a565b9392505050565b6001600160a01b038416610fe85760405162461bcd60e51b815260206004820152602160248201527f455243313135353a206d696e7420746f20746865207a65726f206164647265736044820152607360f81b6064820152608401610499565b81518351146110095760405162461bcd60e51b815260040161049990611bc3565b3360005b84518110156110a55783818151811061102857611028611b7d565b602002602001015160008087848151811061104557611045611b7d565b602002602001015181526020019081526020016000206000886001600160a01b03166001600160a01b03168152602001908152602001600020600082825461108d9190611c9a565b9091555081905061109d81611b93565b91505061100d565b50846001600160a01b031660006001600160a01b0316826001600160a01b03167f4a39dc06d4c0dbc64b70af90fd698a233a518aa5d07e595d983b8c0526c8f7fb87876040516110f6929190611cad565b60405180910390a461072581600087878787611317565b816001600160a01b0316836001600160a01b0316036111805760405162461bcd60e51b815260206004820152602960248201527f455243313135353a2073657474696e6720617070726f76616c20737461747573604482015268103337b91039b2b63360b91b6064820152608401610499565b6001600160a01b03838116600081815260016020908152604080832094871680845294825291829020805460ff191686151590811790915591519182527f17307eab39ab6107e8899845ad3d59bd9653f200f220920489ca2b5937696c31910160405180910390a3505050565b6001600160a01b0384166112135760405162461bcd60e51b815260040161049990611c0b565b33600061121f8561147b565b9050600061122c8561147b565b90506000868152602081815260408083206001600160a01b038c1684529091529020548581101561126f5760405162461bcd60e51b815260040161049990611c50565b6000878152602081815260408083206001600160a01b038d8116855292528083208985039055908a168252812080548892906112ac908490611c9a565b909155505060408051888152602081018890526001600160a01b03808b16928c821692918816917fc3d58168c5ae7397731d063d5bbf3d657854427343f4c083240f7aacaa2d0f62910160405180910390a461130c848a8a8a8a8a6114c6565b505050505050505050565b6001600160a01b0384163b15610c4d5760405163bc197c8160e01b81526001600160a01b0385169063bc197c819061135b9089908990889088908890600401611dfd565b6020604051808303816000875af1925050508015611396575060408051601f3d908101601f1916820190925261139391810190611e5b565b60015b611442576113a2611e78565b806308c379a0036113db57506113b6611e94565b806113c157506113dd565b8060405162461bcd60e51b81526004016104999190611659565b505b60405162461bcd60e51b815260206004820152603460248201527f455243313135353a207472616e7366657220746f206e6f6e2d455243313135356044820152732932b1b2b4bb32b91034b6b83632b6b2b73a32b960611b6064820152608401610499565b6001600160e01b0319811663bc197c8160e01b146114725760405162461bcd60e51b815260040161049990611f1e565b50505050505050565b604080516001808252818301909252606091600091906020808301908036833701905050905082816000815181106114b5576114b5611b7d565b602090810291909101015292915050565b6001600160a01b0384163b15610c4d5760405163f23a6e6160e01b81526001600160a01b0385169063f23a6e619061150a9089908990889088908890600401611f66565b6020604051808303816000875af1925050508015611545575060408051601f3d908101601f1916820190925261154291810190611e5b565b60015b611551576113a2611e78565b6001600160e01b0319811663f23a6e6160e01b146114725760405162461bcd60e51b815260040161049990611f1e565b80356001600160a01b038116811461159857600080fd5b919050565b600080604083850312156115b057600080fd5b6115b983611581565b946020939093013593505050565b6001600160e01b03198116811461091057600080fd5b6000602082840312156115ef57600080fd5b8135610f81816115c7565b60006020828403121561160c57600080fd5b5035919050565b6000815180845260005b818110156116395760208185018101518683018201520161161d565b506000602082860101526020601f19601f83011685010191505092915050565b602081526000610f816020830184611613565b634e487b7160e01b600052604160045260246000fd5b601f8201601f1916810167ffffffffffffffff811182821017156116a8576116a861166c565b6040525050565b600067ffffffffffffffff8211156116c9576116c961166c565b5060051b60200190565b600082601f8301126116e457600080fd5b813560206116f1826116af565b6040516116fe8282611682565b83815260059390931b850182019282810191508684111561171e57600080fd5b8286015b848110156117395780358352918301918301611722565b509695505050505050565b600067ffffffffffffffff83111561175e5761175e61166c565b604051611775601f8501601f191660200182611682565b80915083815284848401111561178a57600080fd5b83836020830137600060208583010152509392505050565b600082601f8301126117b357600080fd5b610f8183833560208501611744565b600080600080600060a086880312156117da57600080fd5b6117e386611581565b94506117f160208701611581565b9350604086013567ffffffffffffffff8082111561180e57600080fd5b61181a89838a016116d3565b9450606088013591508082111561183057600080fd5b61183c89838a016116d3565b9350608088013591508082111561185257600080fd5b5061185f888289016117a2565b9150509295509295909350565b6000806040838503121561187f57600080fd5b823567ffffffffffffffff8082111561189757600080fd5b818501915085601f8301126118ab57600080fd5b813560206118b8826116af565b6040516118c58282611682565b83815260059390931b85018201928281019150898411156118e557600080fd5b948201945b8386101561190a576118fb86611581565b825294820194908201906118ea565b9650508601359250508082111561192057600080fd5b5061192d858286016116d3565b9150509250929050565b600081518084526020808501945080840160005b838110156119675781518752958201959082019060010161194b565b509495945050505050565b602081526000610f816020830184611937565b6000806040838503121561199857600080fd5b50508035926020909101359150565b6000602082840312156119b957600080fd5b813567ffffffffffffffff8111156119d057600080fd5b8201601f810184136119e157600080fd5b6119f084823560208401611744565b949350505050565b60008060408385031215611a0b57600080fd5b611a1483611581565b915060208301358015158114611a2957600080fd5b809150509250929050565b60008060408385031215611a4757600080fd5b611a5083611581565b9150611a5e60208401611581565b90509250929050565b600080600080600060a08688031215611a7f57600080fd5b611a8886611581565b9450611a9660208701611581565b93506040860135925060608601359150608086013567ffffffffffffffff811115611ac057600080fd5b61185f888289016117a2565b600181811c90821680611ae057607f821691505b602082108103611b0057634e487b7160e01b600052602260045260246000fd5b50919050565b6020808252602e908201527f455243313135353a2063616c6c6572206973206e6f7420746f6b656e206f776e60408201526d195c881bdc88185c1c1c9bdd995960921b606082015260800190565b634e487b7160e01b600052601160045260246000fd5b818103818111156104c5576104c5611b54565b634e487b7160e01b600052603260045260246000fd5b600060018201611ba557611ba5611b54565b5060010190565b600081611bbb57611bbb611b54565b506000190190565b60208082526028908201527f455243313135353a2069647320616e6420616d6f756e7473206c656e677468206040820152670dad2e6dac2e8c6d60c31b606082015260800190565b60208082526025908201527f455243313135353a207472616e7366657220746f20746865207a65726f206164604082015264647265737360d81b606082015260800190565b6020808252602a908201527f455243313135353a20696e73756666696369656e742062616c616e636520666f60408201526939103a3930b739b332b960b11b606082015260800190565b808201808211156104c5576104c5611b54565b604081526000611cc06040830185611937565b8281036020840152611cd28185611937565b95945050505050565b601f821115611d2157600081815260208120601f850160051c81016020861015611d025750805b601f850160051c820191505b81811015610c4d57828155600101611d0e565b505050565b815167ffffffffffffffff811115611d4057611d4061166c565b611d5481611d4e8454611acc565b84611cdb565b602080601f831160018114611d895760008415611d715750858301515b600019600386901b1c1916600185901b178555610c4d565b600085815260208120601f198616915b82811015611db857888601518255948401946001909101908401611d99565b5085821015611dd65787850151600019600388901b60f8161c191681555b5050505050600190811b01905550565b80820281158282048414176104c5576104c5611b54565b6001600160a01b0386811682528516602082015260a060408201819052600090611e2990830186611937565b8281036060840152611e3b8186611937565b90508281036080840152611e4f8185611613565b98975050505050505050565b600060208284031215611e6d57600080fd5b8151610f81816115c7565b600060033d1115611e915760046000803e5060005160e01c5b90565b600060443d1015611ea25790565b6040516003193d81016004833e81513d67ffffffffffffffff8160248401118184111715611ed257505050505090565b8285019150815181811115611eea5750505050505090565b843d8701016020828501011115611f045750505050505090565b611f1360208286010187611682565b509095945050505050565b60208082526028908201527f455243313135353a204552433131353552656365697665722072656a656374656040820152676420746f6b656e7360c01b606082015260800190565b6001600160a01b03868116825285166020820152604081018490526060810183905260a060808201819052600090611fa090830184611613565b97965050505050505056fea2646970667358221220d7a232b4ffe6572fd36892932c5bce3ac29b32ed1a1388a62054a346b8bec42564736f6c6343000811003367733a2f2f6e667469636b65742d66303335362e61707073706f742e636f6d2f6d657461646174612f7b69647d2e6a736f6e",
  "linkReferences": {},
  "deployedLinkReferences": {}
}