{
	"data": {
		"bytecode": {
			"linkReferences": {},
			"object": "608060405260006003556103e767ffffffffffffffff8111156200002857620000276200019d565b5b604051908082528060200260200182016040528015620000575781602001602082028036833780820191505090505b50600490805190602001906200006f9291906200012c565b506103e767ffffffffffffffff8111156200008f576200008e6200019d565b5b604051908082528060200260200182016040528015620000be5781602001602082028036833780820191505090505b5060059080519060200190620000d69291906200012c565b50348015620000e457600080fd5b50604051806080016040528060568152602001620034506056913962000110816200011760201b60201c565b50620004fe565b806002908162000128919062000417565b5050565b8280548282559060005260206000209081019282156200016b579160200282015b828111156200016a5782518255916020019190600101906200014d565b5b5090506200017a91906200017e565b5090565b5b80821115620001995760008160009055506001016200017f565b5090565b7f4e487b7100000000000000000000000000000000000000000000000000000000600052604160045260246000fd5b600081519050919050565b7f4e487b7100000000000000000000000000000000000000000000000000000000600052602260045260246000fd5b600060028204905060018216806200021f57607f821691505b602082108103620002355762000234620001d7565b5b50919050565b60008190508160005260206000209050919050565b60006020601f8301049050919050565b600082821b905092915050565b6000600883026200029f7fffffffffffffffffffffffffffffffffffffffffffffffffffffffffffffffff8262000260565b620002ab868362000260565b95508019841693508086168417925050509392505050565b6000819050919050565b6000819050919050565b6000620002f8620002f2620002ec84620002c3565b620002cd565b620002c3565b9050919050565b6000819050919050565b6200031483620002d7565b6200032c6200032382620002ff565b8484546200026d565b825550505050565b600090565b6200034362000334565b6200035081848462000309565b505050565b5b8181101562000378576200036c60008262000339565b60018101905062000356565b5050565b601f821115620003c75762000391816200023b565b6200039c8462000250565b81016020851015620003ac578190505b620003c4620003bb8562000250565b83018262000355565b50505b505050565b600082821c905092915050565b6000620003ec60001984600802620003cc565b1980831691505092915050565b6000620004078383620003d9565b9150826002028217905092915050565b6200042282620001cc565b67ffffffffffffffff8111156200043e576200043d6200019d565b5b6200044a825462000206565b620004578282856200037c565b600060209050601f8311600181146200048f57600084156200047a578287015190505b620004868582620003f9565b865550620004f6565b601f1984166200049f866200023b565b60005b82811015620004c957848901518255600182019150602085019450602081019050620004a2565b86831015620004e95784890151620004e5601f891682620003d9565b8355505b6001600288020188555050505b505050505050565b612f42806200050e6000396000f3fe6080604052600436106100a65760003560e01c80634e1273f4116100645780634e1273f4146101d2578063790c01251461020f578063920a57dc1461024c578063a22cb46514610275578063e985e9c51461029e578063f242432a146102db576100a6565b8062fdd58e146100ab57806301ffc9a7146100e85780630e89341c14610125578063201d995a146101625780632eb2c2d61461017e578063478b9a1f146101a7575b600080fd5b3480156100b757600080fd5b506100d260048036038101906100cd9190611873565b610304565b6040516100df91906118c2565b60405180910390f35b3480156100f457600080fd5b5061010f600480360381019061010a9190611935565b6103cc565b60405161011c919061197d565b60405180910390f35b34801561013157600080fd5b5061014c60048036038101906101479190611998565b6104ae565b6040516101599190611a55565b60405180910390f35b61017c60048036038101906101779190611a77565b610542565b005b34801561018a57600080fd5b506101a560048036038101906101a09190611cb4565b610679565b005b3480156101b357600080fd5b506101bc61071a565b6040516101c991906118c2565b60405180910390f35b3480156101de57600080fd5b506101f960048036038101906101f49190611e46565b610724565b6040516102069190611f7c565b60405180910390f35b34801561021b57600080fd5b5061023660048036038101906102319190611a77565b61083d565b60405161024391906118c2565b60405180910390f35b34801561025857600080fd5b50610273600480360381019061026e919061203f565b61089a565b005b34801561028157600080fd5b5061029c600480360381019061029791906120b4565b6108a6565b005b3480156102aa57600080fd5b506102c560048036038101906102c091906120f4565b6108bc565b6040516102d2919061197d565b60405180910390f35b3480156102e757600080fd5b5061030260048036038101906102fd9190612134565b610950565b005b60008073ffffffffffffffffffffffffffffffffffffffff168373ffffffffffffffffffffffffffffffffffffffff1603610374576040517f08c379a000000000000000000000000000000000000000000000000000000000815260040161036b9061223d565b60405180910390fd5b60008083815260200190815260200160002060008473ffffffffffffffffffffffffffffffffffffffff1673ffffffffffffffffffffffffffffffffffffffff16815260200190815260200160002054905092915050565b60007fd9b67a26000000000000000000000000000000000000000000000000000000007bffffffffffffffffffffffffffffffffffffffffffffffffffffffff1916827bffffffffffffffffffffffffffffffffffffffffffffffffffffffff1916148061049757507f0e89341c000000000000000000000000000000000000000000000000000000007bffffffffffffffffffffffffffffffffffffffffffffffffffffffff1916827bffffffffffffffffffffffffffffffffffffffffffffffffffffffff1916145b806104a757506104a6826109f1565b5b9050919050565b6060600280546104bd9061228c565b80601f01602080910402602001604051908101604052809291908181526020018280546104e99061228c565b80156105365780601f1061050b57610100808354040283529160200191610536565b820191906000526020600020905b81548152906001019060200180831161051957829003601f168201915b50505050509050919050565b8060058381548110610557576105566122bd565b5b906000526020600020015461056c919061231b565b34146105ad576040517f08c379a00000000000000000000000000000000000000000000000000000000081526004016105a4906123a9565b60405180910390fd5b80600483815481106105c2576105c16122bd565b5b9060005260206000200154101561060e576040517f08c379a000000000000000000000000000000000000000000000000000000000815260040161060590612415565b60405180910390fd5b61062933838360405180602001604052806000815250610a5b565b806004838154811061063e5761063d6122bd565b5b90600052602060002001546106539190612435565b60048381548110610667576106666122bd565b5b90600052602060002001819055505050565b610681610c0b565b73ffffffffffffffffffffffffffffffffffffffff168573ffffffffffffffffffffffffffffffffffffffff1614806106c757506106c6856106c1610c0b565b6108bc565b5b610706576040517f08c379a00000000000000000000000000000000000000000000000000000000081526004016106fd906124db565b60405180910390fd5b6107138585858585610c13565b5050505050565b6000600354905090565b6060815183511461076a576040517f08c379a00000000000000000000000000000000000000000000000000000000081526004016107619061256d565b60405180910390fd5b6000835167ffffffffffffffff81111561078757610786611abc565b5b6040519080825280602002602001820160405280156107b55781602001602082028036833780820191505090505b50905060005b8451811015610832576108028582815181106107da576107d96122bd565b5b60200260200101518583815181106107f5576107f46122bd565b5b6020026020010151610304565b828281518110610815576108146122bd565b5b6020026020010181815250508061082b9061258d565b90506107bb565b508091505092915050565b600080610848610f34565b9050836004828154811061085f5761085e6122bd565b5b90600052602060002001819055508260058281548110610882576108816122bd565b5b90600052602060002001819055508091505092915050565b6108a381610f56565b50565b6108b86108b1610c0b565b8383610f69565b5050565b6000600160008473ffffffffffffffffffffffffffffffffffffffff1673ffffffffffffffffffffffffffffffffffffffff16815260200190815260200160002060008373ffffffffffffffffffffffffffffffffffffffff1673ffffffffffffffffffffffffffffffffffffffff16815260200190815260200160002060009054906101000a900460ff16905092915050565b610958610c0b565b73ffffffffffffffffffffffffffffffffffffffff168573ffffffffffffffffffffffffffffffffffffffff16148061099e575061099d85610998610c0b565b6108bc565b5b6109dd576040517f08c379a00000000000000000000000000000000000000000000000000000000081526004016109d4906124db565b60405180910390fd5b6109ea85858585856110d5565b5050505050565b60007f01ffc9a7000000000000000000000000000000000000000000000000000000007bffffffffffffffffffffffffffffffffffffffffffffffffffffffff1916827bffffffffffffffffffffffffffffffffffffffffffffffffffffffff1916149050919050565b600073ffffffffffffffffffffffffffffffffffffffff168473ffffffffffffffffffffffffffffffffffffffff1603610aca576040517f08c379a0000000000000000000000000000000000000000000000000000000008152600401610ac190612647565b60405180910390fd5b6000610ad4610c0b565b90506000610ae185611370565b90506000610aee85611370565b9050610aff836000898585896113ea565b8460008088815260200190815260200160002060008973ffffffffffffffffffffffffffffffffffffffff1673ffffffffffffffffffffffffffffffffffffffff1681526020019081526020016000206000828254610b5e9190612667565b925050819055508673ffffffffffffffffffffffffffffffffffffffff16600073ffffffffffffffffffffffffffffffffffffffff168473ffffffffffffffffffffffffffffffffffffffff167fc3d58168c5ae7397731d063d5bbf3d657854427343f4c083240f7aacaa2d0f628989604051610bdc92919061269b565b60405180910390a4610bf3836000898585896113f2565b610c02836000898989896113fa565b50505050505050565b600033905090565b8151835114610c57576040517f08c379a0000000000000000000000000000000000000000000000000000000008152600401610c4e90612736565b60405180910390fd5b600073ffffffffffffffffffffffffffffffffffffffff168473ffffffffffffffffffffffffffffffffffffffff1603610cc6576040517f08c379a0000000000000000000000000000000000000000000000000000000008152600401610cbd906127c8565b60405180910390fd5b6000610cd0610c0b565b9050610ce08187878787876113ea565b60005b8451811015610e91576000858281518110610d0157610d006122bd565b5b602002602001015190506000858381518110610d2057610d1f6122bd565b5b60200260200101519050600080600084815260200190815260200160002060008b73ffffffffffffffffffffffffffffffffffffffff1673ffffffffffffffffffffffffffffffffffffffff16815260200190815260200160002054905081811015610dc1576040517f08c379a0000000000000000000000000000000000000000000000000000000008152600401610db89061285a565b60405180910390fd5b81810360008085815260200190815260200160002060008c73ffffffffffffffffffffffffffffffffffffffff1673ffffffffffffffffffffffffffffffffffffffff168152602001908152602001600020819055508160008085815260200190815260200160002060008b73ffffffffffffffffffffffffffffffffffffffff1673ffffffffffffffffffffffffffffffffffffffff1681526020019081526020016000206000828254610e769190612667565b9250508190555050505080610e8a9061258d565b9050610ce3565b508473ffffffffffffffffffffffffffffffffffffffff168673ffffffffffffffffffffffffffffffffffffffff168273ffffffffffffffffffffffffffffffffffffffff167f4a39dc06d4c0dbc64b70af90fd698a233a518aa5d07e595d983b8c0526c8f7fb8787604051610f0892919061287a565b60405180910390a4610f1e8187878787876113f2565b610f2c8187878787876115d1565b505050505050565b6000806001600354610f469190612667565b9050806003819055508091505090565b8060029081610f659190612a5d565b5050565b8173ffffffffffffffffffffffffffffffffffffffff168373ffffffffffffffffffffffffffffffffffffffff1603610fd7576040517f08c379a0000000000000000000000000000000000000000000000000000000008152600401610fce90612ba1565b60405180910390fd5b80600160008573ffffffffffffffffffffffffffffffffffffffff1673ffffffffffffffffffffffffffffffffffffffff16815260200190815260200160002060008473ffffffffffffffffffffffffffffffffffffffff1673ffffffffffffffffffffffffffffffffffffffff16815260200190815260200160002060006101000a81548160ff0219169083151502179055508173ffffffffffffffffffffffffffffffffffffffff168373ffffffffffffffffffffffffffffffffffffffff167f17307eab39ab6107e8899845ad3d59bd9653f200f220920489ca2b5937696c31836040516110c8919061197d565b60405180910390a3505050565b600073ffffffffffffffffffffffffffffffffffffffff168473ffffffffffffffffffffffffffffffffffffffff1603611144576040517f08c379a000000000000000000000000000000000000000000000000000000000815260040161113b906127c8565b60405180910390fd5b600061114e610c0b565b9050600061115b85611370565b9050600061116885611370565b90506111788389898585896113ea565b600080600088815260200190815260200160002060008a73ffffffffffffffffffffffffffffffffffffffff1673ffffffffffffffffffffffffffffffffffffffff1681526020019081526020016000205490508581101561120f576040517f08c379a00000000000000000000000000000000000000000000000000000000081526004016112069061285a565b60405180910390fd5b85810360008089815260200190815260200160002060008b73ffffffffffffffffffffffffffffffffffffffff1673ffffffffffffffffffffffffffffffffffffffff168152602001908152602001600020819055508560008089815260200190815260200160002060008a73ffffffffffffffffffffffffffffffffffffffff1673ffffffffffffffffffffffffffffffffffffffff16815260200190815260200160002060008282546112c49190612667565b925050819055508773ffffffffffffffffffffffffffffffffffffffff168973ffffffffffffffffffffffffffffffffffffffff168573ffffffffffffffffffffffffffffffffffffffff167fc3d58168c5ae7397731d063d5bbf3d657854427343f4c083240f7aacaa2d0f628a8a60405161134192919061269b565b60405180910390a4611357848a8a86868a6113f2565b611365848a8a8a8a8a6113fa565b505050505050505050565b60606000600167ffffffffffffffff81111561138f5761138e611abc565b5b6040519080825280602002602001820160405280156113bd5781602001602082028036833780820191505090505b50905082816000815181106113d5576113d46122bd565b5b60200260200101818152505080915050919050565b505050505050565b505050505050565b6114198473ffffffffffffffffffffffffffffffffffffffff166117a8565b156115c9578373ffffffffffffffffffffffffffffffffffffffff1663f23a6e6187878686866040518663ffffffff1660e01b815260040161145f959493929190612c25565b6020604051808303816000875af192505050801561149b57506040513d601f19601f820116820180604052508101906114989190612c94565b60015b611540576114a7612cce565b806308c379a00361150357506114bb612cf0565b806114c65750611505565b806040517f08c379a00000000000000000000000000000000000000000000000000000000081526004016114fa9190611a55565b60405180910390fd5b505b6040517f08c379a000000000000000000000000000000000000000000000000000000000815260040161153790612df2565b60405180910390fd5b63f23a6e6160e01b7bffffffffffffffffffffffffffffffffffffffffffffffffffffffff1916817bffffffffffffffffffffffffffffffffffffffffffffffffffffffff1916146115c7576040517f08c379a00000000000000000000000000000000000000000000000000000000081526004016115be90612e84565b60405180910390fd5b505b505050505050565b6115f08473ffffffffffffffffffffffffffffffffffffffff166117a8565b156117a0578373ffffffffffffffffffffffffffffffffffffffff1663bc197c8187878686866040518663ffffffff1660e01b8152600401611636959493929190612ea4565b6020604051808303816000875af192505050801561167257506040513d601f19601f8201168201806040525081019061166f9190612c94565b60015b6117175761167e612cce565b806308c379a0036116da5750611692612cf0565b8061169d57506116dc565b806040517f08c379a00000000000000000000000000000000000000000000000000000000081526004016116d19190611a55565b60405180910390fd5b505b6040517f08c379a000000000000000000000000000000000000000000000000000000000815260040161170e90612df2565b60405180910390fd5b63bc197c8160e01b7bffffffffffffffffffffffffffffffffffffffffffffffffffffffff1916817bffffffffffffffffffffffffffffffffffffffffffffffffffffffff19161461179e576040517f08c379a000000000000000000000000000000000000000000000000000000000815260040161179590612e84565b60405180910390fd5b505b505050505050565b6000808273ffffffffffffffffffffffffffffffffffffffff163b119050919050565b6000604051905090565b600080fd5b600080fd5b600073ffffffffffffffffffffffffffffffffffffffff82169050919050565b600061180a826117df565b9050919050565b61181a816117ff565b811461182557600080fd5b50565b60008135905061183781611811565b92915050565b6000819050919050565b6118508161183d565b811461185b57600080fd5b50565b60008135905061186d81611847565b92915050565b6000806040838503121561188a576118896117d5565b5b600061189885828601611828565b92505060206118a98582860161185e565b9150509250929050565b6118bc8161183d565b82525050565b60006020820190506118d760008301846118b3565b92915050565b60007fffffffff0000000000000000000000000000000000000000000000000000000082169050919050565b611912816118dd565b811461191d57600080fd5b50565b60008135905061192f81611909565b92915050565b60006020828403121561194b5761194a6117d5565b5b600061195984828501611920565b91505092915050565b60008115159050919050565b61197781611962565b82525050565b6000602082019050611992600083018461196e565b92915050565b6000602082840312156119ae576119ad6117d5565b5b60006119bc8482850161185e565b91505092915050565b600081519050919050565b600082825260208201905092915050565b60005b838110156119ff5780820151818401526020810190506119e4565b60008484015250505050565b6000601f19601f8301169050919050565b6000611a27826119c5565b611a3181856119d0565b9350611a418185602086016119e1565b611a4a81611a0b565b840191505092915050565b60006020820190508181036000830152611a6f8184611a1c565b905092915050565b60008060408385031215611a8e57611a8d6117d5565b5b6000611a9c8582860161185e565b9250506020611aad8582860161185e565b9150509250929050565b600080fd5b7f4e487b7100000000000000000000000000000000000000000000000000000000600052604160045260246000fd5b611af482611a0b565b810181811067ffffffffffffffff82111715611b1357611b12611abc565b5b80604052505050565b6000611b266117cb565b9050611b328282611aeb565b919050565b600067ffffffffffffffff821115611b5257611b51611abc565b5b602082029050602081019050919050565b600080fd5b6000611b7b611b7684611b37565b611b1c565b90508083825260208201905060208402830185811115611b9e57611b9d611b63565b5b835b81811015611bc75780611bb3888261185e565b845260208401935050602081019050611ba0565b5050509392505050565b600082601f830112611be657611be5611ab7565b5b8135611bf6848260208601611b68565b91505092915050565b600080fd5b600067ffffffffffffffff821115611c1f57611c1e611abc565b5b611c2882611a0b565b9050602081019050919050565b82818337600083830152505050565b6000611c57611c5284611c04565b611b1c565b905082815260208101848484011115611c7357611c72611bff565b5b611c7e848285611c35565b509392505050565b600082601f830112611c9b57611c9a611ab7565b5b8135611cab848260208601611c44565b91505092915050565b600080600080600060a08688031215611cd057611ccf6117d5565b5b6000611cde88828901611828565b9550506020611cef88828901611828565b945050604086013567ffffffffffffffff811115611d1057611d0f6117da565b5b611d1c88828901611bd1565b935050606086013567ffffffffffffffff811115611d3d57611d3c6117da565b5b611d4988828901611bd1565b925050608086013567ffffffffffffffff811115611d6a57611d696117da565b5b611d7688828901611c86565b9150509295509295909350565b600067ffffffffffffffff821115611d9e57611d9d611abc565b5b602082029050602081019050919050565b6000611dc2611dbd84611d83565b611b1c565b90508083825260208201905060208402830185811115611de557611de4611b63565b5b835b81811015611e0e5780611dfa8882611828565b845260208401935050602081019050611de7565b5050509392505050565b600082601f830112611e2d57611e2c611ab7565b5b8135611e3d848260208601611daf565b91505092915050565b60008060408385031215611e5d57611e5c6117d5565b5b600083013567ffffffffffffffff811115611e7b57611e7a6117da565b5b611e8785828601611e18565b925050602083013567ffffffffffffffff811115611ea857611ea76117da565b5b611eb485828601611bd1565b9150509250929050565b600081519050919050565b600082825260208201905092915050565b6000819050602082019050919050565b611ef38161183d565b82525050565b6000611f058383611eea565b60208301905092915050565b6000602082019050919050565b6000611f2982611ebe565b611f338185611ec9565b9350611f3e83611eda565b8060005b83811015611f6f578151611f568882611ef9565b9750611f6183611f11565b925050600181019050611f42565b5085935050505092915050565b60006020820190508181036000830152611f968184611f1e565b905092915050565b600067ffffffffffffffff821115611fb957611fb8611abc565b5b611fc282611a0b565b9050602081019050919050565b6000611fe2611fdd84611f9e565b611b1c565b905082815260208101848484011115611ffe57611ffd611bff565b5b612009848285611c35565b509392505050565b600082601f83011261202657612025611ab7565b5b8135612036848260208601611fcf565b91505092915050565b600060208284031215612055576120546117d5565b5b600082013567ffffffffffffffff811115612073576120726117da565b5b61207f84828501612011565b91505092915050565b61209181611962565b811461209c57600080fd5b50565b6000813590506120ae81612088565b92915050565b600080604083850312156120cb576120ca6117d5565b5b60006120d985828601611828565b92505060206120ea8582860161209f565b9150509250929050565b6000806040838503121561210b5761210a6117d5565b5b600061211985828601611828565b925050602061212a85828601611828565b9150509250929050565b600080600080600060a086880312156121505761214f6117d5565b5b600061215e88828901611828565b955050602061216f88828901611828565b94505060406121808882890161185e565b93505060606121918882890161185e565b925050608086013567ffffffffffffffff8111156121b2576121b16117da565b5b6121be88828901611c86565b9150509295509295909350565b7f455243313135353a2061646472657373207a65726f206973206e6f742061207660008201527f616c6964206f776e657200000000000000000000000000000000000000000000602082015250565b6000612227602a836119d0565b9150612232826121cb565b604082019050919050565b600060208201905081810360008301526122568161221a565b9050919050565b7f4e487b7100000000000000000000000000000000000000000000000000000000600052602260045260246000fd5b600060028204905060018216806122a457607f821691505b6020821081036122b7576122b661225d565b5b50919050565b7f4e487b7100000000000000000000000000000000000000000000000000000000600052603260045260246000fd5b7f4e487b7100000000000000000000000000000000000000000000000000000000600052601160045260246000fd5b60006123268261183d565b91506123318361183d565b925082820261233f8161183d565b91508282048414831517612356576123556122ec565b5b5092915050565b7f496e636f727265637420416d6f756e74206f6620455448000000000000000000600082015250565b60006123936017836119d0565b915061239e8261235d565b602082019050919050565b600060208201905081810360008301526123c281612386565b9050919050565b7f496e73756666696369656e74207469636b6574732072656d61696e696e670000600082015250565b60006123ff601e836119d0565b915061240a826123c9565b602082019050919050565b6000602082019050818103600083015261242e816123f2565b9050919050565b60006124408261183d565b915061244b8361183d565b9250828203905081811115612463576124626122ec565b5b92915050565b7f455243313135353a2063616c6c6572206973206e6f7420746f6b656e206f776e60008201527f6572206f7220617070726f766564000000000000000000000000000000000000602082015250565b60006124c5602e836119d0565b91506124d082612469565b604082019050919050565b600060208201905081810360008301526124f4816124b8565b9050919050565b7f455243313135353a206163636f756e747320616e6420696473206c656e67746860008201527f206d69736d617463680000000000000000000000000000000000000000000000602082015250565b60006125576029836119d0565b9150612562826124fb565b604082019050919050565b600060208201905081810360008301526125868161254a565b9050919050565b60006125988261183d565b91507fffffffffffffffffffffffffffffffffffffffffffffffffffffffffffffffff82036125ca576125c96122ec565b5b600182019050919050565b7f455243313135353a206d696e7420746f20746865207a65726f2061646472657360008201527f7300000000000000000000000000000000000000000000000000000000000000602082015250565b60006126316021836119d0565b915061263c826125d5565b604082019050919050565b6000602082019050818103600083015261266081612624565b9050919050565b60006126728261183d565b915061267d8361183d565b9250828201905080821115612695576126946122ec565b5b92915050565b60006040820190506126b060008301856118b3565b6126bd60208301846118b3565b9392505050565b7f455243313135353a2069647320616e6420616d6f756e7473206c656e6774682060008201527f6d69736d61746368000000000000000000000000000000000000000000000000602082015250565b60006127206028836119d0565b915061272b826126c4565b604082019050919050565b6000602082019050818103600083015261274f81612713565b9050919050565b7f455243313135353a207472616e7366657220746f20746865207a65726f20616460008201527f6472657373000000000000000000000000000000000000000000000000000000602082015250565b60006127b26025836119d0565b91506127bd82612756565b604082019050919050565b600060208201905081810360008301526127e1816127a5565b9050919050565b7f455243313135353a20696e73756666696369656e742062616c616e636520666f60008201527f72207472616e7366657200000000000000000000000000000000000000000000602082015250565b6000612844602a836119d0565b915061284f826127e8565b604082019050919050565b6000602082019050818103600083015261287381612837565b9050919050565b600060408201905081810360008301526128948185611f1e565b905081810360208301526128a88184611f1e565b90509392505050565b60008190508160005260206000209050919050565b60006020601f8301049050919050565b600082821b905092915050565b6000600883026129137fffffffffffffffffffffffffffffffffffffffffffffffffffffffffffffffff826128d6565b61291d86836128d6565b95508019841693508086168417925050509392505050565b6000819050919050565b600061295a6129556129508461183d565b612935565b61183d565b9050919050565b6000819050919050565b6129748361293f565b61298861298082612961565b8484546128e3565b825550505050565b600090565b61299d612990565b6129a881848461296b565b505050565b5b818110156129cc576129c1600082612995565b6001810190506129ae565b5050565b601f821115612a11576129e2816128b1565b6129eb846128c6565b810160208510156129fa578190505b612a0e612a06856128c6565b8301826129ad565b50505b505050565b600082821c905092915050565b6000612a3460001984600802612a16565b1980831691505092915050565b6000612a4d8383612a23565b9150826002028217905092915050565b612a66826119c5565b67ffffffffffffffff811115612a7f57612a7e611abc565b5b612a89825461228c565b612a948282856129d0565b600060209050601f831160018114612ac75760008415612ab5578287015190505b612abf8582612a41565b865550612b27565b601f198416612ad5866128b1565b60005b82811015612afd57848901518255600182019150602085019450602081019050612ad8565b86831015612b1a5784890151612b16601f891682612a23565b8355505b6001600288020188555050505b505050505050565b7f455243313135353a2073657474696e6720617070726f76616c2073746174757360008201527f20666f722073656c660000000000000000000000000000000000000000000000602082015250565b6000612b8b6029836119d0565b9150612b9682612b2f565b604082019050919050565b60006020820190508181036000830152612bba81612b7e565b9050919050565b612bca816117ff565b82525050565b600081519050919050565b600082825260208201905092915050565b6000612bf782612bd0565b612c018185612bdb565b9350612c118185602086016119e1565b612c1a81611a0b565b840191505092915050565b600060a082019050612c3a6000830188612bc1565b612c476020830187612bc1565b612c5460408301866118b3565b612c6160608301856118b3565b8181036080830152612c738184612bec565b90509695505050505050565b600081519050612c8e81611909565b92915050565b600060208284031215612caa57612ca96117d5565b5b6000612cb884828501612c7f565b91505092915050565b60008160e01c9050919050565b600060033d1115612ced5760046000803e612cea600051612cc1565b90505b90565b600060443d10612d7d57612d026117cb565b60043d036004823e80513d602482011167ffffffffffffffff82111715612d2a575050612d7d565b808201805167ffffffffffffffff811115612d485750505050612d7d565b80602083010160043d038501811115612d65575050505050612d7d565b612d7482602001850186611aeb565b82955050505050505b90565b7f455243313135353a207472616e7366657220746f206e6f6e2d4552433131353560008201527f526563656976657220696d706c656d656e746572000000000000000000000000602082015250565b6000612ddc6034836119d0565b9150612de782612d80565b604082019050919050565b60006020820190508181036000830152612e0b81612dcf565b9050919050565b7f455243313135353a204552433131353552656365697665722072656a6563746560008201527f6420746f6b656e73000000000000000000000000000000000000000000000000602082015250565b6000612e6e6028836119d0565b9150612e7982612e12565b604082019050919050565b60006020820190508181036000830152612e9d81612e61565b9050919050565b600060a082019050612eb96000830188612bc1565b612ec66020830187612bc1565b8181036040830152612ed88186611f1e565b90508181036060830152612eec8185611f1e565b90508181036080830152612f008184612bec565b9050969550505050505056fea2646970667358221220ef3a2b4c6791f6943a244929e8c6243ef9be8326a1e6adbd77819f3dfec4115b64736f6c6343000811003368747470733a2f2f697066732e696f2f697066732f516d5a48455254594c5342334561547a6d77434d58596b64534e7677665a6d365a4c63746f50374a727344486d613f66696c656e616d653d7b69647d2e6a736f6e",
			"opcodes": "PUSH1 0x80 PUSH1 0x40 MSTORE PUSH1 0x0 PUSH1 0x3 SSTORE PUSH2 0x3E7 PUSH8 0xFFFFFFFFFFFFFFFF DUP2 GT ISZERO PUSH3 0x28 JUMPI PUSH3 0x27 PUSH3 0x19D JUMP JUMPDEST JUMPDEST PUSH1 0x40 MLOAD SWAP1 DUP1 DUP3 MSTORE DUP1 PUSH1 0x20 MUL PUSH1 0x20 ADD DUP3 ADD PUSH1 0x40 MSTORE DUP1 ISZERO PUSH3 0x57 JUMPI DUP2 PUSH1 0x20 ADD PUSH1 0x20 DUP3 MUL DUP1 CALLDATASIZE DUP4 CALLDATACOPY DUP1 DUP3 ADD SWAP2 POP POP SWAP1 POP JUMPDEST POP PUSH1 0x4 SWAP1 DUP1 MLOAD SWAP1 PUSH1 0x20 ADD SWAP1 PUSH3 0x6F SWAP3 SWAP2 SWAP1 PUSH3 0x12C JUMP JUMPDEST POP PUSH2 0x3E7 PUSH8 0xFFFFFFFFFFFFFFFF DUP2 GT ISZERO PUSH3 0x8F JUMPI PUSH3 0x8E PUSH3 0x19D JUMP JUMPDEST JUMPDEST PUSH1 0x40 MLOAD SWAP1 DUP1 DUP3 MSTORE DUP1 PUSH1 0x20 MUL PUSH1 0x20 ADD DUP3 ADD PUSH1 0x40 MSTORE DUP1 ISZERO PUSH3 0xBE JUMPI DUP2 PUSH1 0x20 ADD PUSH1 0x20 DUP3 MUL DUP1 CALLDATASIZE DUP4 CALLDATACOPY DUP1 DUP3 ADD SWAP2 POP POP SWAP1 POP JUMPDEST POP PUSH1 0x5 SWAP1 DUP1 MLOAD SWAP1 PUSH1 0x20 ADD SWAP1 PUSH3 0xD6 SWAP3 SWAP2 SWAP1 PUSH3 0x12C JUMP JUMPDEST POP CALLVALUE DUP1 ISZERO PUSH3 0xE4 JUMPI PUSH1 0x0 DUP1 REVERT JUMPDEST POP PUSH1 0x40 MLOAD DUP1 PUSH1 0x80 ADD PUSH1 0x40 MSTORE DUP1 PUSH1 0x56 DUP2 MSTORE PUSH1 0x20 ADD PUSH3 0x3450 PUSH1 0x56 SWAP2 CODECOPY PUSH3 0x110 DUP2 PUSH3 0x117 PUSH1 0x20 SHL PUSH1 0x20 SHR JUMP JUMPDEST POP PUSH3 0x4FE JUMP JUMPDEST DUP1 PUSH1 0x2 SWAP1 DUP2 PUSH3 0x128 SWAP2 SWAP1 PUSH3 0x417 JUMP JUMPDEST POP POP JUMP JUMPDEST DUP3 DUP1 SLOAD DUP3 DUP3 SSTORE SWAP1 PUSH1 0x0 MSTORE PUSH1 0x20 PUSH1 0x0 KECCAK256 SWAP1 DUP2 ADD SWAP3 DUP3 ISZERO PUSH3 0x16B JUMPI SWAP2 PUSH1 0x20 MUL DUP3 ADD JUMPDEST DUP3 DUP2 GT ISZERO PUSH3 0x16A JUMPI DUP3 MLOAD DUP3 SSTORE SWAP2 PUSH1 0x20 ADD SWAP2 SWAP1 PUSH1 0x1 ADD SWAP1 PUSH3 0x14D JUMP JUMPDEST JUMPDEST POP SWAP1 POP PUSH3 0x17A SWAP2 SWAP1 PUSH3 0x17E JUMP JUMPDEST POP SWAP1 JUMP JUMPDEST JUMPDEST DUP1 DUP3 GT ISZERO PUSH3 0x199 JUMPI PUSH1 0x0 DUP2 PUSH1 0x0 SWAP1 SSTORE POP PUSH1 0x1 ADD PUSH3 0x17F JUMP JUMPDEST POP SWAP1 JUMP JUMPDEST PUSH32 0x4E487B7100000000000000000000000000000000000000000000000000000000 PUSH1 0x0 MSTORE PUSH1 0x41 PUSH1 0x4 MSTORE PUSH1 0x24 PUSH1 0x0 REVERT JUMPDEST PUSH1 0x0 DUP2 MLOAD SWAP1 POP SWAP2 SWAP1 POP JUMP JUMPDEST PUSH32 0x4E487B7100000000000000000000000000000000000000000000000000000000 PUSH1 0x0 MSTORE PUSH1 0x22 PUSH1 0x4 MSTORE PUSH1 0x24 PUSH1 0x0 REVERT JUMPDEST PUSH1 0x0 PUSH1 0x2 DUP3 DIV SWAP1 POP PUSH1 0x1 DUP3 AND DUP1 PUSH3 0x21F JUMPI PUSH1 0x7F DUP3 AND SWAP2 POP JUMPDEST PUSH1 0x20 DUP3 LT DUP2 SUB PUSH3 0x235 JUMPI PUSH3 0x234 PUSH3 0x1D7 JUMP JUMPDEST JUMPDEST POP SWAP2 SWAP1 POP JUMP JUMPDEST PUSH1 0x0 DUP2 SWAP1 POP DUP2 PUSH1 0x0 MSTORE PUSH1 0x20 PUSH1 0x0 KECCAK256 SWAP1 POP SWAP2 SWAP1 POP JUMP JUMPDEST PUSH1 0x0 PUSH1 0x20 PUSH1 0x1F DUP4 ADD DIV SWAP1 POP SWAP2 SWAP1 POP JUMP JUMPDEST PUSH1 0x0 DUP3 DUP3 SHL SWAP1 POP SWAP3 SWAP2 POP POP JUMP JUMPDEST PUSH1 0x0 PUSH1 0x8 DUP4 MUL PUSH3 0x29F PUSH32 0xFFFFFFFFFFFFFFFFFFFFFFFFFFFFFFFFFFFFFFFFFFFFFFFFFFFFFFFFFFFFFFFF DUP3 PUSH3 0x260 JUMP JUMPDEST PUSH3 0x2AB DUP7 DUP4 PUSH3 0x260 JUMP JUMPDEST SWAP6 POP DUP1 NOT DUP5 AND SWAP4 POP DUP1 DUP7 AND DUP5 OR SWAP3 POP POP POP SWAP4 SWAP3 POP POP POP JUMP JUMPDEST PUSH1 0x0 DUP2 SWAP1 POP SWAP2 SWAP1 POP JUMP JUMPDEST PUSH1 0x0 DUP2 SWAP1 POP SWAP2 SWAP1 POP JUMP JUMPDEST PUSH1 0x0 PUSH3 0x2F8 PUSH3 0x2F2 PUSH3 0x2EC DUP5 PUSH3 0x2C3 JUMP JUMPDEST PUSH3 0x2CD JUMP JUMPDEST PUSH3 0x2C3 JUMP JUMPDEST SWAP1 POP SWAP2 SWAP1 POP JUMP JUMPDEST PUSH1 0x0 DUP2 SWAP1 POP SWAP2 SWAP1 POP JUMP JUMPDEST PUSH3 0x314 DUP4 PUSH3 0x2D7 JUMP JUMPDEST PUSH3 0x32C PUSH3 0x323 DUP3 PUSH3 0x2FF JUMP JUMPDEST DUP5 DUP5 SLOAD PUSH3 0x26D JUMP JUMPDEST DUP3 SSTORE POP POP POP POP JUMP JUMPDEST PUSH1 0x0 SWAP1 JUMP JUMPDEST PUSH3 0x343 PUSH3 0x334 JUMP JUMPDEST PUSH3 0x350 DUP2 DUP5 DUP5 PUSH3 0x309 JUMP JUMPDEST POP POP POP JUMP JUMPDEST JUMPDEST DUP2 DUP2 LT ISZERO PUSH3 0x378 JUMPI PUSH3 0x36C PUSH1 0x0 DUP3 PUSH3 0x339 JUMP JUMPDEST PUSH1 0x1 DUP2 ADD SWAP1 POP PUSH3 0x356 JUMP JUMPDEST POP POP JUMP JUMPDEST PUSH1 0x1F DUP3 GT ISZERO PUSH3 0x3C7 JUMPI PUSH3 0x391 DUP2 PUSH3 0x23B JUMP JUMPDEST PUSH3 0x39C DUP5 PUSH3 0x250 JUMP JUMPDEST DUP2 ADD PUSH1 0x20 DUP6 LT ISZERO PUSH3 0x3AC JUMPI DUP2 SWAP1 POP JUMPDEST PUSH3 0x3C4 PUSH3 0x3BB DUP6 PUSH3 0x250 JUMP JUMPDEST DUP4 ADD DUP3 PUSH3 0x355 JUMP JUMPDEST POP POP JUMPDEST POP POP POP JUMP JUMPDEST PUSH1 0x0 DUP3 DUP3 SHR SWAP1 POP SWAP3 SWAP2 POP POP JUMP JUMPDEST PUSH1 0x0 PUSH3 0x3EC PUSH1 0x0 NOT DUP5 PUSH1 0x8 MUL PUSH3 0x3CC JUMP JUMPDEST NOT DUP1 DUP4 AND SWAP2 POP POP SWAP3 SWAP2 POP POP JUMP JUMPDEST PUSH1 0x0 PUSH3 0x407 DUP4 DUP4 PUSH3 0x3D9 JUMP JUMPDEST SWAP2 POP DUP3 PUSH1 0x2 MUL DUP3 OR SWAP1 POP SWAP3 SWAP2 POP POP JUMP JUMPDEST PUSH3 0x422 DUP3 PUSH3 0x1CC JUMP JUMPDEST PUSH8 0xFFFFFFFFFFFFFFFF DUP2 GT ISZERO PUSH3 0x43E JUMPI PUSH3 0x43D PUSH3 0x19D JUMP JUMPDEST JUMPDEST PUSH3 0x44A DUP3 SLOAD PUSH3 0x206 JUMP JUMPDEST PUSH3 0x457 DUP3 DUP3 DUP6 PUSH3 0x37C JUMP JUMPDEST PUSH1 0x0 PUSH1 0x20 SWAP1 POP PUSH1 0x1F DUP4 GT PUSH1 0x1 DUP2 EQ PUSH3 0x48F JUMPI PUSH1 0x0 DUP5 ISZERO PUSH3 0x47A JUMPI DUP3 DUP8 ADD MLOAD SWAP1 POP JUMPDEST PUSH3 0x486 DUP6 DUP3 PUSH3 0x3F9 JUMP JUMPDEST DUP7 SSTORE POP PUSH3 0x4F6 JUMP JUMPDEST PUSH1 0x1F NOT DUP5 AND PUSH3 0x49F DUP7 PUSH3 0x23B JUMP JUMPDEST PUSH1 0x0 JUMPDEST DUP3 DUP2 LT ISZERO PUSH3 0x4C9 JUMPI DUP5 DUP10 ADD MLOAD DUP3 SSTORE PUSH1 0x1 DUP3 ADD SWAP2 POP PUSH1 0x20 DUP6 ADD SWAP5 POP PUSH1 0x20 DUP2 ADD SWAP1 POP PUSH3 0x4A2 JUMP JUMPDEST DUP7 DUP4 LT ISZERO PUSH3 0x4E9 JUMPI DUP5 DUP10 ADD MLOAD PUSH3 0x4E5 PUSH1 0x1F DUP10 AND DUP3 PUSH3 0x3D9 JUMP JUMPDEST DUP4 SSTORE POP JUMPDEST PUSH1 0x1 PUSH1 0x2 DUP9 MUL ADD DUP9 SSTORE POP POP POP JUMPDEST POP POP POP POP POP POP JUMP JUMPDEST PUSH2 0x2F42 DUP1 PUSH3 0x50E PUSH1 0x0 CODECOPY PUSH1 0x0 RETURN INVALID PUSH1 0x80 PUSH1 0x40 MSTORE PUSH1 0x4 CALLDATASIZE LT PUSH2 0xA6 JUMPI PUSH1 0x0 CALLDATALOAD PUSH1 0xE0 SHR DUP1 PUSH4 0x4E1273F4 GT PUSH2 0x64 JUMPI DUP1 PUSH4 0x4E1273F4 EQ PUSH2 0x1D2 JUMPI DUP1 PUSH4 0x790C0125 EQ PUSH2 0x20F JUMPI DUP1 PUSH4 0x920A57DC EQ PUSH2 0x24C JUMPI DUP1 PUSH4 0xA22CB465 EQ PUSH2 0x275 JUMPI DUP1 PUSH4 0xE985E9C5 EQ PUSH2 0x29E JUMPI DUP1 PUSH4 0xF242432A EQ PUSH2 0x2DB JUMPI PUSH2 0xA6 JUMP JUMPDEST DUP1 PUSH3 0xFDD58E EQ PUSH2 0xAB JUMPI DUP1 PUSH4 0x1FFC9A7 EQ PUSH2 0xE8 JUMPI DUP1 PUSH4 0xE89341C EQ PUSH2 0x125 JUMPI DUP1 PUSH4 0x201D995A EQ PUSH2 0x162 JUMPI DUP1 PUSH4 0x2EB2C2D6 EQ PUSH2 0x17E JUMPI DUP1 PUSH4 0x478B9A1F EQ PUSH2 0x1A7 JUMPI JUMPDEST PUSH1 0x0 DUP1 REVERT JUMPDEST CALLVALUE DUP1 ISZERO PUSH2 0xB7 JUMPI PUSH1 0x0 DUP1 REVERT JUMPDEST POP PUSH2 0xD2 PUSH1 0x4 DUP1 CALLDATASIZE SUB DUP2 ADD SWAP1 PUSH2 0xCD SWAP2 SWAP1 PUSH2 0x1873 JUMP JUMPDEST PUSH2 0x304 JUMP JUMPDEST PUSH1 0x40 MLOAD PUSH2 0xDF SWAP2 SWAP1 PUSH2 0x18C2 JUMP JUMPDEST PUSH1 0x40 MLOAD DUP1 SWAP2 SUB SWAP1 RETURN JUMPDEST CALLVALUE DUP1 ISZERO PUSH2 0xF4 JUMPI PUSH1 0x0 DUP1 REVERT JUMPDEST POP PUSH2 0x10F PUSH1 0x4 DUP1 CALLDATASIZE SUB DUP2 ADD SWAP1 PUSH2 0x10A SWAP2 SWAP1 PUSH2 0x1935 JUMP JUMPDEST PUSH2 0x3CC JUMP JUMPDEST PUSH1 0x40 MLOAD PUSH2 0x11C SWAP2 SWAP1 PUSH2 0x197D JUMP JUMPDEST PUSH1 0x40 MLOAD DUP1 SWAP2 SUB SWAP1 RETURN JUMPDEST CALLVALUE DUP1 ISZERO PUSH2 0x131 JUMPI PUSH1 0x0 DUP1 REVERT JUMPDEST POP PUSH2 0x14C PUSH1 0x4 DUP1 CALLDATASIZE SUB DUP2 ADD SWAP1 PUSH2 0x147 SWAP2 SWAP1 PUSH2 0x1998 JUMP JUMPDEST PUSH2 0x4AE JUMP JUMPDEST PUSH1 0x40 MLOAD PUSH2 0x159 SWAP2 SWAP1 PUSH2 0x1A55 JUMP JUMPDEST PUSH1 0x40 MLOAD DUP1 SWAP2 SUB SWAP1 RETURN JUMPDEST PUSH2 0x17C PUSH1 0x4 DUP1 CALLDATASIZE SUB DUP2 ADD SWAP1 PUSH2 0x177 SWAP2 SWAP1 PUSH2 0x1A77 JUMP JUMPDEST PUSH2 0x542 JUMP JUMPDEST STOP JUMPDEST CALLVALUE DUP1 ISZERO PUSH2 0x18A JUMPI PUSH1 0x0 DUP1 REVERT JUMPDEST POP PUSH2 0x1A5 PUSH1 0x4 DUP1 CALLDATASIZE SUB DUP2 ADD SWAP1 PUSH2 0x1A0 SWAP2 SWAP1 PUSH2 0x1CB4 JUMP JUMPDEST PUSH2 0x679 JUMP JUMPDEST STOP JUMPDEST CALLVALUE DUP1 ISZERO PUSH2 0x1B3 JUMPI PUSH1 0x0 DUP1 REVERT JUMPDEST POP PUSH2 0x1BC PUSH2 0x71A JUMP JUMPDEST PUSH1 0x40 MLOAD PUSH2 0x1C9 SWAP2 SWAP1 PUSH2 0x18C2 JUMP JUMPDEST PUSH1 0x40 MLOAD DUP1 SWAP2 SUB SWAP1 RETURN JUMPDEST CALLVALUE DUP1 ISZERO PUSH2 0x1DE JUMPI PUSH1 0x0 DUP1 REVERT JUMPDEST POP PUSH2 0x1F9 PUSH1 0x4 DUP1 CALLDATASIZE SUB DUP2 ADD SWAP1 PUSH2 0x1F4 SWAP2 SWAP1 PUSH2 0x1E46 JUMP JUMPDEST PUSH2 0x724 JUMP JUMPDEST PUSH1 0x40 MLOAD PUSH2 0x206 SWAP2 SWAP1 PUSH2 0x1F7C JUMP JUMPDEST PUSH1 0x40 MLOAD DUP1 SWAP2 SUB SWAP1 RETURN JUMPDEST CALLVALUE DUP1 ISZERO PUSH2 0x21B JUMPI PUSH1 0x0 DUP1 REVERT JUMPDEST POP PUSH2 0x236 PUSH1 0x4 DUP1 CALLDATASIZE SUB DUP2 ADD SWAP1 PUSH2 0x231 SWAP2 SWAP1 PUSH2 0x1A77 JUMP JUMPDEST PUSH2 0x83D JUMP JUMPDEST PUSH1 0x40 MLOAD PUSH2 0x243 SWAP2 SWAP1 PUSH2 0x18C2 JUMP JUMPDEST PUSH1 0x40 MLOAD DUP1 SWAP2 SUB SWAP1 RETURN JUMPDEST CALLVALUE DUP1 ISZERO PUSH2 0x258 JUMPI PUSH1 0x0 DUP1 REVERT JUMPDEST POP PUSH2 0x273 PUSH1 0x4 DUP1 CALLDATASIZE SUB DUP2 ADD SWAP1 PUSH2 0x26E SWAP2 SWAP1 PUSH2 0x203F JUMP JUMPDEST PUSH2 0x89A JUMP JUMPDEST STOP JUMPDEST CALLVALUE DUP1 ISZERO PUSH2 0x281 JUMPI PUSH1 0x0 DUP1 REVERT JUMPDEST POP PUSH2 0x29C PUSH1 0x4 DUP1 CALLDATASIZE SUB DUP2 ADD SWAP1 PUSH2 0x297 SWAP2 SWAP1 PUSH2 0x20B4 JUMP JUMPDEST PUSH2 0x8A6 JUMP JUMPDEST STOP JUMPDEST CALLVALUE DUP1 ISZERO PUSH2 0x2AA JUMPI PUSH1 0x0 DUP1 REVERT JUMPDEST POP PUSH2 0x2C5 PUSH1 0x4 DUP1 CALLDATASIZE SUB DUP2 ADD SWAP1 PUSH2 0x2C0 SWAP2 SWAP1 PUSH2 0x20F4 JUMP JUMPDEST PUSH2 0x8BC JUMP JUMPDEST PUSH1 0x40 MLOAD PUSH2 0x2D2 SWAP2 SWAP1 PUSH2 0x197D JUMP JUMPDEST PUSH1 0x40 MLOAD DUP1 SWAP2 SUB SWAP1 RETURN JUMPDEST CALLVALUE DUP1 ISZERO PUSH2 0x2E7 JUMPI PUSH1 0x0 DUP1 REVERT JUMPDEST POP PUSH2 0x302 PUSH1 0x4 DUP1 CALLDATASIZE SUB DUP2 ADD SWAP1 PUSH2 0x2FD SWAP2 SWAP1 PUSH2 0x2134 JUMP JUMPDEST PUSH2 0x950 JUMP JUMPDEST STOP JUMPDEST PUSH1 0x0 DUP1 PUSH20 0xFFFFFFFFFFFFFFFFFFFFFFFFFFFFFFFFFFFFFFFF AND DUP4 PUSH20 0xFFFFFFFFFFFFFFFFFFFFFFFFFFFFFFFFFFFFFFFF AND SUB PUSH2 0x374 JUMPI PUSH1 0x40 MLOAD PUSH32 0x8C379A000000000000000000000000000000000000000000000000000000000 DUP2 MSTORE PUSH1 0x4 ADD PUSH2 0x36B SWAP1 PUSH2 0x223D JUMP JUMPDEST PUSH1 0x40 MLOAD DUP1 SWAP2 SUB SWAP1 REVERT JUMPDEST PUSH1 0x0 DUP1 DUP4 DUP2 MSTORE PUSH1 0x20 ADD SWAP1 DUP2 MSTORE PUSH1 0x20 ADD PUSH1 0x0 KECCAK256 PUSH1 0x0 DUP5 PUSH20 0xFFFFFFFFFFFFFFFFFFFFFFFFFFFFFFFFFFFFFFFF AND PUSH20 0xFFFFFFFFFFFFFFFFFFFFFFFFFFFFFFFFFFFFFFFF AND DUP2 MSTORE PUSH1 0x20 ADD SWAP1 DUP2 MSTORE PUSH1 0x20 ADD PUSH1 0x0 KECCAK256 SLOAD SWAP1 POP SWAP3 SWAP2 POP POP JUMP JUMPDEST PUSH1 0x0 PUSH32 0xD9B67A2600000000000000000000000000000000000000000000000000000000 PUSH28 0xFFFFFFFFFFFFFFFFFFFFFFFFFFFFFFFFFFFFFFFFFFFFFFFFFFFFFFFF NOT AND DUP3 PUSH28 0xFFFFFFFFFFFFFFFFFFFFFFFFFFFFFFFFFFFFFFFFFFFFFFFFFFFFFFFF NOT AND EQ DUP1 PUSH2 0x497 JUMPI POP PUSH32 0xE89341C00000000000000000000000000000000000000000000000000000000 PUSH28 0xFFFFFFFFFFFFFFFFFFFFFFFFFFFFFFFFFFFFFFFFFFFFFFFFFFFFFFFF NOT AND DUP3 PUSH28 0xFFFFFFFFFFFFFFFFFFFFFFFFFFFFFFFFFFFFFFFFFFFFFFFFFFFFFFFF NOT AND EQ JUMPDEST DUP1 PUSH2 0x4A7 JUMPI POP PUSH2 0x4A6 DUP3 PUSH2 0x9F1 JUMP JUMPDEST JUMPDEST SWAP1 POP SWAP2 SWAP1 POP JUMP JUMPDEST PUSH1 0x60 PUSH1 0x2 DUP1 SLOAD PUSH2 0x4BD SWAP1 PUSH2 0x228C JUMP JUMPDEST DUP1 PUSH1 0x1F ADD PUSH1 0x20 DUP1 SWAP2 DIV MUL PUSH1 0x20 ADD PUSH1 0x40 MLOAD SWAP1 DUP2 ADD PUSH1 0x40 MSTORE DUP1 SWAP3 SWAP2 SWAP1 DUP2 DUP2 MSTORE PUSH1 0x20 ADD DUP3 DUP1 SLOAD PUSH2 0x4E9 SWAP1 PUSH2 0x228C JUMP JUMPDEST DUP1 ISZERO PUSH2 0x536 JUMPI DUP1 PUSH1 0x1F LT PUSH2 0x50B JUMPI PUSH2 0x100 DUP1 DUP4 SLOAD DIV MUL DUP4 MSTORE SWAP2 PUSH1 0x20 ADD SWAP2 PUSH2 0x536 JUMP JUMPDEST DUP3 ADD SWAP2 SWAP1 PUSH1 0x0 MSTORE PUSH1 0x20 PUSH1 0x0 KECCAK256 SWAP1 JUMPDEST DUP2 SLOAD DUP2 MSTORE SWAP1 PUSH1 0x1 ADD SWAP1 PUSH1 0x20 ADD DUP1 DUP4 GT PUSH2 0x519 JUMPI DUP3 SWAP1 SUB PUSH1 0x1F AND DUP3 ADD SWAP2 JUMPDEST POP POP POP POP POP SWAP1 POP SWAP2 SWAP1 POP JUMP JUMPDEST DUP1 PUSH1 0x5 DUP4 DUP2 SLOAD DUP2 LT PUSH2 0x557 JUMPI PUSH2 0x556 PUSH2 0x22BD JUMP JUMPDEST JUMPDEST SWAP1 PUSH1 0x0 MSTORE PUSH1 0x20 PUSH1 0x0 KECCAK256 ADD SLOAD PUSH2 0x56C SWAP2 SWAP1 PUSH2 0x231B JUMP JUMPDEST CALLVALUE EQ PUSH2 0x5AD JUMPI PUSH1 0x40 MLOAD PUSH32 0x8C379A000000000000000000000000000000000000000000000000000000000 DUP2 MSTORE PUSH1 0x4 ADD PUSH2 0x5A4 SWAP1 PUSH2 0x23A9 JUMP JUMPDEST PUSH1 0x40 MLOAD DUP1 SWAP2 SUB SWAP1 REVERT JUMPDEST DUP1 PUSH1 0x4 DUP4 DUP2 SLOAD DUP2 LT PUSH2 0x5C2 JUMPI PUSH2 0x5C1 PUSH2 0x22BD JUMP JUMPDEST JUMPDEST SWAP1 PUSH1 0x0 MSTORE PUSH1 0x20 PUSH1 0x0 KECCAK256 ADD SLOAD LT ISZERO PUSH2 0x60E JUMPI PUSH1 0x40 MLOAD PUSH32 0x8C379A000000000000000000000000000000000000000000000000000000000 DUP2 MSTORE PUSH1 0x4 ADD PUSH2 0x605 SWAP1 PUSH2 0x2415 JUMP JUMPDEST PUSH1 0x40 MLOAD DUP1 SWAP2 SUB SWAP1 REVERT JUMPDEST PUSH2 0x629 CALLER DUP4 DUP4 PUSH1 0x40 MLOAD DUP1 PUSH1 0x20 ADD PUSH1 0x40 MSTORE DUP1 PUSH1 0x0 DUP2 MSTORE POP PUSH2 0xA5B JUMP JUMPDEST DUP1 PUSH1 0x4 DUP4 DUP2 SLOAD DUP2 LT PUSH2 0x63E JUMPI PUSH2 0x63D PUSH2 0x22BD JUMP JUMPDEST JUMPDEST SWAP1 PUSH1 0x0 MSTORE PUSH1 0x20 PUSH1 0x0 KECCAK256 ADD SLOAD PUSH2 0x653 SWAP2 SWAP1 PUSH2 0x2435 JUMP JUMPDEST PUSH1 0x4 DUP4 DUP2 SLOAD DUP2 LT PUSH2 0x667 JUMPI PUSH2 0x666 PUSH2 0x22BD JUMP JUMPDEST JUMPDEST SWAP1 PUSH1 0x0 MSTORE PUSH1 0x20 PUSH1 0x0 KECCAK256 ADD DUP2 SWAP1 SSTORE POP POP POP JUMP JUMPDEST PUSH2 0x681 PUSH2 0xC0B JUMP JUMPDEST PUSH20 0xFFFFFFFFFFFFFFFFFFFFFFFFFFFFFFFFFFFFFFFF AND DUP6 PUSH20 0xFFFFFFFFFFFFFFFFFFFFFFFFFFFFFFFFFFFFFFFF AND EQ DUP1 PUSH2 0x6C7 JUMPI POP PUSH2 0x6C6 DUP6 PUSH2 0x6C1 PUSH2 0xC0B JUMP JUMPDEST PUSH2 0x8BC JUMP JUMPDEST JUMPDEST PUSH2 0x706 JUMPI PUSH1 0x40 MLOAD PUSH32 0x8C379A000000000000000000000000000000000000000000000000000000000 DUP2 MSTORE PUSH1 0x4 ADD PUSH2 0x6FD SWAP1 PUSH2 0x24DB JUMP JUMPDEST PUSH1 0x40 MLOAD DUP1 SWAP2 SUB SWAP1 REVERT JUMPDEST PUSH2 0x713 DUP6 DUP6 DUP6 DUP6 DUP6 PUSH2 0xC13 JUMP JUMPDEST POP POP POP POP POP JUMP JUMPDEST PUSH1 0x0 PUSH1 0x3 SLOAD SWAP1 POP SWAP1 JUMP JUMPDEST PUSH1 0x60 DUP2 MLOAD DUP4 MLOAD EQ PUSH2 0x76A JUMPI PUSH1 0x40 MLOAD PUSH32 0x8C379A000000000000000000000000000000000000000000000000000000000 DUP2 MSTORE PUSH1 0x4 ADD PUSH2 0x761 SWAP1 PUSH2 0x256D JUMP JUMPDEST PUSH1 0x40 MLOAD DUP1 SWAP2 SUB SWAP1 REVERT JUMPDEST PUSH1 0x0 DUP4 MLOAD PUSH8 0xFFFFFFFFFFFFFFFF DUP2 GT ISZERO PUSH2 0x787 JUMPI PUSH2 0x786 PUSH2 0x1ABC JUMP JUMPDEST JUMPDEST PUSH1 0x40 MLOAD SWAP1 DUP1 DUP3 MSTORE DUP1 PUSH1 0x20 MUL PUSH1 0x20 ADD DUP3 ADD PUSH1 0x40 MSTORE DUP1 ISZERO PUSH2 0x7B5 JUMPI DUP2 PUSH1 0x20 ADD PUSH1 0x20 DUP3 MUL DUP1 CALLDATASIZE DUP4 CALLDATACOPY DUP1 DUP3 ADD SWAP2 POP POP SWAP1 POP JUMPDEST POP SWAP1 POP PUSH1 0x0 JUMPDEST DUP5 MLOAD DUP2 LT ISZERO PUSH2 0x832 JUMPI PUSH2 0x802 DUP6 DUP3 DUP2 MLOAD DUP2 LT PUSH2 0x7DA JUMPI PUSH2 0x7D9 PUSH2 0x22BD JUMP JUMPDEST JUMPDEST PUSH1 0x20 MUL PUSH1 0x20 ADD ADD MLOAD DUP6 DUP4 DUP2 MLOAD DUP2 LT PUSH2 0x7F5 JUMPI PUSH2 0x7F4 PUSH2 0x22BD JUMP JUMPDEST JUMPDEST PUSH1 0x20 MUL PUSH1 0x20 ADD ADD MLOAD PUSH2 0x304 JUMP JUMPDEST DUP3 DUP3 DUP2 MLOAD DUP2 LT PUSH2 0x815 JUMPI PUSH2 0x814 PUSH2 0x22BD JUMP JUMPDEST JUMPDEST PUSH1 0x20 MUL PUSH1 0x20 ADD ADD DUP2 DUP2 MSTORE POP POP DUP1 PUSH2 0x82B SWAP1 PUSH2 0x258D JUMP JUMPDEST SWAP1 POP PUSH2 0x7BB JUMP JUMPDEST POP DUP1 SWAP2 POP POP SWAP3 SWAP2 POP POP JUMP JUMPDEST PUSH1 0x0 DUP1 PUSH2 0x848 PUSH2 0xF34 JUMP JUMPDEST SWAP1 POP DUP4 PUSH1 0x4 DUP3 DUP2 SLOAD DUP2 LT PUSH2 0x85F JUMPI PUSH2 0x85E PUSH2 0x22BD JUMP JUMPDEST JUMPDEST SWAP1 PUSH1 0x0 MSTORE PUSH1 0x20 PUSH1 0x0 KECCAK256 ADD DUP2 SWAP1 SSTORE POP DUP3 PUSH1 0x5 DUP3 DUP2 SLOAD DUP2 LT PUSH2 0x882 JUMPI PUSH2 0x881 PUSH2 0x22BD JUMP JUMPDEST JUMPDEST SWAP1 PUSH1 0x0 MSTORE PUSH1 0x20 PUSH1 0x0 KECCAK256 ADD DUP2 SWAP1 SSTORE POP DUP1 SWAP2 POP POP SWAP3 SWAP2 POP POP JUMP JUMPDEST PUSH2 0x8A3 DUP2 PUSH2 0xF56 JUMP JUMPDEST POP JUMP JUMPDEST PUSH2 0x8B8 PUSH2 0x8B1 PUSH2 0xC0B JUMP JUMPDEST DUP4 DUP4 PUSH2 0xF69 JUMP JUMPDEST POP POP JUMP JUMPDEST PUSH1 0x0 PUSH1 0x1 PUSH1 0x0 DUP5 PUSH20 0xFFFFFFFFFFFFFFFFFFFFFFFFFFFFFFFFFFFFFFFF AND PUSH20 0xFFFFFFFFFFFFFFFFFFFFFFFFFFFFFFFFFFFFFFFF AND DUP2 MSTORE PUSH1 0x20 ADD SWAP1 DUP2 MSTORE PUSH1 0x20 ADD PUSH1 0x0 KECCAK256 PUSH1 0x0 DUP4 PUSH20 0xFFFFFFFFFFFFFFFFFFFFFFFFFFFFFFFFFFFFFFFF AND PUSH20 0xFFFFFFFFFFFFFFFFFFFFFFFFFFFFFFFFFFFFFFFF AND DUP2 MSTORE PUSH1 0x20 ADD SWAP1 DUP2 MSTORE PUSH1 0x20 ADD PUSH1 0x0 KECCAK256 PUSH1 0x0 SWAP1 SLOAD SWAP1 PUSH2 0x100 EXP SWAP1 DIV PUSH1 0xFF AND SWAP1 POP SWAP3 SWAP2 POP POP JUMP JUMPDEST PUSH2 0x958 PUSH2 0xC0B JUMP JUMPDEST PUSH20 0xFFFFFFFFFFFFFFFFFFFFFFFFFFFFFFFFFFFFFFFF AND DUP6 PUSH20 0xFFFFFFFFFFFFFFFFFFFFFFFFFFFFFFFFFFFFFFFF AND EQ DUP1 PUSH2 0x99E JUMPI POP PUSH2 0x99D DUP6 PUSH2 0x998 PUSH2 0xC0B JUMP JUMPDEST PUSH2 0x8BC JUMP JUMPDEST JUMPDEST PUSH2 0x9DD JUMPI PUSH1 0x40 MLOAD PUSH32 0x8C379A000000000000000000000000000000000000000000000000000000000 DUP2 MSTORE PUSH1 0x4 ADD PUSH2 0x9D4 SWAP1 PUSH2 0x24DB JUMP JUMPDEST PUSH1 0x40 MLOAD DUP1 SWAP2 SUB SWAP1 REVERT JUMPDEST PUSH2 0x9EA DUP6 DUP6 DUP6 DUP6 DUP6 PUSH2 0x10D5 JUMP JUMPDEST POP POP POP POP POP JUMP JUMPDEST PUSH1 0x0 PUSH32 0x1FFC9A700000000000000000000000000000000000000000000000000000000 PUSH28 0xFFFFFFFFFFFFFFFFFFFFFFFFFFFFFFFFFFFFFFFFFFFFFFFFFFFFFFFF NOT AND DUP3 PUSH28 0xFFFFFFFFFFFFFFFFFFFFFFFFFFFFFFFFFFFFFFFFFFFFFFFFFFFFFFFF NOT AND EQ SWAP1 POP SWAP2 SWAP1 POP JUMP JUMPDEST PUSH1 0x0 PUSH20 0xFFFFFFFFFFFFFFFFFFFFFFFFFFFFFFFFFFFFFFFF AND DUP5 PUSH20 0xFFFFFFFFFFFFFFFFFFFFFFFFFFFFFFFFFFFFFFFF AND SUB PUSH2 0xACA JUMPI PUSH1 0x40 MLOAD PUSH32 0x8C379A000000000000000000000000000000000000000000000000000000000 DUP2 MSTORE PUSH1 0x4 ADD PUSH2 0xAC1 SWAP1 PUSH2 0x2647 JUMP JUMPDEST PUSH1 0x40 MLOAD DUP1 SWAP2 SUB SWAP1 REVERT JUMPDEST PUSH1 0x0 PUSH2 0xAD4 PUSH2 0xC0B JUMP JUMPDEST SWAP1 POP PUSH1 0x0 PUSH2 0xAE1 DUP6 PUSH2 0x1370 JUMP JUMPDEST SWAP1 POP PUSH1 0x0 PUSH2 0xAEE DUP6 PUSH2 0x1370 JUMP JUMPDEST SWAP1 POP PUSH2 0xAFF DUP4 PUSH1 0x0 DUP10 DUP6 DUP6 DUP10 PUSH2 0x13EA JUMP JUMPDEST DUP5 PUSH1 0x0 DUP1 DUP9 DUP2 MSTORE PUSH1 0x20 ADD SWAP1 DUP2 MSTORE PUSH1 0x20 ADD PUSH1 0x0 KECCAK256 PUSH1 0x0 DUP10 PUSH20 0xFFFFFFFFFFFFFFFFFFFFFFFFFFFFFFFFFFFFFFFF AND PUSH20 0xFFFFFFFFFFFFFFFFFFFFFFFFFFFFFFFFFFFFFFFF AND DUP2 MSTORE PUSH1 0x20 ADD SWAP1 DUP2 MSTORE PUSH1 0x20 ADD PUSH1 0x0 KECCAK256 PUSH1 0x0 DUP3 DUP3 SLOAD PUSH2 0xB5E SWAP2 SWAP1 PUSH2 0x2667 JUMP JUMPDEST SWAP3 POP POP DUP2 SWAP1 SSTORE POP DUP7 PUSH20 0xFFFFFFFFFFFFFFFFFFFFFFFFFFFFFFFFFFFFFFFF AND PUSH1 0x0 PUSH20 0xFFFFFFFFFFFFFFFFFFFFFFFFFFFFFFFFFFFFFFFF AND DUP5 PUSH20 0xFFFFFFFFFFFFFFFFFFFFFFFFFFFFFFFFFFFFFFFF AND PUSH32 0xC3D58168C5AE7397731D063D5BBF3D657854427343F4C083240F7AACAA2D0F62 DUP10 DUP10 PUSH1 0x40 MLOAD PUSH2 0xBDC SWAP3 SWAP2 SWAP1 PUSH2 0x269B JUMP JUMPDEST PUSH1 0x40 MLOAD DUP1 SWAP2 SUB SWAP1 LOG4 PUSH2 0xBF3 DUP4 PUSH1 0x0 DUP10 DUP6 DUP6 DUP10 PUSH2 0x13F2 JUMP JUMPDEST PUSH2 0xC02 DUP4 PUSH1 0x0 DUP10 DUP10 DUP10 DUP10 PUSH2 0x13FA JUMP JUMPDEST POP POP POP POP POP POP POP JUMP JUMPDEST PUSH1 0x0 CALLER SWAP1 POP SWAP1 JUMP JUMPDEST DUP2 MLOAD DUP4 MLOAD EQ PUSH2 0xC57 JUMPI PUSH1 0x40 MLOAD PUSH32 0x8C379A000000000000000000000000000000000000000000000000000000000 DUP2 MSTORE PUSH1 0x4 ADD PUSH2 0xC4E SWAP1 PUSH2 0x2736 JUMP JUMPDEST PUSH1 0x40 MLOAD DUP1 SWAP2 SUB SWAP1 REVERT JUMPDEST PUSH1 0x0 PUSH20 0xFFFFFFFFFFFFFFFFFFFFFFFFFFFFFFFFFFFFFFFF AND DUP5 PUSH20 0xFFFFFFFFFFFFFFFFFFFFFFFFFFFFFFFFFFFFFFFF AND SUB PUSH2 0xCC6 JUMPI PUSH1 0x40 MLOAD PUSH32 0x8C379A000000000000000000000000000000000000000000000000000000000 DUP2 MSTORE PUSH1 0x4 ADD PUSH2 0xCBD SWAP1 PUSH2 0x27C8 JUMP JUMPDEST PUSH1 0x40 MLOAD DUP1 SWAP2 SUB SWAP1 REVERT JUMPDEST PUSH1 0x0 PUSH2 0xCD0 PUSH2 0xC0B JUMP JUMPDEST SWAP1 POP PUSH2 0xCE0 DUP2 DUP8 DUP8 DUP8 DUP8 DUP8 PUSH2 0x13EA JUMP JUMPDEST PUSH1 0x0 JUMPDEST DUP5 MLOAD DUP2 LT ISZERO PUSH2 0xE91 JUMPI PUSH1 0x0 DUP6 DUP3 DUP2 MLOAD DUP2 LT PUSH2 0xD01 JUMPI PUSH2 0xD00 PUSH2 0x22BD JUMP JUMPDEST JUMPDEST PUSH1 0x20 MUL PUSH1 0x20 ADD ADD MLOAD SWAP1 POP PUSH1 0x0 DUP6 DUP4 DUP2 MLOAD DUP2 LT PUSH2 0xD20 JUMPI PUSH2 0xD1F PUSH2 0x22BD JUMP JUMPDEST JUMPDEST PUSH1 0x20 MUL PUSH1 0x20 ADD ADD MLOAD SWAP1 POP PUSH1 0x0 DUP1 PUSH1 0x0 DUP5 DUP2 MSTORE PUSH1 0x20 ADD SWAP1 DUP2 MSTORE PUSH1 0x20 ADD PUSH1 0x0 KECCAK256 PUSH1 0x0 DUP12 PUSH20 0xFFFFFFFFFFFFFFFFFFFFFFFFFFFFFFFFFFFFFFFF AND PUSH20 0xFFFFFFFFFFFFFFFFFFFFFFFFFFFFFFFFFFFFFFFF AND DUP2 MSTORE PUSH1 0x20 ADD SWAP1 DUP2 MSTORE PUSH1 0x20 ADD PUSH1 0x0 KECCAK256 SLOAD SWAP1 POP DUP2 DUP2 LT ISZERO PUSH2 0xDC1 JUMPI PUSH1 0x40 MLOAD PUSH32 0x8C379A000000000000000000000000000000000000000000000000000000000 DUP2 MSTORE PUSH1 0x4 ADD PUSH2 0xDB8 SWAP1 PUSH2 0x285A JUMP JUMPDEST PUSH1 0x40 MLOAD DUP1 SWAP2 SUB SWAP1 REVERT JUMPDEST DUP2 DUP2 SUB PUSH1 0x0 DUP1 DUP6 DUP2 MSTORE PUSH1 0x20 ADD SWAP1 DUP2 MSTORE PUSH1 0x20 ADD PUSH1 0x0 KECCAK256 PUSH1 0x0 DUP13 PUSH20 0xFFFFFFFFFFFFFFFFFFFFFFFFFFFFFFFFFFFFFFFF AND PUSH20 0xFFFFFFFFFFFFFFFFFFFFFFFFFFFFFFFFFFFFFFFF AND DUP2 MSTORE PUSH1 0x20 ADD SWAP1 DUP2 MSTORE PUSH1 0x20 ADD PUSH1 0x0 KECCAK256 DUP2 SWAP1 SSTORE POP DUP2 PUSH1 0x0 DUP1 DUP6 DUP2 MSTORE PUSH1 0x20 ADD SWAP1 DUP2 MSTORE PUSH1 0x20 ADD PUSH1 0x0 KECCAK256 PUSH1 0x0 DUP12 PUSH20 0xFFFFFFFFFFFFFFFFFFFFFFFFFFFFFFFFFFFFFFFF AND PUSH20 0xFFFFFFFFFFFFFFFFFFFFFFFFFFFFFFFFFFFFFFFF AND DUP2 MSTORE PUSH1 0x20 ADD SWAP1 DUP2 MSTORE PUSH1 0x20 ADD PUSH1 0x0 KECCAK256 PUSH1 0x0 DUP3 DUP3 SLOAD PUSH2 0xE76 SWAP2 SWAP1 PUSH2 0x2667 JUMP JUMPDEST SWAP3 POP POP DUP2 SWAP1 SSTORE POP POP POP POP DUP1 PUSH2 0xE8A SWAP1 PUSH2 0x258D JUMP JUMPDEST SWAP1 POP PUSH2 0xCE3 JUMP JUMPDEST POP DUP5 PUSH20 0xFFFFFFFFFFFFFFFFFFFFFFFFFFFFFFFFFFFFFFFF AND DUP7 PUSH20 0xFFFFFFFFFFFFFFFFFFFFFFFFFFFFFFFFFFFFFFFF AND DUP3 PUSH20 0xFFFFFFFFFFFFFFFFFFFFFFFFFFFFFFFFFFFFFFFF AND PUSH32 0x4A39DC06D4C0DBC64B70AF90FD698A233A518AA5D07E595D983B8C0526C8F7FB DUP8 DUP8 PUSH1 0x40 MLOAD PUSH2 0xF08 SWAP3 SWAP2 SWAP1 PUSH2 0x287A JUMP JUMPDEST PUSH1 0x40 MLOAD DUP1 SWAP2 SUB SWAP1 LOG4 PUSH2 0xF1E DUP2 DUP8 DUP8 DUP8 DUP8 DUP8 PUSH2 0x13F2 JUMP JUMPDEST PUSH2 0xF2C DUP2 DUP8 DUP8 DUP8 DUP8 DUP8 PUSH2 0x15D1 JUMP JUMPDEST POP POP POP POP POP POP JUMP JUMPDEST PUSH1 0x0 DUP1 PUSH1 0x1 PUSH1 0x3 SLOAD PUSH2 0xF46 SWAP2 SWAP1 PUSH2 0x2667 JUMP JUMPDEST SWAP1 POP DUP1 PUSH1 0x3 DUP2 SWAP1 SSTORE POP DUP1 SWAP2 POP POP SWAP1 JUMP JUMPDEST DUP1 PUSH1 0x2 SWAP1 DUP2 PUSH2 0xF65 SWAP2 SWAP1 PUSH2 0x2A5D JUMP JUMPDEST POP POP JUMP JUMPDEST DUP2 PUSH20 0xFFFFFFFFFFFFFFFFFFFFFFFFFFFFFFFFFFFFFFFF AND DUP4 PUSH20 0xFFFFFFFFFFFFFFFFFFFFFFFFFFFFFFFFFFFFFFFF AND SUB PUSH2 0xFD7 JUMPI PUSH1 0x40 MLOAD PUSH32 0x8C379A000000000000000000000000000000000000000000000000000000000 DUP2 MSTORE PUSH1 0x4 ADD PUSH2 0xFCE SWAP1 PUSH2 0x2BA1 JUMP JUMPDEST PUSH1 0x40 MLOAD DUP1 SWAP2 SUB SWAP1 REVERT JUMPDEST DUP1 PUSH1 0x1 PUSH1 0x0 DUP6 PUSH20 0xFFFFFFFFFFFFFFFFFFFFFFFFFFFFFFFFFFFFFFFF AND PUSH20 0xFFFFFFFFFFFFFFFFFFFFFFFFFFFFFFFFFFFFFFFF AND DUP2 MSTORE PUSH1 0x20 ADD SWAP1 DUP2 MSTORE PUSH1 0x20 ADD PUSH1 0x0 KECCAK256 PUSH1 0x0 DUP5 PUSH20 0xFFFFFFFFFFFFFFFFFFFFFFFFFFFFFFFFFFFFFFFF AND PUSH20 0xFFFFFFFFFFFFFFFFFFFFFFFFFFFFFFFFFFFFFFFF AND DUP2 MSTORE PUSH1 0x20 ADD SWAP1 DUP2 MSTORE PUSH1 0x20 ADD PUSH1 0x0 KECCAK256 PUSH1 0x0 PUSH2 0x100 EXP DUP2 SLOAD DUP2 PUSH1 0xFF MUL NOT AND SWAP1 DUP4 ISZERO ISZERO MUL OR SWAP1 SSTORE POP DUP2 PUSH20 0xFFFFFFFFFFFFFFFFFFFFFFFFFFFFFFFFFFFFFFFF AND DUP4 PUSH20 0xFFFFFFFFFFFFFFFFFFFFFFFFFFFFFFFFFFFFFFFF AND PUSH32 0x17307EAB39AB6107E8899845AD3D59BD9653F200F220920489CA2B5937696C31 DUP4 PUSH1 0x40 MLOAD PUSH2 0x10C8 SWAP2 SWAP1 PUSH2 0x197D JUMP JUMPDEST PUSH1 0x40 MLOAD DUP1 SWAP2 SUB SWAP1 LOG3 POP POP POP JUMP JUMPDEST PUSH1 0x0 PUSH20 0xFFFFFFFFFFFFFFFFFFFFFFFFFFFFFFFFFFFFFFFF AND DUP5 PUSH20 0xFFFFFFFFFFFFFFFFFFFFFFFFFFFFFFFFFFFFFFFF AND SUB PUSH2 0x1144 JUMPI PUSH1 0x40 MLOAD PUSH32 0x8C379A000000000000000000000000000000000000000000000000000000000 DUP2 MSTORE PUSH1 0x4 ADD PUSH2 0x113B SWAP1 PUSH2 0x27C8 JUMP JUMPDEST PUSH1 0x40 MLOAD DUP1 SWAP2 SUB SWAP1 REVERT JUMPDEST PUSH1 0x0 PUSH2 0x114E PUSH2 0xC0B JUMP JUMPDEST SWAP1 POP PUSH1 0x0 PUSH2 0x115B DUP6 PUSH2 0x1370 JUMP JUMPDEST SWAP1 POP PUSH1 0x0 PUSH2 0x1168 DUP6 PUSH2 0x1370 JUMP JUMPDEST SWAP1 POP PUSH2 0x1178 DUP4 DUP10 DUP10 DUP6 DUP6 DUP10 PUSH2 0x13EA JUMP JUMPDEST PUSH1 0x0 DUP1 PUSH1 0x0 DUP9 DUP2 MSTORE PUSH1 0x20 ADD SWAP1 DUP2 MSTORE PUSH1 0x20 ADD PUSH1 0x0 KECCAK256 PUSH1 0x0 DUP11 PUSH20 0xFFFFFFFFFFFFFFFFFFFFFFFFFFFFFFFFFFFFFFFF AND PUSH20 0xFFFFFFFFFFFFFFFFFFFFFFFFFFFFFFFFFFFFFFFF AND DUP2 MSTORE PUSH1 0x20 ADD SWAP1 DUP2 MSTORE PUSH1 0x20 ADD PUSH1 0x0 KECCAK256 SLOAD SWAP1 POP DUP6 DUP2 LT ISZERO PUSH2 0x120F JUMPI PUSH1 0x40 MLOAD PUSH32 0x8C379A000000000000000000000000000000000000000000000000000000000 DUP2 MSTORE PUSH1 0x4 ADD PUSH2 0x1206 SWAP1 PUSH2 0x285A JUMP JUMPDEST PUSH1 0x40 MLOAD DUP1 SWAP2 SUB SWAP1 REVERT JUMPDEST DUP6 DUP2 SUB PUSH1 0x0 DUP1 DUP10 DUP2 MSTORE PUSH1 0x20 ADD SWAP1 DUP2 MSTORE PUSH1 0x20 ADD PUSH1 0x0 KECCAK256 PUSH1 0x0 DUP12 PUSH20 0xFFFFFFFFFFFFFFFFFFFFFFFFFFFFFFFFFFFFFFFF AND PUSH20 0xFFFFFFFFFFFFFFFFFFFFFFFFFFFFFFFFFFFFFFFF AND DUP2 MSTORE PUSH1 0x20 ADD SWAP1 DUP2 MSTORE PUSH1 0x20 ADD PUSH1 0x0 KECCAK256 DUP2 SWAP1 SSTORE POP DUP6 PUSH1 0x0 DUP1 DUP10 DUP2 MSTORE PUSH1 0x20 ADD SWAP1 DUP2 MSTORE PUSH1 0x20 ADD PUSH1 0x0 KECCAK256 PUSH1 0x0 DUP11 PUSH20 0xFFFFFFFFFFFFFFFFFFFFFFFFFFFFFFFFFFFFFFFF AND PUSH20 0xFFFFFFFFFFFFFFFFFFFFFFFFFFFFFFFFFFFFFFFF AND DUP2 MSTORE PUSH1 0x20 ADD SWAP1 DUP2 MSTORE PUSH1 0x20 ADD PUSH1 0x0 KECCAK256 PUSH1 0x0 DUP3 DUP3 SLOAD PUSH2 0x12C4 SWAP2 SWAP1 PUSH2 0x2667 JUMP JUMPDEST SWAP3 POP POP DUP2 SWAP1 SSTORE POP DUP8 PUSH20 0xFFFFFFFFFFFFFFFFFFFFFFFFFFFFFFFFFFFFFFFF AND DUP10 PUSH20 0xFFFFFFFFFFFFFFFFFFFFFFFFFFFFFFFFFFFFFFFF AND DUP6 PUSH20 0xFFFFFFFFFFFFFFFFFFFFFFFFFFFFFFFFFFFFFFFF AND PUSH32 0xC3D58168C5AE7397731D063D5BBF3D657854427343F4C083240F7AACAA2D0F62 DUP11 DUP11 PUSH1 0x40 MLOAD PUSH2 0x1341 SWAP3 SWAP2 SWAP1 PUSH2 0x269B JUMP JUMPDEST PUSH1 0x40 MLOAD DUP1 SWAP2 SUB SWAP1 LOG4 PUSH2 0x1357 DUP5 DUP11 DUP11 DUP7 DUP7 DUP11 PUSH2 0x13F2 JUMP JUMPDEST PUSH2 0x1365 DUP5 DUP11 DUP11 DUP11 DUP11 DUP11 PUSH2 0x13FA JUMP JUMPDEST POP POP POP POP POP POP POP POP POP JUMP JUMPDEST PUSH1 0x60 PUSH1 0x0 PUSH1 0x1 PUSH8 0xFFFFFFFFFFFFFFFF DUP2 GT ISZERO PUSH2 0x138F JUMPI PUSH2 0x138E PUSH2 0x1ABC JUMP JUMPDEST JUMPDEST PUSH1 0x40 MLOAD SWAP1 DUP1 DUP3 MSTORE DUP1 PUSH1 0x20 MUL PUSH1 0x20 ADD DUP3 ADD PUSH1 0x40 MSTORE DUP1 ISZERO PUSH2 0x13BD JUMPI DUP2 PUSH1 0x20 ADD PUSH1 0x20 DUP3 MUL DUP1 CALLDATASIZE DUP4 CALLDATACOPY DUP1 DUP3 ADD SWAP2 POP POP SWAP1 POP JUMPDEST POP SWAP1 POP DUP3 DUP2 PUSH1 0x0 DUP2 MLOAD DUP2 LT PUSH2 0x13D5 JUMPI PUSH2 0x13D4 PUSH2 0x22BD JUMP JUMPDEST JUMPDEST PUSH1 0x20 MUL PUSH1 0x20 ADD ADD DUP2 DUP2 MSTORE POP POP DUP1 SWAP2 POP POP SWAP2 SWAP1 POP JUMP JUMPDEST POP POP POP POP POP POP JUMP JUMPDEST POP POP POP POP POP POP JUMP JUMPDEST PUSH2 0x1419 DUP5 PUSH20 0xFFFFFFFFFFFFFFFFFFFFFFFFFFFFFFFFFFFFFFFF AND PUSH2 0x17A8 JUMP JUMPDEST ISZERO PUSH2 0x15C9 JUMPI DUP4 PUSH20 0xFFFFFFFFFFFFFFFFFFFFFFFFFFFFFFFFFFFFFFFF AND PUSH4 0xF23A6E61 DUP8 DUP8 DUP7 DUP7 DUP7 PUSH1 0x40 MLOAD DUP7 PUSH4 0xFFFFFFFF AND PUSH1 0xE0 SHL DUP2 MSTORE PUSH1 0x4 ADD PUSH2 0x145F SWAP6 SWAP5 SWAP4 SWAP3 SWAP2 SWAP1 PUSH2 0x2C25 JUMP JUMPDEST PUSH1 0x20 PUSH1 0x40 MLOAD DUP1 DUP4 SUB DUP2 PUSH1 0x0 DUP8 GAS CALL SWAP3 POP POP POP DUP1 ISZERO PUSH2 0x149B JUMPI POP PUSH1 0x40 MLOAD RETURNDATASIZE PUSH1 0x1F NOT PUSH1 0x1F DUP3 ADD AND DUP3 ADD DUP1 PUSH1 0x40 MSTORE POP DUP2 ADD SWAP1 PUSH2 0x1498 SWAP2 SWAP1 PUSH2 0x2C94 JUMP JUMPDEST PUSH1 0x1 JUMPDEST PUSH2 0x1540 JUMPI PUSH2 0x14A7 PUSH2 0x2CCE JUMP JUMPDEST DUP1 PUSH4 0x8C379A0 SUB PUSH2 0x1503 JUMPI POP PUSH2 0x14BB PUSH2 0x2CF0 JUMP JUMPDEST DUP1 PUSH2 0x14C6 JUMPI POP PUSH2 0x1505 JUMP JUMPDEST DUP1 PUSH1 0x40 MLOAD PUSH32 0x8C379A000000000000000000000000000000000000000000000000000000000 DUP2 MSTORE PUSH1 0x4 ADD PUSH2 0x14FA SWAP2 SWAP1 PUSH2 0x1A55 JUMP JUMPDEST PUSH1 0x40 MLOAD DUP1 SWAP2 SUB SWAP1 REVERT JUMPDEST POP JUMPDEST PUSH1 0x40 MLOAD PUSH32 0x8C379A000000000000000000000000000000000000000000000000000000000 DUP2 MSTORE PUSH1 0x4 ADD PUSH2 0x1537 SWAP1 PUSH2 0x2DF2 JUMP JUMPDEST PUSH1 0x40 MLOAD DUP1 SWAP2 SUB SWAP1 REVERT JUMPDEST PUSH4 0xF23A6E61 PUSH1 0xE0 SHL PUSH28 0xFFFFFFFFFFFFFFFFFFFFFFFFFFFFFFFFFFFFFFFFFFFFFFFFFFFFFFFF NOT AND DUP2 PUSH28 0xFFFFFFFFFFFFFFFFFFFFFFFFFFFFFFFFFFFFFFFFFFFFFFFFFFFFFFFF NOT AND EQ PUSH2 0x15C7 JUMPI PUSH1 0x40 MLOAD PUSH32 0x8C379A000000000000000000000000000000000000000000000000000000000 DUP2 MSTORE PUSH1 0x4 ADD PUSH2 0x15BE SWAP1 PUSH2 0x2E84 JUMP JUMPDEST PUSH1 0x40 MLOAD DUP1 SWAP2 SUB SWAP1 REVERT JUMPDEST POP JUMPDEST POP POP POP POP POP POP JUMP JUMPDEST PUSH2 0x15F0 DUP5 PUSH20 0xFFFFFFFFFFFFFFFFFFFFFFFFFFFFFFFFFFFFFFFF AND PUSH2 0x17A8 JUMP JUMPDEST ISZERO PUSH2 0x17A0 JUMPI DUP4 PUSH20 0xFFFFFFFFFFFFFFFFFFFFFFFFFFFFFFFFFFFFFFFF AND PUSH4 0xBC197C81 DUP8 DUP8 DUP7 DUP7 DUP7 PUSH1 0x40 MLOAD DUP7 PUSH4 0xFFFFFFFF AND PUSH1 0xE0 SHL DUP2 MSTORE PUSH1 0x4 ADD PUSH2 0x1636 SWAP6 SWAP5 SWAP4 SWAP3 SWAP2 SWAP1 PUSH2 0x2EA4 JUMP JUMPDEST PUSH1 0x20 PUSH1 0x40 MLOAD DUP1 DUP4 SUB DUP2 PUSH1 0x0 DUP8 GAS CALL SWAP3 POP POP POP DUP1 ISZERO PUSH2 0x1672 JUMPI POP PUSH1 0x40 MLOAD RETURNDATASIZE PUSH1 0x1F NOT PUSH1 0x1F DUP3 ADD AND DUP3 ADD DUP1 PUSH1 0x40 MSTORE POP DUP2 ADD SWAP1 PUSH2 0x166F SWAP2 SWAP1 PUSH2 0x2C94 JUMP JUMPDEST PUSH1 0x1 JUMPDEST PUSH2 0x1717 JUMPI PUSH2 0x167E PUSH2 0x2CCE JUMP JUMPDEST DUP1 PUSH4 0x8C379A0 SUB PUSH2 0x16DA JUMPI POP PUSH2 0x1692 PUSH2 0x2CF0 JUMP JUMPDEST DUP1 PUSH2 0x169D JUMPI POP PUSH2 0x16DC JUMP JUMPDEST DUP1 PUSH1 0x40 MLOAD PUSH32 0x8C379A000000000000000000000000000000000000000000000000000000000 DUP2 MSTORE PUSH1 0x4 ADD PUSH2 0x16D1 SWAP2 SWAP1 PUSH2 0x1A55 JUMP JUMPDEST PUSH1 0x40 MLOAD DUP1 SWAP2 SUB SWAP1 REVERT JUMPDEST POP JUMPDEST PUSH1 0x40 MLOAD PUSH32 0x8C379A000000000000000000000000000000000000000000000000000000000 DUP2 MSTORE PUSH1 0x4 ADD PUSH2 0x170E SWAP1 PUSH2 0x2DF2 JUMP JUMPDEST PUSH1 0x40 MLOAD DUP1 SWAP2 SUB SWAP1 REVERT JUMPDEST PUSH4 0xBC197C81 PUSH1 0xE0 SHL PUSH28 0xFFFFFFFFFFFFFFFFFFFFFFFFFFFFFFFFFFFFFFFFFFFFFFFFFFFFFFFF NOT AND DUP2 PUSH28 0xFFFFFFFFFFFFFFFFFFFFFFFFFFFFFFFFFFFFFFFFFFFFFFFFFFFFFFFF NOT AND EQ PUSH2 0x179E JUMPI PUSH1 0x40 MLOAD PUSH32 0x8C379A000000000000000000000000000000000000000000000000000000000 DUP2 MSTORE PUSH1 0x4 ADD PUSH2 0x1795 SWAP1 PUSH2 0x2E84 JUMP JUMPDEST PUSH1 0x40 MLOAD DUP1 SWAP2 SUB SWAP1 REVERT JUMPDEST POP JUMPDEST POP POP POP POP POP POP JUMP JUMPDEST PUSH1 0x0 DUP1 DUP3 PUSH20 0xFFFFFFFFFFFFFFFFFFFFFFFFFFFFFFFFFFFFFFFF AND EXTCODESIZE GT SWAP1 POP SWAP2 SWAP1 POP JUMP JUMPDEST PUSH1 0x0 PUSH1 0x40 MLOAD SWAP1 POP SWAP1 JUMP JUMPDEST PUSH1 0x0 DUP1 REVERT JUMPDEST PUSH1 0x0 DUP1 REVERT JUMPDEST PUSH1 0x0 PUSH20 0xFFFFFFFFFFFFFFFFFFFFFFFFFFFFFFFFFFFFFFFF DUP3 AND SWAP1 POP SWAP2 SWAP1 POP JUMP JUMPDEST PUSH1 0x0 PUSH2 0x180A DUP3 PUSH2 0x17DF JUMP JUMPDEST SWAP1 POP SWAP2 SWAP1 POP JUMP JUMPDEST PUSH2 0x181A DUP2 PUSH2 0x17FF JUMP JUMPDEST DUP2 EQ PUSH2 0x1825 JUMPI PUSH1 0x0 DUP1 REVERT JUMPDEST POP JUMP JUMPDEST PUSH1 0x0 DUP2 CALLDATALOAD SWAP1 POP PUSH2 0x1837 DUP2 PUSH2 0x1811 JUMP JUMPDEST SWAP3 SWAP2 POP POP JUMP JUMPDEST PUSH1 0x0 DUP2 SWAP1 POP SWAP2 SWAP1 POP JUMP JUMPDEST PUSH2 0x1850 DUP2 PUSH2 0x183D JUMP JUMPDEST DUP2 EQ PUSH2 0x185B JUMPI PUSH1 0x0 DUP1 REVERT JUMPDEST POP JUMP JUMPDEST PUSH1 0x0 DUP2 CALLDATALOAD SWAP1 POP PUSH2 0x186D DUP2 PUSH2 0x1847 JUMP JUMPDEST SWAP3 SWAP2 POP POP JUMP JUMPDEST PUSH1 0x0 DUP1 PUSH1 0x40 DUP4 DUP6 SUB SLT ISZERO PUSH2 0x188A JUMPI PUSH2 0x1889 PUSH2 0x17D5 JUMP JUMPDEST JUMPDEST PUSH1 0x0 PUSH2 0x1898 DUP6 DUP3 DUP7 ADD PUSH2 0x1828 JUMP JUMPDEST SWAP3 POP POP PUSH1 0x20 PUSH2 0x18A9 DUP6 DUP3 DUP7 ADD PUSH2 0x185E JUMP JUMPDEST SWAP2 POP POP SWAP3 POP SWAP3 SWAP1 POP JUMP JUMPDEST PUSH2 0x18BC DUP2 PUSH2 0x183D JUMP JUMPDEST DUP3 MSTORE POP POP JUMP JUMPDEST PUSH1 0x0 PUSH1 0x20 DUP3 ADD SWAP1 POP PUSH2 0x18D7 PUSH1 0x0 DUP4 ADD DUP5 PUSH2 0x18B3 JUMP JUMPDEST SWAP3 SWAP2 POP POP JUMP JUMPDEST PUSH1 0x0 PUSH32 0xFFFFFFFF00000000000000000000000000000000000000000000000000000000 DUP3 AND SWAP1 POP SWAP2 SWAP1 POP JUMP JUMPDEST PUSH2 0x1912 DUP2 PUSH2 0x18DD JUMP JUMPDEST DUP2 EQ PUSH2 0x191D JUMPI PUSH1 0x0 DUP1 REVERT JUMPDEST POP JUMP JUMPDEST PUSH1 0x0 DUP2 CALLDATALOAD SWAP1 POP PUSH2 0x192F DUP2 PUSH2 0x1909 JUMP JUMPDEST SWAP3 SWAP2 POP POP JUMP JUMPDEST PUSH1 0x0 PUSH1 0x20 DUP3 DUP5 SUB SLT ISZERO PUSH2 0x194B JUMPI PUSH2 0x194A PUSH2 0x17D5 JUMP JUMPDEST JUMPDEST PUSH1 0x0 PUSH2 0x1959 DUP5 DUP3 DUP6 ADD PUSH2 0x1920 JUMP JUMPDEST SWAP2 POP POP SWAP3 SWAP2 POP POP JUMP JUMPDEST PUSH1 0x0 DUP2 ISZERO ISZERO SWAP1 POP SWAP2 SWAP1 POP JUMP JUMPDEST PUSH2 0x1977 DUP2 PUSH2 0x1962 JUMP JUMPDEST DUP3 MSTORE POP POP JUMP JUMPDEST PUSH1 0x0 PUSH1 0x20 DUP3 ADD SWAP1 POP PUSH2 0x1992 PUSH1 0x0 DUP4 ADD DUP5 PUSH2 0x196E JUMP JUMPDEST SWAP3 SWAP2 POP POP JUMP JUMPDEST PUSH1 0x0 PUSH1 0x20 DUP3 DUP5 SUB SLT ISZERO PUSH2 0x19AE JUMPI PUSH2 0x19AD PUSH2 0x17D5 JUMP JUMPDEST JUMPDEST PUSH1 0x0 PUSH2 0x19BC DUP5 DUP3 DUP6 ADD PUSH2 0x185E JUMP JUMPDEST SWAP2 POP POP SWAP3 SWAP2 POP POP JUMP JUMPDEST PUSH1 0x0 DUP2 MLOAD SWAP1 POP SWAP2 SWAP1 POP JUMP JUMPDEST PUSH1 0x0 DUP3 DUP3 MSTORE PUSH1 0x20 DUP3 ADD SWAP1 POP SWAP3 SWAP2 POP POP JUMP JUMPDEST PUSH1 0x0 JUMPDEST DUP4 DUP2 LT ISZERO PUSH2 0x19FF JUMPI DUP1 DUP3 ADD MLOAD DUP2 DUP5 ADD MSTORE PUSH1 0x20 DUP2 ADD SWAP1 POP PUSH2 0x19E4 JUMP JUMPDEST PUSH1 0x0 DUP5 DUP5 ADD MSTORE POP POP POP POP JUMP JUMPDEST PUSH1 0x0 PUSH1 0x1F NOT PUSH1 0x1F DUP4 ADD AND SWAP1 POP SWAP2 SWAP1 POP JUMP JUMPDEST PUSH1 0x0 PUSH2 0x1A27 DUP3 PUSH2 0x19C5 JUMP JUMPDEST PUSH2 0x1A31 DUP2 DUP6 PUSH2 0x19D0 JUMP JUMPDEST SWAP4 POP PUSH2 0x1A41 DUP2 DUP6 PUSH1 0x20 DUP7 ADD PUSH2 0x19E1 JUMP JUMPDEST PUSH2 0x1A4A DUP2 PUSH2 0x1A0B JUMP JUMPDEST DUP5 ADD SWAP2 POP POP SWAP3 SWAP2 POP POP JUMP JUMPDEST PUSH1 0x0 PUSH1 0x20 DUP3 ADD SWAP1 POP DUP2 DUP2 SUB PUSH1 0x0 DUP4 ADD MSTORE PUSH2 0x1A6F DUP2 DUP5 PUSH2 0x1A1C JUMP JUMPDEST SWAP1 POP SWAP3 SWAP2 POP POP JUMP JUMPDEST PUSH1 0x0 DUP1 PUSH1 0x40 DUP4 DUP6 SUB SLT ISZERO PUSH2 0x1A8E JUMPI PUSH2 0x1A8D PUSH2 0x17D5 JUMP JUMPDEST JUMPDEST PUSH1 0x0 PUSH2 0x1A9C DUP6 DUP3 DUP7 ADD PUSH2 0x185E JUMP JUMPDEST SWAP3 POP POP PUSH1 0x20 PUSH2 0x1AAD DUP6 DUP3 DUP7 ADD PUSH2 0x185E JUMP JUMPDEST SWAP2 POP POP SWAP3 POP SWAP3 SWAP1 POP JUMP JUMPDEST PUSH1 0x0 DUP1 REVERT JUMPDEST PUSH32 0x4E487B7100000000000000000000000000000000000000000000000000000000 PUSH1 0x0 MSTORE PUSH1 0x41 PUSH1 0x4 MSTORE PUSH1 0x24 PUSH1 0x0 REVERT JUMPDEST PUSH2 0x1AF4 DUP3 PUSH2 0x1A0B JUMP JUMPDEST DUP2 ADD DUP2 DUP2 LT PUSH8 0xFFFFFFFFFFFFFFFF DUP3 GT OR ISZERO PUSH2 0x1B13 JUMPI PUSH2 0x1B12 PUSH2 0x1ABC JUMP JUMPDEST JUMPDEST DUP1 PUSH1 0x40 MSTORE POP POP POP JUMP JUMPDEST PUSH1 0x0 PUSH2 0x1B26 PUSH2 0x17CB JUMP JUMPDEST SWAP1 POP PUSH2 0x1B32 DUP3 DUP3 PUSH2 0x1AEB JUMP JUMPDEST SWAP2 SWAP1 POP JUMP JUMPDEST PUSH1 0x0 PUSH8 0xFFFFFFFFFFFFFFFF DUP3 GT ISZERO PUSH2 0x1B52 JUMPI PUSH2 0x1B51 PUSH2 0x1ABC JUMP JUMPDEST JUMPDEST PUSH1 0x20 DUP3 MUL SWAP1 POP PUSH1 0x20 DUP2 ADD SWAP1 POP SWAP2 SWAP1 POP JUMP JUMPDEST PUSH1 0x0 DUP1 REVERT JUMPDEST PUSH1 0x0 PUSH2 0x1B7B PUSH2 0x1B76 DUP5 PUSH2 0x1B37 JUMP JUMPDEST PUSH2 0x1B1C JUMP JUMPDEST SWAP1 POP DUP1 DUP4 DUP3 MSTORE PUSH1 0x20 DUP3 ADD SWAP1 POP PUSH1 0x20 DUP5 MUL DUP4 ADD DUP6 DUP2 GT ISZERO PUSH2 0x1B9E JUMPI PUSH2 0x1B9D PUSH2 0x1B63 JUMP JUMPDEST JUMPDEST DUP4 JUMPDEST DUP2 DUP2 LT ISZERO PUSH2 0x1BC7 JUMPI DUP1 PUSH2 0x1BB3 DUP9 DUP3 PUSH2 0x185E JUMP JUMPDEST DUP5 MSTORE PUSH1 0x20 DUP5 ADD SWAP4 POP POP PUSH1 0x20 DUP2 ADD SWAP1 POP PUSH2 0x1BA0 JUMP JUMPDEST POP POP POP SWAP4 SWAP3 POP POP POP JUMP JUMPDEST PUSH1 0x0 DUP3 PUSH1 0x1F DUP4 ADD SLT PUSH2 0x1BE6 JUMPI PUSH2 0x1BE5 PUSH2 0x1AB7 JUMP JUMPDEST JUMPDEST DUP2 CALLDATALOAD PUSH2 0x1BF6 DUP5 DUP3 PUSH1 0x20 DUP7 ADD PUSH2 0x1B68 JUMP JUMPDEST SWAP2 POP POP SWAP3 SWAP2 POP POP JUMP JUMPDEST PUSH1 0x0 DUP1 REVERT JUMPDEST PUSH1 0x0 PUSH8 0xFFFFFFFFFFFFFFFF DUP3 GT ISZERO PUSH2 0x1C1F JUMPI PUSH2 0x1C1E PUSH2 0x1ABC JUMP JUMPDEST JUMPDEST PUSH2 0x1C28 DUP3 PUSH2 0x1A0B JUMP JUMPDEST SWAP1 POP PUSH1 0x20 DUP2 ADD SWAP1 POP SWAP2 SWAP1 POP JUMP JUMPDEST DUP3 DUP2 DUP4 CALLDATACOPY PUSH1 0x0 DUP4 DUP4 ADD MSTORE POP POP POP JUMP JUMPDEST PUSH1 0x0 PUSH2 0x1C57 PUSH2 0x1C52 DUP5 PUSH2 0x1C04 JUMP JUMPDEST PUSH2 0x1B1C JUMP JUMPDEST SWAP1 POP DUP3 DUP2 MSTORE PUSH1 0x20 DUP2 ADD DUP5 DUP5 DUP5 ADD GT ISZERO PUSH2 0x1C73 JUMPI PUSH2 0x1C72 PUSH2 0x1BFF JUMP JUMPDEST JUMPDEST PUSH2 0x1C7E DUP5 DUP3 DUP6 PUSH2 0x1C35 JUMP JUMPDEST POP SWAP4 SWAP3 POP POP POP JUMP JUMPDEST PUSH1 0x0 DUP3 PUSH1 0x1F DUP4 ADD SLT PUSH2 0x1C9B JUMPI PUSH2 0x1C9A PUSH2 0x1AB7 JUMP JUMPDEST JUMPDEST DUP2 CALLDATALOAD PUSH2 0x1CAB DUP5 DUP3 PUSH1 0x20 DUP7 ADD PUSH2 0x1C44 JUMP JUMPDEST SWAP2 POP POP SWAP3 SWAP2 POP POP JUMP JUMPDEST PUSH1 0x0 DUP1 PUSH1 0x0 DUP1 PUSH1 0x0 PUSH1 0xA0 DUP7 DUP9 SUB SLT ISZERO PUSH2 0x1CD0 JUMPI PUSH2 0x1CCF PUSH2 0x17D5 JUMP JUMPDEST JUMPDEST PUSH1 0x0 PUSH2 0x1CDE DUP9 DUP3 DUP10 ADD PUSH2 0x1828 JUMP JUMPDEST SWAP6 POP POP PUSH1 0x20 PUSH2 0x1CEF DUP9 DUP3 DUP10 ADD PUSH2 0x1828 JUMP JUMPDEST SWAP5 POP POP PUSH1 0x40 DUP7 ADD CALLDATALOAD PUSH8 0xFFFFFFFFFFFFFFFF DUP2 GT ISZERO PUSH2 0x1D10 JUMPI PUSH2 0x1D0F PUSH2 0x17DA JUMP JUMPDEST JUMPDEST PUSH2 0x1D1C DUP9 DUP3 DUP10 ADD PUSH2 0x1BD1 JUMP JUMPDEST SWAP4 POP POP PUSH1 0x60 DUP7 ADD CALLDATALOAD PUSH8 0xFFFFFFFFFFFFFFFF DUP2 GT ISZERO PUSH2 0x1D3D JUMPI PUSH2 0x1D3C PUSH2 0x17DA JUMP JUMPDEST JUMPDEST PUSH2 0x1D49 DUP9 DUP3 DUP10 ADD PUSH2 0x1BD1 JUMP JUMPDEST SWAP3 POP POP PUSH1 0x80 DUP7 ADD CALLDATALOAD PUSH8 0xFFFFFFFFFFFFFFFF DUP2 GT ISZERO PUSH2 0x1D6A JUMPI PUSH2 0x1D69 PUSH2 0x17DA JUMP JUMPDEST JUMPDEST PUSH2 0x1D76 DUP9 DUP3 DUP10 ADD PUSH2 0x1C86 JUMP JUMPDEST SWAP2 POP POP SWAP3 SWAP6 POP SWAP3 SWAP6 SWAP1 SWAP4 POP JUMP JUMPDEST PUSH1 0x0 PUSH8 0xFFFFFFFFFFFFFFFF DUP3 GT ISZERO PUSH2 0x1D9E JUMPI PUSH2 0x1D9D PUSH2 0x1ABC JUMP JUMPDEST JUMPDEST PUSH1 0x20 DUP3 MUL SWAP1 POP PUSH1 0x20 DUP2 ADD SWAP1 POP SWAP2 SWAP1 POP JUMP JUMPDEST PUSH1 0x0 PUSH2 0x1DC2 PUSH2 0x1DBD DUP5 PUSH2 0x1D83 JUMP JUMPDEST PUSH2 0x1B1C JUMP JUMPDEST SWAP1 POP DUP1 DUP4 DUP3 MSTORE PUSH1 0x20 DUP3 ADD SWAP1 POP PUSH1 0x20 DUP5 MUL DUP4 ADD DUP6 DUP2 GT ISZERO PUSH2 0x1DE5 JUMPI PUSH2 0x1DE4 PUSH2 0x1B63 JUMP JUMPDEST JUMPDEST DUP4 JUMPDEST DUP2 DUP2 LT ISZERO PUSH2 0x1E0E JUMPI DUP1 PUSH2 0x1DFA DUP9 DUP3 PUSH2 0x1828 JUMP JUMPDEST DUP5 MSTORE PUSH1 0x20 DUP5 ADD SWAP4 POP POP PUSH1 0x20 DUP2 ADD SWAP1 POP PUSH2 0x1DE7 JUMP JUMPDEST POP POP POP SWAP4 SWAP3 POP POP POP JUMP JUMPDEST PUSH1 0x0 DUP3 PUSH1 0x1F DUP4 ADD SLT PUSH2 0x1E2D JUMPI PUSH2 0x1E2C PUSH2 0x1AB7 JUMP JUMPDEST JUMPDEST DUP2 CALLDATALOAD PUSH2 0x1E3D DUP5 DUP3 PUSH1 0x20 DUP7 ADD PUSH2 0x1DAF JUMP JUMPDEST SWAP2 POP POP SWAP3 SWAP2 POP POP JUMP JUMPDEST PUSH1 0x0 DUP1 PUSH1 0x40 DUP4 DUP6 SUB SLT ISZERO PUSH2 0x1E5D JUMPI PUSH2 0x1E5C PUSH2 0x17D5 JUMP JUMPDEST JUMPDEST PUSH1 0x0 DUP4 ADD CALLDATALOAD PUSH8 0xFFFFFFFFFFFFFFFF DUP2 GT ISZERO PUSH2 0x1E7B JUMPI PUSH2 0x1E7A PUSH2 0x17DA JUMP JUMPDEST JUMPDEST PUSH2 0x1E87 DUP6 DUP3 DUP7 ADD PUSH2 0x1E18 JUMP JUMPDEST SWAP3 POP POP PUSH1 0x20 DUP4 ADD CALLDATALOAD PUSH8 0xFFFFFFFFFFFFFFFF DUP2 GT ISZERO PUSH2 0x1EA8 JUMPI PUSH2 0x1EA7 PUSH2 0x17DA JUMP JUMPDEST JUMPDEST PUSH2 0x1EB4 DUP6 DUP3 DUP7 ADD PUSH2 0x1BD1 JUMP JUMPDEST SWAP2 POP POP SWAP3 POP SWAP3 SWAP1 POP JUMP JUMPDEST PUSH1 0x0 DUP2 MLOAD SWAP1 POP SWAP2 SWAP1 POP JUMP JUMPDEST PUSH1 0x0 DUP3 DUP3 MSTORE PUSH1 0x20 DUP3 ADD SWAP1 POP SWAP3 SWAP2 POP POP JUMP JUMPDEST PUSH1 0x0 DUP2 SWAP1 POP PUSH1 0x20 DUP3 ADD SWAP1 POP SWAP2 SWAP1 POP JUMP JUMPDEST PUSH2 0x1EF3 DUP2 PUSH2 0x183D JUMP JUMPDEST DUP3 MSTORE POP POP JUMP JUMPDEST PUSH1 0x0 PUSH2 0x1F05 DUP4 DUP4 PUSH2 0x1EEA JUMP JUMPDEST PUSH1 0x20 DUP4 ADD SWAP1 POP SWAP3 SWAP2 POP POP JUMP JUMPDEST PUSH1 0x0 PUSH1 0x20 DUP3 ADD SWAP1 POP SWAP2 SWAP1 POP JUMP JUMPDEST PUSH1 0x0 PUSH2 0x1F29 DUP3 PUSH2 0x1EBE JUMP JUMPDEST PUSH2 0x1F33 DUP2 DUP6 PUSH2 0x1EC9 JUMP JUMPDEST SWAP4 POP PUSH2 0x1F3E DUP4 PUSH2 0x1EDA JUMP JUMPDEST DUP1 PUSH1 0x0 JUMPDEST DUP4 DUP2 LT ISZERO PUSH2 0x1F6F JUMPI DUP2 MLOAD PUSH2 0x1F56 DUP9 DUP3 PUSH2 0x1EF9 JUMP JUMPDEST SWAP8 POP PUSH2 0x1F61 DUP4 PUSH2 0x1F11 JUMP JUMPDEST SWAP3 POP POP PUSH1 0x1 DUP2 ADD SWAP1 POP PUSH2 0x1F42 JUMP JUMPDEST POP DUP6 SWAP4 POP POP POP POP SWAP3 SWAP2 POP POP JUMP JUMPDEST PUSH1 0x0 PUSH1 0x20 DUP3 ADD SWAP1 POP DUP2 DUP2 SUB PUSH1 0x0 DUP4 ADD MSTORE PUSH2 0x1F96 DUP2 DUP5 PUSH2 0x1F1E JUMP JUMPDEST SWAP1 POP SWAP3 SWAP2 POP POP JUMP JUMPDEST PUSH1 0x0 PUSH8 0xFFFFFFFFFFFFFFFF DUP3 GT ISZERO PUSH2 0x1FB9 JUMPI PUSH2 0x1FB8 PUSH2 0x1ABC JUMP JUMPDEST JUMPDEST PUSH2 0x1FC2 DUP3 PUSH2 0x1A0B JUMP JUMPDEST SWAP1 POP PUSH1 0x20 DUP2 ADD SWAP1 POP SWAP2 SWAP1 POP JUMP JUMPDEST PUSH1 0x0 PUSH2 0x1FE2 PUSH2 0x1FDD DUP5 PUSH2 0x1F9E JUMP JUMPDEST PUSH2 0x1B1C JUMP JUMPDEST SWAP1 POP DUP3 DUP2 MSTORE PUSH1 0x20 DUP2 ADD DUP5 DUP5 DUP5 ADD GT ISZERO PUSH2 0x1FFE JUMPI PUSH2 0x1FFD PUSH2 0x1BFF JUMP JUMPDEST JUMPDEST PUSH2 0x2009 DUP5 DUP3 DUP6 PUSH2 0x1C35 JUMP JUMPDEST POP SWAP4 SWAP3 POP POP POP JUMP JUMPDEST PUSH1 0x0 DUP3 PUSH1 0x1F DUP4 ADD SLT PUSH2 0x2026 JUMPI PUSH2 0x2025 PUSH2 0x1AB7 JUMP JUMPDEST JUMPDEST DUP2 CALLDATALOAD PUSH2 0x2036 DUP5 DUP3 PUSH1 0x20 DUP7 ADD PUSH2 0x1FCF JUMP JUMPDEST SWAP2 POP POP SWAP3 SWAP2 POP POP JUMP JUMPDEST PUSH1 0x0 PUSH1 0x20 DUP3 DUP5 SUB SLT ISZERO PUSH2 0x2055 JUMPI PUSH2 0x2054 PUSH2 0x17D5 JUMP JUMPDEST JUMPDEST PUSH1 0x0 DUP3 ADD CALLDATALOAD PUSH8 0xFFFFFFFFFFFFFFFF DUP2 GT ISZERO PUSH2 0x2073 JUMPI PUSH2 0x2072 PUSH2 0x17DA JUMP JUMPDEST JUMPDEST PUSH2 0x207F DUP5 DUP3 DUP6 ADD PUSH2 0x2011 JUMP JUMPDEST SWAP2 POP POP SWAP3 SWAP2 POP POP JUMP JUMPDEST PUSH2 0x2091 DUP2 PUSH2 0x1962 JUMP JUMPDEST DUP2 EQ PUSH2 0x209C JUMPI PUSH1 0x0 DUP1 REVERT JUMPDEST POP JUMP JUMPDEST PUSH1 0x0 DUP2 CALLDATALOAD SWAP1 POP PUSH2 0x20AE DUP2 PUSH2 0x2088 JUMP JUMPDEST SWAP3 SWAP2 POP POP JUMP JUMPDEST PUSH1 0x0 DUP1 PUSH1 0x40 DUP4 DUP6 SUB SLT ISZERO PUSH2 0x20CB JUMPI PUSH2 0x20CA PUSH2 0x17D5 JUMP JUMPDEST JUMPDEST PUSH1 0x0 PUSH2 0x20D9 DUP6 DUP3 DUP7 ADD PUSH2 0x1828 JUMP JUMPDEST SWAP3 POP POP PUSH1 0x20 PUSH2 0x20EA DUP6 DUP3 DUP7 ADD PUSH2 0x209F JUMP JUMPDEST SWAP2 POP POP SWAP3 POP SWAP3 SWAP1 POP JUMP JUMPDEST PUSH1 0x0 DUP1 PUSH1 0x40 DUP4 DUP6 SUB SLT ISZERO PUSH2 0x210B JUMPI PUSH2 0x210A PUSH2 0x17D5 JUMP JUMPDEST JUMPDEST PUSH1 0x0 PUSH2 0x2119 DUP6 DUP3 DUP7 ADD PUSH2 0x1828 JUMP JUMPDEST SWAP3 POP POP PUSH1 0x20 PUSH2 0x212A DUP6 DUP3 DUP7 ADD PUSH2 0x1828 JUMP JUMPDEST SWAP2 POP POP SWAP3 POP SWAP3 SWAP1 POP JUMP JUMPDEST PUSH1 0x0 DUP1 PUSH1 0x0 DUP1 PUSH1 0x0 PUSH1 0xA0 DUP7 DUP9 SUB SLT ISZERO PUSH2 0x2150 JUMPI PUSH2 0x214F PUSH2 0x17D5 JUMP JUMPDEST JUMPDEST PUSH1 0x0 PUSH2 0x215E DUP9 DUP3 DUP10 ADD PUSH2 0x1828 JUMP JUMPDEST SWAP6 POP POP PUSH1 0x20 PUSH2 0x216F DUP9 DUP3 DUP10 ADD PUSH2 0x1828 JUMP JUMPDEST SWAP5 POP POP PUSH1 0x40 PUSH2 0x2180 DUP9 DUP3 DUP10 ADD PUSH2 0x185E JUMP JUMPDEST SWAP4 POP POP PUSH1 0x60 PUSH2 0x2191 DUP9 DUP3 DUP10 ADD PUSH2 0x185E JUMP JUMPDEST SWAP3 POP POP PUSH1 0x80 DUP7 ADD CALLDATALOAD PUSH8 0xFFFFFFFFFFFFFFFF DUP2 GT ISZERO PUSH2 0x21B2 JUMPI PUSH2 0x21B1 PUSH2 0x17DA JUMP JUMPDEST JUMPDEST PUSH2 0x21BE DUP9 DUP3 DUP10 ADD PUSH2 0x1C86 JUMP JUMPDEST SWAP2 POP POP SWAP3 SWAP6 POP SWAP3 SWAP6 SWAP1 SWAP4 POP JUMP JUMPDEST PUSH32 0x455243313135353A2061646472657373207A65726F206973206E6F7420612076 PUSH1 0x0 DUP3 ADD MSTORE PUSH32 0x616C6964206F776E657200000000000000000000000000000000000000000000 PUSH1 0x20 DUP3 ADD MSTORE POP JUMP JUMPDEST PUSH1 0x0 PUSH2 0x2227 PUSH1 0x2A DUP4 PUSH2 0x19D0 JUMP JUMPDEST SWAP2 POP PUSH2 0x2232 DUP3 PUSH2 0x21CB JUMP JUMPDEST PUSH1 0x40 DUP3 ADD SWAP1 POP SWAP2 SWAP1 POP JUMP JUMPDEST PUSH1 0x0 PUSH1 0x20 DUP3 ADD SWAP1 POP DUP2 DUP2 SUB PUSH1 0x0 DUP4 ADD MSTORE PUSH2 0x2256 DUP2 PUSH2 0x221A JUMP JUMPDEST SWAP1 POP SWAP2 SWAP1 POP JUMP JUMPDEST PUSH32 0x4E487B7100000000000000000000000000000000000000000000000000000000 PUSH1 0x0 MSTORE PUSH1 0x22 PUSH1 0x4 MSTORE PUSH1 0x24 PUSH1 0x0 REVERT JUMPDEST PUSH1 0x0 PUSH1 0x2 DUP3 DIV SWAP1 POP PUSH1 0x1 DUP3 AND DUP1 PUSH2 0x22A4 JUMPI PUSH1 0x7F DUP3 AND SWAP2 POP JUMPDEST PUSH1 0x20 DUP3 LT DUP2 SUB PUSH2 0x22B7 JUMPI PUSH2 0x22B6 PUSH2 0x225D JUMP JUMPDEST JUMPDEST POP SWAP2 SWAP1 POP JUMP JUMPDEST PUSH32 0x4E487B7100000000000000000000000000000000000000000000000000000000 PUSH1 0x0 MSTORE PUSH1 0x32 PUSH1 0x4 MSTORE PUSH1 0x24 PUSH1 0x0 REVERT JUMPDEST PUSH32 0x4E487B7100000000000000000000000000000000000000000000000000000000 PUSH1 0x0 MSTORE PUSH1 0x11 PUSH1 0x4 MSTORE PUSH1 0x24 PUSH1 0x0 REVERT JUMPDEST PUSH1 0x0 PUSH2 0x2326 DUP3 PUSH2 0x183D JUMP JUMPDEST SWAP2 POP PUSH2 0x2331 DUP4 PUSH2 0x183D JUMP JUMPDEST SWAP3 POP DUP3 DUP3 MUL PUSH2 0x233F DUP2 PUSH2 0x183D JUMP JUMPDEST SWAP2 POP DUP3 DUP3 DIV DUP5 EQ DUP4 ISZERO OR PUSH2 0x2356 JUMPI PUSH2 0x2355 PUSH2 0x22EC JUMP JUMPDEST JUMPDEST POP SWAP3 SWAP2 POP POP JUMP JUMPDEST PUSH32 0x496E636F727265637420416D6F756E74206F6620455448000000000000000000 PUSH1 0x0 DUP3 ADD MSTORE POP JUMP JUMPDEST PUSH1 0x0 PUSH2 0x2393 PUSH1 0x17 DUP4 PUSH2 0x19D0 JUMP JUMPDEST SWAP2 POP PUSH2 0x239E DUP3 PUSH2 0x235D JUMP JUMPDEST PUSH1 0x20 DUP3 ADD SWAP1 POP SWAP2 SWAP1 POP JUMP JUMPDEST PUSH1 0x0 PUSH1 0x20 DUP3 ADD SWAP1 POP DUP2 DUP2 SUB PUSH1 0x0 DUP4 ADD MSTORE PUSH2 0x23C2 DUP2 PUSH2 0x2386 JUMP JUMPDEST SWAP1 POP SWAP2 SWAP1 POP JUMP JUMPDEST PUSH32 0x496E73756666696369656E74207469636B6574732072656D61696E696E670000 PUSH1 0x0 DUP3 ADD MSTORE POP JUMP JUMPDEST PUSH1 0x0 PUSH2 0x23FF PUSH1 0x1E DUP4 PUSH2 0x19D0 JUMP JUMPDEST SWAP2 POP PUSH2 0x240A DUP3 PUSH2 0x23C9 JUMP JUMPDEST PUSH1 0x20 DUP3 ADD SWAP1 POP SWAP2 SWAP1 POP JUMP JUMPDEST PUSH1 0x0 PUSH1 0x20 DUP3 ADD SWAP1 POP DUP2 DUP2 SUB PUSH1 0x0 DUP4 ADD MSTORE PUSH2 0x242E DUP2 PUSH2 0x23F2 JUMP JUMPDEST SWAP1 POP SWAP2 SWAP1 POP JUMP JUMPDEST PUSH1 0x0 PUSH2 0x2440 DUP3 PUSH2 0x183D JUMP JUMPDEST SWAP2 POP PUSH2 0x244B DUP4 PUSH2 0x183D JUMP JUMPDEST SWAP3 POP DUP3 DUP3 SUB SWAP1 POP DUP2 DUP2 GT ISZERO PUSH2 0x2463 JUMPI PUSH2 0x2462 PUSH2 0x22EC JUMP JUMPDEST JUMPDEST SWAP3 SWAP2 POP POP JUMP JUMPDEST PUSH32 0x455243313135353A2063616C6C6572206973206E6F7420746F6B656E206F776E PUSH1 0x0 DUP3 ADD MSTORE PUSH32 0x6572206F7220617070726F766564000000000000000000000000000000000000 PUSH1 0x20 DUP3 ADD MSTORE POP JUMP JUMPDEST PUSH1 0x0 PUSH2 0x24C5 PUSH1 0x2E DUP4 PUSH2 0x19D0 JUMP JUMPDEST SWAP2 POP PUSH2 0x24D0 DUP3 PUSH2 0x2469 JUMP JUMPDEST PUSH1 0x40 DUP3 ADD SWAP1 POP SWAP2 SWAP1 POP JUMP JUMPDEST PUSH1 0x0 PUSH1 0x20 DUP3 ADD SWAP1 POP DUP2 DUP2 SUB PUSH1 0x0 DUP4 ADD MSTORE PUSH2 0x24F4 DUP2 PUSH2 0x24B8 JUMP JUMPDEST SWAP1 POP SWAP2 SWAP1 POP JUMP JUMPDEST PUSH32 0x455243313135353A206163636F756E747320616E6420696473206C656E677468 PUSH1 0x0 DUP3 ADD MSTORE PUSH32 0x206D69736D617463680000000000000000000000000000000000000000000000 PUSH1 0x20 DUP3 ADD MSTORE POP JUMP JUMPDEST PUSH1 0x0 PUSH2 0x2557 PUSH1 0x29 DUP4 PUSH2 0x19D0 JUMP JUMPDEST SWAP2 POP PUSH2 0x2562 DUP3 PUSH2 0x24FB JUMP JUMPDEST PUSH1 0x40 DUP3 ADD SWAP1 POP SWAP2 SWAP1 POP JUMP JUMPDEST PUSH1 0x0 PUSH1 0x20 DUP3 ADD SWAP1 POP DUP2 DUP2 SUB PUSH1 0x0 DUP4 ADD MSTORE PUSH2 0x2586 DUP2 PUSH2 0x254A JUMP JUMPDEST SWAP1 POP SWAP2 SWAP1 POP JUMP JUMPDEST PUSH1 0x0 PUSH2 0x2598 DUP3 PUSH2 0x183D JUMP JUMPDEST SWAP2 POP PUSH32 0xFFFFFFFFFFFFFFFFFFFFFFFFFFFFFFFFFFFFFFFFFFFFFFFFFFFFFFFFFFFFFFFF DUP3 SUB PUSH2 0x25CA JUMPI PUSH2 0x25C9 PUSH2 0x22EC JUMP JUMPDEST JUMPDEST PUSH1 0x1 DUP3 ADD SWAP1 POP SWAP2 SWAP1 POP JUMP JUMPDEST PUSH32 0x455243313135353A206D696E7420746F20746865207A65726F20616464726573 PUSH1 0x0 DUP3 ADD MSTORE PUSH32 0x7300000000000000000000000000000000000000000000000000000000000000 PUSH1 0x20 DUP3 ADD MSTORE POP JUMP JUMPDEST PUSH1 0x0 PUSH2 0x2631 PUSH1 0x21 DUP4 PUSH2 0x19D0 JUMP JUMPDEST SWAP2 POP PUSH2 0x263C DUP3 PUSH2 0x25D5 JUMP JUMPDEST PUSH1 0x40 DUP3 ADD SWAP1 POP SWAP2 SWAP1 POP JUMP JUMPDEST PUSH1 0x0 PUSH1 0x20 DUP3 ADD SWAP1 POP DUP2 DUP2 SUB PUSH1 0x0 DUP4 ADD MSTORE PUSH2 0x2660 DUP2 PUSH2 0x2624 JUMP JUMPDEST SWAP1 POP SWAP2 SWAP1 POP JUMP JUMPDEST PUSH1 0x0 PUSH2 0x2672 DUP3 PUSH2 0x183D JUMP JUMPDEST SWAP2 POP PUSH2 0x267D DUP4 PUSH2 0x183D JUMP JUMPDEST SWAP3 POP DUP3 DUP3 ADD SWAP1 POP DUP1 DUP3 GT ISZERO PUSH2 0x2695 JUMPI PUSH2 0x2694 PUSH2 0x22EC JUMP JUMPDEST JUMPDEST SWAP3 SWAP2 POP POP JUMP JUMPDEST PUSH1 0x0 PUSH1 0x40 DUP3 ADD SWAP1 POP PUSH2 0x26B0 PUSH1 0x0 DUP4 ADD DUP6 PUSH2 0x18B3 JUMP JUMPDEST PUSH2 0x26BD PUSH1 0x20 DUP4 ADD DUP5 PUSH2 0x18B3 JUMP JUMPDEST SWAP4 SWAP3 POP POP POP JUMP JUMPDEST PUSH32 0x455243313135353A2069647320616E6420616D6F756E7473206C656E67746820 PUSH1 0x0 DUP3 ADD MSTORE PUSH32 0x6D69736D61746368000000000000000000000000000000000000000000000000 PUSH1 0x20 DUP3 ADD MSTORE POP JUMP JUMPDEST PUSH1 0x0 PUSH2 0x2720 PUSH1 0x28 DUP4 PUSH2 0x19D0 JUMP JUMPDEST SWAP2 POP PUSH2 0x272B DUP3 PUSH2 0x26C4 JUMP JUMPDEST PUSH1 0x40 DUP3 ADD SWAP1 POP SWAP2 SWAP1 POP JUMP JUMPDEST PUSH1 0x0 PUSH1 0x20 DUP3 ADD SWAP1 POP DUP2 DUP2 SUB PUSH1 0x0 DUP4 ADD MSTORE PUSH2 0x274F DUP2 PUSH2 0x2713 JUMP JUMPDEST SWAP1 POP SWAP2 SWAP1 POP JUMP JUMPDEST PUSH32 0x455243313135353A207472616E7366657220746F20746865207A65726F206164 PUSH1 0x0 DUP3 ADD MSTORE PUSH32 0x6472657373000000000000000000000000000000000000000000000000000000 PUSH1 0x20 DUP3 ADD MSTORE POP JUMP JUMPDEST PUSH1 0x0 PUSH2 0x27B2 PUSH1 0x25 DUP4 PUSH2 0x19D0 JUMP JUMPDEST SWAP2 POP PUSH2 0x27BD DUP3 PUSH2 0x2756 JUMP JUMPDEST PUSH1 0x40 DUP3 ADD SWAP1 POP SWAP2 SWAP1 POP JUMP JUMPDEST PUSH1 0x0 PUSH1 0x20 DUP3 ADD SWAP1 POP DUP2 DUP2 SUB PUSH1 0x0 DUP4 ADD MSTORE PUSH2 0x27E1 DUP2 PUSH2 0x27A5 JUMP JUMPDEST SWAP1 POP SWAP2 SWAP1 POP JUMP JUMPDEST PUSH32 0x455243313135353A20696E73756666696369656E742062616C616E636520666F PUSH1 0x0 DUP3 ADD MSTORE PUSH32 0x72207472616E7366657200000000000000000000000000000000000000000000 PUSH1 0x20 DUP3 ADD MSTORE POP JUMP JUMPDEST PUSH1 0x0 PUSH2 0x2844 PUSH1 0x2A DUP4 PUSH2 0x19D0 JUMP JUMPDEST SWAP2 POP PUSH2 0x284F DUP3 PUSH2 0x27E8 JUMP JUMPDEST PUSH1 0x40 DUP3 ADD SWAP1 POP SWAP2 SWAP1 POP JUMP JUMPDEST PUSH1 0x0 PUSH1 0x20 DUP3 ADD SWAP1 POP DUP2 DUP2 SUB PUSH1 0x0 DUP4 ADD MSTORE PUSH2 0x2873 DUP2 PUSH2 0x2837 JUMP JUMPDEST SWAP1 POP SWAP2 SWAP1 POP JUMP JUMPDEST PUSH1 0x0 PUSH1 0x40 DUP3 ADD SWAP1 POP DUP2 DUP2 SUB PUSH1 0x0 DUP4 ADD MSTORE PUSH2 0x2894 DUP2 DUP6 PUSH2 0x1F1E JUMP JUMPDEST SWAP1 POP DUP2 DUP2 SUB PUSH1 0x20 DUP4 ADD MSTORE PUSH2 0x28A8 DUP2 DUP5 PUSH2 0x1F1E JUMP JUMPDEST SWAP1 POP SWAP4 SWAP3 POP POP POP JUMP JUMPDEST PUSH1 0x0 DUP2 SWAP1 POP DUP2 PUSH1 0x0 MSTORE PUSH1 0x20 PUSH1 0x0 KECCAK256 SWAP1 POP SWAP2 SWAP1 POP JUMP JUMPDEST PUSH1 0x0 PUSH1 0x20 PUSH1 0x1F DUP4 ADD DIV SWAP1 POP SWAP2 SWAP1 POP JUMP JUMPDEST PUSH1 0x0 DUP3 DUP3 SHL SWAP1 POP SWAP3 SWAP2 POP POP JUMP JUMPDEST PUSH1 0x0 PUSH1 0x8 DUP4 MUL PUSH2 0x2913 PUSH32 0xFFFFFFFFFFFFFFFFFFFFFFFFFFFFFFFFFFFFFFFFFFFFFFFFFFFFFFFFFFFFFFFF DUP3 PUSH2 0x28D6 JUMP JUMPDEST PUSH2 0x291D DUP7 DUP4 PUSH2 0x28D6 JUMP JUMPDEST SWAP6 POP DUP1 NOT DUP5 AND SWAP4 POP DUP1 DUP7 AND DUP5 OR SWAP3 POP POP POP SWAP4 SWAP3 POP POP POP JUMP JUMPDEST PUSH1 0x0 DUP2 SWAP1 POP SWAP2 SWAP1 POP JUMP JUMPDEST PUSH1 0x0 PUSH2 0x295A PUSH2 0x2955 PUSH2 0x2950 DUP5 PUSH2 0x183D JUMP JUMPDEST PUSH2 0x2935 JUMP JUMPDEST PUSH2 0x183D JUMP JUMPDEST SWAP1 POP SWAP2 SWAP1 POP JUMP JUMPDEST PUSH1 0x0 DUP2 SWAP1 POP SWAP2 SWAP1 POP JUMP JUMPDEST PUSH2 0x2974 DUP4 PUSH2 0x293F JUMP JUMPDEST PUSH2 0x2988 PUSH2 0x2980 DUP3 PUSH2 0x2961 JUMP JUMPDEST DUP5 DUP5 SLOAD PUSH2 0x28E3 JUMP JUMPDEST DUP3 SSTORE POP POP POP POP JUMP JUMPDEST PUSH1 0x0 SWAP1 JUMP JUMPDEST PUSH2 0x299D PUSH2 0x2990 JUMP JUMPDEST PUSH2 0x29A8 DUP2 DUP5 DUP5 PUSH2 0x296B JUMP JUMPDEST POP POP POP JUMP JUMPDEST JUMPDEST DUP2 DUP2 LT ISZERO PUSH2 0x29CC JUMPI PUSH2 0x29C1 PUSH1 0x0 DUP3 PUSH2 0x2995 JUMP JUMPDEST PUSH1 0x1 DUP2 ADD SWAP1 POP PUSH2 0x29AE JUMP JUMPDEST POP POP JUMP JUMPDEST PUSH1 0x1F DUP3 GT ISZERO PUSH2 0x2A11 JUMPI PUSH2 0x29E2 DUP2 PUSH2 0x28B1 JUMP JUMPDEST PUSH2 0x29EB DUP5 PUSH2 0x28C6 JUMP JUMPDEST DUP2 ADD PUSH1 0x20 DUP6 LT ISZERO PUSH2 0x29FA JUMPI DUP2 SWAP1 POP JUMPDEST PUSH2 0x2A0E PUSH2 0x2A06 DUP6 PUSH2 0x28C6 JUMP JUMPDEST DUP4 ADD DUP3 PUSH2 0x29AD JUMP JUMPDEST POP POP JUMPDEST POP POP POP JUMP JUMPDEST PUSH1 0x0 DUP3 DUP3 SHR SWAP1 POP SWAP3 SWAP2 POP POP JUMP JUMPDEST PUSH1 0x0 PUSH2 0x2A34 PUSH1 0x0 NOT DUP5 PUSH1 0x8 MUL PUSH2 0x2A16 JUMP JUMPDEST NOT DUP1 DUP4 AND SWAP2 POP POP SWAP3 SWAP2 POP POP JUMP JUMPDEST PUSH1 0x0 PUSH2 0x2A4D DUP4 DUP4 PUSH2 0x2A23 JUMP JUMPDEST SWAP2 POP DUP3 PUSH1 0x2 MUL DUP3 OR SWAP1 POP SWAP3 SWAP2 POP POP JUMP JUMPDEST PUSH2 0x2A66 DUP3 PUSH2 0x19C5 JUMP JUMPDEST PUSH8 0xFFFFFFFFFFFFFFFF DUP2 GT ISZERO PUSH2 0x2A7F JUMPI PUSH2 0x2A7E PUSH2 0x1ABC JUMP JUMPDEST JUMPDEST PUSH2 0x2A89 DUP3 SLOAD PUSH2 0x228C JUMP JUMPDEST PUSH2 0x2A94 DUP3 DUP3 DUP6 PUSH2 0x29D0 JUMP JUMPDEST PUSH1 0x0 PUSH1 0x20 SWAP1 POP PUSH1 0x1F DUP4 GT PUSH1 0x1 DUP2 EQ PUSH2 0x2AC7 JUMPI PUSH1 0x0 DUP5 ISZERO PUSH2 0x2AB5 JUMPI DUP3 DUP8 ADD MLOAD SWAP1 POP JUMPDEST PUSH2 0x2ABF DUP6 DUP3 PUSH2 0x2A41 JUMP JUMPDEST DUP7 SSTORE POP PUSH2 0x2B27 JUMP JUMPDEST PUSH1 0x1F NOT DUP5 AND PUSH2 0x2AD5 DUP7 PUSH2 0x28B1 JUMP JUMPDEST PUSH1 0x0 JUMPDEST DUP3 DUP2 LT ISZERO PUSH2 0x2AFD JUMPI DUP5 DUP10 ADD MLOAD DUP3 SSTORE PUSH1 0x1 DUP3 ADD SWAP2 POP PUSH1 0x20 DUP6 ADD SWAP5 POP PUSH1 0x20 DUP2 ADD SWAP1 POP PUSH2 0x2AD8 JUMP JUMPDEST DUP7 DUP4 LT ISZERO PUSH2 0x2B1A JUMPI DUP5 DUP10 ADD MLOAD PUSH2 0x2B16 PUSH1 0x1F DUP10 AND DUP3 PUSH2 0x2A23 JUMP JUMPDEST DUP4 SSTORE POP JUMPDEST PUSH1 0x1 PUSH1 0x2 DUP9 MUL ADD DUP9 SSTORE POP POP POP JUMPDEST POP POP POP POP POP POP JUMP JUMPDEST PUSH32 0x455243313135353A2073657474696E6720617070726F76616C20737461747573 PUSH1 0x0 DUP3 ADD MSTORE PUSH32 0x20666F722073656C660000000000000000000000000000000000000000000000 PUSH1 0x20 DUP3 ADD MSTORE POP JUMP JUMPDEST PUSH1 0x0 PUSH2 0x2B8B PUSH1 0x29 DUP4 PUSH2 0x19D0 JUMP JUMPDEST SWAP2 POP PUSH2 0x2B96 DUP3 PUSH2 0x2B2F JUMP JUMPDEST PUSH1 0x40 DUP3 ADD SWAP1 POP SWAP2 SWAP1 POP JUMP JUMPDEST PUSH1 0x0 PUSH1 0x20 DUP3 ADD SWAP1 POP DUP2 DUP2 SUB PUSH1 0x0 DUP4 ADD MSTORE PUSH2 0x2BBA DUP2 PUSH2 0x2B7E JUMP JUMPDEST SWAP1 POP SWAP2 SWAP1 POP JUMP JUMPDEST PUSH2 0x2BCA DUP2 PUSH2 0x17FF JUMP JUMPDEST DUP3 MSTORE POP POP JUMP JUMPDEST PUSH1 0x0 DUP2 MLOAD SWAP1 POP SWAP2 SWAP1 POP JUMP JUMPDEST PUSH1 0x0 DUP3 DUP3 MSTORE PUSH1 0x20 DUP3 ADD SWAP1 POP SWAP3 SWAP2 POP POP JUMP JUMPDEST PUSH1 0x0 PUSH2 0x2BF7 DUP3 PUSH2 0x2BD0 JUMP JUMPDEST PUSH2 0x2C01 DUP2 DUP6 PUSH2 0x2BDB JUMP JUMPDEST SWAP4 POP PUSH2 0x2C11 DUP2 DUP6 PUSH1 0x20 DUP7 ADD PUSH2 0x19E1 JUMP JUMPDEST PUSH2 0x2C1A DUP2 PUSH2 0x1A0B JUMP JUMPDEST DUP5 ADD SWAP2 POP POP SWAP3 SWAP2 POP POP JUMP JUMPDEST PUSH1 0x0 PUSH1 0xA0 DUP3 ADD SWAP1 POP PUSH2 0x2C3A PUSH1 0x0 DUP4 ADD DUP9 PUSH2 0x2BC1 JUMP JUMPDEST PUSH2 0x2C47 PUSH1 0x20 DUP4 ADD DUP8 PUSH2 0x2BC1 JUMP JUMPDEST PUSH2 0x2C54 PUSH1 0x40 DUP4 ADD DUP7 PUSH2 0x18B3 JUMP JUMPDEST PUSH2 0x2C61 PUSH1 0x60 DUP4 ADD DUP6 PUSH2 0x18B3 JUMP JUMPDEST DUP2 DUP2 SUB PUSH1 0x80 DUP4 ADD MSTORE PUSH2 0x2C73 DUP2 DUP5 PUSH2 0x2BEC JUMP JUMPDEST SWAP1 POP SWAP7 SWAP6 POP POP POP POP POP POP JUMP JUMPDEST PUSH1 0x0 DUP2 MLOAD SWAP1 POP PUSH2 0x2C8E DUP2 PUSH2 0x1909 JUMP JUMPDEST SWAP3 SWAP2 POP POP JUMP JUMPDEST PUSH1 0x0 PUSH1 0x20 DUP3 DUP5 SUB SLT ISZERO PUSH2 0x2CAA JUMPI PUSH2 0x2CA9 PUSH2 0x17D5 JUMP JUMPDEST JUMPDEST PUSH1 0x0 PUSH2 0x2CB8 DUP5 DUP3 DUP6 ADD PUSH2 0x2C7F JUMP JUMPDEST SWAP2 POP POP SWAP3 SWAP2 POP POP JUMP JUMPDEST PUSH1 0x0 DUP2 PUSH1 0xE0 SHR SWAP1 POP SWAP2 SWAP1 POP JUMP JUMPDEST PUSH1 0x0 PUSH1 0x3 RETURNDATASIZE GT ISZERO PUSH2 0x2CED JUMPI PUSH1 0x4 PUSH1 0x0 DUP1 RETURNDATACOPY PUSH2 0x2CEA PUSH1 0x0 MLOAD PUSH2 0x2CC1 JUMP JUMPDEST SWAP1 POP JUMPDEST SWAP1 JUMP JUMPDEST PUSH1 0x0 PUSH1 0x44 RETURNDATASIZE LT PUSH2 0x2D7D JUMPI PUSH2 0x2D02 PUSH2 0x17CB JUMP JUMPDEST PUSH1 0x4 RETURNDATASIZE SUB PUSH1 0x4 DUP3 RETURNDATACOPY DUP1 MLOAD RETURNDATASIZE PUSH1 0x24 DUP3 ADD GT PUSH8 0xFFFFFFFFFFFFFFFF DUP3 GT OR ISZERO PUSH2 0x2D2A JUMPI POP POP PUSH2 0x2D7D JUMP JUMPDEST DUP1 DUP3 ADD DUP1 MLOAD PUSH8 0xFFFFFFFFFFFFFFFF DUP2 GT ISZERO PUSH2 0x2D48 JUMPI POP POP POP POP PUSH2 0x2D7D JUMP JUMPDEST DUP1 PUSH1 0x20 DUP4 ADD ADD PUSH1 0x4 RETURNDATASIZE SUB DUP6 ADD DUP2 GT ISZERO PUSH2 0x2D65 JUMPI POP POP POP POP POP PUSH2 0x2D7D JUMP JUMPDEST PUSH2 0x2D74 DUP3 PUSH1 0x20 ADD DUP6 ADD DUP7 PUSH2 0x1AEB JUMP JUMPDEST DUP3 SWAP6 POP POP POP POP POP POP JUMPDEST SWAP1 JUMP JUMPDEST PUSH32 0x455243313135353A207472616E7366657220746F206E6F6E2D45524331313535 PUSH1 0x0 DUP3 ADD MSTORE PUSH32 0x526563656976657220696D706C656D656E746572000000000000000000000000 PUSH1 0x20 DUP3 ADD MSTORE POP JUMP JUMPDEST PUSH1 0x0 PUSH2 0x2DDC PUSH1 0x34 DUP4 PUSH2 0x19D0 JUMP JUMPDEST SWAP2 POP PUSH2 0x2DE7 DUP3 PUSH2 0x2D80 JUMP JUMPDEST PUSH1 0x40 DUP3 ADD SWAP1 POP SWAP2 SWAP1 POP JUMP JUMPDEST PUSH1 0x0 PUSH1 0x20 DUP3 ADD SWAP1 POP DUP2 DUP2 SUB PUSH1 0x0 DUP4 ADD MSTORE PUSH2 0x2E0B DUP2 PUSH2 0x2DCF JUMP JUMPDEST SWAP1 POP SWAP2 SWAP1 POP JUMP JUMPDEST PUSH32 0x455243313135353A204552433131353552656365697665722072656A65637465 PUSH1 0x0 DUP3 ADD MSTORE PUSH32 0x6420746F6B656E73000000000000000000000000000000000000000000000000 PUSH1 0x20 DUP3 ADD MSTORE POP JUMP JUMPDEST PUSH1 0x0 PUSH2 0x2E6E PUSH1 0x28 DUP4 PUSH2 0x19D0 JUMP JUMPDEST SWAP2 POP PUSH2 0x2E79 DUP3 PUSH2 0x2E12 JUMP JUMPDEST PUSH1 0x40 DUP3 ADD SWAP1 POP SWAP2 SWAP1 POP JUMP JUMPDEST PUSH1 0x0 PUSH1 0x20 DUP3 ADD SWAP1 POP DUP2 DUP2 SUB PUSH1 0x0 DUP4 ADD MSTORE PUSH2 0x2E9D DUP2 PUSH2 0x2E61 JUMP JUMPDEST SWAP1 POP SWAP2 SWAP1 POP JUMP JUMPDEST PUSH1 0x0 PUSH1 0xA0 DUP3 ADD SWAP1 POP PUSH2 0x2EB9 PUSH1 0x0 DUP4 ADD DUP9 PUSH2 0x2BC1 JUMP JUMPDEST PUSH2 0x2EC6 PUSH1 0x20 DUP4 ADD DUP8 PUSH2 0x2BC1 JUMP JUMPDEST DUP2 DUP2 SUB PUSH1 0x40 DUP4 ADD MSTORE PUSH2 0x2ED8 DUP2 DUP7 PUSH2 0x1F1E JUMP JUMPDEST SWAP1 POP DUP2 DUP2 SUB PUSH1 0x60 DUP4 ADD MSTORE PUSH2 0x2EEC DUP2 DUP6 PUSH2 0x1F1E JUMP JUMPDEST SWAP1 POP DUP2 DUP2 SUB PUSH1 0x80 DUP4 ADD MSTORE PUSH2 0x2F00 DUP2 DUP5 PUSH2 0x2BEC JUMP JUMPDEST SWAP1 POP SWAP7 SWAP6 POP POP POP POP POP POP JUMP INVALID LOG2 PUSH5 0x6970667358 0x22 SLT KECCAK256 0xEF GASPRICE 0x2B 0x4C PUSH8 0x91F6943A244929E8 0xC6 0x24 RETURNDATACOPY 0xF9 0xBE DUP4 0x26 LOG1 0xE6 0xAD 0xBD PUSH24 0x819F3DFEC4115B64736F6C6343000811003368747470733A 0x2F 0x2F PUSH10 0x7066732E696F2F697066 PUSH20 0x2F516D5A48455254594C5342334561547A6D7743 0x4D PC MSIZE PUSH12 0x64534E7677665A6D365A4C63 PUSH21 0x6F50374A727344486D613F66696C656E616D653D7B PUSH10 0x647D2E6A736F6E000000 "
		},
		"gasEstimates": {
			"creation": {
				"codeDepositCost": "2419600",
				"executionCost": "infinite",
				"totalCost": "infinite"
			},
			"external": {
				"balanceOf(address,uint256)": "infinite",
				"balanceOfBatch(address[],uint256[])": "infinite",
				"createEvent(uint256,uint256)": "infinite",
				"getLastEventId()": "2548",
				"isApprovedForAll(address,address)": "infinite",
				"mintGATickets(uint256,uint256)": "infinite",
				"safeBatchTransferFrom(address,address,uint256[],uint256[],bytes)": "infinite",
				"safeTransferFrom(address,address,uint256,uint256,bytes)": "infinite",
				"setApprovalForAll(address,bool)": "infinite",
				"setEventUri(string)": "infinite",
				"supportsInterface(bytes4)": "796",
				"uri(uint256)": "infinite"
			},
			"internal": {
				"generateId()": "infinite"
			}
		},
		"methodIdentifiers": {
			"balanceOf(address,uint256)": "00fdd58e",
			"balanceOfBatch(address[],uint256[])": "4e1273f4",
			"createEvent(uint256,uint256)": "790c0125",
			"getLastEventId()": "478b9a1f",
			"isApprovedForAll(address,address)": "e985e9c5",
			"mintGATickets(uint256,uint256)": "201d995a",
			"safeBatchTransferFrom(address,address,uint256[],uint256[],bytes)": "2eb2c2d6",
			"safeTransferFrom(address,address,uint256,uint256,bytes)": "f242432a",
			"setApprovalForAll(address,bool)": "a22cb465",
			"setEventUri(string)": "920a57dc",
			"supportsInterface(bytes4)": "01ffc9a7",
			"uri(uint256)": "0e89341c"
		}
	},
	"abi": [
		{
			"inputs": [],
			"stateMutability": "nonpayable",
			"type": "constructor"
		},
		{
			"anonymous": false,
			"inputs": [
				{
					"indexed": true,
					"internalType": "address",
					"name": "account",
					"type": "address"
				},
				{
					"indexed": true,
					"internalType": "address",
					"name": "operator",
					"type": "address"
				},
				{
					"indexed": false,
					"internalType": "bool",
					"name": "approved",
					"type": "bool"
				}
			],
			"name": "ApprovalForAll",
			"type": "event"
		},
		{
			"anonymous": false,
			"inputs": [
				{
					"indexed": true,
					"internalType": "address",
					"name": "operator",
					"type": "address"
				},
				{
					"indexed": true,
					"internalType": "address",
					"name": "from",
					"type": "address"
				},
				{
					"indexed": true,
					"internalType": "address",
					"name": "to",
					"type": "address"
				},
				{
					"indexed": false,
					"internalType": "uint256[]",
					"name": "ids",
					"type": "uint256[]"
				},
				{
					"indexed": false,
					"internalType": "uint256[]",
					"name": "values",
					"type": "uint256[]"
				}
			],
			"name": "TransferBatch",
			"type": "event"
		},
		{
			"anonymous": false,
			"inputs": [
				{
					"indexed": true,
					"internalType": "address",
					"name": "operator",
					"type": "address"
				},
				{
					"indexed": true,
					"internalType": "address",
					"name": "from",
					"type": "address"
				},
				{
					"indexed": true,
					"internalType": "address",
					"name": "to",
					"type": "address"
				},
				{
					"indexed": false,
					"internalType": "uint256",
					"name": "id",
					"type": "uint256"
				},
				{
					"indexed": false,
					"internalType": "uint256",
					"name": "value",
					"type": "uint256"
				}
			],
			"name": "TransferSingle",
			"type": "event"
		},
		{
			"anonymous": false,
			"inputs": [
				{
					"indexed": false,
					"internalType": "string",
					"name": "value",
					"type": "string"
				},
				{
					"indexed": true,
					"internalType": "uint256",
					"name": "id",
					"type": "uint256"
				}
			],
			"name": "URI",
			"type": "event"
		},
		{
			"inputs": [
				{
					"internalType": "address",
					"name": "account",
					"type": "address"
				},
				{
					"internalType": "uint256",
					"name": "id",
					"type": "uint256"
				}
			],
			"name": "balanceOf",
			"outputs": [
				{
					"internalType": "uint256",
					"name": "",
					"type": "uint256"
				}
			],
			"stateMutability": "view",
			"type": "function"
		},
		{
			"inputs": [
				{
					"internalType": "address[]",
					"name": "accounts",
					"type": "address[]"
				},
				{
					"internalType": "uint256[]",
					"name": "ids",
					"type": "uint256[]"
				}
			],
			"name": "balanceOfBatch",
			"outputs": [
				{
					"internalType": "uint256[]",
					"name": "",
					"type": "uint256[]"
				}
			],
			"stateMutability": "view",
			"type": "function"
		},
		{
			"inputs": [
				{
					"internalType": "uint256",
					"name": "ga_ticket_amount",
					"type": "uint256"
				},
				{
					"internalType": "uint256",
					"name": "ga_ticket_price",
					"type": "uint256"
				}
			],
			"name": "createEvent",
			"outputs": [
				{
					"internalType": "uint256",
					"name": "",
					"type": "uint256"
				}
			],
			"stateMutability": "nonpayable",
			"type": "function"
		},
		{
			"inputs": [],
			"name": "getLastEventId",
			"outputs": [
				{
					"internalType": "uint256",
					"name": "",
					"type": "uint256"
				}
			],
			"stateMutability": "view",
			"type": "function"
		},
		{
			"inputs": [
				{
					"internalType": "address",
					"name": "account",
					"type": "address"
				},
				{
					"internalType": "address",
					"name": "operator",
					"type": "address"
				}
			],
			"name": "isApprovedForAll",
			"outputs": [
				{
					"internalType": "bool",
					"name": "",
					"type": "bool"
				}
			],
			"stateMutability": "view",
			"type": "function"
		},
		{
			"inputs": [
				{
					"internalType": "uint256",
					"name": "eventId",
					"type": "uint256"
				},
				{
					"internalType": "uint256",
					"name": "amount",
					"type": "uint256"
				}
			],
			"name": "mintGATickets",
			"outputs": [],
			"stateMutability": "payable",
			"type": "function"
		},
		{
			"inputs": [
				{
					"internalType": "address",
					"name": "from",
					"type": "address"
				},
				{
					"internalType": "address",
					"name": "to",
					"type": "address"
				},
				{
					"internalType": "uint256[]",
					"name": "ids",
					"type": "uint256[]"
				},
				{
					"internalType": "uint256[]",
					"name": "amounts",
					"type": "uint256[]"
				},
				{
					"internalType": "bytes",
					"name": "data",
					"type": "bytes"
				}
			],
			"name": "safeBatchTransferFrom",
			"outputs": [],
			"stateMutability": "nonpayable",
			"type": "function"
		},
		{
			"inputs": [
				{
					"internalType": "address",
					"name": "from",
					"type": "address"
				},
				{
					"internalType": "address",
					"name": "to",
					"type": "address"
				},
				{
					"internalType": "uint256",
					"name": "id",
					"type": "uint256"
				},
				{
					"internalType": "uint256",
					"name": "amount",
					"type": "uint256"
				},
				{
					"internalType": "bytes",
					"name": "data",
					"type": "bytes"
				}
			],
			"name": "safeTransferFrom",
			"outputs": [],
			"stateMutability": "nonpayable",
			"type": "function"
		},
		{
			"inputs": [
				{
					"internalType": "address",
					"name": "operator",
					"type": "address"
				},
				{
					"internalType": "bool",
					"name": "approved",
					"type": "bool"
				}
			],
			"name": "setApprovalForAll",
			"outputs": [],
			"stateMutability": "nonpayable",
			"type": "function"
		},
		{
			"inputs": [
				{
					"internalType": "string",
					"name": "eventURI",
					"type": "string"
				}
			],
			"name": "setEventUri",
			"outputs": [],
			"stateMutability": "nonpayable",
			"type": "function"
		},
		{
			"inputs": [
				{
					"internalType": "bytes4",
					"name": "interfaceId",
					"type": "bytes4"
				}
			],
			"name": "supportsInterface",
			"outputs": [
				{
					"internalType": "bool",
					"name": "",
					"type": "bool"
				}
			],
			"stateMutability": "view",
			"type": "function"
		},
		{
			"inputs": [
				{
					"internalType": "uint256",
					"name": "",
					"type": "uint256"
				}
			],
			"name": "uri",
			"outputs": [
				{
					"internalType": "string",
					"name": "",
					"type": "string"
				}
			],
			"stateMutability": "view",
			"type": "function"
		}
	]
}