{
  "_format": "hh-sol-artifact-1",
  "contractName": "NFTicket",
  "sourceName": "contracts/NFTicket.sol",
  "abi": [
    {
      "inputs": [],
      "stateMutability": "nonpayable",
      "type": "constructor"
    },
    {
      "anonymous": false,
      "inputs": [
        {
          "indexed": true,
          "internalType": "address",
          "name": "account",
          "type": "address"
        },
        {
          "indexed": true,
          "internalType": "address",
          "name": "operator",
          "type": "address"
        },
        {
          "indexed": false,
          "internalType": "bool",
          "name": "approved",
          "type": "bool"
        }
      ],
      "name": "ApprovalForAll",
      "type": "event"
    },
    {
      "anonymous": false,
      "inputs": [
        {
          "indexed": true,
          "internalType": "address",
          "name": "operator",
          "type": "address"
        },
        {
          "indexed": true,
          "internalType": "address",
          "name": "from",
          "type": "address"
        },
        {
          "indexed": true,
          "internalType": "address",
          "name": "to",
          "type": "address"
        },
        {
          "indexed": false,
          "internalType": "uint256[]",
          "name": "ids",
          "type": "uint256[]"
        },
        {
          "indexed": false,
          "internalType": "uint256[]",
          "name": "values",
          "type": "uint256[]"
        }
      ],
      "name": "TransferBatch",
      "type": "event"
    },
    {
      "anonymous": false,
      "inputs": [
        {
          "indexed": true,
          "internalType": "address",
          "name": "operator",
          "type": "address"
        },
        {
          "indexed": true,
          "internalType": "address",
          "name": "from",
          "type": "address"
        },
        {
          "indexed": true,
          "internalType": "address",
          "name": "to",
          "type": "address"
        },
        {
          "indexed": false,
          "internalType": "uint256",
          "name": "id",
          "type": "uint256"
        },
        {
          "indexed": false,
          "internalType": "uint256",
          "name": "value",
          "type": "uint256"
        }
      ],
      "name": "TransferSingle",
      "type": "event"
    },
    {
      "anonymous": false,
      "inputs": [
        {
          "indexed": false,
          "internalType": "string",
          "name": "value",
          "type": "string"
        },
        {
          "indexed": true,
          "internalType": "uint256",
          "name": "id",
          "type": "uint256"
        }
      ],
      "name": "URI",
      "type": "event"
    },
    {
      "inputs": [
        {
          "internalType": "address",
          "name": "account",
          "type": "address"
        },
        {
          "internalType": "uint256",
          "name": "id",
          "type": "uint256"
        }
      ],
      "name": "balanceOf",
      "outputs": [
        {
          "internalType": "uint256",
          "name": "",
          "type": "uint256"
        }
      ],
      "stateMutability": "view",
      "type": "function"
    },
    {
      "inputs": [
        {
          "internalType": "address[]",
          "name": "accounts",
          "type": "address[]"
        },
        {
          "internalType": "uint256[]",
          "name": "ids",
          "type": "uint256[]"
        }
      ],
      "name": "balanceOfBatch",
      "outputs": [
        {
          "internalType": "uint256[]",
          "name": "",
          "type": "uint256[]"
        }
      ],
      "stateMutability": "view",
      "type": "function"
    },
    {
      "inputs": [
        {
          "internalType": "uint256",
          "name": "ga_ticket_amount",
          "type": "uint256"
        },
        {
          "internalType": "uint256",
          "name": "ga_ticket_price",
          "type": "uint256"
        }
      ],
      "name": "createEvent",
      "outputs": [
        {
          "internalType": "uint256",
          "name": "",
          "type": "uint256"
        }
      ],
      "stateMutability": "nonpayable",
      "type": "function"
    },
    {
      "inputs": [
        {
          "internalType": "address",
          "name": "account",
          "type": "address"
        },
        {
          "internalType": "address",
          "name": "operator",
          "type": "address"
        }
      ],
      "name": "isApprovedForAll",
      "outputs": [
        {
          "internalType": "bool",
          "name": "",
          "type": "bool"
        }
      ],
      "stateMutability": "view",
      "type": "function"
    },
    {
      "inputs": [
        {
          "internalType": "uint256",
          "name": "eventId",
          "type": "uint256"
        },
        {
          "internalType": "uint256",
          "name": "amount",
          "type": "uint256"
        }
      ],
      "name": "mintGATickets",
      "outputs": [],
      "stateMutability": "payable",
      "type": "function"
    },
    {
      "inputs": [
        {
          "internalType": "address",
          "name": "from",
          "type": "address"
        },
        {
          "internalType": "address",
          "name": "to",
          "type": "address"
        },
        {
          "internalType": "uint256[]",
          "name": "ids",
          "type": "uint256[]"
        },
        {
          "internalType": "uint256[]",
          "name": "amounts",
          "type": "uint256[]"
        },
        {
          "internalType": "bytes",
          "name": "data",
          "type": "bytes"
        }
      ],
      "name": "safeBatchTransferFrom",
      "outputs": [],
      "stateMutability": "nonpayable",
      "type": "function"
    },
    {
      "inputs": [
        {
          "internalType": "address",
          "name": "from",
          "type": "address"
        },
        {
          "internalType": "address",
          "name": "to",
          "type": "address"
        },
        {
          "internalType": "uint256",
          "name": "id",
          "type": "uint256"
        },
        {
          "internalType": "uint256",
          "name": "amount",
          "type": "uint256"
        },
        {
          "internalType": "bytes",
          "name": "data",
          "type": "bytes"
        }
      ],
      "name": "safeTransferFrom",
      "outputs": [],
      "stateMutability": "nonpayable",
      "type": "function"
    },
    {
      "inputs": [
        {
          "internalType": "address",
          "name": "operator",
          "type": "address"
        },
        {
          "internalType": "bool",
          "name": "approved",
          "type": "bool"
        }
      ],
      "name": "setApprovalForAll",
      "outputs": [],
      "stateMutability": "nonpayable",
      "type": "function"
    },
    {
      "inputs": [
        {
          "internalType": "string",
          "name": "eventURI",
          "type": "string"
        }
      ],
      "name": "setEventUri",
      "outputs": [],
      "stateMutability": "nonpayable",
      "type": "function"
    },
    {
      "inputs": [
        {
          "internalType": "bytes4",
          "name": "interfaceId",
          "type": "bytes4"
        }
      ],
      "name": "supportsInterface",
      "outputs": [
        {
          "internalType": "bool",
          "name": "",
          "type": "bool"
        }
      ],
      "stateMutability": "view",
      "type": "function"
    },
    {
      "inputs": [
        {
          "internalType": "uint256",
          "name": "",
          "type": "uint256"
        }
      ],
      "name": "uri",
      "outputs": [
        {
          "internalType": "string",
          "name": "",
          "type": "string"
        }
      ],
      "stateMutability": "view",
      "type": "function"
    }
  ],
  "bytecode": "0x608060405260006003553480156200001657600080fd5b50604051806080016040528060568152602001620032d16056913962000042816200004960201b60201c565b50620003bf565b80600290816200005a9190620002d8565b5050565b600081519050919050565b7f4e487b7100000000000000000000000000000000000000000000000000000000600052604160045260246000fd5b7f4e487b7100000000000000000000000000000000000000000000000000000000600052602260045260246000fd5b60006002820490506001821680620000e057607f821691505b602082108103620000f657620000f562000098565b5b50919050565b60008190508160005260206000209050919050565b60006020601f8301049050919050565b600082821b905092915050565b600060088302620001607fffffffffffffffffffffffffffffffffffffffffffffffffffffffffffffffff8262000121565b6200016c868362000121565b95508019841693508086168417925050509392505050565b6000819050919050565b6000819050919050565b6000620001b9620001b3620001ad8462000184565b6200018e565b62000184565b9050919050565b6000819050919050565b620001d58362000198565b620001ed620001e482620001c0565b8484546200012e565b825550505050565b600090565b62000204620001f5565b62000211818484620001ca565b505050565b5b8181101562000239576200022d600082620001fa565b60018101905062000217565b5050565b601f82111562000288576200025281620000fc565b6200025d8462000111565b810160208510156200026d578190505b620002856200027c8562000111565b83018262000216565b50505b505050565b600082821c905092915050565b6000620002ad600019846008026200028d565b1980831691505092915050565b6000620002c883836200029a565b9150826002028217905092915050565b620002e3826200005e565b67ffffffffffffffff811115620002ff57620002fe62000069565b5b6200030b8254620000c7565b620003188282856200023d565b600060209050601f8311600181146200035057600084156200033b578287015190505b620003478582620002ba565b865550620003b7565b601f1984166200036086620000fc565b60005b828110156200038a5784890151825560018201915060208501945060208101905062000363565b86831015620003aa5784890151620003a6601f8916826200029a565b8355505b6001600288020188555050505b505050505050565b612f0280620003cf6000396000f3fe60806040526004361061009b5760003560e01c80634e1273f4116100645780634e1273f41461019c578063790c0125146101d9578063920a57dc14610216578063a22cb4651461023f578063e985e9c514610268578063f242432a146102a55761009b565b8062fdd58e146100a057806301ffc9a7146100dd5780630e89341c1461011a578063201d995a146101575780632eb2c2d614610173575b600080fd5b3480156100ac57600080fd5b506100c760048036038101906100c29190611833565b6102ce565b6040516100d49190611882565b60405180910390f35b3480156100e957600080fd5b5061010460048036038101906100ff91906118f5565b610396565b604051610111919061193d565b60405180910390f35b34801561012657600080fd5b50610141600480360381019061013c9190611958565b610478565b60405161014e9190611a15565b60405180910390f35b610171600480360381019061016c9190611a37565b61050c565b005b34801561017f57600080fd5b5061019a60048036038101906101959190611c74565b610643565b005b3480156101a857600080fd5b506101c360048036038101906101be9190611e06565b6106e4565b6040516101d09190611f3c565b60405180910390f35b3480156101e557600080fd5b5061020060048036038101906101fb9190611a37565b6107fd565b60405161020d9190611882565b60405180910390f35b34801561022257600080fd5b5061023d60048036038101906102389190611fff565b61085a565b005b34801561024b57600080fd5b5061026660048036038101906102619190612074565b610866565b005b34801561027457600080fd5b5061028f600480360381019061028a91906120b4565b61087c565b60405161029c919061193d565b60405180910390f35b3480156102b157600080fd5b506102cc60048036038101906102c791906120f4565b610910565b005b60008073ffffffffffffffffffffffffffffffffffffffff168373ffffffffffffffffffffffffffffffffffffffff160361033e576040517f08c379a0000000000000000000000000000000000000000000000000000000008152600401610335906121fd565b60405180910390fd5b60008083815260200190815260200160002060008473ffffffffffffffffffffffffffffffffffffffff1673ffffffffffffffffffffffffffffffffffffffff16815260200190815260200160002054905092915050565b60007fd9b67a26000000000000000000000000000000000000000000000000000000007bffffffffffffffffffffffffffffffffffffffffffffffffffffffff1916827bffffffffffffffffffffffffffffffffffffffffffffffffffffffff1916148061046157507f0e89341c000000000000000000000000000000000000000000000000000000007bffffffffffffffffffffffffffffffffffffffffffffffffffffffff1916827bffffffffffffffffffffffffffffffffffffffffffffffffffffffff1916145b806104715750610470826109b1565b5b9050919050565b6060600280546104879061224c565b80601f01602080910402602001604051908101604052809291908181526020018280546104b39061224c565b80156105005780601f106104d557610100808354040283529160200191610500565b820191906000526020600020905b8154815290600101906020018083116104e357829003601f168201915b50505050509050919050565b80600583815481106105215761052061227d565b5b906000526020600020015461053691906122db565b3414610577576040517f08c379a000000000000000000000000000000000000000000000000000000000815260040161056e90612369565b60405180910390fd5b806004838154811061058c5761058b61227d565b5b906000526020600020015410156105d8576040517f08c379a00000000000000000000000000000000000000000000000000000000081526004016105cf906123d5565b60405180910390fd5b6105f333838360405180602001604052806000815250610a1b565b80600483815481106106085761060761227d565b5b906000526020600020015461061d91906123f5565b600483815481106106315761063061227d565b5b90600052602060002001819055505050565b61064b610bcb565b73ffffffffffffffffffffffffffffffffffffffff168573ffffffffffffffffffffffffffffffffffffffff16148061069157506106908561068b610bcb565b61087c565b5b6106d0576040517f08c379a00000000000000000000000000000000000000000000000000000000081526004016106c79061249b565b60405180910390fd5b6106dd8585858585610bd3565b5050505050565b6060815183511461072a576040517f08c379a00000000000000000000000000000000000000000000000000000000081526004016107219061252d565b60405180910390fd5b6000835167ffffffffffffffff81111561074757610746611a7c565b5b6040519080825280602002602001820160405280156107755781602001602082028036833780820191505090505b50905060005b84518110156107f2576107c285828151811061079a5761079961227d565b5b60200260200101518583815181106107b5576107b461227d565b5b60200260200101516102ce565b8282815181106107d5576107d461227d565b5b602002602001018181525050806107eb9061254d565b905061077b565b508091505092915050565b600080610808610ef4565b9050836004828154811061081f5761081e61227d565b5b906000526020600020018190555082600582815481106108425761084161227d565b5b90600052602060002001819055508091505092915050565b61086381610f16565b50565b610878610871610bcb565b8383610f29565b5050565b6000600160008473ffffffffffffffffffffffffffffffffffffffff1673ffffffffffffffffffffffffffffffffffffffff16815260200190815260200160002060008373ffffffffffffffffffffffffffffffffffffffff1673ffffffffffffffffffffffffffffffffffffffff16815260200190815260200160002060009054906101000a900460ff16905092915050565b610918610bcb565b73ffffffffffffffffffffffffffffffffffffffff168573ffffffffffffffffffffffffffffffffffffffff16148061095e575061095d85610958610bcb565b61087c565b5b61099d576040517f08c379a00000000000000000000000000000000000000000000000000000000081526004016109949061249b565b60405180910390fd5b6109aa8585858585611095565b5050505050565b60007f01ffc9a7000000000000000000000000000000000000000000000000000000007bffffffffffffffffffffffffffffffffffffffffffffffffffffffff1916827bffffffffffffffffffffffffffffffffffffffffffffffffffffffff1916149050919050565b600073ffffffffffffffffffffffffffffffffffffffff168473ffffffffffffffffffffffffffffffffffffffff1603610a8a576040517f08c379a0000000000000000000000000000000000000000000000000000000008152600401610a8190612607565b60405180910390fd5b6000610a94610bcb565b90506000610aa185611330565b90506000610aae85611330565b9050610abf836000898585896113aa565b8460008088815260200190815260200160002060008973ffffffffffffffffffffffffffffffffffffffff1673ffffffffffffffffffffffffffffffffffffffff1681526020019081526020016000206000828254610b1e9190612627565b925050819055508673ffffffffffffffffffffffffffffffffffffffff16600073ffffffffffffffffffffffffffffffffffffffff168473ffffffffffffffffffffffffffffffffffffffff167fc3d58168c5ae7397731d063d5bbf3d657854427343f4c083240f7aacaa2d0f628989604051610b9c92919061265b565b60405180910390a4610bb3836000898585896113b2565b610bc2836000898989896113ba565b50505050505050565b600033905090565b8151835114610c17576040517f08c379a0000000000000000000000000000000000000000000000000000000008152600401610c0e906126f6565b60405180910390fd5b600073ffffffffffffffffffffffffffffffffffffffff168473ffffffffffffffffffffffffffffffffffffffff1603610c86576040517f08c379a0000000000000000000000000000000000000000000000000000000008152600401610c7d90612788565b60405180910390fd5b6000610c90610bcb565b9050610ca08187878787876113aa565b60005b8451811015610e51576000858281518110610cc157610cc061227d565b5b602002602001015190506000858381518110610ce057610cdf61227d565b5b60200260200101519050600080600084815260200190815260200160002060008b73ffffffffffffffffffffffffffffffffffffffff1673ffffffffffffffffffffffffffffffffffffffff16815260200190815260200160002054905081811015610d81576040517f08c379a0000000000000000000000000000000000000000000000000000000008152600401610d789061281a565b60405180910390fd5b81810360008085815260200190815260200160002060008c73ffffffffffffffffffffffffffffffffffffffff1673ffffffffffffffffffffffffffffffffffffffff168152602001908152602001600020819055508160008085815260200190815260200160002060008b73ffffffffffffffffffffffffffffffffffffffff1673ffffffffffffffffffffffffffffffffffffffff1681526020019081526020016000206000828254610e369190612627565b9250508190555050505080610e4a9061254d565b9050610ca3565b508473ffffffffffffffffffffffffffffffffffffffff168673ffffffffffffffffffffffffffffffffffffffff168273ffffffffffffffffffffffffffffffffffffffff167f4a39dc06d4c0dbc64b70af90fd698a233a518aa5d07e595d983b8c0526c8f7fb8787604051610ec892919061283a565b60405180910390a4610ede8187878787876113b2565b610eec818787878787611591565b505050505050565b6000806001600354610f069190612627565b9050806003819055508091505090565b8060029081610f259190612a1d565b5050565b8173ffffffffffffffffffffffffffffffffffffffff168373ffffffffffffffffffffffffffffffffffffffff1603610f97576040517f08c379a0000000000000000000000000000000000000000000000000000000008152600401610f8e90612b61565b60405180910390fd5b80600160008573ffffffffffffffffffffffffffffffffffffffff1673ffffffffffffffffffffffffffffffffffffffff16815260200190815260200160002060008473ffffffffffffffffffffffffffffffffffffffff1673ffffffffffffffffffffffffffffffffffffffff16815260200190815260200160002060006101000a81548160ff0219169083151502179055508173ffffffffffffffffffffffffffffffffffffffff168373ffffffffffffffffffffffffffffffffffffffff167f17307eab39ab6107e8899845ad3d59bd9653f200f220920489ca2b5937696c3183604051611088919061193d565b60405180910390a3505050565b600073ffffffffffffffffffffffffffffffffffffffff168473ffffffffffffffffffffffffffffffffffffffff1603611104576040517f08c379a00000000000000000000000000000000000000000000000000000000081526004016110fb90612788565b60405180910390fd5b600061110e610bcb565b9050600061111b85611330565b9050600061112885611330565b90506111388389898585896113aa565b600080600088815260200190815260200160002060008a73ffffffffffffffffffffffffffffffffffffffff1673ffffffffffffffffffffffffffffffffffffffff168152602001908152602001600020549050858110156111cf576040517f08c379a00000000000000000000000000000000000000000000000000000000081526004016111c69061281a565b60405180910390fd5b85810360008089815260200190815260200160002060008b73ffffffffffffffffffffffffffffffffffffffff1673ffffffffffffffffffffffffffffffffffffffff168152602001908152602001600020819055508560008089815260200190815260200160002060008a73ffffffffffffffffffffffffffffffffffffffff1673ffffffffffffffffffffffffffffffffffffffff16815260200190815260200160002060008282546112849190612627565b925050819055508773ffffffffffffffffffffffffffffffffffffffff168973ffffffffffffffffffffffffffffffffffffffff168573ffffffffffffffffffffffffffffffffffffffff167fc3d58168c5ae7397731d063d5bbf3d657854427343f4c083240f7aacaa2d0f628a8a60405161130192919061265b565b60405180910390a4611317848a8a86868a6113b2565b611325848a8a8a8a8a6113ba565b505050505050505050565b60606000600167ffffffffffffffff81111561134f5761134e611a7c565b5b60405190808252806020026020018201604052801561137d5781602001602082028036833780820191505090505b50905082816000815181106113955761139461227d565b5b60200260200101818152505080915050919050565b505050505050565b505050505050565b6113d98473ffffffffffffffffffffffffffffffffffffffff16611768565b15611589578373ffffffffffffffffffffffffffffffffffffffff1663f23a6e6187878686866040518663ffffffff1660e01b815260040161141f959493929190612be5565b6020604051808303816000875af192505050801561145b57506040513d601f19601f820116820180604052508101906114589190612c54565b60015b61150057611467612c8e565b806308c379a0036114c3575061147b612cb0565b8061148657506114c5565b806040517f08c379a00000000000000000000000000000000000000000000000000000000081526004016114ba9190611a15565b60405180910390fd5b505b6040517f08c379a00000000000000000000000000000000000000000000000000000000081526004016114f790612db2565b60405180910390fd5b63f23a6e6160e01b7bffffffffffffffffffffffffffffffffffffffffffffffffffffffff1916817bffffffffffffffffffffffffffffffffffffffffffffffffffffffff191614611587576040517f08c379a000000000000000000000000000000000000000000000000000000000815260040161157e90612e44565b60405180910390fd5b505b505050505050565b6115b08473ffffffffffffffffffffffffffffffffffffffff16611768565b15611760578373ffffffffffffffffffffffffffffffffffffffff1663bc197c8187878686866040518663ffffffff1660e01b81526004016115f6959493929190612e64565b6020604051808303816000875af192505050801561163257506040513d601f19601f8201168201806040525081019061162f9190612c54565b60015b6116d75761163e612c8e565b806308c379a00361169a5750611652612cb0565b8061165d575061169c565b806040517f08c379a00000000000000000000000000000000000000000000000000000000081526004016116919190611a15565b60405180910390fd5b505b6040517f08c379a00000000000000000000000000000000000000000000000000000000081526004016116ce90612db2565b60405180910390fd5b63bc197c8160e01b7bffffffffffffffffffffffffffffffffffffffffffffffffffffffff1916817bffffffffffffffffffffffffffffffffffffffffffffffffffffffff19161461175e576040517f08c379a000000000000000000000000000000000000000000000000000000000815260040161175590612e44565b60405180910390fd5b505b505050505050565b6000808273ffffffffffffffffffffffffffffffffffffffff163b119050919050565b6000604051905090565b600080fd5b600080fd5b600073ffffffffffffffffffffffffffffffffffffffff82169050919050565b60006117ca8261179f565b9050919050565b6117da816117bf565b81146117e557600080fd5b50565b6000813590506117f7816117d1565b92915050565b6000819050919050565b611810816117fd565b811461181b57600080fd5b50565b60008135905061182d81611807565b92915050565b6000806040838503121561184a57611849611795565b5b6000611858858286016117e8565b92505060206118698582860161181e565b9150509250929050565b61187c816117fd565b82525050565b60006020820190506118976000830184611873565b92915050565b60007fffffffff0000000000000000000000000000000000000000000000000000000082169050919050565b6118d28161189d565b81146118dd57600080fd5b50565b6000813590506118ef816118c9565b92915050565b60006020828403121561190b5761190a611795565b5b6000611919848285016118e0565b91505092915050565b60008115159050919050565b61193781611922565b82525050565b6000602082019050611952600083018461192e565b92915050565b60006020828403121561196e5761196d611795565b5b600061197c8482850161181e565b91505092915050565b600081519050919050565b600082825260208201905092915050565b60005b838110156119bf5780820151818401526020810190506119a4565b60008484015250505050565b6000601f19601f8301169050919050565b60006119e782611985565b6119f18185611990565b9350611a018185602086016119a1565b611a0a816119cb565b840191505092915050565b60006020820190508181036000830152611a2f81846119dc565b905092915050565b60008060408385031215611a4e57611a4d611795565b5b6000611a5c8582860161181e565b9250506020611a6d8582860161181e565b9150509250929050565b600080fd5b7f4e487b7100000000000000000000000000000000000000000000000000000000600052604160045260246000fd5b611ab4826119cb565b810181811067ffffffffffffffff82111715611ad357611ad2611a7c565b5b80604052505050565b6000611ae661178b565b9050611af28282611aab565b919050565b600067ffffffffffffffff821115611b1257611b11611a7c565b5b602082029050602081019050919050565b600080fd5b6000611b3b611b3684611af7565b611adc565b90508083825260208201905060208402830185811115611b5e57611b5d611b23565b5b835b81811015611b875780611b73888261181e565b845260208401935050602081019050611b60565b5050509392505050565b600082601f830112611ba657611ba5611a77565b5b8135611bb6848260208601611b28565b91505092915050565b600080fd5b600067ffffffffffffffff821115611bdf57611bde611a7c565b5b611be8826119cb565b9050602081019050919050565b82818337600083830152505050565b6000611c17611c1284611bc4565b611adc565b905082815260208101848484011115611c3357611c32611bbf565b5b611c3e848285611bf5565b509392505050565b600082601f830112611c5b57611c5a611a77565b5b8135611c6b848260208601611c04565b91505092915050565b600080600080600060a08688031215611c9057611c8f611795565b5b6000611c9e888289016117e8565b9550506020611caf888289016117e8565b945050604086013567ffffffffffffffff811115611cd057611ccf61179a565b5b611cdc88828901611b91565b935050606086013567ffffffffffffffff811115611cfd57611cfc61179a565b5b611d0988828901611b91565b925050608086013567ffffffffffffffff811115611d2a57611d2961179a565b5b611d3688828901611c46565b9150509295509295909350565b600067ffffffffffffffff821115611d5e57611d5d611a7c565b5b602082029050602081019050919050565b6000611d82611d7d84611d43565b611adc565b90508083825260208201905060208402830185811115611da557611da4611b23565b5b835b81811015611dce5780611dba88826117e8565b845260208401935050602081019050611da7565b5050509392505050565b600082601f830112611ded57611dec611a77565b5b8135611dfd848260208601611d6f565b91505092915050565b60008060408385031215611e1d57611e1c611795565b5b600083013567ffffffffffffffff811115611e3b57611e3a61179a565b5b611e4785828601611dd8565b925050602083013567ffffffffffffffff811115611e6857611e6761179a565b5b611e7485828601611b91565b9150509250929050565b600081519050919050565b600082825260208201905092915050565b6000819050602082019050919050565b611eb3816117fd565b82525050565b6000611ec58383611eaa565b60208301905092915050565b6000602082019050919050565b6000611ee982611e7e565b611ef38185611e89565b9350611efe83611e9a565b8060005b83811015611f2f578151611f168882611eb9565b9750611f2183611ed1565b925050600181019050611f02565b5085935050505092915050565b60006020820190508181036000830152611f568184611ede565b905092915050565b600067ffffffffffffffff821115611f7957611f78611a7c565b5b611f82826119cb565b9050602081019050919050565b6000611fa2611f9d84611f5e565b611adc565b905082815260208101848484011115611fbe57611fbd611bbf565b5b611fc9848285611bf5565b509392505050565b600082601f830112611fe657611fe5611a77565b5b8135611ff6848260208601611f8f565b91505092915050565b60006020828403121561201557612014611795565b5b600082013567ffffffffffffffff8111156120335761203261179a565b5b61203f84828501611fd1565b91505092915050565b61205181611922565b811461205c57600080fd5b50565b60008135905061206e81612048565b92915050565b6000806040838503121561208b5761208a611795565b5b6000612099858286016117e8565b92505060206120aa8582860161205f565b9150509250929050565b600080604083850312156120cb576120ca611795565b5b60006120d9858286016117e8565b92505060206120ea858286016117e8565b9150509250929050565b600080600080600060a086880312156121105761210f611795565b5b600061211e888289016117e8565b955050602061212f888289016117e8565b94505060406121408882890161181e565b93505060606121518882890161181e565b925050608086013567ffffffffffffffff8111156121725761217161179a565b5b61217e88828901611c46565b9150509295509295909350565b7f455243313135353a2061646472657373207a65726f206973206e6f742061207660008201527f616c6964206f776e657200000000000000000000000000000000000000000000602082015250565b60006121e7602a83611990565b91506121f28261218b565b604082019050919050565b60006020820190508181036000830152612216816121da565b9050919050565b7f4e487b7100000000000000000000000000000000000000000000000000000000600052602260045260246000fd5b6000600282049050600182168061226457607f821691505b6020821081036122775761227661221d565b5b50919050565b7f4e487b7100000000000000000000000000000000000000000000000000000000600052603260045260246000fd5b7f4e487b7100000000000000000000000000000000000000000000000000000000600052601160045260246000fd5b60006122e6826117fd565b91506122f1836117fd565b92508282026122ff816117fd565b91508282048414831517612316576123156122ac565b5b5092915050565b7f496e636f727265637420416d6f756e74206f6620455448000000000000000000600082015250565b6000612353601783611990565b915061235e8261231d565b602082019050919050565b6000602082019050818103600083015261238281612346565b9050919050565b7f496e73756666696369656e74207469636b6574732072656d61696e696e670000600082015250565b60006123bf601e83611990565b91506123ca82612389565b602082019050919050565b600060208201905081810360008301526123ee816123b2565b9050919050565b6000612400826117fd565b915061240b836117fd565b9250828203905081811115612423576124226122ac565b5b92915050565b7f455243313135353a2063616c6c6572206973206e6f7420746f6b656e206f776e60008201527f6572206f7220617070726f766564000000000000000000000000000000000000602082015250565b6000612485602e83611990565b915061249082612429565b604082019050919050565b600060208201905081810360008301526124b481612478565b9050919050565b7f455243313135353a206163636f756e747320616e6420696473206c656e67746860008201527f206d69736d617463680000000000000000000000000000000000000000000000602082015250565b6000612517602983611990565b9150612522826124bb565b604082019050919050565b600060208201905081810360008301526125468161250a565b9050919050565b6000612558826117fd565b91507fffffffffffffffffffffffffffffffffffffffffffffffffffffffffffffffff820361258a576125896122ac565b5b600182019050919050565b7f455243313135353a206d696e7420746f20746865207a65726f2061646472657360008201527f7300000000000000000000000000000000000000000000000000000000000000602082015250565b60006125f1602183611990565b91506125fc82612595565b604082019050919050565b60006020820190508181036000830152612620816125e4565b9050919050565b6000612632826117fd565b915061263d836117fd565b9250828201905080821115612655576126546122ac565b5b92915050565b60006040820190506126706000830185611873565b61267d6020830184611873565b9392505050565b7f455243313135353a2069647320616e6420616d6f756e7473206c656e6774682060008201527f6d69736d61746368000000000000000000000000000000000000000000000000602082015250565b60006126e0602883611990565b91506126eb82612684565b604082019050919050565b6000602082019050818103600083015261270f816126d3565b9050919050565b7f455243313135353a207472616e7366657220746f20746865207a65726f20616460008201527f6472657373000000000000000000000000000000000000000000000000000000602082015250565b6000612772602583611990565b915061277d82612716565b604082019050919050565b600060208201905081810360008301526127a181612765565b9050919050565b7f455243313135353a20696e73756666696369656e742062616c616e636520666f60008201527f72207472616e7366657200000000000000000000000000000000000000000000602082015250565b6000612804602a83611990565b915061280f826127a8565b604082019050919050565b60006020820190508181036000830152612833816127f7565b9050919050565b600060408201905081810360008301526128548185611ede565b905081810360208301526128688184611ede565b90509392505050565b60008190508160005260206000209050919050565b60006020601f8301049050919050565b600082821b905092915050565b6000600883026128d37fffffffffffffffffffffffffffffffffffffffffffffffffffffffffffffffff82612896565b6128dd8683612896565b95508019841693508086168417925050509392505050565b6000819050919050565b600061291a612915612910846117fd565b6128f5565b6117fd565b9050919050565b6000819050919050565b612934836128ff565b61294861294082612921565b8484546128a3565b825550505050565b600090565b61295d612950565b61296881848461292b565b505050565b5b8181101561298c57612981600082612955565b60018101905061296e565b5050565b601f8211156129d1576129a281612871565b6129ab84612886565b810160208510156129ba578190505b6129ce6129c685612886565b83018261296d565b50505b505050565b600082821c905092915050565b60006129f4600019846008026129d6565b1980831691505092915050565b6000612a0d83836129e3565b9150826002028217905092915050565b612a2682611985565b67ffffffffffffffff811115612a3f57612a3e611a7c565b5b612a49825461224c565b612a54828285612990565b600060209050601f831160018114612a875760008415612a75578287015190505b612a7f8582612a01565b865550612ae7565b601f198416612a9586612871565b60005b82811015612abd57848901518255600182019150602085019450602081019050612a98565b86831015612ada5784890151612ad6601f8916826129e3565b8355505b6001600288020188555050505b505050505050565b7f455243313135353a2073657474696e6720617070726f76616c2073746174757360008201527f20666f722073656c660000000000000000000000000000000000000000000000602082015250565b6000612b4b602983611990565b9150612b5682612aef565b604082019050919050565b60006020820190508181036000830152612b7a81612b3e565b9050919050565b612b8a816117bf565b82525050565b600081519050919050565b600082825260208201905092915050565b6000612bb782612b90565b612bc18185612b9b565b9350612bd18185602086016119a1565b612bda816119cb565b840191505092915050565b600060a082019050612bfa6000830188612b81565b612c076020830187612b81565b612c146040830186611873565b612c216060830185611873565b8181036080830152612c338184612bac565b90509695505050505050565b600081519050612c4e816118c9565b92915050565b600060208284031215612c6a57612c69611795565b5b6000612c7884828501612c3f565b91505092915050565b60008160e01c9050919050565b600060033d1115612cad5760046000803e612caa600051612c81565b90505b90565b600060443d10612d3d57612cc261178b565b60043d036004823e80513d602482011167ffffffffffffffff82111715612cea575050612d3d565b808201805167ffffffffffffffff811115612d085750505050612d3d565b80602083010160043d038501811115612d25575050505050612d3d565b612d3482602001850186611aab565b82955050505050505b90565b7f455243313135353a207472616e7366657220746f206e6f6e2d4552433131353560008201527f526563656976657220696d706c656d656e746572000000000000000000000000602082015250565b6000612d9c603483611990565b9150612da782612d40565b604082019050919050565b60006020820190508181036000830152612dcb81612d8f565b9050919050565b7f455243313135353a204552433131353552656365697665722072656a6563746560008201527f6420746f6b656e73000000000000000000000000000000000000000000000000602082015250565b6000612e2e602883611990565b9150612e3982612dd2565b604082019050919050565b60006020820190508181036000830152612e5d81612e21565b9050919050565b600060a082019050612e796000830188612b81565b612e866020830187612b81565b8181036040830152612e988186611ede565b90508181036060830152612eac8185611ede565b90508181036080830152612ec08184612bac565b9050969550505050505056fea26469706673582212209b5e90541c63357609a87e45dd4aee7574fce65ffc93c78826a731298271acf164736f6c6343000811003368747470733a2f2f697066732e696f2f697066732f516d5a48455254594c5342334561547a6d77434d58596b64534e7677665a6d365a4c63746f50374a727344486d613f66696c656e616d653d7b69647d2e6a736f6e",
  "linkReferences": {},
  "deployedLinkReferences": {}
}